S0180000746F7765725F626F6F746C6F616465722E7372656351
S1130000A827FF1F11040000EB0400003D45000079
S11300103F45000041450000434500002C06000018
S1130020000000000000000000000000EB040000DD
S1130030EB04000000000000EB040000EB040000EF
S1130040278E0000278E0000278E0000278E0000D8
S1130050278E0000278E0000278E0000278E0000C8
S1130060278E0000278E0000278E0000278E0000B8
S1130070278E0000278E0000278E0000278E0000A8
S1130080278E0000278E0000278E0000278E000098
S1130090278E0000278E0000278E0000278E000088
S11300A0B3640000B76400005D47000061470000CE
S11300B0278E0000278E0000576700006767000046
S11300C0856700009B670000AB670000278E000077
S11300D0278E0000278E0000278E0000278E000048
S11300E0278E0000278E0000278E0000278E000038
S11300F0278E0000278E0000278E0000278E000028
S1130100278E0000278E0000278E0000278E000017
S1130110278E000087890000278E0000278E0000AC
S1130120278E0000278E0000278E0000278E0000F7
S1130130278E0000B31F0000278E0000278E0000CA
S1130140278E000065470000278E0000278E0000E0
S1130150278E0000278E0000278E0000278E0000C7
S1130160278E0000278E0000278E0000278E0000B7
S1130170278E0000278E0000278E0000278E0000A7
S1130180278E0000278E0000278E0000278E000097
S1130400FFFFFFFFFFFFFFFFFFFFFFFFFE3DFFFFBB
S113041072B60E480E49886000220023002400258D
S113042000260027B846B946BA46BB46BC4609482A
S1130430854609488047094880470948804762B68D
S113044000200021074A9047FEE70000000000005A
S113045000ED00E0A827FF1FC57600008D3F0000D7
S1130460D33F0000A338000000000000000000009B
S1130470002A01D101207047F0B41F46034603242B
S11304802340002B09D00424E31A0170013008240E
S1130490E141521E26D05B1EF7D1042A1ADB13D089
S11304A0002F11D00C460D460E46102A02DB72C0F6
S11304B0103AFAE70C2A02DB32C00C3AFAE7082AAF
S11304C002DB12C0083AFAE7042A03DB01600430B5
S11304D0121FF9E7002A05D0017001300824E14118
S11304E0521EF7D1F0BC00207047FEE761240000E3
S11304F000000000872400000000000065250000C3
S1130500B326000053250000D725000087270000EC
S1130510000000002528000000000000C1240000A5
S1130520000000009B240000D72500009B2700004A
S1130530000000000528000000000000172400004F
S113054000000000F524000000000000000000008E
S11305500000000039280000000000005F280000AF
S1130560000000009B280000B32600000B250000BB
S1130570000000000000000000000000000102462E
S1130580DD3800006B3900000000000089390000EC
S1130590173A0000D33B0000033C0000653C000018
S11305A0713C0000F93C0000013E00000000000026
S11305B09D3A00008F3B0000E33A0000313900000F
S11305C07D3D00000000000000000000000000006D
S11305D000000000690B00008F0B0000A90B000055
S11305E0436F7079726967687420286329203230F8
S11305F031332D3230313620467265657363616C58
S1130600652053656D69636F6E647563746F722CD6
S113061020496E632E20416C6C2072696768747384
S11306202072657365727665642E0000B58D0000D6
S11306300000024BE00500001000FF1F7C050000D5
S1130640D405000000000000018E00000B8E0000A5
S1130650158E00000000000000000000214600008C
S113066063460000BB4600000000000000000000DC
S1130670EF460000010000002B1100000000000004
S1130680000000003D2A00006D2A0000AD2A000091
S1130690932B000000000000CD2B0000BB64000081
S11306A0FB640000A16500000000000000000000E1
S11306B0DD65000079660000F76600001167000040
S11306C00000000000000000436700003F440000F9
S11306D0C9420000F14200006D430000A94300003C
S11306E02D43000052656164790D0A005472616EF5
S11306F07366657272696E670D0A000053756363F1
S11307006573730D0A0000004661696C7572650DAE
S11307100A000000EB3C904D5357494E342E3100F3
S113072002010100022000FF7FF0800001000100AF
S113073001000000FF7F0000000029313233344BF8
S1130740696E65746973205553420000F0FFFFFF22
S1130750FFFFFFFFFFFFFFFFFFFF000046534C209A
S11307604C6F616465722008000000000000000006
S1130770000000602C42000000000000412E0066D2
S1130780007300650076000F00DA65006E007400E7
S11307907300640000000000FFFFFFFF465345564E
S11307A0454E7E3120202012000000602C422C4255
S11307B0000000602C42020000000000426500724C
S11307C0005F0069006E000F00A8640065007800F7
S11307D00000FFFFFFFF0000FFFFFFFF012E006D81
S11307E0006500740061000F00A8640061007400DB
S11307F061005F006E000000650076004D455441C5
S113080044417E3120202022000000602C422C42F2
S1130810000000602C42000000000000412E005443
S1130820007200610073000F00256800650073000A
S11308300000FFFFFFFF0000FFFFFFFF5452415382
S113084048457E3120202022000000602C422C42AA
S1130850000000602C42000000000000422000491B
S1130860006E0066006F000F007272006D00610080
S1130870740069006F0000006E00000001530079ED
S1130880007300740065000F00726D0020005600B4
S11308906F006C00750000006D00650053595354DF
S11308A0454D7E3120202016000000602C422C4251
S11308B0000000602C42030000000000494E464F37
S11308C02020202054585420000000602C422C4248
S11308D0000000602C420500010000005354415404
S11308E05553202054585420000000602C422C42C0
S11308F0000000602C420600010000002E20202091
S11309002020202020202032000000602C422C4295
S1130910000000602C420200000000002E2E202067
S11309202020202020202010000000602C422C4297
S1130930000000602C420000000000004E4F5F4C9D
S11309404F47202020202020080000602C422C4209
S1130950000000602C420000000000007B00330017
S113096037003200300033004200460038002D00CA
S113097046004400380033002D00340033003200B8
S113098031002D0041003400430034002D003900B3
S11309904100390041004200460038004600420050
S11309A04300460044007D00000000002E2020206B
S11309B02020202020202032000000602C422C42E5
S11309C0000000602C420300000000002E2E2020B6
S11309D02020202020202010000000602C422C42E7
S11309E0000000602C420000000000004247007537
S11309F0006900640000000F00FFFFFFFFFFFFFF1E
S1130A00FFFFFFFFFFFF0000000000000149006E30
S1130A10006400650078000F00FF65007200560056
S1130A206F006C00750000006D006500494E444580
S1130A3058457E3120202020000000602C422C42AA
S1130A40000000602C4204004D0000006F400000D4
S1130A507340000085400000C34000000000000017
S1130A60000000000100000001000000F71E00006B
S1130A70B4060000C4060000200B000002000000C1
S1130A80010000003B1F00009C060000AC060000B3
S1130A90200B000004000000010000006B1F000098
S1130AA05C0600006C060000200B00001000000033
S1130AB000000000000000003C0B000000000000EB
S1130AC04C0B0000000000000000000000000000CB
S1130AD00000000000000000000000005D70000045
S1130AE09B700000C9710000A5720000100BFF1F6D
S1130AF0C92F0000DB2D0000CD2F0000D72F0000F0
S1130B00DF2E0000E12F0000E92F0000DB2D0000A4
S1130B10ED2F0000F72F0000DF2E00000130000051
S1130B20B1730000B77300001F740000BD740000AF
S1130B30B5730000C974000091730000D5850000EE
S1130B40D3860000C3870000F98700002F880000C7
S1130B5053880000DB8800006F8900007F89000053
S1130B60838900000000000010B58AB0044600F03C
S1130B7049F850B968460FF25C01282200F076F873
S1130B806A461049204600F0A1F80AB010BD70B5BD
S1130B9000F01AF838B9334629462046BDE87040BB
S1130BA0084A00F0C9B870BD70B500F00DF838B946
S1130BB0334629462046BDE87040024A00F02CB96D
S1130BC070BD00004809FF1F04460D46164600F09C
S1130BD019B8000000000001000000020000000439
S1130BE00000000800000010000000200000004089
S1130BF0000000800000001B000000360120704748
S1130C0000F078BE002070470E48006870470D4918
S1130C1008600D49896809694865704710B582B054
S1130C2000228DF800200A46074C014604F12000FA
S1130C302469646C6B46A0479DF8000000B1012054
S1130C4016BD00007000FF1F1000FF1F62B38B076A
S1130C5008D0521E11F8013B00F8013B00F024803B
S1130C608B07F6D1830740F0208000BF103A07D3EA
S1130C7030B4B1E83810103AA0E83810F9D230BCDA
S1130C80530724BFB1E80810A0E8081044BF51F886
S1130C90043B40F8043BD20724BF31F8022B20F870
S1130CA0022B44BF0B7803707047083A07D3B1E8AE
S1130CB00810083A40F8043B40F804CBF7D2530735
S1130CC0E4E70268531C036011707047F0B5002319
S1130CD050F8234000F018F941F823405B1C042B22
S1130CE0F6DB01EB83047C4854F8044C7B4D7C4FC9
S1130CF00460002408262E647A4E3E6052F8246074
S1130D002E60641C00F005F800F003F80A2CF1DBF7
S1130D10F0BD01EB830656F8106C2E60066C41F8AA
S1130D2023605B1C01EB830656F8106C2E60066C86
S1130D3041F823605B1C70472DE9F04304686A495D
S1130D40DFF8A891DFF898C1DFF8A4E1250A05F4DB
S1130D507F45260245EA146506F47F06354345EAD5
S1130D6004640C604468250A05F47F45260245EABC
S1130D70146506F47F06354345EA04644C608468D0
S1130D80250A05F47F45260245EA146506F47F0624
S1130D90354345EA04648C60C068564E040A04F482
S1130DA07F44050244EA106405F47F052C4344EAB9
S1130DB00060C860092550481468046054684460A1
S1130DC094688460D468C4600424CCF800E002EB26
S1130DD08408CCF80090241DD8F8007037606D1E8C
S1130DE0D8F804707760D8F80870B760D8F80C7039
S1130DF0F760EAD1CCF800E002EB8402CCF8009072
S1130E00146804605468446094688460D268C26062
S1130E1000F086F8BDE8F083F0B504683249374F36
S1130E2000F072F80C604FF0280C446800F06CF885
S1130E304C60846800F068F88C60C068284E040A2E
S1130E4004F47F44050244EA106405F47F052C434E
S1130E5044EA0060C86002F1A0042748E568C56060
S1130E60A5688560656845602468254D0460254C47
S1130E7037603560ACF1010C52F82CE0C4F80CE09A
S1130E80ACF1010C52F82CE0C4F808E0ACF1010C10
S1130E9052F82CE0C4F804E0ACF1010C52F82CE058
S1130EA0C4F800E0BCF1050FE2DA37603560ACF15C
S1130EB0010452F82450C560641E52F82450856021
S1130EC0641E52F82450456002EB840252F8042C4C
S1130ED0026000F025F8F0BD441808E0841908E029
S1130EE0001008E0000040A8481808E0000057A9D6
S1130EF0A41A95A8081B08E0881908E0B4AA15BC30
S1130F000090D5AC481B08E0250A05F47F4526026D
S1130F1045EA146506F47F06354345EA04647047E0
S1130F200C6C1C60250A486C586005F47F458A6C7B
S1130F309A602602C96C45EA146506F47F063543B7
S1130F40D96045EA04641C600502040A04F47F4481
S1130F5044EA106405F47F052C4344EA00605860B9
S1130F601402100A00F47F4040EA126004F47F0483
S1130F70204340EA026098600A02080A00F47F40B5
S1130F8040EA116002F47F02104340EA0160D86035
S1130F9070470000DFF86409016841F440610160B2
S1130FA0016811F4406FFBD17047DFF854190A68E7
S1130FB0904202D24FF0D04070474A68904201D22A
S1130FC008687047CA68904201D248687047CA6886
S1130FD0904234BF88684FF0FF3070472DE9F041EC
S1130FE000F07DF8DFF81C49DFF81C59DFF81C79A4
S1130FF04FF0006000F06DFA00F071F82E68386868
S1131000C0B1D7F80C8018F1010F04D03046FFF7B7
S1131010CCFF404428604FF01060206000F013F8CB
S1131020D7F8108018F1010F04D03046FFF7BDFF48
S1131030404428604FF08070206000F004F8386865
S113104000B12E6040E2F8B54FF47A7000F0C0FCB5
S113105004460D4600F0B2FC4FF47A72A2FB04671A
S113106002FB0577841941EB070500F0A7FC8D42CC
S113107005D828BF844202D240F29910F2BDDFF8AD
S113108090080068C007F0D40020F2BDDFF884188F
S1131090D1F8D021022A00D2704710B5DFF85C489D
S11310A0226842F480420128226011D1D1F8D00193
S11310B0A0B12168090E491C4843112828BF1020FB
S11310C021680902090A401E41EA0060206005E027
S11310D0022803D1486CC0B200F06FFD20E0DFF8B5
S11310E038180A6840F2011002430A600A68024292
S11310F0FCD1704710B5DFF80448206820F4804024
S11311002060206840F0030020600A2000F069FCA1
S1131110206840F4804020602068800880002060BF
S1131120206820F48040206010BDDFF8F027DFF84D
S1131130F03750B1012811D0022812D0032813D05F
S1131140042813D0102813D014E01878002814BFF2
S1131150002040F295100860002070474FF0D04006
S1131160F9E75868800AF6E71068F4E75068F2E790
S11311705868F0E7042070472DE9F04FDFF894A792
S11311800AF5E67787B0386800B10120049000249E
S11311904FF47A7000F01CFC81460498A0468B46FC
S11311A050B100F00BFC04463868A9FB00230BFB8C
S11311B00033CDE902238846DAF84810DFF84457B3
S11311C0DFF84467012088400190002000900498D3
S11311D038B100F0F3FB00F057F835D301D8904252
S11311E032D3FFF7D7FEFFF77AFF3468B86888B1C7
S11311F0D7F8108018F1010F04D02046FFF7D5FE70
S1131200404430604FF030602860FFF71CFF002836
S113121037D134604FF040702860FFF714FF80BB73
S113122000F0CCFB04464FF47A70A0FB092300FBCA
S11312300B33CDE90223884600F0C0FB00F024F80C
S113124005D828BF904202D240F2971019E0F06806
S113125010F4F85FF0D0DFF8CC0600680090306E30
S113126040F480303066DAF84800C003009804D5B2
S11312700199C0430842AAD102E001990842A6D1CB
S1131280002007B0BDE8F08F021B61EB0803DDE925
S113129002019942704750B5DFF8782683B0526B4B
S11312A0A0F1D0400C46B0EB420FDFF8541604D244
S11312B04FF0D0400090486802E0086800908868C9
S11312C0019000265DF82600DFF83C160860200037
S11312D001D0A04718B9761C022EF3D300205EBDBE
S11312E02DE9F04FDFF82C6681B0D6F8C4A11418AC
S11312F08046F06D89464AF08065002718B145F4B0
S1131300803500E0D044A04580F07D800120FFF7C7
S1131310BDFEDFF8F075C7F8F880F06D10B9FFF77F
S11313205DFE06E0DFF800164046FFF7B4FFC7F89D
S1131330F880D6F8D40198B1FFF7D1FED6F8E8B119
S11313401BF1010F05D04046FFF72FFE5844C7F8A4
S1131350F8004FF020603860FFF775FEC7F8F8809A
S1131360FFF7BDFEFFF716FED7F8580140F0006006
S1131370C7F85801EFF3108072B6102159F8042B06
S1131380C7F84C21491EF9D10321C7F850113D601B
S1131390AAF14001890810E059F8042BC7F84C2140
S11313A0091F59F8042BC7F84C2159F8042BC7F826
S11313B04C2159F8042BC7F84C210129C0F20880AC
S11313C0D7F854219201E7D4D7F858215201F7D520
S11313D080F31088FFF737FE0220FFF757FED7F897
S11313E05801400102D54FF4CC770CE0F06D10B9F0
S11313F0FFF7C2FE04E0DFF834154046FFF74BFF69
S113140007003FF47FAFFFF775FE384601B0BDE833
S1131410F08F00002DE9F041804600204FF0D045C8
S11314200026DFF8F07406E00024032E0AD8DFE873
S113143006F0020406087C6B04E0BC6B02E0FC6B63
S113144000E03C6C2CB1DFF8C00405602846C047BE
S113145018B96519761C042EE6D3BDE8F0812DE990
S1131460F04105460120FFF711FEFFF7B7FDDFF855
S11314709C74DFF890443868E8B1D7F81880DFF836
S1131480886418F1010F04D02846FFF78EFD40440C
S11314903060FFF724FE00F01AF83560786808B170
S11314A0FFF79CFDFF6917F1010F04D02846FFF7F1
S11314B07CFD38183060FFF712FE4FF0007000F02A
S11314C008F80220FFF7E2FD0020BDE8F0814FF0AC
S11314D0C0602060B7E54FE610B5DFF85404FFF7AD
S11314E099FFDFF85004FFF795FF0446FFF702FE6B
S11314F0204610BD2DE9F04105460120FFF7C6FD49
S1131500DFF80464DFF80474DFF8F8433560FFF7AC
S113151065FD386890B1D7F8188018F1010F04D030
S11315202846FFF742FD40443060FFF7D8FDFFF73F
S1131530CEFF3560786808B1FFF750FDFFF7CFFDA7
S11315404FF0E060FFF7C5FF0220FFF79FFDFFF7B4
S113155013FE0446FFF7CEFD2046BDE8F08170B5CA
S1131560DFF8B043E16DB9B1626BDFF8CC63A0F191
S1131570D0414D08B1EB420F05F1D04005D2FFF741
S1131580B9FF60B93068281806E0FFF7B3FF30B937
S11315907068616B2818401ABDE87040AAE770BDF6
S11315A0F8B5DFF85813DFF89423CA610A6822F00B
S11315B0E0020A6000F10C02936C1BB10B6843F06B
S11315C080030B60DFF84C53D66C012405F5BA7325
S11315D03EB30E6846F040060E6000F5D47006680F
S11315E01EB10E6846F020060E601E6B0EB141F26D
S11315F001048668C768B6023F0406F4406607F42F
S11316007C173E43076912683F0607F07C573E4348
S1131610344332B1406800280CBF44F4007444F4ED
S1131620807405F11000C26B032A08BF44F400441F
S11316309A6A0AB144F48044DA6A0AB144F4005460
S11316404C62856DC46DA4016D0104F0400405F085
S113165020052C43056EBA4A2D0405F4E0252C43DD
S11316605460C46C240404F480340C6284691B78D0
S1131670240403F00F0304F4803423431360C26989
S113168090F82030120202F4706203F00F031A4340
S113169003681B0403F440331A43CA60406BC0B2AE
S11316A000F08BFA0020F2BD2DE9F84F8146FFF7D8
S11316B0CAFCA44F386840F080603860484600F0A7
S11316C09BFA002850D1934E8D49706B944C00F1D5
S11316D0D04008604FF0D048B26B10184860F26BED
S11316E010188860326C1018C8600021A0F1D04036
S11316F060600091404609F13401042251F8043B32
S113170013B1056800951818521EF7D10098FFF719
S1131710F1FC606848B1F06D48B1706BF16B8842C0
S113172002BFB06B316C884201D004207FE086494F
S1131730864A0A6002234B600020002306EB8304E0
S1131740834D646F45F82040401C5B1C402BF5D34F
S11317500A6001204860694E306840F4804030607F
S11317604846FFF71DFF20B1396821F080613960D8
S11317705DE03068644F20F480403060386940F4A4
S113178080703861D9F8780190B309F13400444687
S1131790009004250098001D0090001F006828B3E5
S11317A03C60041909F5BC704068F8B14FF0000AB8
S11317B009EB8A0000F5BE7BDBF80000B0B1FFF74F
S11317C00DFCFFF78CFCFFF7E5FBDBF8100000F0E5
S11317D030F8DBF80000B060FFF735FCFFF7CCFC15
S11317E020B90AF1010ABAF1040FE1D36D1ED1D177
S11317F009F11C042068C8B109F13409042559F819
S1131800040B88B1C7F800808044FFF7E7FBFFF7BB
S113181066FCFFF7BFFB606800F00BF8A068B060DF
S1131820FFF711FCFFF7A8FC6D1EE8D10020BDE80E
S1131830F28F786500207865786578657047F8B52B
S1131840050018BF15F0030044D1354C002020706A
S1131850284600F0D1F93B48016841F080610160FD
S11318602648016841F48041016001214162016818
S11318700902090A41F0807101603649C1610E21F3
S1131880016141618161016841F00C0101600168FD
S113189021F480410160FDB92F4F4FF0D046354609
S11318A0306800900098FFF725FC3068B8420CD0EF
S11318B025482649016002224260284A026141F615
S11318C004424261016001214160FFF713FC30686A
S11318D0B84201D00420F2BD0E4E4FF400722946E6
S11318E03046FFF7C3F93046FFF7DEFE08B90121A1
S11318F02170F2BD0A4800787047000000A00D4036
S113190080A10D4008A00D4000A10D40A00DFF1FB7
S11319105CA10D40CC0BFF1F6CA10D40900DFF1F6F
S1131920CC0DFF1F00A20D40DD0F00007911000057
S11319305F140000D714000084A10D400040008013
S113194004A10D402C80044000A30D40F05AF05A2D
S113195010A30D40000800806B7163661304200817
S113196080B52B48016841F4000101600020294939
S113197008604FF0FF312848016100228261012292
S1131980C261826942F004028261826942F001020A
S1131990826101600121C160816000F0CCF9C00066
S11319A01E49B0FBF1F000B901201D49086001BDDA
S11319B01848016841F002010160704710B5194BE5
S11319C019691A681C68A242FAD3D043C94310BDEE
S11319D013490968A1FB0001C00840EA4170C90825
S11319E0704738B50446FFF7E9FF0D4A1268A2FBB9
S11319F00423D20842EA4372141841EBD305FFF7DB
S1131A00DDFFA942FBD301D8A042F8D331BD0000C9
S1131A103C800440007003400071034040420F00CA
S1131A20000BFF1F0471034000F085B92DE9F0415C
S1131A300646FFF75FFF684C684D02462078002E8B
S1131A405FD12968DFF8988161606649896809690E
S1131A5001F1680C9CF81C109CF810302E681B09CE
S1131A60360F03F0010306F1010E002A14BF5E4E87
S1131A705E4E01F0010183F00107394082F0010755
S1131A80394206D04FF0A070B0FBFEF0C8F8000059
S1131A9040E0B6FBFEF1C8F800109CF81D10C943E5
S1131AA001F00F01491C0F468C468E462AB10227CD
S1131AB00121BC464FF0040E05E023B101210127AA
S1131AC08C464FF0020E7F1E3F064B1E07F07067D8
S1131AD047EA0373ACF101073F0507F470073B4382
S1131AE0AEF101073F0407F470273B432B60B6FBBC
S1131AF0F1F1C8F80010012100F00EF80120207067
S1131B0008E0012E08BF002A04D1002100F004F8E7
S1131B1060682860BDE8F081884281B04BD001291B
S1131B20334824D102210173002102E000BF00994F
S1131B30491C00910099B1F57A7FF7D330210170E7
S1131B40002AC17801F09F010CBF41F0200141F04F
S1131B506001C1708179C906FCD40020009000980E
S1131B60B0F5FA4F27D200BF0098401CF6E70029D1
S1131B7008BF002A1FD1342101708179C906FCD520
S1131B800021017302E000BF0099491C00910099F3
S1131B90B1F57A7FF7D304210170C17801F09F0178
S1131BA0C170002002E000BF0098401C0090009823
S1131BB0B0F5FA4FF7D301B070470E490A68120224
S1131BC0120A012804D0022804D042F0407201E035
S1131BD042F080720A607047D00AFF1F44800440BC
S1131BE06001FF1F1000FF1F00D8B805006CDC0265
S1131BF00040064000A00D40F0B501250024002659
S1131C0000F134024FF4A063504908B9012615E0ED
S1131C109769042F0BD3002051F8202022F4E062AE
S1131C2041F82020401C0E28F6D30420F0BD17688C
S1131C3007B90025976807B101242DB34B608B6069
S1131C400B614B6186BB56684FF4E06506B1CD610C
S1131C509669022E12BF032E0B60CB609669032E89
S1131C600FD10B628B624B6200F5CE708B610668FC
S1131C7006B1CB614668002E1FBF0B6300680028C5
S1131C804B63506A00B1CD6274B1CB610B628B625D
S1131C90CB629069022804BF4B628B61D06800B1AB
S1131CA04B63506A00B10B630020F0BD2848294AF9
S1131CB001684908490001602748416B41F47851A3
S1131CC04163016821F0406111430160704710B520
S1131CD01F48214C016841F001010160FFF70AFE31
S1131CE00028606B14BF20F4F05020F47850606337
S1131CF01A480168490049080160206818490840E9
S1131D00206010BD1448016841F4E0210160016BBA
S1131D1041F4802101631148016841F000410160F0
S1131D201048017841F080010170017941F002010D
S1131D300171012070470C480C4A01680068126860
S1131D40090F491CC0F30360514321E000D0044053
S1131D5000D00040000003040480044000700440EC
S1131D60FFFFF8F340210740448004406001FF1F57
S1131D700148024A04E000BF64800440006CDC02B5
S1131D800168006801F00101491CC0F3420051439D
S1131D90401CB1FBF0F07047002070477047000012
S1131DA038B504463D4D0020C5E90000C5E90200F0
S1131DB0C5E90400286268623948FFF709FEC5E9ED
S1131DC006012046BDE834400FF2550100F002B987
S1131DD000F012B970B5314D0C46296A072904BFC9
S1131DE0696A88421AD1FFF71FFEC0EB0016D5E9D5
S1131DF00001D5E902231018B6FBF0F00A2148438C
S1131E004FF49661B0FBF1F0401D0A21B0FBF1F0F4
S1131E104FF4966148432060002070BD012070BDDE
S1131E202DE9F8430646FFF7C9FD1C4F0446386AFE
S1131E30D7E904598846421CD7E90601651B68EBBB
S1131E400909494502D82CBFA8420122012A3A6255
S1131E5006D0042A08D0052A0ED0072A0FD018E08D
S1131E60C7E900487E6214E0D7E90001201A68EB54
S1131E700101C7E900010CE0C7E9024809E0D7E91C
S1131E800201201A68EB0101C7E90201304600F0A3
S1131E90B3F8C7E90448BDE8F18300002009FF1F37
S1131EA0803801000901002806D55F4A00F00F00C0
S1131EB0801800F8041C70475C4A8154704750F83D
S1131EC02130120423F4702302F470221A430FE029
S1131ED050F82100C0F30060704706E0120202F4DB
S1131EE0E06242F0200203E000BF120202F4E0626A
S1131EF040F821207047012800D0704710B54C4CA1
S1131F0019B102290ED004D310BD0020E060206175
S1131F1010BD4FF48070E0604648016821F008016C
S1131F20016010BD032203212046FFF7D6FF20469F
S1131F30BDE8104003220421CFE7012800D07047F8
S1131F4010B53B4C11B1022904D010BD0020A06291
S1131F50E06210BD02220B212046FFF7BFFF20469E
S1131F60BDE8104002220A21B8E7012800D07047DA
S1131F7010B5314C11B1022906D010BD00202061EA
S1131F806061A061E06110BD072204212046FFF7D3
S1131F90ABFF072205212046FFF7A6FF07220621F3
S1131FA02046FFF7A1FF2046BDE810400722072185
S1131FB09AE780B503211E48FFF78AFF48B11F48FE
S1131FC04168080005D0012088471D494FF0FF30C3
S1131FD0086001BD10B501280C460CD101213D203B
S1131FE0FFF760FF17494FF0005008600A2200F025
S1131FF016F81248446010BD012800D0704780B51F
S113200011494FF00050086000213D20FFF74AFFBE
S1132010002200F004F809490020486001BD0321B2
S113202003484CE70000000018ED00E000E400E085
S113203000B0044094F00F4000C00440080BFF1FA0
S1132040A0B0044004E100E084E100E0C16E11F1BD
S1132050010F01BF016F11F1010F416F11F1010F68
S113206002D042F6A20101E042F6A301C162704728
S11320703EB504460D46684600F060F804F10C00D5
S11320804019001B6168A268051DA9423CBF531892
S1132090984208D2421A684600F056F86068A1686F
S11320A00818421B2946684600F04EF802A9684603
S11320B000F076F802983EBDF8B51F4DA868066991
S11320C0F06A012442F6A301884233D006F168077E
S11320D00024B86858B3796842428A4227D36A68B0
S11320E01368994221BF52684018401E82420FD2A1
S11320F0FEF786FDD8B1686800F12002786811689F
S1132100884214D35168BA681018401E81420ED315
S11321104AF2C03106F16800FFF7AAFF716F8842E6
S113212006BF012442F6A00042F6A10001E042F6F7
S1132130A400F0622046F2BD1000FF1F4FF0FF31F3
S11321400160002141607047F0B585B004460D463A
S11321501646684600F08CF801208DF80B002068C4
S113216001901B48009000208DF80A00ADF808008B
S11321707EB100F0C6F8174F6946384600F047F8BC
S113218032462946384600F078F83868019000F065
S1132190BEF80198206060683018606005B0F0BD3A
S11321A038B504460D46207910F0030007D069467F
S11321B000220A60C0F104022046FFF7C5FF206830
S11321C028600548016821F48021016031BD0000C8
S11321D0B71DC104002003403C8004400B7A4A7AB6
S11321E01B0703F0405343EA82728B7A42EA83620C
S11321F0CB7A1B0603F080731A4382600B6843603A
S113220042F0007383604968016082607047E0B502
S1132210164A136843F4802313600A7B002A0A6871
S113222000924A6801920DD14A7A02B102228DF8D5
S113223008200A7A002A14BF022203228DF80920FA
S11322408A7A0AE000228DF808200A7A002A14BF4C
S1132250022203228DF8092000228DF80A20C97A6F
S11322608DF80B106946FFF7B9FF07BD3C800440A9
S11322700FF248011022FEF7F9BC03E011F8013B0C
S11322800370521E3AB111F00303F7D103E051F881
S1132290043B0360121F042AF9D2002A03E011F858
S11322A0013B0370521EFAD1704701688068C0F385
S11322B0017002282CBF080C88B27047211000005E
S11322C0FFFF0000000000000000000001607047F4
S11322D072B60168491C016062B601680029FCD12C
S11322E00120704772B60168491E01E072B60021F0
S11322F0016062B6704772B609490020086062B690
S1132300704772B606480168491C0160704704486A
S11323100168022900D2EAE70168491E016070479A
S1132320E80AFF1FDFF88C16C968C9680020086036
S113233070472DE9F041DFF87C5682B0E86900244B
S11323408DF801404669002E62D0E968C9680A68C0
S1132350012A4CD001F1080274680023091DA0472A
S113236004001FBF42F21270844242F2137084428E
S11323704ED1E868C168D1F80880B8F1000F47D0A1
S11323804E68377837B1132F04DA806800EBC70042
S1132390083800E00020086200281CBF00680028FC
S11323A01CD02A699269694605F12000904704000F
S11323B016D19DF8000040B14FF4E750791EC84093
S11323C0C00758BF42F211740AD5EA68D268126A8B
S11323D01268414630469047002406E042F21074E9
S11323E03946204600F06EFA94B901200DE0086ADF
S11323F048B14168080003D00DF101008847044644
S11324000CB1002001E09DF80100E968C96808608A
S11324102046BDE8F68180B50178002000F052FA2C
S1132420DFF89005C069416909698847022000F016
S1132430C9FABFF34F8FDFF88005DFF88025016804
S113244001F4E06111430160BFF34F8F00BFFDE76A
S1132450DFF86005C068C06814210C3000F0E4BAED
S113246010B50446606810B1012803D005E000F0FF
S1132470D5FB03E000F081FD00E00420FFE72178B4
S1132480BDE810401EE210B5DFF828251268526935
S11324900446A16860689047F1E710B500F06EF853
S11324A0DFF81005C068C068616801610821017720
S11324B00020217800F006FABDE8104000F0EBBFE0
S11324C030B583B0DFF8EC44A56800210191009198
S11324D06B4681684068AD6801AAC9B2C0B2A8471A
S11324E0E268D2680021116100998A08019900F01C
S11324F0FDF937BD10B5DFF8BC249268D2680446F4
S11325006068A168C0B29047B9E770B504466068D6
S1132510A568012805F2FF1607D1284601F0A7F89F
S113252018B1304601F0A3F808B904250CE0284698
S1132530FFF785F90500DFF87C6402D13068006894
S11325408047B0680069456528462178BDE8704039
S1132550B8E110B500F012F800F012F80421017788
S113256000208CE710B500F009F800F009F8032109
S113257001770020A168BDE81040CEE1044667E77A
S1132580DFF83004C068C068A16801616168416116
S1132590704738B500F088F8002141610161007F7F
S11325A0042804D128680069804704B90446E8680F
S11325B0C068017F204600F085F942F2127084421F
S11325C008D1E868C068007F082804BFBDE831402E
S11325D000F0D8BF31BD2DE9FC4100F065F8016978
S11325E021B900202070FFF7D4FF5AE001212170A7
S11325F006694769002000900123E869D0F814C0F7
S1132600DCF804C06A4601A9E0475FEA000805D087
S1132610E8694169C9688847404603E0009830B9D1
S113262042F21270FFF7B5FF002020703AE0B0428A
S113263088BF30460090E868C068017F082913D13C
S11326400199C160009981610198009900F065FFCA
S1132650804642F27D7080451CBF42F27470804512
S11326600BD14FF0000808E02B68019A00999B6891
S11326703846984780460098C7190098361A06D0FD
S1132680B8F1000F09D0E8694169C9688847404634
S1132690FFF77FFF0020207003E0E868C068066150
S11326A047610020BDE8F681C24D0446E868C06871
S11326B070472DE9F047BF4D8AB00446E868C0680A
S11326C0016921B900202070FFF763FF57E0012161
S11326D0217006694769C168027F212E2CBF4FF023
S11326E02008B046A9B1424601A8FEF7AFFAE8694E
S11326F0D0F814C0DCF808C00123424601A9E04721
S1132700A6EB080606B1B0B3FFF743FF0020207024
S113271035E0032A08EB070907D12B685B6801AA97
S1132720414638469847824614E0102A18BF4F465F
S1132730DDD190F81DA0FFF7E4FD39462F69CDF8EF
S113274000A04346FF6B01AA05F12000B84782466A
S1132750FFF7DDFDBAF1000F4F46C8D0E8694569BF
S1132760AD680123002201A9A8475046FFF711FFD5
S11327700020207004E0E868C0680661476100201A
S11327800AB0BDE8F08710B58A4B1B68DB680446C5
S1132790E268A1686068984771E62DE9F041054652
S11327A0874C6E68D5F80880E86882492060002765
S11327B04968103130B10A68904223BF4968491C06
S11327C081420427304600F052FF00B904272978DB
S11327D0384600F077F89FB96660002000F0F2F800
S11327E02068C4F8088018B180F3088880F3098849
S11327F0616840468847BDE8F041002000F0E2B837
S1132800BDE8F08138B50446606800F030FF08B9CF
S1132810042005E06568012000F0D4F8A068A8470A
S1132820217819E0634A10B5044602F120001269C8
S1132830D269211D904722E638B55E4D0446FFF764
S113284060FD00F024F86D6B04F10C02A847054606
S1132850FFF75DFD21782846BDE8344032E030B50D
S113286083B0044668460021002206C0514DFFF79C
S113287048FD00F00CF8AD6B6A46A8470546FFF723
S113288046FDA2686946284600F04BF837BD05F1BD
S113289020002D69A3686168704710B5FFF76EFECC
S11328A04448C168C968A2680A6162684A61102222
S11328B00A77C068C068E16841770020A168BDE874
S11328C010405BE010B584B0A02201908DF8002088
S11328D0002200F06AF88DF80220029102228DF89D
S11328E0032000234469A4680C225BE010B588B07F
S11328F0A72300F03AF80020531C8DF8033006E0BB
S11329006C4651F8203004EB8004401CA3609042D4
S1132910F6D300F021F800231AE010B584B0A32206
S11329202FE010B588B0AF2300F01FF802238DF814
S1132930033040B99008801C8DF80300029203A86C
S1132940FEF794F901E000200290002300F004F85F
S11329506946A04708B010BD1648C0699DF8031029
S11329604469A46889000A1D70478DF800300190FD
S113297000238DF801308DF80230704710B584B013
S1132980B0228DF800200190012200F00EF802918F
S113299000228DF80220002302228DF803200C224D
S11329A04469A4686946A0471FBD0248C0698DF800
S11329B0012070471000FF1F0CED00E00400FA0531
S11329C01C0AFF1F70B50446022C04D0002001F03D
S11329D056FA012C0ED00026114D06E04019C168AC
S11329E089680A0018BF8847761C1820704341592B
S11329F00029F3D174B9FFF784FCFEF7D9FF01F085
S1132A00E8FA0849002008600120FFF70FF8FFF7F3
S1132A105EF962B6BFF36F8FBFF34F8F70BD00BF17
S1132A20640A000008ED00E0002201F007BB00008A
S1132A30C449EFF31080486072B6704738B5C24D90
S1132A402B696C68DB6A2246042105F12000984753
S1132A502B69DB6A6A46012105F12000984720684A
S1132A6000990818401E6060002032BDF8B5B64FCA
S1132A700446786B0D464042164600EA0401621A89
S1132A80AA1852421040424207F120003F697F6C6D
S1132A906B46B84748B99DF8000008B16C20F2BDF8
S1132AA032462946204601F0E4FAF2BD2DE9F04F02
S1132AB089B0924680460C4603AA00F01CF9060031
S1132AC05BD1A708BF00E41B4FF0FF3006900790CE
S1132AD005D0224607EB0A0106A8FEF7B7F8FFF770
S1132AE0A7FF07EB0809984D4FB12E6976693B465D
S1132AF05246414605F12000B047060009D144B1D1
S1132B002E697669042306AA494605F12000B047D8
S1132B100646DFF830B2DBF8040080F3108866BBA9
S1132B209DF80C0058B3FFF783FF87B104A8029007
S1132B30414605A80190534600F025F83A462E690F
S1132B40D6F8288005F12000C047060010D17CB1DA
S1132B5004A8029006AB05A80190082200F013F81F
S1132B6049462C69D4F8288005F12000C047064660
S1132B70DBF8040080F310880EB1304600E000203A
S1132B8009B0BDE8F08FA8680069006DC0B200907C
S1132B90704770B5044688B00D4600204DF82020DB
S1132BA0401C0828FAD375B12026202D98BF2E4644
S1132BB06A4631462046FFF779FF002804BF3419DE
S1132BC0AD1BF0D000E0002008B070BDF8B504469D
S1132BD00D46FFF72DFF5C4E5C4B37693F692A4673
S1132BE0214606F12000B847564F796881F31088D2
S1132BF098B9B1680969096B79B1FFF719FFB06831
S1132C000069036D21463469646ADBB22A4606F121
S1132C102000A047796881F31088F2BDF8B54A4CCA
S1132C20A16809696668326801F1580589692B68E9
S1132C3000204F4293421ED16968914225D1FFF78B
S1132C40F7FE2269414992683E4D04F12000904705
S1132C50696881F3108868B9A1680969096B39B199
S1132C60FFF7E6FE00F03EF8696881F3108808B9C2
S1132C7001212970F2BD9A4207D217EA030104D058
S1132C801046FFF7A3FF0028F4D169684942394090
S1132C904A4271688A42EDD2481C811A1046BDE846
S1132CA0F44093E770B5154682B000222A700A46B4
S1132CB0254C2669766C01466B4604F12000B0472A
S1132CC078B99DF8001029709DF8001049B11D4D88
S1132CD0297831B900F006F808B16C2076BD0121DD
S1132CE0297076BDA06800692269016D126AC9B2B3
S1132CF004F12000104770B50546134882B080687F
S1132D000069006B0E46144600B101202070FFF7E5
S1132D108FFE70428008800041426A462846FFF7D1
S1132D20C1FF0849496810B181F3108876BD81F369
S1132D3010889DF8000008B100202070002076BDA6
S1132D4000000000D80AFF1F1000FF1F6B66656BB0
S1132D5038B50446B0484068012C0CBF00F130057A
S1132D6000F12005FEF7C6FD18B9287240F295104F
S1132D7032BD69461020FEF7D8F968BB009820B927
S1132D80286868604FF4C87032BD012C05D1B0F1D9
S1132D90806F08D94FF0806004E0B0F1006F02D971
S1132DA04FF000600090286800990918491E696076
S1132DB0012129727CB9994CA06069466868E06079
S1132DC00320FEF7B2F90098206069460420FEF75C
S1132DD0ACF900986060002032BD70B500F07AF85C
S1132DE000B9C7E0324629462046BDE8704001F0EC
S1132DF040B92DE9F84301280C461546984603D1FD
S1132E00204600F001F90446FEF774FD0028834FC4
S1132E10834E08BF40F2951032D085B3307860B944
S1132E203868401E044218BF40F2911028D1012096
S1132E3030700020B060746002E0F068A04219D1E4
S1132E40B06839682A188A423DBFA9462919F16039
S1132E50A1EB000980194A4641461030FDF7F6FE01
S1132E60B0684844B0604C4439688842C844A5EB13
S1132E700905D2D100F033F80028CED000E00020BC
S1132E80BDE8F2837CB500F025F810B940F2951046
S1132E9076BD012C03D1284600F0B6F80546B408E7
S1132EA0A40006F0030608E001AA0421284600F065
S1132EB08DF80028ECD12D1D241F002CF4D136B13F
S1132EC001AA3146284600F081F80028E0D100F03C
S1132ED006F876BD04460D461646FEF70BBD70B5E2
S1132EE04F4C20780025E8B14C4EA06831688842E8
S1132EF005D0091A0019FF22103001F0EBF83268EE
S1132F00606804F11001FEF7EBF90546002020701B
S1132F10A0603DB93268606804F1100101F00EF957
S1132F2000B124E0284670BD70B5FFF7D3FF00B9A7
S1132F3020E0012C03D1284600F066F80546374806
S1132F4044686042054071420840464201E0361B35
S1132F50651956B12846FEF702FB38B921462846C2
S1132F6000F020F80028F2D001E0002070BD40F20B
S1132F70931070BD40F2951070BD80B5FEF7BAFC99
S1132F8010B940F2951002BDFEF7A6FA48B92349DC
S1132F908868C968091A491C00F004F808B140F2AD
S1132FA0931002BD49428908890080084942800083
S1132FB000E0091F31B150F8042B12F1010FF8D0D1
S1132FC001207047002070470020C1E613460A46DE
S1132FD0014600200DE713460A460146002051E74A
S1132FE00A46014600209FE70120B1E613460A463F
S1132FF001460120FDE613460A460146012041E749
S11330000A46014601208FE7034949680A6A096BA9
S11330108018401A704700001000FF1FD40DFF1FD6
S1133020E40DFF1F10B504466068A168814211D207
S1133030401A6060A1660FF2CD302060E08A28B1AA
S113304004F1280104F1380001F0AAF80120A0607D
S1133050002010BD42F2787010BD10B50446002166
S1133060DFF8AC0501F09CF8616A102204F1280035
S1133070FDF7ECFD606A00F01EF80FF2050017E0A2
S113308010B50446DFF88C35606A4289A282C268B2
S1133090921E626042689A4202D1017A022902DBDE
S11330A042F2757010BD00F006F80FF2150000BF73
S11330B02060002010BD04F13802102101F095B801
S11330C010B5044682B0606A42686368A26102680F
S11330D0D21E9A42A26002D342F2767016BD0289D1
S11330E06AB1E28204F138024189C91E21660FF2F5
S11330F039012160102101F078F8002016BD00206C
S11331008DF800006946DFF8102502F120001269ED
S1133110926990479DF8000010B142F2817016BD8B
S11331202046FFF77FFF16BD10B5044604F13802B0
S1133130A068401EA0601021606A01F056F8206E5D
S1133140401E206604BF0FF235002060002010BD31
S113315010B5044604F12801A068401EA060DFF801
S1133160B00401F01DF8606A04F13802102101F086
S113317064F82046BDE8104054E7000070B50546E9
S11331801022A868696A461EAE6005F1380000F096
S1133190D5FF002418B9DFF8840428600BE0E88A1E
S11331A0401EE88280B220B1701EA8600120A8668B
S11331B001E04FF41E54204670BD38B50446E08A41
S11331C008B100F055F8DFF850542B68626A216E9C
S11331D0E06D9B689847A8B9A1682069491E884298
S11331E003D328680069804760B900F046F800F00E
S11331F03AF80098616E884200D044E00FF205204E
S11332002060002032BD38B50446E08A08B100F0E1
S11332102FF8DFF8045400F030F82B68626AE06D90
S11332209B6810219847E8B9E06D1030E065206E86
S113323010382066112828BFDFF8E40310D210B13B
S1133240DFF8E0030CE028680069804750B900F01B
S11332500AF80098616E884200D014E00FF2A510BD
S11332602060002032BD694604F11C00FEF798BFBF
S1133270626A1021104600F0E0BF616A102204F176
S11332801C00FEF761BF42F27A7032BD10B50446ED
S113329004F11C00FEF752FF206E11282CBFDFF84A
S11332A08003DFF8800303E7DFF86C331B68426EAA
S11332B0016EC06DDB681847F8B50446B4F85A00CF
S11332C0C0F30321C0074CBF08250425E66D04297B
S11332D001D00420F2BDFFF714F804F16002CE4FD0
S11332E03C69646B2B46314607F12000A047044635
S11332F0FFF70DF8002C14BF20460020F2BD70B576
S1133300044642F27F76E56D284600F0B0F980B1BC
S1133310606E04F11801A8470646012E03D1204629
S1133320BDE870407EE6022E03D100F0B4F8002020
S113333070BD304670BD10B500F15C01031D1C6802
S11333404A685A60944202D242F2767010BD0A7AF8
S1133350D2070FD50A685C69A2420BD1496849B10A
S11333609960598A21B100F12801383000F018FF22
S1133370002010BD90F85A10C9075CBFBDE810408A
S1133380FFF750BE42F27C7010BDB0F85A108A07A5
S11333900BD4CA070BD5C1F30320002808BFFFF7DD
S11333A03DBC012808BFFFF7E8BD042070479A4AD6
S11333B0126852695C3041680068104738B5C46DC2
S11333C0B0F85A00C0F30320012804F2FF1507D116
S11333D0204600F04CF918B1284600F048F908B925
S11333E0042032BD2046FEF72AFA04008A4D02D199
S11333F0286800688047A86800694465204632BD93
S113340000000000D0B5044604F15806E08A5A27AB
S113341008B1FFF72DFF616A30461022FDF726FC44
S11334200120815D7F18401C1028FAD33078F9B24E
S1133430884202D042F27970D0BD71780A2942F2F2
S1133440127025D8DFE801F01A060A0E26121A16A1
S1133450261C20002046BDE8D0406CE72046BDE88D
S1133460D04013E72046BDE8D0401DE72046BDE824
S1133470D04044E72046BDE8D04086E70020D0BDD8
S11334802046BDE8D04099E72046BDE8D04013E788
S113349042F27B70D0BD70B5634C70212046FFF7BB
S11334A0C3FA62485C4D2060FEF72BFF2E69584C2E
S11334B0B66B04232246302105F12000B0472E6963
S11334C0B66B0423221D312105F12000B0472E697B
S11334D0B66B042304F10802322105F12000B04741
S11334E005F120002D69AD6B042304F10C02332196
S11334F0A847FEF70CFF002054F8201011F1010F2B
S113350002D1401C0428F7D3042804D10020002150
S1133510002200230FC4002070BDF8B504460D46F8
S113352000200026424FAE4217D03869C0F1100087
S1133530A91B09E079B13B69325DDA55761C3A6919
S1133540521C3A61401E491E0028F3D1386100F034
S113355005F810B9E7E742F27D70F2BD3249344A0A
S11335604A620020CA682AB10B69934209D0581CE8
S1133570086101E08A6E12B9084609680847521EBC
S11335808A667047F8B5244C206800698047002893
S11335903DD1254F97F85900042824D107F15C0543
S11335A02E68304600F063F8D0B10020FFF70AFA25
S11335B097F85A00800711D568686861616810310E
S11335C060B10A68904222BF4968491C814201D215
S11335D00420F2BD80F3088880F30988A868B04706
S11335E042F27E70F2BD08280FD10220FFF7EAF9FB
S11335F0BFF34F8F0F48104A016801F4E061114393
S11336000160BFF34F8F00BFFDE742F27B70F2BD54
S11336107C12FF1F53544D501000FF1F5131000006
S113362007320000BB310000F411FF1F5B300000C3
S11336306812FF1F0CED00E00400FA0538B50446DB
S11336400D460020FFF7BEF99D489E4A0560446080
S11336504FF420411160016881F3088881F30988DF
S113366040688047BDE832400020FFF7ABB910B591
S113367082B000281EBF10F1010F9349884201D186
S1133680002016BD6A46022100F09AFE002418B9F3
S11336900098007A00B10124204616BD2DE9F04FB0
S11336A08A4E8B4F85B0B0680069683000903D4603
S11336B00AE00099097C014205D06869EA688169D9
S11336C0526828469047183528680028F1D100240C
S11336D0A246CDE9024A4FF47A70FEF779F905461D
S11336E08B4608210020FDF799FA30B94FF42040A9
S11336F0D0F80480D0F8009001E0A046A146FEF77F
S11337004BFB002838D14046FFF7B1FFA0B3FEF7CA
S1133710D3FC88B3B068006990F88600C00703D46E
S113372049464046FFF78AFF0098408A4FF6FF71EA
S1133730884208BF41F28830A5FB00230BFB00330D
S1133740CDE90223FEF73AF904468A46DDE902018F
S1133750002908BF00280FD0FEF730F9DDE9022365
S1133760001B61EB0A01994206D301D8904203D3AE
S113377049464046FFF762FF3D4600E01835286899
S11337800028E3D00099097C0142F7D0E968096870
S1133790284688470028F1D0002DD7D00AE00099A8
S11337A0097C014218BFBD4203D0F96889683846D4
S11337B08847183738680028F1D1284605B0BDE895
S11337C0F08F30B583B0FEF796FDFEF76FFA3F4CED
S11337D02169496804F12000884721693D48E06374
S11337E004F12000096C8847A06800688047FEF750
S11337F0B7F8FDF703FA78B3A06800692369D0F835
S11338009850DB6A6A46042104F120009847236932
S1133810DB6A01AA012104F12000984715F1010F88
S113382015D00098A84212D201990818A0F500708A
S1133830A8420CD34FF400712846FDF7EFF930B9D4
S11338402846FDF7FCFF40F29511884202D1002082
S1133850FDF7F5FFFDF7DBF9FEF753FDFEF7A8F8DA
S1133860FEF755FD0020FEF7E1F8FEF779F8206831
S113387000688047A06840688047FFF70FFFE06159
S1133880016919B109680A0018BF8847E0694169EC
S113389019B109680A0018BF8847E06800688047C2
S11338A037BD38B5FFF78DFF084CE569E06840681F
S11338B08047E868C1680800F8D028468847F5E7DB
S11338C0280AFF1F08ED00E0110400001000FF1F8C
S11338D0640A00006400FF1F7047000008B9042058
S11338E07047DFF8B4150968090E01F00F010F29BC
S11338F00FBF4FF480210FF2746232F81110890265
S11339000022026041604FF48072012181604FF413
S11339108051C160DFF8841591F900309A4042610A
S1133920C978816100210161016241620020704710
S113393070B508B9042070BDC4690FF210616568E0
S11339400C222846FDF782F9DFF854650FF208616E
S1133950681C30601422A5682846FDF777F9681CB6
S1133960706002202060002070BD38B5040001D1D1
S1133970042032BDDFF82C256FF03B4000F046F800
S113398001D06B2032BD38E02DE9F04389B01646F2
S113399080460D4600F0EAF9049B00F0E3F90400C8
S11339A01BD1009D019F7019461EB6FBF7F007FB63
S11339B0106121B1401C7843461E00E07D19AE42DF
S11339C017D32802000ADFF8DC1440F01060086006
S11339D0DFF8D404814502D06B2420465BE000F07C
S11339E089F90446D8F81000010018BF8047002C5C
S11339F0E4D0404600F043FAEFE7204600F025FA11
S1133A000546204600F03BFA284632BD1060DFF838
S1133A109804814270472DE9F04389B004465FEA77
S1133A2002080F461D4608BF042034D000F09FF959
S1133A30039B2A463946204600F054FA5FEA0009FF
S1133A4029D1009FDFF85C6402E00398C7192D1A9E
S1133A50EDB158F8040B706039020398090A042880
S1133A6008BF41F0C06006D0082805D158F8040BFF
S1133A70B06041F0E0603060204600F0E6F9814635
S1133A802069010018BF8047B9F1000FDDD020463E
S1133A9000F0F5F9484609B0BDE8F08370B50400BC
S1133AA018BF002A01D1042070BDDFF8F803DFF845
S1133AB0FC63CDB246EA05450560102915684560EA
S1133AC002D01139032903D2082B04BF5168816045
S1133AD0204600F0BAF90546204600F0D0F9284601
S1133AE070BD2DE9F04389B05FEA0008914614BF28
S1133AF0B9F1000F04200E461D4647D000F037F9F7
S1133B000698401E064208BF05421AD1A919109C06
S1133B100020491E012C05D1002E04BF691E07296F
S1133B200AD10AE044B9FF2907D9B6F5000F03D337
S1133B30DFF87C23914200D3042038BBDFF86473A0
S1133B400DE0652022E0796849F8041B06990829EC
S1133B5004BFB96849F8041B06998E196D1AADB1F2
S1133B603002000A40F0407038602006069940F0A8
S1133B70FF1040F47F40042908BFB86002D0082930
S1133B8008BF786000F0B6F80028DCD083E7F8B509
S1133B901546002818BF002D0C461E4601D10420EE
S1133BA0F2BDDFF80073DFF80C23E1B242EA014111
S1133BB0396000F04AF958B979682960102C03D0AB
S1133BC0A4F11101032903D2082E04BFB968696066
S1133BD0F2BD002818BF002901D104207047DFF886
S1133BE0D802007800F00302022A08BF002005D0A2
S1133BF000F0C00080280CBF0120022008700020C3
S1133C00704710B50A46002818BF002A01D10420C5
S1133C1010BDDFF8A4321C78002104F00304022C48
S1133C201ED06FF03A41C3F802105478117824047E
S1133C3044EA0161947841EA0421D4782143C3F829
S1133C40061054791179240444EA01619479D279F3
S1133C5041EA04211143C3F80A1000F0F6F80146C2
S1133C60084610BD08B904207047DFF8502280E0F0
S1133C702DE9F04F89B0924680460C4600F076F864
S1133C80059B52462146404600F02CF978BB6A4613
S1133C902146404600F03BF9009C029E604271427E
S1133CA008404542A54208BF75197E4F03E0AAEBC0
S1133CB00B0A5C447519BAF1000F17D0281BD346C0
S1133CC0824588BF83460598BBFBF0F02102090AB0
S1133CD0000441F0807140EA0920396040F0FF009F
S1133CE0786000F007F80028E1D000E0002009B077
S1133CF0BDE8F08F4046A8E02DE9F04389B0804646
S1133D005FEA03090D46164608BF042029D000F0D7
S1133D102EF8079B00F026F818BB009D109C614FFD
S1133D2005E007998A08761A09EB82094D19C6B18C
S1133D302802000A40F000703860200640F0FF10AE
S1133D4040F47F407860D9F80000B860FFF7D2FFF4
S1133D500028E6D0119901B10D60129909B1002231
S1133D600A6098E6324629464046BBE099466A46D0
S1133D70CDE042EA01414B4A116066E02DE9F04191
S1133D8080461E000D46174608BF042034D0042385
S1133D9000F0A8F880BBD8F814307A195F42C2F159
S1133DA0000C07EA0C0CCCF1000C2F40ACEB07071D
S1133DB00021B7FBF3F7DFF808C10AE0DCF800E004
S1133DC0203C6FEA0E0E2EFA04F4E40748BF491CA7
S1133DD05D1995420AD2B5FBF3F4202C38BFDCF808
S1133DE004E0EED3D8F818E07445E7D319B1B9422A
S1133DF034BF022101213170BDE8F08100000000D0
S1133E00002818BF002A01D10420704709291AD8B4
S1133E10DFE801F00509090B0D0F11131517C06830
S1133E201060002070474068FAE78068F8E700688F
S1133E30F6E70120F4E74069F2E78069F0E7006AF9
S1133E40EEE7406AECE76A20704710B51D4C70211C
S1133E50217000F03BF888B9114909682046884769
S1133E602078810601D5672010BDC10601D56820E0
S1133E7010BDC00701D5692010BD002010BD38B5A4
S1133E800400200000F022F80500002D03D10E48A4
S1133E9003494968884731BD4C80044028000240EA
S1133EA0E00AFF1F040002406B66656BFFFF0043DE
S1133EB000048000FFFF004102000240FFFF0040B9
S1133EC0180002400000024004F0014008B9042038
S1133ED07047C06920B10068022801D100207047F2
S1133EE06D20704708B9042070475B1E194208BF53
S1133EF01A4201D0652070470368994221BF406887
S1133F00C0185118884234BF66200020704770B52D
S1133F1005000E46144601D1042070BD2021204620
S1133F20FEF782FD2868301A2060E8686060A9689E
S1133F306868B0FBF1F0A0600420E060102020610C
S1133F4060610420A061E061002070BD80210170E7
S1133F5002780A42FCD070470168F02212040A4336
S1133F600260BFF36F8FBFF34F8F704708001000DC
S1133F70180020003000400060008000C0000001F4
S1133F8080010002000300040006000080B51B4904
S1133F901B4808601B491C48421A1C4888421CBF25
S1133FA0002AFCF753FE1A481A49091A18BF00F0F0
S1133FB057FA19481949091A18BF00F051FA184953
S1133FC01848421A04D0BDE808401748FCF73EBE22
S1133FD001BD16484FF0FF31016041608160C1604E
S1133FE0016141618161C161114801604160816089
S1133FF0C160016141618161C161704708ED00E008
S113400000000000348A0000B48D00000000FF1F8F
S11340102009FF1FA817FF1F0004FF1F2009FF1F0F
S1134020908E0000908E0000A817FF1F80E100E032
S113403080E200E062F30F2262F31F4200B500BF8A
S1134040130096469446103928BFA0E80C50FAD8BD
S11340505FEA417C28BF0CC048BF40F8042BC90765
S113406028BF20F8022B48BF00F8012B00BD00F048
S1134070FBB9134680B50A4601461846FCF7E6FD2F
S1134080002002BD70B510F0030F0C46154612D087
S1134090B0F1005F0FD22118491EB1F1005F0AD3BD
S11340A0C0F1005632462946FCF7D0FDA21B711917
S11340B04FF0005001E022462946FCF7C7FD0020DE
S11340C070BD10B514460A462146BDE810400123D0
S11340D0FCF7CEB962F30F2262F31F42401810F0CE
S11340E0030308D0C91A1FD3DB0748BF00F8012D0A
S11340F028BF20F8022D130030B414461546103999
S113410028BF20E93C00FAD8490728BF20E90C0061
S113411048BF40F8042D890028BF20F8022D48BF6D
S113412000F8012D30BC7047C91818BF00F8012DE4
S1134130CB0728BF00F8012D7047000003000020C2
S113414013F0030F09D0521E22BF13F8010B11F80C
S113415001CBB0EB0C00F3D07047121F22BF53F811
S1134160040B51F804CB6045F7D0121D0AD200BAF3
S11341709CFA8CFCB0EB0C0038BF6FF0000088BFD9
S113418001207047521E22BF13F8010B11F801CB16
S1134190B0EB0C00F6D0521C08BF1046704700006C
S11341A070B50D46424C30B10146102204F11000A6
S11341B0FCF74CFD06E004F110000021002200236E
S11341C000264EC02DB1102229462046FCF73EFDA4
S11341D005E000200021002200230FC4103C04F15C
S11341E01000BDE87040FCF7BFBC2DE9FF4100F0B2
S11341F058F81EE000F050F80098316848400090EC
S11342006A46019871684840019010340298B16878
S1134210484002907F1C0398F1684840039006F1DF
S113422010016846FCF7B3FC684600F043F8103E02
S113423010354745DED3BDE8FF812DE9F04188B054
S113424000F02FF823E01022214604A8FCF7FEFC1E
S113425000F022F86A4606F110016846FCF7A4FC57
S113426000983168484000901034019871684840C3
S113427001907F1C0298B16848400290F16803984D
S11342804840039004A800F015F8103E1035474547
S1134290D9D308B0BDE8F081102221466846FCF766
S11342A0D5BC044615464FEA11180027004E704746
S11342B0B00AFF1FB0E80E10A6E80E1010226946DF
S11342C02846FCF7C3BC000070B50D0082B004465C
S11342D0164601D1002076BD6A4600F071F830B967
S11342E0009BDB685B68324629462046984776BDCA
S11342F070B50D0082B00446164601D1002076BD8B
S113430000F07FF800B14CE000F047F868B9009B7A
S1134310DB689B6832462946204698474E49002868
S113432006BF009AD26800220A6076BD38B50446FA
S11343300D466A4600F044F8A0B90098C068406988
S113434008B9662032BD2946204600F05AF810B15B
S113435042F2D87032BD009AD2685269294620468A
S1134360904732BD002DFCD1002032BD70B50D0048
S113437082B00446164601D1002076BD00F041F813
S113438000B10EE000F009F830B9009BDB68DB688F
S1134390324629462046984776BD6A462946204635
S11343A00EE042F2D87076BD10B52B4C2168002087
S11343B029B109690A0002D088470021216010BD93
S11343C070B542F2D873D2B1244C6468146011B948
S11343D015E01034146014688CB12568002D04BFF6
S11343E06668002E01D1E6684EB1A84224BF656814
S11343F08542EED30818401E854228BF0023184684
S113440070BD70B50918491E0022144B9C685D6884
S11344102469160104EBC20458347559666824688B
S1134420AC4208BFAE4205D0864228BFA14201D3A8
S1134430012070BD521C022AE8D3002070BD10B5C3
S11344400648446804E00068010018BF804710343F
S1134450E0680028F7D110BDFC0AFF1F1000FF1F01
S11344600022FFF73BBE00001D480068000B00F06F
S11344700F00C01E082830D8DFE800F005080B0E36
S11344801114172F1A004FF4804013E04FF4C0406A
S113449010E04FF400400DE04FF440400AE04FF4C8
S11344A0803007E04FF4C03004E04FF4003001E006
S11344B04FF480200321421E10420A4A18BF0221F1
S11344C052684B1CB0FBF3F0C0F1005342F8103FAC
S11344D06FF0604301FB003050600020704700BF64
S11344E0007004401000FF1F02280ED80FF22402AF
S11344F080560122012900F01F0102FA01F10CBFCC
S1134500024A034A400942F82010704700E100E0E3
S113451080E100E01A1B4100BFF34F8F0548064AB3
S1134520016801F4E06111430160BFF34F8F00BFE4
S1134530FDE700000CED00E00400FA05ECE7EBE712
S1134540EAE7E9E702280ED80FF224028056012296
S1134550012900F01F0102FA01F10CBF024A034ACB
S1134560400942F82010704700E100E080E100E0DB
S113457018194A0004280ED80FF22402805601228A
S1134580012900F01F0102FA01F10CBF024A034A9B
S1134590400942F82010704700E100E080E100E0AB
S11345A01E1F202122000000002101807047F0B569
S11345B085B004460D4616466846FDF759FE0020B0
S11345C08DF80B002088019041F22100009000201A
S11345D08DF80A00ADF808008EB1FDF792FE0E4F7B
S11345E069463846FDF713FE324629463846FDF73C
S11345F044FE3846FDF759FE0190FDF788FE019808
S1134600208005B0F0BD008808800448016821F4CA
S11346108021016070470000002003403C8004407A
S113462040684A49405C70474849CA6842B18A6850
S113463013780370501C8860C868401EC8607047B7
S11346400021017070475A2807D1404A01238B5436
S11346500FF2090151619169084770473B49896923
S113466008477FB5394DA96104460FF2FC00616823
S113467050F82160684600F0F7F801208DF8080032
S11346808DF8090002213248286132486861A26825
S1134690606890476946304600F097F82E493046E6
S11346A000F014F960680121FFF71EFF61684919E1
S11346B00120087104B0002070BD70B50546234C7C
S11346C068680119097989B10FF29C0151F82060D9
S11346D00021FFF709FF304600F0D2F86868AA68A5
S11346E000219047696809190020087170BD1748B6
S11346F08160C260C1680029FCD10020704770B598
S113470004460FF2640082B050F82450E86A0001B5
S11347100BD54FF0006007E03169684688479DF883
S1134720000068634FF00070E862E86A074E800199
S1134730F2D4E86A800308D5A86B4FF40031E9622B
S113474021467269C0B29047F3E773BD9800FF1F1A
S113475029460000474600000000020A0020CEE778
S11347600120CCE70220CAE700C0024000D002408A
S113477000C00A40010C01F1804101F58E210123A2
S11347800A6803FA00F010430860704700290168C2
S113479014BF21F4804141F480410160704700213D
S11347A00FF2140252F82130834202D0491C03292B
S11347B0F8D308467047000000C0024000D0024011
S11347C000C00A4001212046E0E738B504460D4602
S11347D0FFF7E5FF00F043F8FFF7F4FF00F088F877
S11347E00122206840004008206020680840297B9E
S11347F040EA8170A97B40EA8160697B40EA0160FC
S1134800E97B00F019F80121204600F054F82878DB
S113481004EB8000C1686A6800F014F82A7A9206F2
S113482002F0806211436A7A520602F00072114368
S1134830C16000F00FF831BD090201F44071084372
S113484020607047521ED20621F0FE4102F0F04271
S113485011437047206840084000206070470FF201
S1134860A00151F8200085E7002101700821416072
S1134870002101724172017341738173C1737047E6
S113488010B504460021206800F034F8FFF79BFFC0
S113489000F02CF80FF2680151F82000010C01F12E
S11348A0804101F58E2101230A6803FA00F022EA0F
S11348B00000086010BD0368090401F47C11012A9A
S11348C00CBF194323EA0101016070478A0103D533
S11348D0026B22F0807202638A0303D5026B22F416
S11348E080320263026B114301637047204656E72E
S11348F02068024940F0010020607047FFCCFFBAF5
S11349000C003C100D003C100C003010010C01F1A7
S1134910804101F58E2101230A6803FA00F0104357
S113492008607047010C01F1804101F58E210123DB
S11349300A6803FA00F022EA0000086070470029C0
S1134940817814BF41F0800101F07F0181707047CC
S113495000210FF2F00252F82130834202D0491CA8
S11349600429F8D3084670474A0603D5827842F0F2
S113497040028270890603D5817941F0200181715A
S11349807047C1788279520648BF41F480418079EA
S1134990C00648BF41F480510846704738B5044604
S11349A00D46FFF7D5FF00F030F8A87A10B10228C1
S11349B004D00DE0E8884000207009E0E888400059
S11349C0207028894000E071607940F0080060712F
S11349D0A078A97800F0FD0040EA4100297840EA77
S11349E0C110A0706079297900F06F0040EA0110CD
S11349F0697840EAC110E97800F001F831BD00F0AF
S1134A00DF0040EA4110607170470FF2480151F82D
S1134A1020007BE710B504460021FFF790FF2046F5
S1134A20FFF796FF0FF22C0151F82000BDE810406B
S1134A3078E70021817241708170C1700171012198
S1134A4001707047006006400070064000600E4030
S1134A5000700E40060034100700341006002810C1
S1134A600700281000210FF2C81252F821308342A7
S1134A7002D0491C0529F8D3084670472DE9F041B6
S1134A800D460446286800260146B046042303FB6D
S1134A9000FCB2FBFCFC1FFA8CFCBCF1000F08BF4D
S1134AA04FF0010C0CF101070CFB03FE5F43B2FB5A
S1134AB0FEFEB2FBF7F7AEEB000EC71B77453CBF1B
S1134AC0BE460CF1010C714502D371461E46E04608
S1134AD05B1C212BDBD36422B0FBF2F000EB400023
S1134AE0884238BF40F221504ED32046FFF7BAFF28
S1134AF000F05EF810430860311FA06820F44020E5
S1134B00A06004292068DFF8241138BF40F4003085
S1134B100840711E090601F0F85108434FEAC841E4
S1134B2050EAD1402060206820F000502060A06846
S1134B3020F01000A060A06880088000A060A06839
S1134B4029790843A06020686979490320F400505A
S1134B5001F4005108432060A979E87941EA004052
S1134B60E061A06940F08800A061A06940F4404081
S1134B70A061A068297A09B140F40020697A09B1DA
S1134B8040F48020A0600020BDE8F08180B5C169B8
S1134B9011F47F4FFBD141684902FCD500218160AB
S1134BA0FFF760FF00F004F822EA0000086001BD8E
S1134BB00FF2900151F82000010C01F1804101F540
S1134BC08E2101230A6803FA00F070474FF4E131A3
S1134BD001600021017141718171C17101724172E1
S1134BE0704710B50A02036802F44044234303608B
S1134BF002F4407283691A438261090A826842EAB4
S1134C000121816010BD41688069000C00F0C3007F
S1134C100843704705E043681B02FCD511F8013BCB
S1134C20C36013465A1E002BF5D1704700E0FFE025
S1134C3000400C4000500C4000600C4000700C40E0
S1134C4000600D4004002C1005002C1006002C10F0
S1134C5007002C1016002C1070B5424E0124306849
S1134C60491E1546082900F10C024CD8DFE801F072
S1134C70051423424228424B4000696811F1010F98
S1134C8018BF00290ED0D168012912DB90F8461014
S1134C9001290ED118300AE0696811F1010F18BF1B
S1134CA0002901D1002070BD116114701430FDF78A
S1134CB019FB002427E024212030FDF7B5FE22E073
S1134CC0A978002904BFE978002904D129780129A9
S1134CD008BF547017D06A6829462030FBF7B6FF26
S1134CE030686968C16104731430FDF7FBFA0AE0A7
S1134CF0052408E000211430FDF7E8FA30680021AB
S1134D001830FDF7E3FA204670BD38B50C46002094
S1134D10012C0DD1134D286880F8461000F12002B3
S1134D2080682423022100F0C8F9296881F84740EB
S1134D3032BD002051B90B48006880F8482000F1CA
S1134D40200280682423022100F0B7B97047054986
S1134D5008600020704703490860002009688860E3
S1134D6070470000EC0AFF1F10B5134601200BB971
S1134D70032010BD00225A745A6832B1146822000C
S1134D8003D00A4601211846A04710BD10B51346AA
S1134D9001200BB9032010BD00229A745A6832B165
S1134DA01468220003D00A4602211846A04710BD09
S1134DB02DE9FF410446002561688968227B4B790F
S1134DC0012093424ED3096800294BD001EBC20164
S1134DD00839002200E0521C0B789A4242DA4B68F0
S1134DE00C2606FB02331E78032EF4D194F80EC071
S1134DF0002100E0491C1A7A914205DA5A680E0132
S1134E00B75C6745F6D1B518D978617355B3A56019
S1134E104FF00008974E984F07E0039402AA2068C9
S1134E20694600F059FA08F101082979884519DA28
S1134E3000208DF80400A86810F828008DF80200FE
S1134E40C009A96801EB880101284988ADF8001060
S1134E50A96801EB880149788DF803100CBF02970B
S1134E600296DAE704B0BDE8F08138B504460120C3
S1134E70A16861B1002506E0886810F82510206853
S1134E8000F047FA6D1CA1680A799542F4DB32BD43
S1134E9070B504461546012084B0002D14BF002CC3
S1134EA003200BD0491E052908D8DFE801F05A0376
S1134EB008182E44002121736174A174B9E061685B
S1134EC000291EBF217B2A788A42F7D011B12046DF
S1134ED0FFF7CBFF287820730020A07311E06168EE
S1134EE00029EBD02988627B0D460904B2EB116FCF
S1134EF00AD1A17BEDB28D4206D02046FFF7B5FF63
S1134F00A5732046FFF754FF93E0616800291CBF96
S1134F10A1680029F8D00026A26811798E42F3DA3C
S1134F209268297812F82620914204BF206800F084
S1134F3008FA761CF0E7616800291CBFA168002903
S1134F4077D00026A26811798E4272DA92682978A5
S1134F5012F82620914204BF206800F0FCF9761C68
S1134F60F0E729680A7802F01F02012A02BF0A79D1
S1134F70637B9A425DD14A78012A20460AD0022AEC
S1134F8013D0032A1AD0092A22D00A2A40D00B2A85
S1134F9045D04DE04988090A8DF808106A46296809
S1134FA049888DF80910032120E063681B6804F127
S1134FB00F020421984704F10F0107E063681B689E
S1134FC004F110020421984704F11001696030E0F3
S1134FD04988090A8DF80810296849888DF809104C
S1134FE0297B59B1A96801916A46092163681B6844
S1134FF09847009969600199A9601AE0696800916D
S11350006A46A9680191062163681B68984710E005
S11350104988090AE17329688A1C072104E0498840
S1135020217404F11002082163681B68984700E0AA
S1135030052004B070BD70B50C461546002114233C
S11350400E4A03FB0126326822B1491C0129F7DB11
S1135050022070BD314600F01CFA50B9306808B91E
S1135060032070BD002030737460FF20B0732E6085
S1135070002070BD8D4D0000694D0000A406FF1F87
S113508010B5040001D1032010BDFFF7EEFE00218E
S1135090216061602173A17310BD10B5040001D1BA
S11350A0032010BD607C08B1022010BD206800F010
S11350B001F908B90121617410BD10B5040001D1D2
S11350C0032010BDA07C08B1022010BD206800F0B0
S11350D0F6F808B90121A17410BD000010B504460A
S11350E000F0DCFA0020206084F88D0000F0E0FA83
S11350F0002010BD38B508B9032032BD446844B15E
S113510000680D0602D5A468A04732BDE468A04734
S113511032BD062032BD08B903207047436813B17D
S113512000685B691847062070473EB504460A7A52
S1135130D5090120102A02F00F0319D100220B21F6
S11351402046FFF7E8FF04F18C0002218170002261
S113515000210170002004EBC001401C1028CA602B
S11351600A61F8D3A36801212046984700203EBD78
S1135170082B11D245EA430204EBC203DA685AB1A0
S11351800868009048680190487A8DF808006946DC
S11351901A69DB68204698473EBD002918BF0028DD
S11351A001D1032070478268002A18BFFFF7BDBFF2
S11351B0012070472DE9F04107461400884608BFD6
S11351C0032053D000F06AFA294D286805F18C06B3
S11351D030B171788F4203D100F06AFA01273FE0C1
S11351E018B100F065FA02273AE0777000F060FA2F
S11351F00020C5F8088077703070002205EBC001EC
S1135200401C1028CA600A61F8D3012F19D80FF284
S1135210F8106860174800281CBF174800280BD0F6
S1135220164800281CBF1648002805D01548002839
S11352301CBF1548002809D12846FFF74FFF072057
S113524014E02846FFF74AFF06200FE02A462946C5
S1135250384600F05AFC070004D0284600F019F83C
S1135260384603E00220B07025600020BDE8F081DC
S11352701406FF1F0B5B0000795B0000B35B0000AA
S1135280215C0000C75C0000095D000000220021D1
S113529041E710B5040001D1032010BD616821B1BC
S11352A0206849688847002060602046FFF716FFA1
S11352B0002010BD01F00F0141F080011AE701F058
S11352C00F0117E708B903207047426812B100685C
S11352D0126910470620704710B508B9032010BDA5
S11352E0002918BF002A12D08B7803F00F04082C71
S11352F00DD2640044EAD31300EBC3031468DC60EA
S113530052681A610A46BDE81040022103E70420EE
S113531010BD73B5044601F00F05CE090CB9032086
S113532076BD01AA0321FFF7F6FE082D07D246EA4F
S1135330450104EBC1010022CA600A6176BD042064
S113534076BD02B501F00F01082902D26A46042194
S11353500BE0042002BD02B501F00F01082902D2BE
S11353606A46052101E0042002BDFFF7D4FE02BD18
S11353700000000010B501230AB9042010BD891EE5
S1135380062900F18C0417D8DFE801F004060E109A
S1135390080A12000C210CE00D210AE0A07800E0BC
S11353A020780023107007E0062102E0072100E0C6
S11353B00921FFF7B0FE0346184610BD10B50123BE
S11353C0032900F18C0406D0062906D0072908D049
S11353D0092913D016E00E2111E09AB110780023A8
S11353E007E0A178032906D062B110782070002369
S11353F00320A07006E02246082100E00A21FFF7FE
S11354008AFE0346184610BD0B5B0000795B000062
S1135410B35B0000215C0000C75C0000095D000074
S113542010B5044600F03AF900F027F851B1817C38
S11354308C4207D1002101604160817400F038F989
S1135440002010BD00F034F9042010BD38B500F080
S113545017F800F012F819B1817C8C4200D113E0E6
S113546007E038B500F00CF800F007F88C4200D1E2
S11354700AE000F01DF9042032BD6148016870475C
S113548004460D4600F00AB9286000F011F9002026
S113549032BD38B5FFF7F4FFFFF7EFFF21B1807C91
S11354A0844201D12960F0E7E3E7F8B50C461546DC
S11354B001261DB16946FFF7D4FF08B10420F2BDEF
S11354C0002705E0491CC9B2032907D37F1CFFB29A
S11354D000984068017A8F421CDA002102680C238C
S11354E013FB07230FF28412D3F808E09EF804E0BC
S11354F002EB011C9CF80C207245E3D15868DCF8DF
S113550008302A4621469847052804D00028DDD1D2
S11355100026DBE73046F2BD70B582B00D46044686
S113552016466946FFF79DFF88B9012D08D10099F9
S1135530204600F06CFF009A02212046FFF7B5FFD9
S1135540009B5B685B68324629462046984776BDD7
S11355502DE9F843914601240F46B9F1000F18BF15
S1135560002F804601D0786808B9042045E000F097
S113557095F8234E306828B1B17C884502D100F0FB
S113558097F816E018B100F093F8022411E086F8B9
S1135590128000F08DF8776032461A494046FFF7D2
S11355A009FE040007D03068FFF773FE4046FFF79A
S11355B037FF204621E000270FF2B00415E0002554
S11355C0706800680C2111FB07012B0188680079C1
S11355D01A19127B904203D11B590A1D4046984761
S11355E06D1C032DECD37F1CFFB27068007A8742D8
S11355F0E5DB3068C9F800000020BDE8F283000054
S11356000006FF1F1955000070B582B004466946B4
S1135610FFF71CFF050027D1002517E0002600989E
S1135620406800680C2111FB05000FF240018268FC
S1135630127901EB06110B7B9A4202D1406849684A
S11356408847761C032EEAD36D1CEDB2009840689F
S1135650007A8542E2DB00980068FFF71AFE050035
S113566004BF2046FFF7DCFE284676BD3750000015
S113567081500000914E000001000000617C000098
S1135680557D0000717D0000030000000000000053
S11356900000000000000000000000000A4801783B
S11356A0002900D172B60178491C017070470000CE
S11356B00548017800291FBF491E0170C9B200299D
S11356C000D162B6704700001C09FF1F2DE9F041AC
S11356D004461D460E461746FFF7E0FF47EA460814
S11356E004EB081006F00F02C16A41F48043C36260
S11356F007F001016668760A760246EA42165B0AFA
S113570046EA011603F0080333435D606368C06A28
S11357105B0A5B0243EA421242EA0111420A02F0C6
S113572008021143069A92054009920D00F04000C8
S113573040EA024040F088000860FFF7B9FF00F03B
S11357400CF9BDE8F08180B5C16A4A0A02F008028A
S113575012180C32026221F400610022826241F4C8
S1135760005108224262C16200920022036A0021B1
S1135770FFF7ACFF01BD70B5011DFF224B6883F834
S113578088204B6893F8944044F0020483F89440D2
S113579000234C6884F898300E68760A03F00F04EE
S11357A0760246EA4416002500F038F846F008066A
S11357B000F034F846F0100635600E68760A76027A
S11357C046EA441444F01804256000EB4315002411
S11357D0EC6200255C0044F0010400EB0414E56273
S11357E04C6804EB83045B1C082B84F8C050D3D3AF
S11357F000F5907005704B6893F8944004F0FD0434
S113580083F894404B6883F88C2089224B6883F892
S113581084204570486800F008F870BD35600E6853
S1135820760A760246EA4416704790F8941001F01E
S1135830DF0180F89410704770B50C888B78C978B4
S113584003F00F02DB09012943EA420505D1B4F54F
S1135850806F0ED340F2FF340BE0412C28BF40246C
S1135860816801EB820191F8C06046F0010681F87D
S1135870C06000EB0511002BCD6A25F48045CD6294
S113588064F30905CD62CC6A24F40064CC6224F488
S11358908064CC6214BF04210821846804EB820470
S11358A094F8C050294384F8C01053EA020108BF99
S11358B0FFF749FF002070BD70B5044601F00F05E5
S11358C0C80940EA4506204600F0FDF9A06800EB4F
S11358D08500002180F8C01004EB0610C16A890A13
S11358E08902C162002070BD70B5044601F00F004A
S11358F0C90941EA400204EB0212D36A23F480632B
S1135900D36223F40063D36200236668450145EA49
S11359100115760A45EA462503F0010645EAC6055F
S11359202E68760705D5D66AB605B60946F0080688
S11359302E605B1C022BE8D3A26802EB80020843B2
S113594092F8C03003F0FD0382F8C03004BF204653
S1135950FFF7F9FE00F001F870BDA06890F894100C
S113596001F0DF0180F89410002070472DE9F04722
S1135970044684B0A06808228030017C0270C1F320
S113598003186068400A4002C1F3C00A40EA4810A4
S1135990C1F3800140EA0A1040EAC1000068C0F384
S11359A00949C0F383000D284AEA480004EB0015B6
S11359B00CBF01270027E86AC0F3803000284FD0CD
S11359C004F5907007B1C170BAF1000F35D0A96A1F
S11359D04944A9626A6A561AE96A81F40061E96273
S11359E081F48051E96203D08905B9EB915F1CD23F
S11359F0A96A0191296A0091E96A21F48041E96266
S1135A008905B9EB915F08BFB8F1000F1BD1C078CD
S1135A10696A04EBC000408A814214D220680023E2
S1135A2000220021FFF746FC1AE02A6A334648F0B8
S1135A308001204600F0BDF812E059EA080111D1B6
S1135A4000200190009048EACA108DF808008DF8F3
S1135A50097069462068FFF7A0FBA068FFF7E5FE20
S1135A60BDE8FF87E96AC1F34033BBB963685B0AE9
S1135A705B02490A43EA481201F0080111434968EC
S1135A802A6AAB6A9A18914206D0002302E05E5C4F
S1135A909E545B1C4B45FAD300210170A86A48440C
S1135AA0A862696A0E1AB8F1000F0DD167B180219E
S1135AB0204600F008F9E06A40F40060E062E06B20
S1135AC040F40060E06303E0E86A80F40060E862A8
S1135AD0E86A80F48050E862696A002918BF002EE1
S1135AE003D08005B9EB905F08D2A86A0190286AB8
S1135AF00090E86A20F48040E862A4E72A6A33460A
S1135B004146204600F08CF8AAE770B515460FF21E
S1135B10CC3282B0136800930C4630BB144E86F826
S1135B20220106F592710098F161B060FF2180F8BE
S1135B30801000220121304600F0E6F80D48B168DB
S1135B407060000A81F89C00B1687068000C81F8EC
S1135B50B000B1687068000E81F8B4003046FFF7F9
S1135B600AFE2E603460002076BD062076BD00005B
S1135B70B806FF1F0004FF1F08B90320704782689E
S1135B80FF2182F88010816891F88420002281F836
S1135B9084200021826882F89810826882F8941028
S1135BA0806890F8001141F0C00180F800110020D5
S1135BB070472DE9F041804601F00F00400040F0AD
S1135BC0010008EB001782B0F86A1D460126C0F3F5
S1135BD0803030B9B8623A627D62F86A40F40050AD
S1135BE0F86201F00F04F86A8005800DA84238BFFE
S1135BF0054698F8210148B90095386AB96A0B1826
S1135C00012221464046FFF761FD0646B86A284353
S1135C1002BF002C4046FFF796FD3046BDE8F681F2
S1135C202DE9F041044601F00F00400004EB001799
S1135C3082B0F86A1E460125C0F3803010B9B862FC
S1135C403A627E62F86A40F4005083059B0DF86264
S1135C50B34238BF1E46BB6AD4F81CC09B18BCF1C3
S1135C60000F04F5907211D092F800C0BCF1000F3F
S1135C700CD1412E0AD216F0030F08BF13F0030C07
S1135C8004D020F40050F862E369157001F00F08A5
S1135C90507830B90096002241462046FFF716FDA1
S1135CA00546002E08BFB8F1000F09D1F86A80F448
S1135CB08050F86220F48040F8622046FFF743FDEC
S1135CC02846BDE8F681E0B501F00F03CA0942EAAF
S1135CD0430200EB0212D36AC3F380338BB14FF05B
S1135CE0FF330193136A8DF80810009300218DF897
S1135CF00910D16A21F48041D16269460068FFF736
S1135D004CFA00200EBD0000F8B504460B461146BF
S1135D1001200CB90320F2BD0C2BFCD8DFE803F002
S1135D20072030363D676D70819D9D879A00A1687C
S1135D30002081F80001A068017F490703D5017F95
S1135D4041F080010177A06890F8081141F010013A
S1135D5080F80811A06890F8941041F0010143E024
S1135D60A068017F490703D5017F01F07F01017716
S1135D70A06890F8081101F0EF0180F8081167E0BD
S1135D8000296AD02046BDE8F44055E5002964D0D6
S1135D902046BDE8F44009788EE500295DD00A78F4
S1135DA01146204602F00F05D609FFF78CFF46EA9C
S1135DB0450704EB0710C16A41F48061C1624A0AD5
S1135DC06068400A400240EA451040EA061002F0CA
S1135DD0080289051043890941F08C010160A0681B
S1135DE090F8941001F0DF0180F8941030E0A1B332
S1135DF02046BDE8F440097876E571B3088027E0D1
S1135E0059B30A7802F00F03082B26D2D00940EACE
S1135E10430004EB0010C06A800A00F001004880CF
S1135E2016E0D1B10878A16881F8980010E0002547
S1135E3045F08001C9B22046FFF73EFDE9B2204695
S1135E40FFF73AFD6D1C082DF2D32046FFF793FCB3
S1135E500020F2BD09B100200870F2BD00B97047FE
S1135E603EB50468A06890F88050280744BF2046D7
S1135E70FFF77CFDE80712D5A168012084F8210111
S1135E8081F8800069460020009010208DF80800F9
S1135E90002001908DF809002068FFF77EF928069C
S1135EA015D5A168802081F88000E06BC0F38020C4
S1135EB0002802BFE06AC0F38020002807D08021B8
S1135EC02046FFF711FD00212046FFF70DFDA068D5
S1135ED090F85C1109B180F85C1137BD00200740CF
S1135EE02DE9FC4104460F46904620681E4601AA4F
S1135EF00621FFF73FFA9DF804000525012818BF85
S1135F0000282ED138781F21084208D1206804F1D6
S1135F1010020421FFF72EFA0546207C18E000F059
S1135F201F01012902D10025258214E000F01F0081
S1135F30022812D1B8888DF800006A460020ADF816
S1135F40020005212068FFF715FA05469DF80200B6
S1135F5000F0030020820220306004F11000C8F831
