S01F00006C65645F64656D6F5F717370695F70617463685F726F6D2E7372656394
S1130000F0FF0220110500009B1300689B13006899
S11300109B1300689B1300689B130068000000009A
S11300200000000000000000000000009B130068B6
S11300309B130068000000009B130068AD12006869
S11300406915006869150068691500686915006814
S11300506915006869150068691500686915006804
S113006069150068691500686915006869150068F4
S113007069150068691500686915006869150068E4
S11303C06B636667FFFFFFFFFFFFFFFFFFFFFFFF9A
S11303D017FFB80BFFFFFFFFFFFFFFFF01FF010047
S11303E0FFFFFFFF001000000000000000000000FD
S11303F000200000000000000000000000000000D9
S1130400FFFFFFFFFFFFFFFFFFFFFFFFFEBDFFFF3B
S113051072B604488047044880470448804762B65E
S11305200348004735050000071400689D13006860
S11305305D1500684FF400500049084701000000B1
S3156800100018B572B64648474A016841F4804101609E
S315680010104FF08A71D1604449CB7803F01F03CB70D7
S315680010200B7843F004030B708B79DB06FCD51368E9
S3156800103043F4007313603D4A3D4B1C6814401C60C2
S315680010405C6822405A6000220A7224224A70002292
S3156800105002E000BF009A521C0092009AB2F5965FB1
S31568001060F7D3344B80221A7000220A73A2220A70C0
S315680010708A799207FCD5CA7802F01F02CA700022E4
S315680010800A7104224A714A7942F040024A718A79A1
S315680010905206FCD50A7802F03F020A7000210091D8
S315680010A04EF6602203E000BF0099491C0091009942
S315680010B09142F8D30168090E05D101680902090A47
S315680010C041F080710160416AC908C90041F00201B6
S315680010D04162016821F480410160016841F00301C1
S315680010E00160002102E000BF0099491C0091009947
S315680010F0B1F5707FF7D3016841F4804101600168FA
S31568001100890889000160016821F480410160BFF3A4
S315680011104F8FBFF36F8F62B607490848086011BDE5
S3156800112000A00D403880044000400640FFF8FFFEEE
S3156800113048900440005006400000FF1F000E270735
S31568001140DFF800F001FCFF1F10B500F055F8FFF757
S31568001150F7FF00F018F800F08FF80124204600F039
S3156800116037F84FF4FA7000F09BF8204600F030F834
S315680011706400052C28BF012400F04FF80028EDD044
S3156800118000F0A4F8EAE73248016841F47851016052
S315680011904FF480712F480160416081612E488168F3
S315680011A041F080018160816841F480718160816865
S315680011B041F400518160016841F080010160016875
S315680011C041F480710160016841F4005101601AE0E0
S315680011D0C207214903D50A6842F080020A6082077D
S315680011E003D50A6842F480720A60400703D5086826
S315680011F040F4005008607047184A1AB118491948EF
S3156800120000F090B8704718494FF480700860174826
S31568001210016821F01001016070471548154A416858
S3156800122003781268491C002B06D1D2060AD4022913
S3156800123009D10121017005E0D20603D5022902D140
S31568001240012141700021416001784078084070476B
S31568001250388004401CB004408CF00F404001000008
S315680012600010006800FCFF1F1090044014F00F4047
S315680012700400FF1F10F00F40104800684FF47A71A1
S31568001280B0FBF1F0401EB0F1807F08D20C490D4AE0
S315680012904860F0201070002088600720086070475A
S315680012A00949086008680028FCD170470648016843
S315680012B011B10168491E0160704700000000FF1FF8
S315680012C010E000E023ED00E00C00FF1F30B58BB0A6
S315680012D072B6124804682169496804A888474FF4B9
S315680012E08060002150F8042B4DF82120491C042900
S315680012F0F8D325690A4B2D694FF40062002104A8CA
S31568001300A84725696D6910236A464FF4806104A869
S31568001310A8472168002088470BB030BD1C00001C18
S315680013206B66656B62B38B0708D0521E11F8013B7A
S3156800133000F8013B00F024808B07F6D1830740F064
S31568001340208000BF103A07D330B4B1E83810103A9D
S31568001350A0E83810F9D230BC530724BFB1E80810AA
S31568001360A0E8081044BF51F8043B40F8043BD20794
S3156800137024BF31F8022B20F8022B44BF0B78037088
S315680013807047083A07D3B1E80810083A40F8043BB2
S3156800139040F804CBF7D25307E4E7FEE780B50E4979
S315680013A00E4808600E490F48421A0F4888421CBF0B
S315680013B0002AFFF7B7FF0D480D49091A18BF00F054
S315680013C01FF80C490C48421A04D0BDE808400B487F
S315680013D0FFF7A8BF01BD000008ED00E000000000AF
S315680013E06C150068701500680000FF1F0400FF1F79
S315680013F01000FF1F00000000000000000000000051
S31568001400002200F001B87047401810F0030308D0B6
S31568001410C91A1FD3DB0748BF00F8012D28BF20F87B
S31568001420022D130030B414461546103928BF20E93A
S315680014303C00FAD8490728BF20E90C0048BF40F8A5
S31568001440042D890028BF20F8022D48BF00F8012D19
S3156800145030BC7047C91818BF00F8012DCB0728BFE4
S3156800146000F8012D704719E050F8041BCB0744BFFC
S31568001470A9F101035918121F0023042A41F8043BF5
S31568001480F9D25FEA827C0B4604D54FF0000CA1F8CE
S3156800149000C09B1CD10744BF0021197050F8042B6B
S315680014A0002AE1D1704710B450F8041B79B102687C
S315680014B0436812180830DC0744BFA9F10104E31831
S315680014C052F8044B43F8044B091FF9D1ECE710BCFA
S315680014D07047000010B5074979441831064C7C44BA
S315680014E0163404E00A68081D511888470146A14267
S315680014F0F8D110BD08000000280000006BFFFFFF50
S315680015000C0000000400FF1F000000009BFFFFFFA7
S3156800151004000000580000000000FF1F00000000E3
S3156800152000F00BF8002801D0FFF7D4FF0020C04672
S31568001530C046FFF709FE00F002F80120704700F088
S3156800154001B800000746384600F002F8FBE70000DD
S315680015502021090326311820ABBEF9E7C046C046EC
S31568001560C046C046FFF7DCFFFFF7FEBF00D8B805E8
S9030511E6
