S01C00006C65645F64656D6F5F70666C6173685F613030302E73726563A2
S113A0000020012031A700004FA500004FA500004B
S113A010000000000000000000000000000000003C
S113A0200000000000000000000000004FA5000038
S113A03000000000000000004FA50000F7A400008D
S113A04099A7000099A7000099A7000099A700000C
S113A05099A7000099A7000099A7000099A70000FC
S113A06099A7000099A7000099A7000099A70000EC
S113A07099A7000099A7000099A7000099A70000DC
S113A08099A7000099A7000099A7000099A70000CC
S113A09099A7000099A7000099A7000099A70000BC
S113A0A099A7000099A7000099A7000099A70000AC
S113A0B099A7000099A7000099A7000099A700009C
S113A0C099A7000099A7000099A7000099A700008C
S113A0D099A7000099A7000099A7000099A700007C
S113A0E099A7000099A7000099A7000099A700006C
S113A0F099A7000099A7000099A7000099A700005C
S113A10099A7000099A7000099A7000099A700004B
S113A11099A7000099A7000099A7000099A700003B
S113A12099A7000099A7000099A7000099A700002B
S113A13099A7000099A7000099A7000099A700001B
S113A3C06B636667FFFFFFFFFFFFFFFFFFFFFFFFFA
S113A3D017FFFFFFFFFFFFFFFFFFFFFF01FF01006C
S113A3E00000000000000000000000000000000069
S113A3F0FFFFFFFF0000000000000000000000005D
S113A400FFFFFFFFFFFFFFFFFFFFFFFFFE3DFFFF1B
S113A41020B500F011F800F04DF80125280000F0F7
S113A4202EF8FA20400000F060F8280000F027F829
S113A4306D00052DF2D3F0E710B51B480168F82232
S113A44092010A4302601948810D016041608160F4
S113A4501748012182680A438260022283681343F9
S113A4608360042384681C4384600468214301607E
S113A47001680A43026001680B43036010BD0C4984
S113A4800122104202D00B681A430A6002221042D1
S113A49002D00B681A430A600422104002D00868F4
S113A4A002430A60704700003880044000B0044052
S113A4B08CF00F4000B514480068FA21890000F0C0
S113A4C02BF8401E8021490488420DD20F49486070
S113A4D00F4802681202120AC0231B0613430360CA
S113A4E0002088600720086000BD0A4908600868E9
S113A4F00028FCD1704707480168002902D0016890
S113A500491E01607047000000A0FF1F10E000E03A
S113A51020ED00E004A0FF1F094214D088420FD3AD
S113A5200122030C01D100041204002300185B4132
S113A5308B4200D35B1A5241F8D3190010007047C4
S113A54001000020704708B500F002F808BDFEE7DE
S113A5507047000080B50D480D4908600D490E484C
S113A560421A0E48884203D0002A01D000F022F893
S113A5700B480C49091A01D000F06CF80A490B4841
S113A580421A02D00A4800F015F801BD00A00000EC
S113A59008ED00E0A0A70000A4A7000000A0FF1F92
S113A5A004A0FF1F08A0FF1F00000000000000001F
S113A5B000000000124207D08B0706D00B78491C1C
S113A5C00370401C521EF7D87047830706D00B78DF
S113A5D0491C0370401C521EF9D1704770B4103AE4
S113A5E003D378C9103A78C0FBD2530701D318C9F2
S113A5F018C001D508C908C0D20704D30B8803804A
S113A600891C801C002A01D50B78037070BC70472C
S113A610094205D0830705D00270401C491EF9D1B8
S113A62070470000130030B414001500103902D331
S113A63010393CC0FCD2490700D30CC000D504C07B
S113A640890002D30280801C002900D5027030BC2E
S113A650704700000022DBE770B40121002313E0FF
S113A6600468001D0C4202D04D466D1E641923601F
S113A670241D121F042AFAD22500960701D523802F
S113A680AD1C0A4000D02B700268001D002AE7D1DF
S113A69070BC704730B401210268001D002A0FD03D
S113A6A00368C318446808300C4202D04D466D1E3E
S113A6B064191D6825601B1D241D121FECD0F8E7CA
S113A6C030BC704710B5074979441831064C7C44B6
S113A6D0163404E0081D0A68891888470100A1425D
S113A6E0F8D110BD08000000280000006DFFFFFF36
S113A6F00400000004A0FF1F0000000099FFFFFFFA
S113A700040000009C00000000A0FF1F00000000E7
S113A71004480549C1810549C181E92149000180F5
S113A720704700000020054020C5000028D9000023
S113A73072B6034880470348804762B60248004720
S113A74011A7000055A500008DA7000000F00BF82C
S113A750002801D0FFF7B6FF0020C046C046FFF72F
S113A76057FE00F002F80120704780B500F002F8AF
S113A77001BD00000746384600F002F8FBE7000080
S113A7802021090326311820ABBEF9E7C046C04694
S113A790C046C046FFF7DAFF0048004799A700000B
S107A7A00000400170
S903A73124
