S01A0000666C6173686C6F616465725F6C6F616465722E73726563AF
S11300000060002011040000D3860000D3860000A5
S1130010D3860000D3860000D386000000000000D1
S1130020000000000000000000000000D386000073
S1130030D386000000000000D3860000D3860000B1
S11300403D8800003D8800003D8800003D88000098
S11300503D8800003D8800003D8800003D88000088
S11300603D8800003D8800003D8800003D88000078
S11300703D8800003D8800003D8800003D88000068
S1130400FFFFFFFFFFFFFFFFFFFFFFFFFEFFFFFFF9
S113041072B60E480E49886000220023002400258D
S113042000260027B846B946BA46BB46BC4609482A
S1130430854609488047094880470948804762B68D
S113044000200021074A9047FEE70000000000005A
S113045000ED00E000600020E5870000D586000084
S11304601B870000B104000072B60D49002008602B
S1130470BFF36F8FBFF34F8F704780B548F2A4125C
S11304800FF23401074808F0F9F8FFF7EDFF0648CA
S113049080F3088880F309880448BDE802400047D7
S11304A008ED00E000C0FF1F7062002011C4FF1FB0
S11304B080B5FFF7E2FFFEE77062002011C4FF1F62
S11304C0EBC4FF1F5DEFFF1F5FEFFF1F61EFFF1F17
S11304D063EFFF1F000000000000000000000000A8
S11304E000000000EBC4FF1FEBC4FF1F000000006E
S11304F0EBC4FF1F5FCCFF1F3B4100203B410020AA
S11305003B4100203B4100203B4100203B41002077
S11305103B4100203B4100203B4100203B41002067
S11305203B4100203B4100203B4100203B41002057
S11305303B4100203B4100203B4100203B41002047
S11305403B4100203B4100203B4100203B41002037
S11305503B4100203B410020AD180020B118002091
S11305602DF1FF1F31F1FF1F3B4100203B410020D3
S11305703B410020652600203B41002071260020DD
S11305803B4100208D2600203B4100203B410020C0
S11305903B4100203B4100203B4100203B410020E7
S11305A03B4100203B4100203B4100203B410020D7
S11305B03B4100203B4100203B4100203B410020C7
S11305C03B4100203B4100203B410020E73C002010
S11305D03B4100203B4100203B4100203B410020A7
S11305E03B4100203B4100203B4100203B41002097
S11305F03B410020B5CDFF1F3B4100203B41002083
S11306003B4100203B4100203B4100203B41002076
S11306103B4100203B4100203B4100203B41002066
S11306203B41002069F8FF1F6BF8FF1F6FF8FF1FA5
S11306303B4100203B41002073F8FF1F3B41002059
S11306403B4100203B4100203B4100203B41002036
S11306503B4100203B4100203B4100203B41002026
S11306603B4100203B4100203B4100203B41002016
S113067079F8FF1F7BF8FF1F81F8FF1F3B41002023
S11306803B41002083F8FF1F3B4100203B410020F9
S11306903B4100203B4100203B4100203B410020E6
S11306A03B4100203B4100203B4100203B410020D6
S11306B03B4100203B4100203B4100203B410020C6
S11306C03B4100203B4100203B4100203B410020B6
S11306D03B4100203B4100203B4100203B410020A6
S11306E03B4100203B4100203B4100203B41002096
S11306F03B4100203B4100203B4100203B41002086
S11307003B4100203B4100203B4100203B41002075
S11307103B4100203B4100203B4100203B41002065
S11307203B4100203B4100203B4100203B41002055
S11307303B4100203B4100203B4100203B41002045
S11307403B4100203B4100203B4100203B41002035
S11307503B4100203B4100203B4100203B41002025
S11307603B4100203B4100203B4100203B41002015
S11307703B4100203B4100203B4100203B41002005
S11307803B4100203B4100203B4100203B410020F5
S11307903B4100203B4100203B4100203B410020E5
S11307A03B4100203B4100203B4100203B410020D5
S11307B03B4100203B4100203B4100203B410020C5
S11307C03B4100203B4100203B4100203B410020B5
S11307D03B4100203B4100203B4100203B410020A5
S11307E03B4100203B4100203B4100203B41002095
S11307F03B4100203B4100203B4100203B41002085
S11308003B4100203B4100203B4100203B41002074
S11308103B4100203B4100203B4100203B41002064
S11308203B4100203B4100203B4100203B41002054
S11308303B4100203B4100203B4100203B41002044
S11308403B4100203B4100203B4100203B41002034
S11308503B4100203B4100203B4100203B41002024
S11308603B4100203B4100203B4100203B41002014
S11308703B4100203B410020FFFFFFFFFFFFFFFF44
S1130880FFFFFFFFFFFFFFFFFFFFFFFFFFFFFFFF74
S1130890FFFFFFFFFFFFFFFFFFFFFFFFFFFFFFFF64
S11308A0FFFFFFFFFFFFFFFFFFFFFFFFFFFFFFFF54
S11308B0FFFFFFFFFFFFFFFFFFFFFFFFFFFFFFFF44
S11308C0FFFFFFFFFEFFFFFF72B60E480E49886070
S11308D0002200230024002500260027B846B9463C
S11308E0BA46BB46BC46094885460948804709487C
S11308F080470948804762B600200021074A904794
S1130900FEE7000000C0FF1F00ED00E07062002061
S1130910252A002001E5FF1F47E5FF1F4DDEFF1FCD
S11309200000000000000000002A01D101207047EF
S1130930F0B41F46034603242340002B09D00424AB
S1130940E31A017001300824E141521E26D05B1ED7
S1130950F7D1042A1ADB13D0002F11D00C460D4610
S11309600E46102A02DB72C0103AFAE70C2A02DBA8
S113097032C00C3AFAE7082A02DB12C0083AFAE756
S1130980042A03DB01600430121FF9E7002A05D0B2
S1130990017001300824E141521EF7D1F0BC00205F
S11309A07047FEE78DCFFF1F000000009FCFFF1FA1
S11309B00000000035D0FF1F83D1FF1F23D0FF1F8D
S11309C0A7D0FF1F57D2FF1F000000000000000047
S11309D000000000D9CFFF1F00000000B3CFFF1FAD
S11309E0A7D0FF1F6BD2FF1F00000000D5D2FF1F4E
S11309F00000000043CFFF1F000000000DD0FF1FC8
S1130A00000000000000000000000000F5D2FF1FFD
S1130A10000000001BD3FF1F0000000057D3FF1F7E
S1130A2083D1FF1F00000000000000000000000050
S1130A300000000000010246D5DEFF1F29DFFF1F72
S1130A400000000047DFFF1FD5DFFF1F91E1FF1FFC
S1130A50C1E1FF1F23E2FF1F2FE2FF1FB7E2FF1FC9
S1130A60BDE3FF1F000000005BE0FF1F4DE1FF1F1F
S1130A70A1E0FF1F000000003BE3FF1F0000000097
S1130A800000000000000000000000000000000062
S1130A90154100201F4100202941002000000000D2
S1130AA000000000F1EFFF1F33F0FF1F8BF0FF1F6A
S1130AB00000000000000000BFF0FF1FF5D4FF1F7E
S1130AC025D5FF1F65D5FF1F25D6FF1F0000000099
S1130AD05FD6FF1FB7F3FF1FA7F5FF1FC7F5FF1F63
S1130AE00000000000000000EFF5FF1F15190020B2
S1130AF057190020391A00200000000000000000EF
S1130B00651A0020CBEDFF1F55ECFF1F7DECFF1F86
S1130B10F9ECFF1F35EDFF1FB9ECFF1F526561644F
S1130B20790D0A005472616E7366657272696E673C
S1130B300D0A0000537563636573730D0A000000AA
S1130B404661696C7572650D0A000000EB3C904DBE
S1130B505357494E342E310002010100022000FF98
S1130B607FF080000100010001000000FF7F000011
S1130B70000029313233344B696E65746973205532
S1130B8053420000F0FFFFFFFFFFFFFFFFFFFFFFE7
S1130B90FFFF000046534C204C6F616465722008CF
S1130BA00000000000000000000000602C42000073
S1130BB000000000412E0066007300650076000FFF
S1130BC000DA65006E007400730064000000000029
S1130BD0FFFFFFFF46534556454E7E31202020122D
S1130BE0000000602C422C42000000602C420200F5
S1130BF00000000042650072005F0069006E000F93
S1130C0000A86400650078000000FFFFFFFF0000FB
S1130C10FFFFFFFF012E006D006500740061000FEF
S1130C2000A864006100740061005F006E000000B1
S1130C30650076004D45544144417E3120202022F8
S1130C40000000602C422C42000000602C42000096
S1130C5000000000412E0054007200610073000F78
S1130C6000256800650073000000FFFFFFFF00001F
S1130C70FFFFFFFF5452415348457E31202020227C
S1130C80000000602C422C42000000602C42000056
S1130C900000000042200049006E0066006F000F53
S1130CA0007272006D006100740069006F00000042
S1130CB06E00000001530079007300740065000F9A
S1130CC000726D00200056006F006C00750000007B
S1130CD06D00650053595354454D7E312020201634
S1130CE0000000602C422C42000000602C420300F3
S1130CF000000000494E464F202020205458542024
S1130D00000000602C422C42000000602C420500D0
S1130D10010000005354415455532020545854208A
S1130D20000000602C422C42000000602C420600AF
S1130D30010000002E20202020202020202020320E
S1130D40000000602C422C42000000602C42020093
S1130D50000000002E2E2020202020202020201003
S1130D60000000602C422C42000000602C42000075
S1130D70000000004E4F5F4C4F47202020202020D1
S1130D80080000602C422C42000000602C4200004D
S1130D90000000007B0033003700320030003300D5
S1130DA04200460038002D0046004400380033005D
S1130DB02D0034003300320031002D004100340096
S1130DC0430034002D003900410039004100420045
S1130DD046003800460042004300460044007D00BF
S1130DE0000000002E20202020202020202020325F
S1130DF0000000602C422C42000000602C420300E2
S1130E00000000002E2E2020202020202020201052
S1130E10000000602C422C42000000602C420000C4
S1130E200000000042470075006900640000000FE4
S1130E3000FFFFFFFFFFFFFFFFFFFFFFFFFF0000BB
S1130E40000000000149006E006400650078000F96
S1130E5000FF6500720056006F006C007500000012
S1130E606D006500494E444558457E3120202020C0
S1130E70000000602C422C42000000602C42040060
S1130E804D0000009BE6FF1F9FE6FF1FB1E6FF1F1A
S1130E90EFE6FF1F0000000000000000010000005A
S1130EA001000000D1CCFF1F88CAFF1F98CAFF1F92
S1130EB0A0CAFF1F020000000000000015CDFF1FA4
S1130EC034C6FF1F44C6FF1FA0CAFF1F0400000052
S1130ED00100000041CDFF1FECC5FF1FFCC5FF1F33
S1130EE0A0CAFF1F080000000000000089CDFF1FFA
S1130EF01CC6FF1F2CC6FF1FA0CAFF1F1000000046
S1130F000000000000000000BCCAFF1F0000000039
S1130F10CCCAFF1F00000000000000000000000019
S1130F200000000000000000000000000123002079
S1130F303F2300205124002005250020084C0020D8
S1130F4071250020F52500200F2600200000000058
S1130F500000000049260020D5260020DB260020C2
S1130F6043270020E1270020D9260020ED27002078
S1130F70B526002035390020333A0020233B0020D9
S1130F80593B00208F3B0020B33B00203B3C00201A
S1130F90CF3C0020DF3C0020E33C002000000000A8
S1130FA038B504463D4D0020C5E90000C5E90200FE
S1130FB0C5E9040028626862394800F0A0F8C5E970
S1130FC006012046BDE834400FF2550100F05FB938
S1130FD000F06FB970B5314D0C46296A072904BF7A
S1130FE0696A88421AD100F093F8C0EB0016D5E97B
S1130FF00001D5E902231018B6FBF0F00A2148439A
S11310004FF49661B0FBF1F0401D0A21B0FBF1F002
S11310104FF4966148432060002070BD012070BDEC
S11310202DE9F843064600F05AF81C4F0446386A86
S1131030D7E904598846421CD7E90601651B68EBC9
S11310400909494502D82CBFA8420122012A3A6263
S113105006D0042A08D0052A0ED0072A0FD018E09B
S1131060C7E900487E6214E0D7E90001201A68EB62
S11310700101C7E900010CE0C7E9024809E0D7E92A
S11310800201201A68EB0101C7E90201304600F0B1
S113109010F9C7E90448BDE8F1830000204B0020A3
S11310A0803801001E48002101606FF07F421D4915
S11310B04A6000228A6007220A601B491B4A0968A9
S11310C0C900B1FBF2F101B9012141607047154833
S11310D00168C908C9000160002181607047104996
S11310E00A68134800680B68C0430002000A9A4269
S11310F0F6D1002110EB026051EB12217047084930
S11311004968A1FB0001C00840EA4170C908704762
S113111005480068704702480168491C016070472F
S1131120F44B002010E000E0BC42002040420F00DD
S113113018E000E00901002806D5694A00F00F0014
S1131140801800F8041C7047664A8154704750F8B0
S11311502130120423F4702302F470221A430FE0A6
S113116050F82100C0F30060704706E0120202F458
S1131170706242F0200203E000BF120202F47062C7
S113118040F821207047F8E7012800D0704710B5D7
S1131190554C19B102290ED004D310BD0020606053
S11311A0206010BD4FF4807060605048016821F0E9
S11311B00201016010BD032201212046FFF7D5FF83
S11311C02046BDE8104003220021CEE700B170475D
S11311D010B5474C11B1022903D010BD20606060E6
S11311E010BD022201212046FFF7C0FF2046BDE8C2
S11311F0104002220021B9E7012800D0704710B541
S11312003C4C11B1022906D010BD00202061606160
S1131210A061E06110BD072204212046FFF7ACFF66
S1131220072205212046FFF7A7FF072206212046B3
S1131230FFF7A2FF2046BDE81040072207219BE7E5
S113124000B1704710B52A4C11B1022903D010BD6A
S1131250E064A06410BD022213212046FFF793FF2F
S11312602046BDE81040022212218CE780B50121FE
S11312701D48FFF775FF48B11F484168080005D0B5
S1131280012088471D494FF0FF30086001BD10B5AB
S113129001280C460CD101213F20FFF74BFF1849D0
S11312A04FF0004008600A2200F016F8124844602B
S11312B010BD012800D0704780B512494FF000409E
S11312C0086000213F20FFF735FF002200F004F8FA
S11312D009490020486001BD0121034837E70000A7
S11312E018ED00E000E400E000D0044014F10F40E9
S11312F000A0044000C00440004C0020A0D00440E2
S113130004E100E084E100E0DFF81C16C968C96864
S11313100020086070472DE9F041DFF80C5682B0D8
S1131320E86900248DF801404669002E62D0E9681E
S1131330C9680A68012A4CD001F1080274680023C4
S1131340091DA04704001FBF42F21270844242F2FA
S1131350137084424ED1E868C168D1F80880B8F1AE
S1131360000F47D04E68377837B1132F04DA8068FE
S113137000EBC700083800E00020086200281CBF0A
S1131380006800281CD02A699269694605F120008A
S11313909047040016D19DF8000040B14FF4E75087
S11313A0791EC840C00758BF42F211740AD5EA68D2
S11313B0D268126A1268414630469047002406E01B
S11313C042F210743946204600F036FA94B90120EE
S11313D00DE0086A48B14168080003D00DF101002E
S11313E0884704460CB1002001E09DF80100E9683B
S11313F0C96808602046BDE8F68180B50178002000
S113140000F01AFADFF82005C069416909698847C4
S1131410022000F091FABFF34F8FDFF81005DFF8D8
S11314201025016801F4E06111430160BFF34F8F9F
S113143000BFFDE7DFF8F004C068C06814210C3079
S113144000F0ACBA10B5044600F080FBFFE7217849
S1131450BDE81040F0E110B5DFF8CC241268526901
S11314600446A16860689047F1E710B500F04AF8B7
S1131470DFF8B404C068C0686168016108210177BD
S11314800020217800F0D8F9BDE8104000F037BD05
S113149030B583B0DFF89044A56800210191009134
S11314A06B4681684068AD6801AAC9B2C0B2A8475A
S11314B0E268D2680021116100998A08019900F05C
S11314C0CFF937BD10B5DFF860249268D2680446BE
S11314D06068A168C0B29047B9E710B500F012F88F
S11314E000F012F8042101770020B0E710B500F0F5
S11314F009F800F009F8032101770020A168BDE88C
S11315001040C4E1044695E7DFF81C04C068C068D5
S1131510A168016161684161704738B500F088F8DD
S1131520002141610161007F042804D12868006919
S1131530804704B90446E868C068017F204600F08B
S11315407BF942F21270844208D1E868C068007FD7
S1131550082804BFBDE8314000F010BD31BD2DE9BD
S1131560FC4100F065F8016921B900202070FFF703
S1131570D4FF5AE0012121700669476900200090D8
S11315800123E869D0F814C0DCF804C06A4601A954
S1131590E0475FEA000805D0E8694169C9688847FF
S11315A0404603E0009830B942F21270FFF7B5FFED
S11315B0002020703AE0B04288BF30460090E868CE
S11315C0C068017F082913D10199C1600099816124
S11315D00198009900F09DFC804642F27D708045A0
S11315E01CBF42F2747080450BD14FF0000808E034
S11315F02B68019A00999B68384698478046009862
S1131600C7190098361A06D0B8F1000F09D0E86956
S11316104169C96888474046FFF77FFF0020207072
S113162003E0E868C068066147610020BDE8F68110
S1131630BD4D0446E868C06870472DE9F047BA4DCF
S11316408AB00446E868C068016921B900202070A6
S1131650FFF763FF57E00121217006694769C168FC
S1131660027F212E2CBF4FF02008B046A9B142467C
S113167001A800F0DBFCE869D0F814C0DCF808C06D
S11316800123424601A9E047A6EB080606B1B0B320
S1131690FFF743FF0020207035E0032A08EB070919
S11316A007D12B685B6801AA4146384698478246B1
S11316B014E0102A18BF4F46DDD190F81DA000F0A9
S11316C061FD39462F69CDF800A04346FF6B01AA9E
S11316D005F12000B847824600F05AFDBAF1000F28
S11316E04F46C8D0E8694569AD680123002201A9C5
S11316F0A8475046FFF711FF0020207004E0E86877
S1131700C0680661476100200AB0BDE8F08710B5E3
S1131710854B1B68DB680446E268A16860689847EB
S113172095E62DE9F0410546824C6E68D5F80880AF
S1131730E8687D49206000274968103130B10A68A3
S1131740904223BF4968491C81420427304600F077
S113175045FD00B904272978384600F06DF89FB993
S11317606660002000F0E8F82068C4F8088018B12A
S113177080F3088880F30988616840468847BDE89B
S1131780F041002000F0D8B8BDE8F08138B5044637
S1131790606800F023FD08B9042005E065680120B5
S11317A000F0CAF8A068A84721780FE038B55E4D6C
S11317B0044600F0E7FC00F024F86D6B04F10C0221
S11317C0A847054600F0E4FC21782846BDE83440EB
S11317D032E030B583B0044668460021002206C0DA
S11317E0514D00F0CFFC00F00CF8AD6B6A46A847F1
S11317F0054600F0CDFCA2686946284600F04BF887
S113180037BD05F120002D69A3686168704710B5E4
S1131810FFF778FE4448C168C968A2680A61626833
S11318204A6110220A77C068C068E16841770020E5
S1131830A168BDE810405BE010B584B0A02201901F
S11318408DF80020002200F06AF88DF80220029141
S113185002228DF8032000234469A4680C225BE073
S113186010B588B0A72300F03AF80020531C8DF877
S1131870033006E06C4651F8203004EB8004401C31
S1131880A3609042F6D300F021F800231AE010B5CB
S113189084B0A3222FE010B588B0AF2300F01FF866
S11318A002238DF8033040B99008801C8DF80300A2
S11318B0029203A800F0CAFB01E00020029000237A
S11318C000F004F86946A04708B010BD1648C06986
S11318D09DF803104469A46889000A1D70478DF8B7
S11318E00030019000238DF801308DF802307047EC
S11318F010B584B0B0228DF800200190012200F0D0
S11319000EF8029100228DF80220002302228DF8A5
S113191003200C224469A4686946A0471FBD0248FD
S1131920C0698DF801207047B44100200CED00E03F
S11319300400FA05CC4B002070B50446022C04D0F8
S1131940002000F0D2FF012C0ED00026114D06E03D
S11319504019C16889680A0018BF8847761C182096
S1131960704341590029F3D174B900F00BFCFFF71F
S1131970AEFB01F044F8084900200860012001F0A2
S11319806FF801F07EF862B6BFF36F8FBFF34F8F2D
S113199070BD00BFE4C9FF1F08ED00E0002201F0A4
S11319A0BFB80268531C03601170704738B5934D7B
S11319B02B696C68DB6A2246042105F120009847F4
S11319C02B69DB6A6A46012105F1200098472068EB
S11319D000990818401E6060002032BDF8B5874F9A
S11319E00446786B0D464042164600EA0401621A2A
S11319F0AA1852421040424207F120003F697F6C0E
S1131A006B46B84748B99DF8000008B16C20F2BD98
S1131A1032462946204601F09EF8F2BD2DE9F043F6
S1131A2089B0914604460F4603AA00F0CEF8002878
S1131A3046D1BE08B600BF1B4FF0FF30069007909A
S1131A4005D03A4606EB090106A800F0EFFA06EBCA
S1131A5004086A4D56B1D5F810C0DCF814C03346FA
S1131A604A46214605F12000E04750B957B1D5F860
S1131A7010C0DCF814C0042306AA414605F1200076
S1131A80E047E8B99DF80C00C8B15EB104A8029023
S1131A90214605A801904B4600F015F8324600F0A7
S1131AA018F858B95FB104A8029006AB05A80190D4
S1131AB0082200F008F8414600F00BF800B90020B5
S1131AC009B0BDE8F083A8680069006DC0B2009059
S1131AD070472C69A46A05F12000204770B50446BC
S1131AE088B00D4600204DF82020401C0828FAD369
S1131AF075B12026202D98BF2E466A4631462046D1
S1131B00FFF78CFF002804BF3419AD1BF0D000E0B0
S1131B10002008B070BDF8B504460D46374E384B6A
S1131B2037693F692A46214606F12000B84760B963
S1131B30B16809690A6B42B10B6D21463469646A64
S1131B40DBB22A4606F12000A047F2BD10B52B4CAB
S1131B502B492269926804F12000904758B9A16882
S1131B6009690A6B22B12269096D00F029F810B9DC
S1131B70244A0121117010BD70B5154682B00022AF
S1131B802A700A461D4C2669766C01466B4604F1A0
S1131B902000B04798B99DF8001029709DF80010F6
S1131BA069B1184D297851B9A06800692269016D9D
S1131BB000F006F808B16C2076BD0121297076BDCD
S1131BC0126AC9B204F12000104710B514460B4A3A
S1131BD082B092681269126B02B1012249422270EA
S1131BE0890889006A464942FFF7C6FF20B99DF873
S1131BF0001009B10021217016BD0000B44100207D
S1131C006B66656B6E520020416882688A4209D215
S1131C10891A416082660FF26121016001218160AD
S1131C200020704742F2787070470FF2050113E00C
S1131C30416ADFF8D4334A898282CA68921E4260BC
S1131C404A689A4202D1097A022902DB42F275708B
S1131C5070470FF20D0100BF0160002070470000C3
S1131C6010B5044682B0606A41686268A161016887
S1131C70C91E9142A16002D342F2767016BD00895A
S1131C8010B142F2777016BD8DF800006946DFF896
S1131C907C2302F120001269926990479DF80000AC
S1131CA010B142F2817016BD2046FFF7ADFF16BD9C
S1131CB038B5DFF858532B689B680446626A216E76
S1131CC0E06D9847A8B9A1682069491E884203D3EA
S1131CD028680069804760B900F03AF800F033F8EA
S1131CE00098616E884200D038E00FF28D102060B9
S1131CF0002032BD38B50446C44D00F029F82B68E5
S1131D00626AE06D9B6810219847D8B9E06D103085
S1131D10E065206E10382066112828BFBC480FD219
S1131D2008B1BC480CE028680069804750B900F04D
S1131D300AF80098616E884200D00FE00FF2391063
S1131D402060002032BD694604F11C0000F050BF41
S1131D50616A102204F11C0000F034BF42F27A7070
S1131D6032BD10B5044604F11C0000F025FF206EBE
S1131D7011282CBFA648A748C8E0A44B1B68426E94
S1131D80016EC06DDB681847F8B50446B4F85A0014
S1131D90C0F30321C0074CBF08250425E66D0429C0
S1131DA001D00420F2BD00F0EDF904F16002974F78
S1131DB03C69646B2B46314607F12000A04704467A
S1131DC000F0E6F9002C14BF20460020F2BD70B5E7
S1131DD0044642F27F76E56D284600F0FFF980B1B3
S1131DE0606E04F11801A8470646012E03D120466F
S1131DF0BDE8704008E7022E03D100F080F800200F
S1131E0070BD304670BD10B500F15C01031D1C6847
S1131E104A685A60944202D242F2767010BD0A7A3D
S1131E20D20708D50A685C69A24204D1496811B195
S1131E309960002010BD90F85A10C9075CBFBDE836
S1131E401040FFF7E1BE42F27C7010BDB0F85A10AA
S1131E508A0707D4CA0707D5C1F30320002808BF9F
S1131E60FFF774BE04207047684A126852695C30F8
S1131E70416800681047000070B5044604F1580535
S1131E80616A2846102200F0E1F85A260120415DDB
S1131E907618401C1028FAD32878F1B2884202D070
S1131EA042F2797070BD69780A2942F2127023D81F
S1131EB0DFE801F01A060A0E24121A16241C1E006A
S1131EC02046BDE870409EE72046BDE8704048E7E4
S1131ED02046BDE8704050E72046BDE8704076E7F4
S1131EE02046BDE87040B1E7002070BD042070BDFD
S1131EF02046BDE8704047E742F27B7070BD10B5E4
S1131F00454C70212046FFF749FD444820600020DD
S1131F1010BDF8B504460D4600200026404FAE42E1
S1131F2017D03869C0F11000A91B09E079B13B69E9
S1131F30325DDA55761C3A69521C3A61401E491EDC
S1131F400028F3D1386100F005F810B9E7E742F250
S1131F507D70F2BD3049324A4A620020CA682AB113
S1131F600B69934209D0581C086101E08A6E12B9CA
S1131F70084609680847521E8A667047F8B5234C1C
S1131F8020680069804700283DD1234F97F8590005
S1131F90042824D107F15C052E68304600F01EF9B0
S1131FA0D0B10020FFF7C8FC97F85A00800711D57C
S1131FB0686868616168103160B10A68904222BF44
S1131FC04968491C814201D20420F2BD80F308888B
S1131FD080F30988A868B04742F27E70F2BD0828F1
S1131FE00FD10220FFF7A8FCBFF34F8F0D480E4A14
S1131FF0016801F4E06111430160BFF34F8F00BF3A
S1132000FDE742F27B70F2BD53544D50B4410020C1
S11320103DD8FF1FF9D7FF1FC44C002073D7FF1F03
S1132020384D00200CED00E00400FA0562B38B0784
S113203008D0521E11F8013B00F8013B00F0248047
S11320408B07F6D1830740F0208000BF103A07D3F6
S113205030B4B1E83810103AA0E83810F9D230BCE6
S1132060530724BFB1E80810A0E8081044BF51F892
S1132070043B40F8043BD20724BF31F8022B20F87C
S1132080022B44BF0B7803707047083A07D3B1E8BA
S11320900810083A40F8043B40F804CBF7D2530741
S11320A0E4E7000070B53F4E04460D46D6E9000152
S11320B0002908BF002805D14FF47A70FFF71FF8F4
S11320C0C6E90001657000202070C4E902002061A7
S11320D070BD38B504460D46607838B172B6607884
S11320E0401E60700020207062B632BD9DB1207821
S11320F098B1FEF7F4FFD4E90223801A294D9941DF
S1132100D5E9002300F08AFF2169814211D272B619
S11321100020207062B6022032BD15F1010F08D0F4
S113212072B60120207062B6FEF7D9FFC4E902013D
S11321302561032032BD4178FF2901D10120704778
S113214072B64178491C417062B600207047016044
S1132150704772B60168491C016062B601680029C3
S1132160FCD10120704772B60168491E01E072B6C5
S11321700021016062B6704772B60B490020086006
S113218062B6704772B608480168491C016070471E
S113219005480168022900D2EAE70168491E016086
S11321A070470000A04B0020E84B002038B50446DF
S11321B00D460020FFF7C0FB6E486F4A056044607F
S11321C000211160016881F3088881F3098840685F
S11321D08047BDE832400020FFF7AEBB10B582B0A7
S11321E000281EBF10F1010F6449884201D100206C
S11321F016BD6A46022101F005F8002418B90098BA
S1132200007A00B10124204616BD2DE9FC47DFF811
S113221070815C4DD8F80800006900F168072E460B
S113222009E0397C014205D07069F268816952681D
S113223030469047183630680028F2D10024A14671
S1132240CDE900494FF47A70FEF759FF06468A46F5
S113225000F05EFCA0BBFFF7C1FF88B3D8F808000C
S1132260006990F88600C00703D400210020FFF71E
S11322709DFF788A4FF6FF71884208BF41F288308B
S1132280A6FB00230AFB0033CDE90023FEF727FF5A
S113229004468946DDE90001002908BF00280FD063
S11322A0FEF71DFFDDE90023001B61EB09019942E4
S11322B006D301D8904203D300210020FFF776FF14
S11322C02E4600E0183630680028E3D0397C0142FD
S11322D0F8D0F1680968304688470028F2D0002E0B
S11322E0D8D009E0397C014218BFAE4203D0E96876
S11322F0896828468847183528680028F2D130466E
S1132300BDE8F68738B5FFF737FF00F0ABFB1C4C90
S11323102169496804F120008847A0680068804763
S1132320002000F09DFBFEF7BDFE2068006880479A
S1132330A06840688047FFF768FFE061016919B150
S113234009680A0018BF8847E069416919B109683A
S11323500A0018BF8847E06800688047E569E068BC
S113236040688047E868C1680800F8D02846884774
S1132370F5E70000D84B002008ED00E011C4FF1F72
S1132380B4410020E4C9FF1F7047000008B90420CD
S11323907047DFF86C150968090E01F00F010F2969
S11323A00FBF4FF480210FF2F05232F8111089025E
S11323B00022026041604FF48072012181604FF479
S11323C00061C160DFF83C1591F900309A40426128
S11323D0C978816100210161016241620020704776
S11323E038B5040001D1042032BDDFF81C256FF09C
S11323F03B4000F046F801D06B2032BD38E02DE9B7
S1132400F04389B0164680460D4600F0EAF9049B75
S113241000F0E3F904001BD1009D019F7019461ED2
S1132420B6FBF7F007FB106121B1401C7843461E50
S113243000E07D19AE4217D32802000ADFF8C81461
S113244040F010600860DFF8C404814502D06B24BA
S113245020465BE000F089F90446D8F8100001003A
S113246018BF8047002CE4D0404600F03EFAEFE766
S1132470204600F024FA0546204600F036FA2846A5
S113248032BD1060DFF88404814270472DE9F043C7
S113249089B004465FEA02080F461D4608BF0420BF
S11324A034D000F09FF9039B2A463946204600F0B9
S11324B03FFA5FEA000929D1009FDFF84C6402E08B
S11324C00398C7192D1AEDB158F8040B706039023E
S11324D00398090A042808BF41F0C06006D0082800
S11324E005D158F8040BB06041F0E060306020463C
S11324F000F0E5F981462069010018BF8047B9F171
S1132500000FDDD0204600F0F0F9484609B0BDE8E0
S1132510F08370B5040018BF002A01D1042070BDF7
S1132520DFF8E403DFF8E863CDB246EA0545056069
S113253010291568456002D01139032903D2082BEC
S113254004BF51688160204600F0B9F90546204671
S113255000F0CBF9284670BD2DE9F04389B05FEA5D
S11325600008914614BFB9F1000F04200E461D4621
S113257047D000F037F90698401E064208BF0542CE
S11325801AD1A919109C0020491E012C05D1002E36
S113259004BF691E07290AD10AE044B9FF2907D9F3
S11325A0B6F5000F03D3DFF86C23914200D3042067
S11325B038BBDFF854730DE0652022E0796849F8F0
S11325C0041B0699082904BFB96849F8041B069935
S11325D08E196D1AADB13002000A40F040703860B7
S11325E02006069940F0FF1040F47F40042908BFFC
S11325F0B86002D0082908BF786000F0B6F8002857
S1132600DCD083E7F8B51546002818BF002D0C462A
S11326101E4601D10420F2BDDFF8EC72DFF8F82287
S1132620E1B242EA0141396000F049F958B97968E8
S11326302960102C03D0A4F11101032903D2082E20
S113264004BFB9686960F2BD002818BF002901D130
S113265004207047DFF8C402007800F00302022A65
S113266008BF002005D000F0C00080280CBF012066
S1132670022008700020704710B50A46002818BFD1
S1132680002A01D1042010BDDFF890321C7800210B
S113269004F00304022C1ED06FF03A41C3F8021078
S11326A054781178240444EA0161947841EA0421BD
S11326B0D4782143C3F8061054791179240444EAE8
S11326C001619479D27941EA04211143C3F80A10D3
S11326D000F0F5F80146084610BD08B9042070471B
S11326E0DFF83C2280E02DE9F04F89B09246804625
S11326F00C4600F076F8059B52462146404600F011
S113270017F978BB6A462146404600F026F9009C3A
S1132710029E6042714208404542A54208BF7519B5
S1132720794F03E0AAEB0B0A5C447519BAF1000F68
S113273017D0281BD346824588BF83460598BBFB28
S1132740F0F02102090A000441F0807140EA0920F6
S1132750396040F0FF00786000F007F80028E1D00D
S113276000E0002009B0BDE8F08F4046A7E02DE965
S1132770F04389B080465FEA03090D46164608BF58
S1132780042029D000F02EF8079B00F026F818BB8F
S1132790009D109C5C4F05E007998A08761A09EBA6
S11327A082094D19C6B12802000A40F00070386051
S11327B0200640F0FF1040F47F407860D9F8000014
S11327C0B860FFF7D2FF0028E6D0119901B10D607F
S11327D0129909B100220A6098E632462946404619
S11327E0A6E099466A46B8E042EA0141464A1160C9
S11327F065E02DE9F04180461E000D46174608BFEE
S1132800042034D0042300F093F880BBD8F81430AB
S11328107A195F42C2F1000C07EA0C0CCCF1000CEF
S11328202F40ACEB07070021B7FBF3F7DFF8F4C048
S11328300AE0DCF800E0203C6FEA0E0E2EFA04F405
S1132840E40748BF491C5D1995420AD2B5FBF3F46D
S1132850202C38BFDCF804E0EED3D8F818E0744537
S1132860E7D319B1B94234BF022101213170BDE867
S1132870F0810000002818BF002A01D1042070470D
S113288009291AD8DFE801F00509090B0D0F111306
S11328901517C0681060002070474068FAE7806828
S11328A0F8E70068F6E70120F4E74069F2E7806999
S11328B0F0E7006AEEE7406AECE76A2070471A48DE
S11328C0702101708021017001780906FCD500781F
S11328D0810601D567207047C10601D5682070477D
S11328E0C0074CBF6920002070471049096851F4A3
S11328F070010E4A1160BFF36F8FBFF34F8F7047A3
S11329004C80044028000240040002406B66656B62
S1132910FFFF004300048000FFFF0041020002406B
S1132920FFFF0040180002400000024004F0014094
S113293008B9042070475B1E194208BF1A4201D02F
S1132940652070470368994221BF4068C018511838
S1132950884234BF66200020704770B505000E46DB
S1132960144601D1042070BD20212046FFF716F83B
S11329702868301A2060E8686060A9686868B0FB5D
S1132980F1F0A0600420E060082020616061042070
S1132990A061E061002070BD080010001800200054
S11329A03000400060008000C0000001800100028F
S11329B0000300040006000080B51B491B480860A2
S11329C01B491C48421A1C4888421CBF002AFFF7B6
S11329D02DFB1A481A49091A18BF00F063FC19485C
S11329E01949091A18BF00F05DFC18491848421A21
S11329F004D0BDE808401748FFF718BB01BD1648CE
S1132A004FF0FF31016041608160C160016141614B
S1132A108161C1611148016041608160C1600161EF
S1132A2041618161C161704708ED00E000C0FF1F92
S1132A30943D0020CC400020A4410020204B0020E5
S1132A407052002000460020204B0020A4410020AA
S1132A50A44100207052002080E100E080E200E008
S1132A607047000080B500F021FC2348416B41F41D
S1132A7078514163016821F4433141F441310160EB
S1132A8001BD1D481D4A416B21F478514163016821
S1132A901140016070471848016B41F480210163C3
S1132AA0016B490301D40020704715490A7842F0AC
S1132AB080020A700A781206FCD4016841F4E0210D
S1132AC001601048017841F080010170017941F002
S1132AD002010171012070470B480C490068096824
S1132AE0C0F30360401CB1FBF0F0704701289ABFAB
S1132AF0064800680020704704800440FFF3F8FF94
S1132B000C2107404021074044800440BC4200207F
S1132B10002070477047000062F30F2262F31F42E7
S1132B2000B500BF130096469446103928BFA0E8AC
S1132B300C50FAD85FEA417C28BF0CC048BF40F86B
S1132B40042BC90728BF20F8022B48BF00F8012B2B
S1132B5000BD00F0C3BB134680B50A4601461846C3
S1132B60FFF764FA002002BD70B510F0030F0C46A5
S1132B70154612D0B0F1005F0FD22118491EB1F1F1
S1132B80005F0AD3C0F1005632462946FFF74EFAD9
S1132B90A21B71194FF0005001E022462946FFF7AD
S1132BA045FA002070BD10B514460A462146BDE81A
S1132BB010400123FDF7B8BE4FF0FF310160002142
S1132BC04160704730B544680368141944600FF2DB
S1132BD04C0407E011F8015B85EA136554F82550AD
S1132BE085EA032315466A1E002DF3D1036030BD28
S1132BF030B54368026813F0030F0CD003F00303ED
S1132C00C3F104030FF21404150E54F825505B1E8F
S1132C1085EA0222F8D102600A6030BD000000009B
S1132C20B71DC1046E3B8209D926430DDC7604131B
S1132C306B6BC517B24D861A0550471EB8ED0826B2
S1132C400FF0C922D6D68A2F61CB4B2B649B0C354F
S1132C50D386CD310AA08E3CBDBD4F3870DB114CFC
S1132C60C7C6D0481EE09345A9FD5241ACAD155FDF
S1132C701BB0D45BC2969756758B5652C836196AE8
S1132C807F2BD86EA60D9B6311105A6714401D79D3
S1132C90A35DDC7D7A7B9F70CD665E74E0B623987D
S1132CA057ABE29C8E8DA191399060953CC0278BE7
S1132CB08BDDE68F52FBA582E5E66486585B2BBE6E
S1132CC0EF46EABA3660A9B7817D68B3842D2FAD8B
S1132CD03330EEA9EA16ADA45D0B6CA0906D32D42E
S1132CE02770F3D0FE56B0DD494B71D94C1B36C763
S1132CF0FB06F7C32220B4CE953D75CA28803AF26C
S1132D009F9DFBF646BBB8FBF1A679FFF4F63EE1C6
S1132D1043EBFFE59ACDBCE82DD07DEC777086348B
S1132D20C06D4730194B043DAE56C539AB068227FA
S1132D301C1B4323C53D002E7220C12ACF9D8E1239
S1132D4078804F16A1A60C1B16BBCD1F13EB8A016E
S1132D50A4F64B057DD00808CACDC90C07AB9778FB
S1132D60B0B6567C69901571DE8DD475DBDD936B3E
S1132D706CC0526FB5E6116202FBD066BF469F5E1F
S1132D80085B5E5AD17D1D576660DC5363309B4DF2
S1132D90D42D5A490D0B1944BA16D84097C6A5AC80
S1132DA020DB64A8F9FD27A54EE0E6A14BB0A1BF46
S1132DB0FCAD60BB258B23B69296E2B22F2BAD8A75
S1132DC098366C8E41102F83F60DEE87F35DA9992A
S1132DD04440689D9D662B902A7BEA94E71DB4E0ED
S1132DE0500075E4892636E93E3BF7ED3B6BB0F3C2
S1132DF08C7671F7555032FAE24DF3FE5FF0BCC6A3
S1132E00E8ED7DC231CB3ECF86D6FFCB8386B8D5E5
S1132E10349B79D1EDBD3ADC5AA0FBD8EEE00C69C5
S1132E2059FDCD6D80DB8E6037C64F643296087ACB
S1132E30858BC97E5CAD8A73EBB04B77560D044F1E
S1132E40E110C54B383686468F2B47428A7B005C9F
S1132E503D66C158E4408255535D43519E3B1D2558
S1132E602926DC21F0009F2C471D5E28424D19368F
S1132E70F550D8322C769B3F9B6B5A3B26D61503D4
S1132E8091CBD40748ED970AFFF0560EFAA0111023
S1132E904DBDD014949B93192386521D0E562FF1C9
S1132EA0B94BEEF5606DADF8D7706CFCD2202BE217
S1132EB0653DEAE6BC1BA9EB0B0668EFB6BB27D75A
S1132EC001A6E6D3D880A5DE6F9D64DA6ACD23C45B
S1132ED0DDD0E2C004F6A1CDB3EB60C97E8D3EBD6A
S1132EE0C990FFB910B6BCB4A7AB7DB0A2FB3AAE93
S1132EF015E6FBAACCC0B8A77BDD79A3C660369BD8
S1132F00717DF79FA85BB4921F4675961A16328896
S1132F10AD0BF38C742DB081C330718599908A5DAB
S1132F202E8D4B59F7AB085440B6C95045E68E4E2A
S1132F30F2FB4F4A2BDD0C479CC0CD43217D827BA5
S1132F409660437F4F460072F85BC176FD0B86683E
S1132F504A16476C93300461242DC565E94B9B11D7
S1132F605E565A1587701918306DD81C353D9F026E
S1132F7082205E065B061D0BEC1BDC0F51A693370B
S1132F80E6BB52333F9D113E8880D03A8DD09724C2
S1132F903ACD5620E3EB152D54F6D4297926A9C54C
S1132FA0CE3B68C1171D2BCCA000EAC8A550ADD6F6
S1132FB0124D6CD2CB6B2FDF7C76EEDBC1CBA1E361
S1132FC076D660E7AFF023EA18EDE2EE1DBDA5F07A
S1132FD0AAA064F4738627F9C49BE6FD09FDB889A9
S1132FE0BEE0798D67C63A80D0DBFB84D58BBC9A72
S1132FF062967D9EBBB03E930CADFF97B110B0AF0F
S1133000060D71ABDF2B32A66836F3A26D66B4BC35
S1133010DA7B75B8035D36B5B440F7B11B4213D102
S1133020094236D12AB18446B0FBF2F002FB10C249
S1133030704700F093B9FCD30022002370470B00C3
S11330400200002100207047904271EB030CF6D37C
S113305070B5B1FA81F4B3FA83F52C1BA340C4F123
S1133060200532FA05F63343A2405FF00046E640FD
S113307002E05B085FEA3202841A71EB030524BFA5
S1133080204629467641F4D302000B00300000218B
S113309070BD012ACFD970B5140C20D0B1FA81F4D7
S11330A0B2FA82F5C4F120046419B4F12006D6D32F
S11330B0B2405FF00044F440002502E052085FEAA9
S11330C03303C61A71EB020E24BF304671466441C5
S11330D06D41F3D302000B002000290070BD0C46A3
S11330E0B1FBF2F102FB11452D0445EA1045B5FB95
S11330F0F2F402FB145580B240EA0545B5FBF2F048
S113310002FB105240EA044070BD000070B50D008F
S113311082B00446164601D1002076BD6A4600F00E
S113312071F830B9009BDB685B683246294620465B
S1133130984776BD70B50D0082B00446164601D19D
S1133140002076BD00F07FF800B14CE000F047F8B5
S113315068B9009BDB689B6832462946204698473D
S11331604E49002806BF009AD26800220A6076BD44
S113317038B504460D466A4600F044F8A0B90098F4
S1133180C068406908B9662032BD2946204600F06F
S11331905AF810B142F2D87032BD009AD26852691E
S11331A029462046904732BD002DFCD1002032BD77
S11331B070B50D0082B00446164601D1002076BDDC
S11331C000F041F800B10EE000F009F830B9009BBE
S11331D0DB68DB68324629462046984776BD6A4656
S11331E0294620460EE042F2D87076BD10B52B4C2D
S11331F02168002029B109690A0002D0884700210A
S1133200216010BD70B542F2D873D2B1244C646809
S1133210146011B915E01034146014688CB1256879
S1133220002D04BF6668002E01D1E6684EB1A842A5
S113323024BF65688542EED30818401E854228BF26
S11332400023184670BD70B50918491E0022144B9E
S11332509C685D682469160104EBC20458347559EE
S113326066682468AC4208BFAE4205D0864228BFD7
S1133270A14201D3012070BD521C022AE8D30020D0
S113328070BD10B50648446804E00068010018BF2A
S113329080471034E0680028F7D110BDF04B0020BF
S11332A0B4410020002200F05BB800000948817896
S11332B004290DD1017801F09F010170FF2182786A
S11332C0012A03D1044A1278520701D4491EF6D1C7
S11332D07047000001E0074002D007401D48006825
S11332E0000B00F00F00C01E082830D8DFE800F003
S11332F005080B0E1114172F1A004FF4804013E029
S11333004FF4C04010E04FF400400DE04FF4404053
S11333100AE04FF4803007E04FF4C03004E04FF48B
S1133320003001E04FF480200321421E10420A4A7B
S113333018BF022152684B1CB0FBF3F0C0F10053DC
S113334042F8103F6FF0604301FB003050600020F2
S1133350704700BF00700440B44100207047000073
S1133360401810F0030308D0C91A1FD3DB0748BF65
S113337000F8012D28BF20F8022D130030B41446A4
S11333801546103928BF20E93C00FAD8490728BF60
S113339020E90C0048BF40F8042D890028BF20F81C
S11333A0022D48BF00F8012D30BC7047C91818BF62
S11333B000F8012DCB0728BF00F8012D704700004D
S11333C001280ED80FF2240280560122012900F0B0
S11333D01F0102FA01F10CBF024A034A400942F8F4
S11333E02010704700E100E080E100E01A1B0000BB
S11333F0BFF34F8F0548064A016801F4E0611143A9
S11334000160BFF34F8F00BFFDE700000CED00E04B
S11334100400FA05ECE7EBE7EAE7E9E701280ED850
S11334200FF2240280560122012900F01F0102FA42
S113343001F10CBF024A034A400942F820107047C8
S113344000E100E080E100E01819000010B582B04E
S113345000228DF800200A46064C014604F12000A3
S11334602469646C6B46A0479DF8000000B10120FC
S113347016BD0000B441002002280ED80FF2240229
S113348080560122012900F01F0102FA01F10CBF4C
S1133490024A034A400942F82010704700E100E064
S11334A080E100E01F21230040684A49405C7047E6
S11334B048498A6842B14A6813780370501C4860CE
S11334C08868401E886070470021017070475A2840
S11334D007D1404A01238B540FF20901116151694C
S11334E0084770473B49496908477FB5394D6961C9
S11334F004460FF2F800616850F82160684600F055
S1133500ECF801208DF808008DF8090002213248FA
S1133510E86032482861A26860689047694630468E
S113352000F08CF82E49304600F009F9606801215A
S1133530FFF746FF616849190120887004B0002034
S113354070BD70B50546234C68680119897889B146
S11335500FF2980151F820600021FFF731FF304647
S113356000F0C7F86868AA680021904769680919DB
S11335700020887070BD174841608260816800290E
S1133580FCD10020704770B504460FF2600082B091
S113359050F82450E86A00010BD54FF0006007E0B2
S11335A0F168684688479DF8000068634FF0007032
S11335B0E862E86A074E8001F2D4E86A800308D51D
S11335C0A86B4FF40031E96221463269C0B29047DA
S11335D0F3E773BD2C420020F9EFFF1F17F0FF1F24
S11335E00000020A0020CEE70120CCE700C0024020
S11335F000D00240010C01F1804101F58E2101232C
S11336000A6803FA00F01043086070470029016853
S113361014BF21F4804141F48041016070470021CE
S11336200FF2501252F82130834202D0491C022971
S1133630F8D30846704701212046E7E738B5044629
S11336400D46FFF7ECFF00F043F8FFF7F4FF00F03E
S113365088F8012220684000400820602068084063
S1133660297B40EA8170A97B40EA8160697B40EA5A
S11336700160E97B00F019F80121204600F054F8BC
S1133680287804EB8000C1686A6800F014F82A7A8C
S1133690920602F0806211436A7A520602F00072C6
S11336A01143C16000F00FF831BD090201F440710B
S11336B0084320607047521ED20621F0FE4102F0FA
S11336C0F042114370472068400840002060704772
S11336D00FF2A80151F820008CE7002101700821A5
S11336E04160002101724172017341738173C1739E
S11336F0704710B504460021206800F034F8FFF745
S11337009BFF00F02CF80FF2740151F82000010C1B
S113371001F1804101F58E2101230A6803FA00F0CA
S113372022EA0000086010BD0368090401F47C115A
S1133730012A0CBF194323EA0101016070478A0181
S113374003D5026B22F0807202638A0303D5026BF5
S113375022F480320263026B1143016370472046F6
S11337605DE72068024940F00100206070470000D6
S1133770FFCCFFBA00C0024000D002400C003C1055
S11337800D003C10012100F01F029140DFF8642578
S1133790400942F820107047016841F0007101604F
S11337A001688901FCD47047016821F080510160EF
S11337B0016821F0804101600168C901FCD47047AF
S11337C0016841F080410160016841F0805101606D
S11337D00168C901FCD5704738B50D46032D044670
S11337E002D1FFF7EDFF05E0042D03D1206840F07E
S11337F0004020602046FFF7E3FF25B9206820F44D
S1133800000020600BE0012D03D1606840F0080047
S113381004E0022D03D1606840F48050606022E02F
S113382038B50D46032D044602D1FFF7BDFF05E070
S1133830042D03D120684000400820602046FFF793
S1133840BFFF25B9206840F4000020600BE0012D83
S113385003D1606820F0080004E0022D03D1606801
S113386020F4805060602046BDE832409CE7406808
S1133870DFF884144018807870475A280BD1DFF899
S11338807824891801238B700FF20D01DFF86C3452
S11338905965516808477047DFF85C144968084760
S11338A0F0B504460FF2B040DFF8506487B050F82A
S11338B0245002A800F050FB01208DF80C004FF6B4
S11338C0FF7C10208DF80D0006F13807DFF8300476
S11338D08068016901F19402138863451ABF5B058E
S11338E05B0D40F22313BB82528862451ABF520516
S11338F0520D40F22132FA8291F8911001F00F0238
S11339000F2A02D10120B87424E00022BA740A07F5
S11339101BD505223A740069B0F89200020A8DF8AA
S11339200020420902F007028DF80220820800F00C
S113393003008DF8010002F00702080900F00700F7
S11339408DF803208DF8040006E001F00700052837
S1133950387401DB04203874DFF8A803F86197F9A0
S1133960100018B1022807D003D308E0DFF8980349
S113397007E04FF47A3004E0DFF8900301E0DFF869
S113398090030290002106F10800FEF78BFB002152
S113399006F12000FEF786FB0820306009207060E5
S11339A002A9DFF87023284600F057FA2968490075
S11339B0490829602968C902FCD4686840F4804039
S11339C0686097F91000052806D104203874694608
S11339D0284600F0CEFA07E00FF2603100EB8000D9
S11339E04118284600F0C5FAB87C28B10120787443
S11339F001212846FFF7F0FE002038700820786087
S1133A0000208DF818000123F88AC34901EA804098
S1133A10059005AA00208DF819000821284600F019
S1133A20E4FAA86A40F48070A86200220020387288
S1133A3009210820F860284600F0C3FA0FF220306C
S1133A402056FFF79FFE0FF21C302056FFF79AFE18
S1133A500FF214302056FFF795FE07B0F0BD38B5CD
S1133A60A54D044669606068A268022190476068B9
S1133A70FFF716FF616801204855002032BD38B5B4
S1133A8004469D4D6068415D61B10FF2CC2151F84F
S1133A90200000F041FA6068A26800219047616844
S1133AA00020485531BD2DE9F043DFF8508283B042
S1133AB0044689461546002608F1440711E008200B
S1133AC0386008364FF47A700190CDF8009008F110
S1133AD0400260683B890921C0B200F00DF83868E3
S1133AE08144AE4205D2A81B0928E8D238602E468C
S1133AF0E8E70020BDE8FE83F0B50C460FF258213C
S1133B0085B051F820501078009960F35551009118
S1133B105068009960F31341009101987E4900F0C8
S1133B20604001EA834108430190009820F480102A
S1133B3000900A98D0B100210291039107E0C1F1ED
S1133B400707039EFF00BB4033430393491CC9B2DC
S1133B50536899420AD20B5C0429F0DAC1F10307D5
S1133B60029EFF00BB4033430293EFE76A46E1B293
S1133B70284600F05CFAA0B9012000FA04F6A86A0D
S1133B805E4F3043A8620B9C214607F10800FEF704
S1133B90A0FA0328F8D0A96AB143A96210B105209C
S1133BA000E0012005B0F0BD0FF2AC1151F8200087
S1133BB0016A4FF602410162704770B506460FF282
S1133BC09810564D50F82640A87860B3206A69785A
S1133BD001291FD144F20801084209D010F40C4F06
S1133BE006D101212046FFF71BFE002068701AE071
S1133BF02878401E40B2002848BF0420287095F958
S1133C0000100FF2381001EB81010918204600F072
S1133C10B0F908E010F44C4F05D02046FFF7BCFD86
S1133C203046FFF73DFE206A4FF60240206270BD29
S1133C302DE9F04180460FF2201086B050F828504C
S1133C40286BA96A08400090009800284AD02B4E9F
S1133C5030680099C140C80739D506F12000FEF745
S1133C606AFA316801AAC9B2284600F013FA70BB97
S1133C700027002406E09DF81070726D4146384616
S1133C809047641C0198E4B2C0F3034084421EDAF6
S1133C90072CF2D8DFE804F006090C0F12151805FA
S1133CA0EBE7E8E79DF80F70E7E79DF80E70E4E7AF
S1133CB09DF80D70E1E79DF80C70DEE79DF8137038
S1133CC0DBE79DF81270D8E79DF81170D5E77068AE
S1133CD00099C140C80744BF06F10800FEF72BFA5B
S1133CE000982863286A4FF60240286206B0BDE8AF
S1133CF0F081000000E100E0E04B0020484B002090
S1133D00B4410020C3F3FF1F48E8010020A10700CD
S1133D1040420F0000B4C4040000FC1F904B00207C
S1133D2004E0002040E7002047E700BF00207FE7D1
S1133D3000E000BF01207BE7FCE7FBE70703070780
S1133D400303030707030103070703010303030531
S1133D500003050507000000004002400050024037
S1133D604D6000004C5F00004B5E000000290168BC
S1133D7006D04900490801600168C902FCD47047B3
S1133D8041F0004101600168C902FCD5704700217F
S1133D900FF2783252F82130834202D0491C0229B2
S1133DA0F8D308467047016841F08041016001681A
S1133DB041F0805101600168C901FCD57047016878
S1133DC021F080510160016821F0804101600168A7
S1133DD0C901FCD47047026892000BD5406B000EF9
S1133DE000F00F004000C21DD2B28A428041C0439D
S1133DF0C00F704700207047016821F480210160E2
S1133E000168C902FCD4016841F0007101600168D5
S1133E108901FCD46FF04042016841F4201141F063
S1133E200F010160802141604FF43301416300219F
S1133E3000EB8103491C1029C3F88028F8DB0261D8
S1133E404261826182640021002200EB0113491C5B
S1133E501029C3F88020F8DB70477CB504460D4672
S1133E601646FFF794FF00F069F81043086000F06D
S1133E7062F82879002860680CBF20F4005040F4F0
S1133E8000506060012100F057F82046FFF7B4FFAE
S1133E9020686979491EC00901F07F0141EAC01018
S1133EA0A9790029616814BF41F4805121F480513B
S1133EB06160E979002914BF40F4800020F4800097
S1133EC0297A002914BF40F4803020F48030697AC4
S1133ED0002914BF40F4802020F4802020600A21AF
S1133EE02868484308BF0120B6FBF0F0401EFF28B5
S1133EF088BFFF208DF80000694603208DF802007A
S1133F0002208DF8030001208DF804008DF80100D3
S1133F10204600F02EF873BD10B50446FFF76CFF81
S1133F2000F009F82046FFF732FF00F007F822EA14
S1133F300000086010BD0021204617E70FF2D411DD
S1133F4051F82000010C01F1804101F58E2101237B
S1133F500A6803FA00F0704700210171DFF8A81124
S1133F6001601021417100218171C171017241729E
S1133F70704738B500F022F860684FF6F8710840D1
S1133F80606060686A782978920502F4400242EA27
S1133F900161AA78D20402F460121143EA7812048F
S1133FA002F4E02211432A7902F007021143084384
S1133FB06060FFE72046BDE8324000E704460D4656
S1133FC0F1E670B504460D461646FFF704FF04EB10
S1133FD005108030002E14BF4FF0006100210160F5
S1133FE0002141608160C16070BD2DE9F041074648
S1133FF0884614461D46FFF7EEFE07EB0810002620
S113400040F8806F46608660C66075B12168416083
S11340102179012908BF4FF400166179012908BFED
S113402046F4801646F080610160BDE8F081F8B581
S113403006460F461446FFF7CEFE06EB0710002592
S113404050F8801F01F07061B1F1406F20D0016819
S113405021F0706141F0006101606168C900C90824
S113406041602168C1F340520AB14FF4C005C1F365
S113407000520AB145F4801501F4702141F0406109
S11340800D43A1688160E168C16005600020F2BD54
S11340900120F2BD70B504460E461546FFF79BFE9F
S11340A004EB061050F8801F0A0E02F00F02022AD9
S11340B018BF062A25D143686E68DB0006F0604607
S11340C056EAD3036B604E0D2B6823F4001306F0FD
S11340D0010643EA46530E0D23F4F81306F00106D5
S11340E043EA065301F4702119432960022A8168C6
S11340F0A960C068E860A0680CBF002041F2B94024
S113410070BDA068012070BD48E801000040024075
S11341100050024004003C1005003C10010C01F169
S1134120804101F58E2101230A6803FA00F010434F
S113413008607047010C01F1804101F58E210123D3
S11341400A6803FA00F022EA0000086070470021C0
S11341500FF2382252F82130834201D108467047C9
S1134160491C0229F6D300207047B0FBF3F04FF44A
S11341707A7330B5B0FBF3F0DFF80C32B3FBF0F335
S1134180002000E02046441C03FB04F58D4238BFA8
S11341909442F7D320B90A225143994228BF0120FF
S11341A030BD01210170002141708170C170012175
S11341B00171417100218171C1710121017241724A
S11341C081720021C1720173016141618161C16128
S11341D070472DE9F04106460C469046FFF7B7FFBD
S11341E000F057F806F5887602203060012300209D
S11341F030600F22A1786078490441EA40003063BE
S1134200E078E17A000400F4E02040EA0130217B08
S113421040EAC120A17940EA0120E17940EAC100E5
S1134220217A40EA8100617A40EA4100A17A084398
S1134230706140462169FFF798FF0746616900F005
S113424024F80546A16901233F224046FFF78DFF6C
S113425039062A0401F0706102F47022000211434D
S113426000F47C5040EA0107E16900F00EF800F028
S11342700F003843B06161792079090141EA4010A7
S1134280217808433060BDE8F08101230F224046C5
S11342906BE70FF2001151F820003FE780B50221CF
S11342A0C0F810110021C0F81011FFF750FF0FF2F1
S11342B0E40151F82000BDE802403BE7002211F47C
S11342C040610AD04B0548BF4FF4627203D40B051A
S11342D048BF40F28732C0F81411104670472DE9E8
S11342E0F04700F042F8BFB100F03BF820B1ACB1A8
S11342F0A9EB0701216011E040F201300642F3D03E
S1134300F00703D51AF8010BE8647F1E16F4407F0A
S1134310E9D04FF44070286000F02FF8BDE8F08732
S11343202DE9F04700F021F8BFB100F01AF820B1F0
S1134330ACB1A9EB0701216011E040F20230064262
S1134340F3D0B00703D5E86D0AF8010B7F1E16F40D
S1134350407FE9D04FF44070286000F00EF8BDE8CB
S1134360F0872E6831464046A8E7804691468A4643
S11343701C464F4608F58A75704714B1A9EB07002F
S1134380206000207047000040420F00006006409B
S113439000700640060034100700341000210FF2AC
S11343A0641252F82130834202D0491C0329F8D305
S11343B008467047F8B50D46044628680101B2FB6B
S11343C0F1F6B6B206B901265301B3FBF1F1A1EB44
S11343D046175100720112FA87F2B1FBF2F1091A81
S11343E06422B0FBF2F000EB4000884202D240F2BB
S11343F0F530F2BD2046FFF7D1FF00F04CF8104332
S1134400086007F01F01E07800F0F300E070207806
S113441000F0E00040EA262020706670A07A00F0E8
S1134420E0000843A072A078297900F0EC0008436A
S1134430A07020786979490100F0DF0001F02001C3
S113444008432070A879E074E8796075207C40F016
S113445088002074607C40F0C0006074E078297AA1
S113446009B140F00800697A09B140F00400E07035
S11344700020F2BD80B5017D0029FCD101794906F7
S1134480FCD50021C170FFF789FF00F004F822EA8F
S11344900000086001BD0FF2780151F82000010C02
S11344A001F1804101F58E2101230A6803FA00F02D
S11344B070474FF4E1310160002101714171817154
S11344C00121C171002101724172704702780A43CF
S11344D00270C27842EA1122C270827942EA114221
S11344E08271427C42EA11614174704705E00379AC
S11344F01B06FCD511F8013BC37113465A1E002B51
S1134500F5D1704700A0064000B0064000C0064048
S11345100A0034100B0034100C00341070B5424EF5
S113452001243068491E1546082900F10C024CD8B4
S1134530DFE801F0051423424228424B4000696839
S113454011F1010F18BF00290ED0D168012912DB27
S113455090F8461001290ED118300AE0696811F16B
S1134560010F18BF002901D1002070BD1161147022
S11345701430FDF7F8FD002427E024212030FDF756
S11345800DFA22E0A978002904BFE978002904D1B2
S11345902978012908BF547017D06A682946203049
S11345A0FDF744FD30686968C16104731430FDF798
S11345B0DAFD0AE0052408E000211430FDF7C7FD08
S11345C0306800211830FDF7C2FD204670BD38B5B3
S11345D00C460020012C0DD1134D286880F846109C
S11345E000F1200280682423022100F0C8F9296820
S11345F081F8474032BD002051B90B48006880F86B
S1134600482000F1200280682423022100F0B7B979
S1134610704705490860002070470349086000207E
S11346200968886070470000EC4B002010B5134601
S113463001200BB9032010BD00225A745A6832B10C
S11346401468220003D00A4601211846A04710BD71
S113465010B5134601200BB9032010BD00229A7433
S11346605A6832B11468220003D00A46022118465F
S1134670A04710BD2DE9FF41044600256168896803
S1134680227B4B79012093424ED3096800294BD0F9
S113469001EBC2010839002200E0521C0B789A4257
S11346A042DA4B680C2606FB02331E78032EF4D143
S11346B094F80EC0002100E0491C1A7A914205DAF0
S11346C05A680E01B75C6745F6D1B518D97861739D
S11346D055B3A5604FF00008974E984F07E0039438
S11346E002AA2068694600F059FA08F101082979FC
S11346F0884519DA00208DF80400A86810F828000D
S11347008DF80200C009A96801EB880101284988D5
S1134710ADF80010A96801EB880149788DF8031001
S11347200CBF02970296DAE704B0BDE8F08138B511
S113473004460120A16861B1002506E0886810F8EC
S11347402510206800F047FA6D1CA1680A7995428B
S1134750F4DB32BD70B504461546012084B0002D4B
S113476014BF002C03200BD0491E052908D8DFE80C
S113477001F05A0308182E44002121736174A174B6
S1134780B9E0616800291EBF217B2A788A42F7D0EC
S113479011B12046FFF7CBFF287820730020A073C7
S11347A011E061680029EBD02988627B0D46090479
S11347B0B2EB116F0AD1A17BEDB28D4206D0204637
S11347C0FFF7B5FFA5732046FFF754FF93E0616838
S11347D000291CBFA1680029F8D00026A26811791D
S11347E08E42F3DA9268297812F82620914204BFA7
S11347F0206800F008FA761CF0E7616800291CBF05
S1134800A168002977D00026A26811798E4272DA55
S11348109268297812F82620914204BF206800F09B
S1134820FCF9761CF0E729680A7802F01F02012AD5
S113483002BF0A79637B9A425DD14A78012A2046F5
S11348400AD0022A13D0032A1AD0092A22D00A2A0B
S113485040D00B2A45D04DE04988090A8DF808104C
S11348606A46296849888DF80910032120E06368A5
S11348701B6804F10F020421984704F10F0107E0BB
S113488063681B6804F110020421984704F11001C5
S1134890696030E04988090A8DF808102968498858
S11348A08DF80910297B59B1A96801916A4609213B
S11348B063681B689847009969600199A9601AE0C8
S11348C0696800916A46A9680191062163681B68BA
S11348D0984710E04988090AE17329688A1C07216E
S11348E004E04988217404F11002082163681B68FC
S11348F0984700E0052004B070BD70B50C4615461D
S1134900002114230E4A03FB0126326822B1491CFC
S11349100129F7DB022070BD314600F01CFA50B9C2
S1134920306808B9032070BD002030737460FF2024
S1134930B0732E60002070BD990100207501002025
S1134940A448002010B5040001D1032010BDFFF7D6
S1134950EEFE0021216061602173A17310BD10B5CA
S1134960040001D1032010BD607C08B1022010BDF9
S1134970206800F001F908B90121617410BD10B577
S1134980040001D1032010BDA07C08B1022010BD99
S1134990206800F0F6F808B90121A17410BD0000E8
S11349A010B5044600F0DCFA0020206084F88D0085
S11349B000F0E0FA002010BD38B508B9032032BD7C
S11349C0446844B100680D0602D5A468A04732BD0E
S11349D0E468A04732BD062032BD08B90320704701
S11349E0436813B100685B691847062070473EB5F9
S11349F004460A7AD5090120102A02F00F0319D1BE
S1134A0000220B212046FFF7E8FF04F18C0002216D
S1134A108170002200210170002004EBC001401CC1
S1134A201028CA600A61F8D3A36801212046984778
S1134A3000203EBD082B11D245EA430204EBC20319
S1134A40DA685AB10868009048680190487A8DF88D
S1134A50080069461A69DB68204698473EBD00296C
S1134A6018BF002801D1032070478268002A18BFAC
S1134A70FFF7BDBF012070472DE9F0410746140040
S1134A80884608BF032053D000F06AFA294D2868ED
S1134A9005F18C0630B171788F4203D100F06AFAC7
S1134AA001273FE018B100F065FA02273AE0777079
S1134AB000F060FA0020C5F808807770307000229A
S1134AC005EBC001401C1028CA600A61F8D3012F0D
S1134AD019D80FF2F8106860174800281CBF17484F
S1134AE000280BD0164800281CBF1648002805D003
S1134AF0154800281CBF1548002809D12846FFF78F
S1134B004FFF072014E02846FFF74AFF06200FE076
S1134B102A462946384600F05AFC070004D02846A5
S1134B2000F019F8384603E00220B0702560002038
S1134B30BDE8F08114480020170F0020850F0020E5
S1134B40BF0F00202D100020D310002015110020CD
S1134B500022002141E710B5040001D1032010BD5B
S1134B60616821B120684968884700206060204658
S1134B70FFF716FF002010BD01F00F0141F0800186
S1134B801AE701F00F0117E708B9032070474268DC
S1134B9012B10068126910470620704710B508B9B1
S1134BA0032010BD002918BF002A12D08B7803F00F
S1134BB00F04082C0DD2640044EAD31300EBC303A2
S1134BC01468DC6052681A610A46BDE8104002218C
S1134BD003E7042010BD73B5044601F00F05CE09A8
S1134BE00CB9032076BD01AA0321FFF7F6FE082DB8
S1134BF007D246EA450104EBC1010022CA600A61FA
S1134C0076BD042076BD02B501F00F01082902D259
S1134C106A4604210BE0042002BD02B501F00F0135
S1134C20082902D26A46052101E0042002BDFFF7EB
S1134C30D4FE02BD0000000010B501230AB904200F
S1134C4010BD891E062900F18C0417D8DFE801F095
S1134C5004060E10080A12000C210CE00D210AE0D3
S1134C60A07800E020780023107007E0062102E01D
S1134C70072100E00921FFF7B0FE0346184610BDE6
S1134C8010B50123032900F18C0406D0062906D0AF
S1134C90072908D0092913D016E00E2111E09AB192
S1134CA01078002307E0A178032906D062B11078B8
S1134CB0207000230320A07006E02246082100E0B3
S1134CC00A21FFF78AFE0346184610BD170F00207D
S1134CD0850F0020BF0F00202D100020D3100020CE
S1134CE01511002010B5044600F03AF900F027F839
S1134CF051B1817C8C4207D10021016041608174F3
S1134D0000F038F9002010BD00F034F9042010BD83
S1134D1038B500F017F800F012F819B1817C8C4214
S1134D2000D113E007E038B500F00CF800F007F804
S1134D308C4200D10AE000F01DF9042032BD614824
S1134D400168704704460D4600F00AB9286000F077
S1134D5011F9002032BD38B5FFF7F4FFFFF7EFFF7C
S1134D6021B1807C844201D12960F0E7E3E7F8B502
S1134D700C46154601261DB16946FFF7D4FF08B15C
S1134D800420F2BD002705E0491CC9B2032907D35A
S1134D907F1CFFB200984068017A8F421CDA002120
S1134DA002680C2313FB07230FF28412D3F808E0E4
S1134DB09EF804E002EB011C9CF80C207245E3D140
S1134DC05868DCF808302A4621469847052804D05C
S1134DD00028DDD10026DBE73046F2BD70B582B095
S1134DE00D46044616466946FFF79DFF88B9012D16
S1134DF008D10099204600F06CFF009A0221204659
S1134E00FFF7B5FF009B5B685B6832462946204686
S1134E10984776BD2DE9F843914601240F46B9F130
S1134E20000F18BF002F804601D0786808B904200D
S1134E3045E000F095F8234E306828B1B17C8845F0
S1134E4002D100F097F816E018B100F093F80224AC
S1134E5011E086F8128000F08DF8776032461A4926
S1134E604046FFF709FE040007D03068FFF773FEE1
S1134E704046FFF737FF204621E000270FF2B00439
S1134E8015E00025706800680C2111FB07012B0157
S1134E90886800791A19127B904203D11B590A1DA4
S1134EA0404698476D1C032DECD37F1CFFB27068FD
S1134EB0007A8742E5DB3068C9F800000020BDE8CD
S1134EC0F2830000004800202509002070B582B05C
S1134ED004466946FFF71CFF050027D1002517E0AB
S1134EE000260098406800680C2111FB05000FF2B1
S1134EF040018268127901EB06110B7B9A4202D1C0
S1134F00406849688847761C032EEAD36D1CEDB2CD
S1134F1000984068007A8542E2DB00980068FFF759
S1134F201AFE050004BF2046FFF7DCFE284676BDC6
S1134F30430400208D0400209D0200200100000095
S1134F40C12F0020B5300020D13000200300000024
S1134F50000000000000000000000000000000004D
S1134F600A480178002900D172B60178491C017001
S1134F70704700000548017800291FBF491E0170D1
S1134F80C9B2002900D162B6704700001C4B002052
S1134F902DE9F04104461D460E461746FFF7E0FF93
S1134FA047EA460804EB081006F00F02C16A41F410
S1134FB08043C36207F001016668760A760246EA16
S1134FC042165B0A46EA011603F0080333435D60A8
S1134FD06368C06A5B0A5B0243EA421242EA011157
S1134FE0420A02F008021143069A92054009920D02
S1134FF000F0400040EA024040F088000860FFF7FB
S1135000B9FF00F00CF9BDE8F08180B5C16A4A0A25
S113501002F0080212180C32026221F4006100222C
S1135020826241F4005108224262C162009200226D
S1135030036A0021FFF7ACFF01BD70B5011DFF221B
S11350404B6883F888204B6893F8944044F002043A
S113505083F8944000234C6884F898300E68760AEC
S113506003F00F04760246EA4416002500F038F8EF
S113507046F0080600F034F846F0100635600E6875
S1135080760A760246EA441444F01804256000EBDC
S113509043150024EC6200255C0044F0010400EB9D
S11350A00414E5624C6804EB83045B1C082B84F84D
S11350B0C050D3D300F5907005704B6893F89440BA
S11350C004F0FD0483F894404B6883F88C20892213
S11350D04B6883F884204570486800F008F870BD78
S11350E035600E68760A760246EA4416704790F8F0
S11350F0941001F0DF0180F89410704770B50C88AB
S11351008B78C97803F00F02DB09012943EA4205D1
S113511005D1B4F5806F0ED340F2FF340BE0412C7F
S113512028BF4024816801EB820191F8C06046F0F9
S1135130010681F8C06000EB0511002BCD6A25F44F
S11351408045CD6264F30905CD62CC6A24F4006421
S1135150CC6224F48064CC6214BF042108218468E6
S113516004EB820494F8C050294384F8C01053EA35
S1135170020108BFFFF749FF002070BD70B5044667
S113518001F00F05C80940EA4506204600F0FDF984
S1135190A06800EB8500002180F8C01004EB061025
S11351A0C16A890A8902C162002070BD70B50446D3
S11351B001F00F00C90941EA400204EB0212D36A6C
S11351C023F48063D36223F40063D362002366680C
S11351D0450145EA0115760A45EA462503F001062C
S11351E045EAC6052E68760705D5D66AB605B6091A
S11351F046F008062E605B1C022BE8D3A26802EB83
S11352008002084392F8C03003F0FD0382F8C030F6
S113521004BF2046FFF7F9FE00F001F870BDA06856
S113522090F8941001F0DF0180F89410002070478A
S11352302DE9F047044684B0A06808228030017C40
S11352400270C1F303186068400A4002C1F3C00A47
S113525040EA4810C1F3800140EA0A1040EAC10064
S11352600068C0F30949C0F383000D284AEA4800E6
S113527004EB00150CBF01270027E86AC0F3803057
S113528000284FD004F5907007B1C170BAF1000F37
S113529035D0A96A4944A9626A6A561AE96A81F44E
S11352A00061E96281F48051E96203D08905B9EBB8
S11352B0915F1CD2A96A0191296A0091E96A21F4DB
S11352C08041E9628905B9EB915F08BFB8F1000F2D
S11352D01BD1C078696A04EBC000408A814214D2B1
S11352E02068002300220021FFF746FC1AE02A6A06
S11352F0334648F08001204600F0BDF812E059EA38
S1135300080111D100200190009048EACA108DF8DC
S113531008008DF8097069462068FFF7A0FBA068B3
S1135320FFF7E5FEBDE8FF87E96AC1F34033BBB987
S113533063685B0A5B02490A43EA481201F0080108
S1135340114349682A6AAB6A9A18914206D000232D
S113535002E05E5C9E545B1C4B45FAD30021017055
S1135360A86A4844A862696A0E1AB8F1000F0DD100
S113537067B18021204600F008F9E06A40F400603B
S1135380E062E06B40F40060E06303E0E86A80F40C
S11353900060E862E86A80F48050E862696A002983
S11353A018BF002E03D08005B9EB905F08D2A86A1D
S11353B00190286A0090E86A20F48040E862A4E73B
S11353C02A6A33464146204600F08CF8AAE770B5B5
S11353D015460FF2CC3282B0136800930C4630BBF2
S11353E0144E86F8220106F592710098F161B060BE
S11353F0FF2180F8801000220121304600F0E6F8F9
S11354000D48B1687060000A81F89C00B16870684A
S1135410000C81F8B000B1687068000E81F8B40027
S11354203046FFF70AFE2E603460002076BD062069
S113543076BD0000B84800200046002008B90320CB
S113544070478268FF2182F88010816891F8842077
S1135450002281F884200021826882F898108268F2
S113546082F89410806890F8001141F0C00180F82F
S11354700011002070472DE9F041804601F00F0033
S1135480400040F0010008EB001782B0F86A1D46A6
S11354900126C0F3803030B9B8623A627D62F86A9E
S11354A040F40050F86201F00F04F86A8005800DA2
S11354B0A84238BF054698F8210148B90095386AD2
S11354C0B96A0B18012221464046FFF761FD0646E2
S11354D0B86A284302BF002C4046FFF796FD3046C9
S11354E0BDE8F6812DE9F041044601F00F004000CB
S11354F004EB001782B0F86A1E460125C0F3803021
S113550010B9B8623A627E62F86A40F400508305CA
S11355109B0DF862B34238BF1E46BB6AD4F81CC068
S11355209B18BCF1000F04F5907211D092F800C0E2
S1135530BCF1000F0CD1412E0AD216F0030F08BFA4
S113554013F0030C04D020F40050F862E3691570E2
S113555001F00F08507830B90096002241462046E9
S1135560FFF716FD0546002E08BFB8F1000F09D15C
S1135570F86A80F48050F86220F48040F862204693
S1135580FFF743FD2846BDE8F681E0B501F00F03BF
S1135590CA0942EA430200EB0212D36AC3F380331E
S11355A08BB14FF0FF330193136A8DF80810009309
S11355B000218DF80910D16A21F48041D162694635
S11355C00068FFF74CFA00200EBD0000F8B5044651
S11355D00B46114601200CB90320F2BD0C2BFCD85C
S11355E0DFE803F0072030363D676D70819D9D87AD
S11355F09A00A168002081F80001A068017F490792
S113560003D5017F41F080010177A06890F808116B
S113561041F0100180F80811A06890F8941041F04E
S1135620010143E0A068017F490703D5017F01F030
S11356307F010177A06890F8081101F0EF0180F86C
S1135640081167E000296AD02046BDE8F44055E51A
S1135650002964D02046BDE8F44009788EE500298D
S11356605DD00A781146204602F00F05D609FFF7EF
S11356708CFF46EA450704EB0710C16A41F48061D8
S1135680C1624A0A6068400A400240EA451040EAA2
S1135690061002F0080289051043890941F08C01C3
S11356A00160A06890F8941001F0DF0180F8941074
S11356B030E0A1B32046BDE8F440097876E571B343
S11356C0088027E059B30A7802F00F03082B26D28A
S11356D0D00940EA430004EB0010C06A800A00F0DD
S11356E00100488016E0D1B10878A16881F89800DB
S11356F010E0002545F08001C9B22046FFF73EFDC9
S1135700E9B22046FFF73AFD6D1C082DF2D320467E
S1135710FFF793FC0020F2BD09B100200870F2BD30
S113572000B970473EB50468A06890F88050280717
S113573044BF2046FFF77CFDE80712D5A16801208D
S113574084F8210181F8800069460020009010202F
S11357508DF80800002001908DF809002068FFF7FB
S11357607EF9280615D5A168802081F88000E06BB9
S1135770C0F38020002802BFE06AC0F38020002824
S113578007D080212046FFF711FD00212046FFF7B6
S11357900DFDA06890F85C1109B180F85C1137BD6B
S11357A0002007402DE9FC4104460F46904620683E
S11357B01E4601AA0621FFF73FFA9DF804000525BD
S11357C0012818BF00282ED138781F21084208D19B
S11357D0206804F110020421FFF72EFA0546207C0C
S11357E018E000F01F01012902D10025258214E0F0
S11357F000F01F00022812D1B8888DF800006A4614
S11358000020ADF8020005212068FFF715FA0546CF
S11358109DF8020000F0030020820220306004F1B1
S11358201000C8F800002846BDE8F68170B582B0C3
S1135830054600208DF800000C4628680DF1010291
S11358400621FFF7F9F99DF801000526012818BF84
S1135850002801D0052076BD6078032804BF01200C
S11358608DF8000020781F21084208D160880128A3
S11358702BD128686A461021FFF7B0FA24E000F023
S11358801F00022804BF608800281ED1A0880F21B1
S113589008420ED100F00F019DF8002041EAD0111A
S11358A02868002AC9B202D0FFF7ADF901E0FFF77A
S11358B0B4F99DF800102868002919BF221D05219C
S11358C0221D0621FFF753FA0646304676BD38B549
S11358D000F0B6F89DF8000003280BD0012818BF8B
S11358E0022801D0052032BD68888DF800006A4680
S11358F007210AE0206800220721FFF7C1F938B91F
S113590001208DF800006A4606212068FFF7B8F9E7
S113591032BD2DE9FF470646904630680C469A464C
S113592003AA06216788FFF787F99DF80C003D0A52
S113593001284FF0050903D0010018BF02283AD10D
S1135940E0880190012D02D16A46092129E0022D47
S113595004D18DF808706A460A2122E0032D07D18C
S11359608DF80A706A46A088ADF808000B2118E08B
S1135970212D05D1A0888DF808006A460C2110E07D
S1135980222D05D1A0888DF808006A460D2108E073
S1135990232D0AD18DF808706A46A0888DF8090075
S11359A00E213068FFF71AFA81460098C8F8000003
S11359B00198CAF80000484604B0BDE8F08770B505
S11359C0044682B0154620681E466A460621FFF743
S11359D033F99DF80000012818BF002801D00520E4
S11359E076BD0120306004F1100204F1100028603B
S11359F011212068FFF7F2F976BD38B500F020F8E0
S1135A009DF80000012818BF002801D0052032BDF0
S1135A10002000F00EF8688810B9012000F009F8A1
S1135A202068AA1C0321FFF7A2F92068AA1C0721F9
S1135A303AE08DF800006A4620680621FFF720B995
S1135A4004460D4620686A460621FFF7F5B8F8B506
S1135A5000F043F89DF8000008B10520F2BD0120D4
S1135A60386004F1100204F110003060122128792A
S1135A7020822068FFF7B2F9F2BD38B5FFF7E0FFE6
S1135A809DF8000008B1052032BDA888A97841EA34
S1135A900020208204F1100220680421FFF767F936
S1135AA0206804F110020821FFF798F932BDF8B517
S1135AB000F013F89DF8000008B10520F2BDA88895
S1135AC0208204F1100220680821FFF7B5F804F1E0
S1135AD01001316002213960F2BD04460D461646BC
S1135AE020681F466A460621FFF7A6B838B5044663
S1135AF00120052A0D460FD129786022114205D0D4
S1135B00090603D4E98809B103B90020C10120467C
S1135B10BDE83440FFF777B80598E98802689142F8
S1135B2038BF016003680498026800212046FFF72B
S1135B3023F858B92978090608D5204601B0BDE8EC
S1135B403040002300220021FFF71BB832BD2DE9AD
S1135B50F0418AB0044600200D46039004900527C6
S1135B606868904610F1010F18BFB8F1000F10D00B
S1135B7002AA06212046FFF75FF8287A0FF2B01C2C
S1135B80002808F1080649D06868082801D1286867
S1135B9008B9052076E04188718060258188B1804C
S1135BA0C188F18042787270037833702B420AD135
S1135BB05CF8225028002DD004AB03AA314640469D
S1135BC0A847074626E0B9B1180615D4980602D5A9
S1135BD000F072F803E058061CD500F060F80700E6
S1135BE0079804900698039014D1F388039A00212F
S1135BF02046FEF7C6FF45E0980602D500F05CF8A3
S1135C0003E0580606D500F04AF8074607980490C2
S1135C100698039004A8019000232AE09DF8080048
S1135C20032808D174785CF8244004AB03AA3146F5
S1135C304046A04724E0686800281CBFF08800287C
S1135C401FD0307801061CD4810606D500F01DF85B
S1135C5001212046FFF78BF807E0400606D500F047
S1135C6014F80F212046FFF7B9F8074604A801905D
S1135C70012303A800903A4631462046FFF736FF39
S1135C80074638460AB0BDE8F081286806900596B4
S1135C9000208DF8200005AA68680790704700204E
S1135CA00690059601208DF8200005AAF08807903B
S1135CB00F212046FFF792B8002006900596012098
S1135CC08DF8200005AAF088079001212046FFF7EF
S1135CD04EB830B585B004461448029003910120B3
S1135CE08DF8040002AA00208DF803006946802084
S1135CF08DF802004020ADF800002046FEF74EFF6C
S1135D00050010D100208DF8020002AA6946204641
S1135D10FEF744FF050005D080212046FEF75BFF17
S1135D20284600E0002005B030BD00009716002092
S1135D30ED120020751300200000000075130020F0
S1135D4000000000171400205B1400200000000075
S1135D50071500204315002097150020C3150020C7
S1135D60F7150020002000E001202DE9F041044651
S1135D700FF2C8106D4D82B050F8248008F58A7671
S1135D803768780748BFF06BB8070AD500230122AB
S1135D9069464046FEF7C4FA9DF800002A69214688
S1135DA09047F8070BD500208DF800006846E96895
S1135DB088470023012269464046FEF790FAB80559
S1135DC044BF4FF400703060BDE8F3814068574928
S1135DD0405C704755498A6842B14A681378037039
S1135DE0501C48608868401E88607047002101701C
S1135DF070475A2807D14D4A01238B540FF20901E9
S1135E0011615169084770474849496908472DE9B4
S1135E10F041464D88B0044669610FF2201860686D
S1135E2058F8206042488068006990F87970FF2F24
S1135E3008BF10276846FEF7B4F98DF80170606852
S1135E40A26802219047FCF747FE024669463046A5
S1135E50FEF7BFF9D6F8100140F00100C6F81001B2
S1135E6040F20721D6F818010843C6F8180106F5D0
S1135E709276306840F480603060FCF72DFE4FF479
S1135E807A72616858F82110B0FBF2F0294AB2FB2B
S1135E90F0F0002200E01A46531C00FB03F7322FF7
S1135EA0F9D322B9B0F5FA7F04D8012202E0102A0E
S1135EB028BF0F2213061204D1F8280103F07063DF
S1135EC002F470221A431043C1F8280101217068BA
S1135ED040F4817070606068FDF7A0FA164828618C
S1135EE00120616849198870002008B0BDE8F0817C
S1135EF038B505460D4C68680119897869B10FF207
S1135F003C0151F82000FEF7C9F96868AA6800212D
S1135F109047696809190020887031BD03484160C1
S1135F20826081680029FCD100207047444200202F
S1135F30B441002040420F003B190020006006409D
S1135F400070064010B50B46DFF8B444114601203A
S1135F505B1E2268062B2ED8DFE803F0040A15190D
S1135F60222D2C0039B30868400A00F0CAF804E076
S1135F7009B30868400A00F08AF8E0B122680121F8
S1135F8082F8591410BDB1B158328A6010BD91B174
S1135F9002F158008860BDE810400868400AB0E08B
S1135FA04FF40040086001224FF4007048600A7406
S1135FB08860C860002010BD0020704770B5DFF80D
S1135FC040442060583000F070F9256805F158000D
S1135FD000F016FB06464FF4846105F15400FBF70C
S1135FE0DDFC20680021C0F860644165002070BDBC
S1135FF0DFF80C140860002009680865704738B59C
S1136000DFF8FC43206890F85C0430B9FBF777FFB5
S11360102068012180F85C144165206890F85D04D3
S1136020A0B32168022081F85C0400F0CBF80500DD
S1136030F7D0206800F25C40C168002904BF0178F1
S1136040022903D1032000F0E6F801E001214170A8
S113605042F27D70854219D0206800F25D40002133
S1136060017042F274718D4202D10221C17431BDBA
