S0180000746F7765725F626F6F746C6F616465722E7372656351
S11300008025FF1F11040000EB0400002D350000C3
S11300102F35000031350000333500002C06000078
S1130020000000000000000000000000EB040000DD
S1130030EB04000000000000EB0400007F1000004F
S1130040E37C0000E37C0000E37C0000E37C000030
S1130050E37C0000E37C0000E37C0000E37C000020
S1130060E37C0000E37C0000E37C0000E37C000010
S1130070E37C0000E37C0000E37C0000E37C000000
S1130080E37C0000E37C0000E37C0000E37C0000F0
S1130090E37C0000E37C0000E37C0000E37C0000E0
S11300A0375400003B5400004D3700005137000026
S11300B0E37C0000E37C0000E37C0000F5610000C9
S11300C0E37C000001620000E37C00001D6200008C
S11300D0E37C000029620000E37C0000E37C000074
S11300E0E37C0000E37C0000E37C0000E37C000090
S11300F0E37C0000E37C0000E37C0000E37C000080
S1130100E37C0000E37C0000E37C0000E37C00006F
S1130110E37C00006D780000E37C0000E37C0000D9
S1130120E37C0000E37C0000E37C0000E37C00004F
S1130130E37C0000A7110000E37C0000E37C0000E6
S1130140E37C00005537000035620000E37C0000CA
S113015041620000E37C0000E37C0000E37C0000DB
S1130160E37C0000E37C0000E37C0000E37C00000F
S1130170E37C0000E37C0000E37C0000E37C0000FF
S1130180E37C0000E37C0000E37C0000E37C0000EF
S1130190E37C0000E37C0000E37C0000E37C0000DF
S1130400FFFFFFFFFFFFFFFFFFFFFFFFFEFFFFFFF9
S113041072B60E480E49886000220023002400258D
S113042000260027B846B946BA46BB46BC4609482A
S1130430854609488047094880470948804762B68D
S113044000200021074A9047FEE70000000000005A
S113045000ED00E08025FF1FB5650000E12C0000E1
S1130460272D0000BB250000000000000000000054
S1130470002A01D101207047F0B41F46034603242B
S11304802340002B09D00424E31A0170013008240E
S1130490E141521E26D05B1EF7D1042A1ADB13D089
S11304A0002F11D00C460D460E46102A02DB72C0F6
S11304B0103AFAE70C2A02DB32C00C3AFAE7082AAF
S11304C002DB12C0083AFAE7042A03DB01600430B5
S11304D0121FF9E7002A05D0017001300824E14118
S11304E0521EF7D1F0BC00207047FEE7351600001D
S11304F0000000004716000000000000DD160000A8
S11305002B180000CB1600004F170000FF18000046
S1130510000000009D19000000000000811600008A
S1130520000000005B1600004F17000013190000C4
S1130530000000007D19000000000000EB15000021
S113054000000000B51600000000000000000000DC
S113055000000000B119000000000000D7190000DD
S113056000000000131A00002B1800000000000017
S1130570000000000000000000000000000102462E
S1130580F5250000752600000000000097260000F5
S11305901B27000087290000B7290000192A000042
S11305A0252A0000AF2A00004D2B000000000000A7
S11305B0A1270000572900009B2800003B260000CB
S11305C0352B0000000000000000000000000000C7
S11305D0C9270000290B00004F0B0000690B000025
S11305E0436F7079726967687420286329203230F8
S11305F031332D3230313620467265657363616C58
S1130600652053656D69636F6E647563746F722CD6
S113061020496E632E20416C6C2072696768747384
S11306202072657365727665642E0000717C00002B
S11306300000024BE00500001000FF1F7C050000D5
S1130640D405000000000000BD7C0000C77C000051
S1130650D17C000000000000000000001136000002
S113066053360000AB36000000000000000000001C
S1130670DF360000B51B0000E91B0000ED1B000085
S11306805F1C0000A51C0000371D00003F54000043
S11306907F54000025550000000000000000000009
S11306A06155000053320000DD30000005310000C8
S11306B081310000BD3100004131000052656164A8
S11306C0790D0A005472616E7366657272696E67A1
S11306D00D0A0000537563636573730D0A0000000F
S11306E04661696C7572650D0A000000EB3C904D23
S11306F05357494E342E310002010100022000FFFD
S11307007FF080000100010001000000FF7F000075
S1130710000029313233344B696E65746973205596
S113072053420000F0FFFFFFFFFFFFFFFFFFFFFF4B
S1130730FFFF000046534C204C6F61646572200833
S11307400000000000000000000000602C420000D7
S113075000000000412E0066007300650076000F63
S113076000DA65006E00740073006400000000008D
S1130770FFFFFFFF46534556454E7E312020201291
S1130780000000602C422C42000000602C42020059
S11307900000000042650072005F0069006E000FF7
S11307A000A86400650078000000FFFFFFFF000060
S11307B0FFFFFFFF012E006D006500740061000F54
S11307C000A864006100740061005F006E00000016
S11307D0650076004D45544144417E31202020225D
S11307E0000000602C422C42000000602C420000FB
S11307F000000000412E0054007200610073000FDD
S113080000256800650073000000FFFFFFFF000083
S1130810FFFFFFFF5452415348457E3120202022E0
S1130820000000602C422C42000000602C420000BA
S11308300000000042200049006E0066006F000FB7
S1130840007272006D006100740069006F000000A6
S11308506E00000001530079007300740065000FFE
S113086000726D00200056006F006C0075000000DF
S11308706D00650053595354454D7E312020201698
S1130880000000602C422C42000000602C42030057
S113089000000000494E464F202020205458542088
S11308A0000000602C422C42000000602C42050035
S11308B001000000535441545553202054585420EF
S11308C0000000602C422C42000000602C42060014
S11308D0010000002E202020202020202020203273
S11308E0000000602C422C42000000602C420200F8
S11308F0000000002E2E2020202020202020201068
S1130900000000602C422C42000000602C420000D9
S1130910000000004E4F5F4C4F4720202020202035
S1130920080000602C422C42000000602C420000B1
S1130930000000007B003300370032003000330039
S11309404200460038002D004600440038003300C1
S11309502D0034003300320031002D0041003400FA
S1130960430034002D0039004100390041004200A9
S113097046003800460042004300460044007D0023
S1130980000000002E2020202020202020202032C3
S1130990000000602C422C42000000602C42030046
S11309A0000000002E2E20202020202020202010B7
S11309B0000000602C422C42000000602C42000029
S11309C00000000042470075006900640000000F49
S11309D000FFFFFFFFFFFFFFFFFFFFFFFFFF000020
S11309E0000000000149006E006400650078000FFB
S11309F000FF6500720056006F006C007500000077
S1130A006D006500494E444558457E312020202024
S1130A10000000602C422C42000000602C420400C4
S1130A204D0000000F30000013300000253000009E
S1130A30633000000000000000000000010000001E
S1130A4001000000EF100000C80A0000D80A0000EE
S1130A50E00A000002000000010000003311000061
S1130A608C0600009C060000E00A00000400000060
S1130A7000000000631100005C0600006C0600002A
S1130A80E00A000010000000000000000000000068
S1130A90FC0A0000000000000C0B00000000000035
S1130AA00000000000000000000000000000000042
S1130AB0000000006D5E00009F5E0000C95F000042
S1130AC081600000040FFF1F1D610000956100009C
S1130AD0AF6100000000000000000000DD610000C4
S1130AE0A1620000A76200000F630000AD63000074
S1130AF0A5620000B963000081620000C5740000B3
S1130B00C3750000A9760000DF76000015770000A9
S1130B1039770000C177000055780000657800003F
S1130B20697800000000000010B58AB0044600F0A7
S1130B3045F850B968460FF25C01282200F050F8DD
S1130B406A461049204600F07BF80AB010BD70B523
S1130B5000F01AF838B9334629462046BDE87040FB
S1130B60084A00F0A3B870BD70B500F00DF838B9AC
S1130B70334629462046BDE87040024A00F006B9D3
S1130B8070BD00004809FF1F04460D46164600F0DC
S1130B9015B800000000000100000002000000047D
S1130BA000000008000000100000002000000040C9
S1130BB0000000800000001B000000360020704789
S1130BC062B38B0708D0521E11F8013B00F8013BB9
S1130BD000F024808B07F6D1830740F0208000BF0B
S1130BE0103A07D330B4B1E83810103AA0E83810FE
S1130BF0F9D230BC530724BFB1E80810A0E80810AC
S1130C0044BF51F8043B40F8043BD20724BF31F8F9
S1130C10022B20F8022B44BF0B7803707047083A6C
S1130C2007D3B1E80810083A40F8043B40F804CB75
S1130C30F7D25307E4E70268531C0360117070474E
S1130C40F0B5002350F8234000F018F941F8234090
S1130C505B1C042BF6DB01EB83047C4854F8044C46
S1130C607B4D7C4F0460002408262E647A4E3E603F
S1130C7052F824602E60641C00F005F800F003F8BC
S1130C800A2CF1DBF0BD01EB830656F8106C2E60E4
S1130C90066C41F823605B1C01EB830656F8106C6C
S1130CA02E60066C41F823605B1C70472DE9F0430D
S1130CB004686A49DFF8A891DFF898C1DFF8A4E175
S1130CC0250A05F47F45260245EA146506F47F06E5
S1130CD0354345EA04640C604468250A05F47F45FD
S1130CE0260245EA146506F47F06354345EA0464A2
S1130CF04C608468250A05F47F45260245EA14659C
S1130D0006F47F06354345EA04648C60C068564E99
S1130D10040A04F47F44050244EA106405F47F05E0
S1130D202C4344EA0060C8600925504814680460F4
S1130D305468446094688460D468C4600424CCF823
S1130D4000E002EB8408CCF80090241DD8F8007071
S1130D5037606D1ED8F804707760D8F80870B760F3
S1130D60D8F80C70F760EAD1CCF800E002EB84020A
S1130D70CCF80090146804605468446094688460FB
S1130D80D268C26000F086F8BDE8F083F0B504686C
S1130D903249374F00F072F80C604FF0280C446869
S1130DA000F06CF84C60846800F068F88C60C068EF
S1130DB0284E040A04F47F44050244EA106405F44E
S1130DC07F052C4344EA0060C86002F1A004274870
S1130DD0E568C560A5688560656845602468254D3B
S1130DE00460254C37603560ACF1010C52F82CE0FE
S1130DF0C4F80CE0ACF1010C52F82CE0C4F808E0A3
S1130E00ACF1010C52F82CE0C4F804E0ACF1010C94
S1130E1052F82CE0C4F800E0BCF1050FE2DA3760C8
S1130E203560ACF1010452F82450C560641E52F8D8
S1130E3024508560641E52F82450456002EB8402FD
S1130E4052F8042C026000F025F8F0BD441808E0C4
S1130E50841908E0001008E0000040A8481808E0E1
S1130E60000057A9A41A95A8081B08E0881908E0EF
S1130E70B4AA15BC0090D5AC481B08E0250A05F4BB
S1130E807F45260245EA146506F47F06354345EAA4
S1130E90046470470C6C1C60250A486C586005F4A7
S1130EA07F458A6C9A602602C96C45EA146506F48B
S1130EB07F063543D96045EA04641C600502040AD0
S1130EC004F47F4444EA106405F47F052C4344EAA7
S1130ED0006058601402100A00F47F4040EA126077
S1130EE004F47F04204340EA026098600A02080A7E
S1130EF000F47F4040EA116002F47F02104340EAAC
S1130F000160D8607047000038B504463D4D0020AC
S1130F10C5E90000C5E90200C5E904002862686269
S1130F20394800F0A0F8C5E906012046BDE8344080
S1130F300FF2550100F048B900F058B970B5314DC1
S1130F400C46296A072904BF696A88421AD100F04D
S1130F5093F8C0EB0016D5E90001D5E90223101877
S1130F60B6FBF0F00A2148434FF49661B0FBF1F070
S1130F70401D0A21B0FBF1F04FF496614843206014
S1130F80002070BD012070BD2DE9F843064600F035
S1130F905AF81C4F0446386AD7E904598846421C5B
S1130FA0D7E90601651B68EB0909494502D82CBF3E
S1130FB0A8420122012A3A6206D0042A08D0052A4E
S1130FC00ED0072A0FD018E0C7E900487E6214E06B
S1130FD0D7E90001201A68EB0101C7E900010CE020
S1130FE0C7E9024809E0D7E90201201A68EB0101C8
S1130FF0C7E90201304600F0F9F8C7E90448BDE842
S1131000F18300002009FF1F803801001E480021E1
S113101001606FF07F421D494A6000228A60072206
S11310200A601B491B4A0968C900B1FBF2F101B906
S113103001214160704715480168C908C900016071
S113104000218160704710490A68134800680B68E2
S1131050C0430002000A9A42F6D1002110EB02605C
S113106051EB1221704708494968A1FB0001C008EF
S113107040EA4170C9087047054800687047024853
S11310800168491C01607047F00EFF1F10E000E08A
S11310903401FF1F40420F0018E000E0090100285E
S11310A006D55E4A00F00F00801800F8041C704753
S11310B05B4A8154704750F82130120423F47023A2
S11310C002F470221A430FE050F82100C0F30060CC
S11310D0704706E0120202F4E06242F0200203E0EC
S11310E000BF120202F4E06240F821207047012898
S11310F000D0704710B54B4C19B102290ED004D35F
S113110010BD0020E060206110BD4FF48070E060ED
S11311104548016821F00801016010BD0322032144
S11311202046FFF7D6FF2046BDE8104003220421E5
S1131130CFE7012800D0704710B53A4C11B102290D
S113114004D010BD0020A062E06210BD02220B2179
S11311502046FFF7BFFF2046BDE8104002220A21C7
S1131160B8E700B1704710B5304C11B1022905D071
S113117010BD20606060A060E06010BD022200210C
S11311802046FFF7ADFF022201212046FFF7A8FF0A
S1131190022202212046FFF7A3FF2046BDE81040AB
S11311A0022203219CE780B503211E48FFF78CFF30
S11311B048B11F484168080005D0012088471D49EF
S11311C04FF0FF30086001BD10B501280C460CD16A
S11311D001213D20FFF762FF17494FF000500860DE
S11311E00A2200F016F81248446010BD012800D00D
S11311F0704780B511494FF00050086000213D2030
S1131200FFF74CFF002200F004F809490020486071
S113121001BD032103484EE70000000018ED00E083
S113122000E400E000B0044094F00F4000C004402B
S1131230FC0EFF1FA0B0044004E100E084E100E0E4
S1131240C16E11F1010F01BF016F11F1010F416F67
S113125011F1010F02D042F6A20101E042F6A3010E
S1131260C16270473EB504460D46684600F050F82A
S113127004F10C004019001B6168A268051DA94215
S11312803CBF5318984208D2421A684600F046F808
S11312906068A1680818421B2946684600F03EF8B9
S11312A002A9684600F066F802983EBD174838B5B2
S11312B081680D69E96A012442F6A302914223D0B0
S11312C005F1680100248A68DAB1496853428B4207
S11312D022BF40680368994221BF40685118491EE3
S11312E088420ED34AF2C03105F16800FFF7BAFF15
S11312F0696F884206BF012442F6A00042F6A100AD
S113130001E042F6A400E862204632BD1000FF1F4F
S11313104FF0FF310160002141607047F0B585B0A6
S113132004460D461646684600F08CF801208DF8F8
S11313300B00206801901B48009000208DF80A00E3
S1131340ADF808007EB100F0C6F8174F694638467C
S113135000F047F832462946384600F078F83868F5
S1131360019000F0BEF80198206060683018606059
S113137005B0F0BD38B504460D46207910F00300E1
S113138007D0694600220A60C0F104022046FFF734
S1131390C5FF206828600548016821F480210160A8
S11313A031BD0000B71DC104002003403C8004404F
S11313B00B7A4A7A1B0703F0405343EA82728B7A12
S11313C042EA8362CB7A1B0603F080731A4382607D
S11313D00B68436042F00073836049680160826077
S11313E07047E0B5164A136843F4802313600A7B00
S11313F0002A0A6800924A6801920DD14A7A02B121
S113140002228DF808200A7A002A14BF022203223D
S11314108DF809208A7A0AE000228DF808200A7AD9
S1131420002A14BF022203228DF8092000228DF81D
S11314300A20C97A8DF80B106946FFF7B9FF07BD7A
S11314403C8004400FF248011022FFF7C9BB03E0BF
S113145011F8013B0370521E3AB111F00303F7D1A6
S113146003E051F8043B0360121F042AF9D2002A56
S113147003E011F8013B0370521EFAD17047016872
S11314808068C0F3017002282CBF080C88B2704732
S113149021100000FFFF0000000000000000000019
S11314A00160704772B60168491C016062B6016848
S11314B00029FCD10120704772B60168491E01E081
S11314C072B60021016062B6704772B60949002005
S11314D0086062B6704772B606480168491C01602C
S11314E0704704480168022900D2EAE70168491EEE
S11314F001607047E40EFF1FDFF83016C968C96841
S11315000020086070472DE9F041DFF8205682B0D2
S1131510E86900248DF801404669002E62D0E9682C
S1131520C9680A68012A4CD001F1080274680023D2
S1131530091DA04704001FBF42F21270844242F208
S1131540137084424ED1E868C168D1F80880B8F1BC
S1131550000F47D04E68377837B1132F04DA80680C
S113156000EBC700083800E00020086200281CBF18
S1131570006800281CD02A699269694605F1200098
S11315809047040016D19DF8000040B14FF4E75095
S1131590791EC840C00758BF42F211740AD5EA68E0
S11315A0D268126A1268414630469047002406E029
S11315B042F210743946204600F040FA94B90120F2
S11315C00DE0086A48B14168080003D00DF101003C
S11315D0884704460CB1002001E09DF80100E96849
S11315E0C96808602046BDE8F68180B5017800200E
S11315F000F024FADFF83405C069416909698847B5
S1131600022000F09BFABFF34F8FDFF82405DFF8C8
S11316102425016801F4E06111430160BFF34F8F99
S113162000BFFDE7DFF80405C068C06814210C3072
S113163000F0B6BA10B5044600F0A5FBFFE7217828
S1131640BDE81040FAE110B5DFF8E02412685269F1
S11316500446A16860689047F1E710B500F04AF8C5
S1131660DFF8C804C068C0686168016108210177B7
S11316700020217800F0E2F9BDE8104000F0F7BD49
S113168030B583B0DFF8A444A5680021019100912E
S11316906B4681684068AD6801AAC9B2C0B2A84768
S11316A0E268D2680021116100998A08019900F06A
S11316B0D9F937BD10B5DFF874249268D2680446AE
S11316C06068A168C0B29047B9E710B500F012F89D
S11316D000F012F8042101770020B0E710B500F003
S11316E009F800F009F8032101770020A168BDE89A
S11316F01040CEE1044695E7DFF83004C068C068C6
S1131700A168016161684161704738B500F088F8EB
S1131710002141610161007F042804D12868006927
S1131720804704B90446E868C068017F204600F099
S113173085F942F21270844208D1E868C068007FDB
S1131740082804BFBDE8314000F0EBBD31BD2DE9F0
S1131750FC4100F065F8016921B900202070FFF711
S1131760D4FF5AE0012121700669476900200090E6
S11317700123E869D0F814C0DCF804C06A4601A962
S1131780E0475FEA000805D0E8694169C96888470D
S1131790404603E0009830B942F21270FFF7B5FFFB
S11317A0002020703AE0B04288BF30460090E868DC
S11317B0C068017F082913D10199C1600099816132
S11317C00198009900F078FD804642F27D708045D2
S11317D01CBF42F2747080450BD14FF0000808E042
S11317E02B68019A00999B68384698478046009870
S11317F0C7190098361A06D0B8F1000F09D0E86965
S11318004169C96888474046FFF77FFF0020207080
S113181003E0E868C068066147610020BDE8F6811E
S1131820C24D0446E868C06870472DE9F047BF4DD3
S11318308AB00446E868C068016921B900202070B4
S1131840FFF763FF57E00121217006694769C1680A
S1131850027F212E2CBF4FF02008B046A9B142468A
S113186001A8FFF7ADF9E869D0F814C0DCF808C0A6
S11318700123424601A9E047A6EB080606B1B0B32E
S1131880FFF743FF0020207035E0032A08EB070927
S113189007D12B685B6801AA4146384698478246BF
S11318A014E0102A18BF4F46DDD190F81DA0FFF7B1
S11318B012FE39462F69CDF800A04346FF6B01AAFA
S11318C005F12000B8478246FFF70BFEBAF1000F7E
S11318D04F46C8D0E8694569AD680123002201A9D3
S11318E0A8475046FFF711FF0020207004E0E86885
S11318F0C0680661476100200AB0BDE8F08710B5F2
S11319008A4B1B68DB680446E268A16860689847F4
S113191095E62DE9F0410546874C6E68D5F80880B8
S1131920E8688249206000274968103130B10A68AC
S1131930904223BF4968491C81420427304600F085
S113194066FD00B904272978384600F077F89FB976
S11319506660002000F0F2F82068C4F8088018B12E
S113196080F3088880F30988616840468847BDE8A9
S1131970F041002000F0E2B8BDE8F08138B504463B
S1131980606800F044FD08B9042005E065680120A2
S113199000F0D4F8A068A847217819E0634A10B58C
S11319A0044602F120001269D269211D904746E6DF
S11319B038B55E4D0446FFF78EFD00F024F86D6BDC
S11319C004F10C02A8470546FFF78BFD2178284651
S11319D0BDE8344032E030B583B0044668460021A7
S11319E0002206C0514DFFF776FD00F00CF8AD6BF8
S11319F06A46A8470546FFF774FDA268694628466B
S1131A0000F04BF837BD05F120002D69A36861682B
S1131A10704710B5FFF76EFE4448C168C968A268F4
S1131A200A6162684A6110220A77C068C068E16886
S1131A3041770020A168BDE810405BE010B584B098
S1131A40A02201908DF80020002200F06AF88DF8A1
S1131A500220029102228DF8032000234469A46825
S1131A600C225BE010B588B0A72300F03AF8002000
S1131A70531C8DF8033006E06C4651F8203004EB1B
S1131A808004401CA3609042F6D300F021F80023A8
S1131A901AE010B584B0A3222FE010B588B0AF23AC
S1131AA000F01FF802238DF8033040B99008801C21
S1131AB08DF80300029203A8FFF792F801E00020DA
S1131AC00290002300F004F86946A04708B010BD56
S1131AD01648C0699DF803104469A46889000A1D6A
S1131AE070478DF80030019000238DF801308DF897
S1131AF00230704710B584B0B0228DF800200190F8
S1131B00012200F00EF8029100228DF80220002339
S1131B1002228DF803200C224469A4686946A04778
S1131B201FBD0248C0698DF8012070471000FF1FD7
S1131B300CED00E00400FA051C0AFF1F70B5044612
S1131B40022C04D0002001F043F8012C0ED0002612
S1131B50114D06E04019C16889680A0018BF88471A
S1131B60761C1820704341590029F3D174B9FFF74A
S1131B70B2FCFFF760FA01F0D6F8084900200860CB
S1131B80012001F001F901F0B5F962B6BFF36F8FDE
S1131B90BFF34F8F70BD00BF3C0A000008ED00E0AA
S1131BA0002201F01BBA0000A649EFF31080086080
S1131BB072B6704738B5A44D2B696C68DB6A22464F
S1131BC0042105F1200098472B69DB6A6A4601214C
S1131BD005F120009847206800990818401E6060AD
S1131BE000209A49486032BD01F013BA2DE9F04152
S1131BF004460D469046954F75B3786839680028B9
S1131C0008BF002906D114F00F0F01D0652024E08D
S1131C103C6002E04118A14219D12918B1F5806F46
S1131C2094BF2E46C0F58066C01900F108018845AE
S1131C3004D0324641460830FEF7C2FF78683419B2
S1131C40AD1B3018B0F5806F7860B044D4D100F08B
S1131C5029F80028D0D000E00020BDE8F081F8B5D4
S1131C6004460D46794E06F108004FF48071491E72
S1131C7040F8042BFBD19DB1002070604FF48067C5
S1131C80B5F5806F98BF2F4606F108023946204605
S1131C90FFF7ACFF002804BF3C19ED1BEBD0F2BDED
S1131CA0BDE8F1402DE9F041684C86B0676800203A
S1131CB0002F3DD0D4F800802060606003AA7842F1
S1131CC00009000146423946404600F0A6F878BBB8
S1131CD0B74205D23819FF22F11B083001F0CAF9C6
S1131CE0FFF762FF584F334604F10802414607F1FB
S1131CF0200000F069FD534D00F08BF8C0B99DF849
S1131D000C10A9B1FFF750FF04A8029004F10803D6
S1131D1005A801903246B8680069006D3C69C0B2FC
S1131D2000904146A46A07F12000A04700F071F832
S1131D3006B0BDE8F081F8B504460D46FFF734FF60
S1131D40414E434B37693F692A46214606F120003C
S1131D50B8473C4F396881F3108898B9B16809696C
S1131D60096B79B1FFF720FFB0680069036D214664
S1131D703469646ADBB22A4606F12000A047396858
S1131D8081F31088F2BDF8B52F4CA1680969666823
S1131D90326801F1580589692B6800204F4293424B
S1131DA020D16968914227D1FFF7FEFE22692849B4
S1131DB09268244D04F12000904700F02AF880B97D
S1131DC0A1680969096B61B1FFF7EEFEA0680069BB
S1131DD02269016D126AC9B204F12000904700F033
S1131DE018F8F2BD9A4207D217EA030104D010464C
S1131DF0FFF7A1FF0028F4D16968494239404A42FB
S1131E0071688A42EDD2481C811A1046BDE8F4403C
S1131E1091E7296881F31088704780B50A4B9B6865
S1131E201B691B6B03B101234942C9081370C90024
S1131E30494201F01FFA00280CBF42F2DB70002077
S1131E4002BD0000D80EFF1F1000FF1FD00AFF1FA5
S1131E506B66656B10B504466068A168814211D257
S1131E60401A6060A1660FF279302060E08A28B1E0
S1131E7004F1280104F1380001F008FA0120A060FF
S1131E80002010BD42F2787010BD10B50446002148
S1131E90DFF81C0501F0FAF9616A102204F1280048
S1131EA0FEF78EFE606A00F01EF80FF2050017E0E0
S1131EB010B50446DFF8FC34606A4289A282C26825
S1131EC0921E626042689A4202D1017A022902DBC0
S1131ED042F2757010BD00F006F80FF2150000BF55
S1131EE02060002010BD04F13802102101F0F3B984
S1131EF010B5044682B0606A42686368A2610268F1
S1131F00D21E9A42A26002D342F2767016BD0289B2
S1131F106AB1E28204F138024189C91E21660FF2D6
S1131F2039012160102101F0D6F9002016BD0020EE
S1131F308DF800006946DFF8802402F12000126960
S1131F40926990479DF8000010B142F2817016BD6D
S1131F502046FFF77FFF16BD10B5044604F1380292
S1131F60A068401EA0601021606A01F0B4F9206EE0
S1131F70401E206604BF0FF235002060002010BD13
S1131F8010B5044604F12801A068401EA060DFF8E3
S1131F90200401F07BF9606A04F13802102101F099
S1131FA0C2F92046BDE8104054E7000070B505466C
S1131FB01022A868696A461EAE6005F1380001F077
S1131FC0F9F9002418B9DFF8F40328600BE0E88A73
S1131FD0401EE88280B220B1701EA8600120A8666D
S1131FE001E04FF41E54204670BD38B50446E08A23
S1131FF008B100F055F8DFF8C0532B68626A216E0F
S1132000E06D9B689847A8B9A1682069491E884279
S113201003D328680069804760B900F046F800F0EF
S11320203AF80098616E884200D044E00FF2B11093
S11320302060002032BD38B50446E08A08B100F0C3
S11320402FF8DFF8745300F030F82B68626AE06D03
S11320509B6810219847E8B9E06D1030E065206E68
S113206010382066112828BFDFF8540310D210B1AD
S1132070DFF850030CE028680069804750B900F08D
S11320800AF80098616E884200D014E00FF25110F3
S11320902060002032BD694604F11C00FFF76AB9D4
S11320A0626A1021104601F03EB9616A102204F1FF
S11320B01C00FFF733B942F27A7032BD10B5044602
S11320C004F11C00FFF724F9206E11282CBFBC4832
S11320D0BC4805E7B84B1B68426E016EC06DDB68F7
S11320E01847F8B50446B4F85A00C0F30321C007F2
S11320F04CBF08250425E66D042901D00420F2BD57
S1132100FFF7E9F904F16002AB4F3C69646B2B46BD
S1132110314607F12000A0470446FFF7E2F9002CFE
S113212014BF20460020F2BD70B5044642F27F760B
S1132130E56D284600F06BF980B1606E04F118017A
S1132140A8470646012E03D12046BDE8704081E62B
S1132150022E03D100F08BF8002070BD304670BD14
S113216010B500F15C01031D1C684A685A60944272
S113217002D242F2767010BD0A7AD2070FD50A68ED
S11321805C69A2420BD1496849B19960598A21B16D
S113219000F12801383001F079F8002010BD90F8E2
S11321A05A10C9075CBFBDE81040FFF753BE42F2A6
S11321B07C7010BDB0F85A108A0707D4CA0707D537
S11321C0C1F30320002808BFFFF7DDBD04207047DA
S11321D0794A126852695C3041680068104700000F
S11321E0D0B5044604F15806E08A5A2708B1FFF72F
S11321F057FF616A30461022FEF7F2FC0120815D30
S11322007F18401C1028FAD33078F9B2884202D0E3
S113221042F27970D0BD71780A2942F2127023D843
S1132220DFE801F01A060A0E24121A16241C1E00F6
S11322302046BDE8D04093E72046BDE8D0403DE7C6
S11322402046BDE8D04045E72046BDE8D0406BE7D6
S11322502046BDE8D040ADE70020D0BD0420D0BD6D
S11322602046BDE8D0403CE742F27B70D0BD10B5BB
S1132270554C70212046FFF793FC544820604FF4DE
S113228030414B480A6802604A6842608A6882604A
S1132290C968C160002150F8212012F1010F02D158
S11322A0491C0429F7D3042904D100210022002366
S11322B000241EC0002010BDF8B504460D460020C1
S11322C00026434FAE4217D03869C0F11000A91B55
S11322D009E079B13B69325DDA55761C3A69521CE2
S11322E03A61401E491E0028F3D1386100F005F818
S11322F010B9E7E742F27D70F2BD3349344A4A62CD
S11323000020CA682AB10B69934209D0581C08619D
S113231001E08A6E12B9084609680847521E8A66A7
S11323207047F8B5244C20680069804700283DD1E7
S1132330254F97F85900042824D107F15C052E682D
S1132340304600F064F8D0B10020FFF7F7FB97F8AF
S11323505A00800711D5686868616168103160B1FE
S11323600A68904222BF4968491C814201D2042074
S1132370F2BD80F3088880F30988A868B04742F268
S11323807E70F2BD08280FD10220FFF7D7FBBFF300
S11323904F8F1048104A016801F4E0611143016055
S11323A0BFF34F8F00BFFDE742F27B70F2BD000028
S11323B04810FF1F53544D501000FF1F811F000091
S11323C037200000EB1F0000C00FFF1F8B1E000012
S11323D03410FF1F0CED00E00400FA0538B5044684
S11323E00D460020FFF7AAFB7B487C4A0560446049
S11323F04FF420411160016881F3088881F3098852
S113240040688047BDE832400020FFF797BB10B515
S113241082B000281EBF10F1010F7149884201D11A
S1132420002016BD6A46022100F0D4FE002418B92B
S11324300098007A00B10124204616BD2DE9F04F22
S1132440DFF8A081684D85B0D8F80800006900F174
S113245068072E4609E0397C014205D07069F268AC
S11324608169526830469047183630680028F2D1A6
S11324700024A146CDE902494FF47A70FEF7F3FD3A
S113248006464FF420408A4641680091D0F800B0D7
S113249000F071FD002838D10098FFF7B8FFA0B311
S11324A0FEF704FF88B3D8F80800006990F88600A6
S11324B0C00703D400985946FFF790FF788A4FF677
S11324C0FF71884208BF41F28830A6FB00230AFB53
S11324D00033CDE90223FEF7B6FD04468946DDE963
S11324E00201002908BF00280FD0FEF7ACFDDDE98A
S11324F00223001B61EB0901994206D301D89042E3
S113250003D300985946FFF769FF2E4600E01836BA
S113251030680028E3D0397C0142F8D0F1680968BA
S1132520304688470028F2D0002ED8D009E0397C04
S1132530014218BFAE4203D0E9688968284688473B
S1132540183528680028F2D1304605B0BDE8F08F70
S113255010B5FEF7BAFF00F0C1FC224C21694968AE
S113256004F12000884721692048E06304F1200039
S1132570096C8847A06800688047002000F004FCCC
S1132580FEF744FD206800688047A06840688047E3
S1132590FFF754FFE061016919B109680A0018BF27
S11325A08847E069416919B109680A0018BF88477A
S11325B0E0680068BDE81040004738B5FFF7C8FF81
S11325C0084CE569E06840688047E868C16808002D
S11325D0F8D028468847F5E7280AFF1F08ED00E0F1
S11325E0110400001000FF1F3C0A00006400FF1FDC
S11325F07047000008B904207047DFF8F015096837
S1132600090E01F00F010F290FBF4FF480110FF2D3
S1132610B06232F811108902002202604160426106
S113262002218160826102614FF480514FF0A05217
S1132630C160026241620020704770B508B904208D
S113264070BDC4690FF2586165680C222846FEF714
S1132650B7FADFF89C650FF25461681C30601422ED
S1132660A5682846FEF7ACFA681C7060022020605A
S1132670002070BD38B5040001D1042032BDDFF85C
S113268074256FF03B401060DFF86C05814201D087
S11326906B2032BD38E02DE9F04389B01646804600
S11326A00D4600F03FFA049B00F038FA04001BD1F9
S11326B0009D019F7019461EB6FBF7F007FB1061E1
S11326C021B1401C7843461E00E07D19AE4217D369
S11326D02802000ADFF81C1540F010600860DFF8DB
S11326E01805814502D06B24204656E000F0DDF940
S11326F00446D8F81000010018BF8047002CE4D02D
S1132700404600F065FAEFE7204600F047FA054638
S1132710204600F05DFA284632BD2DE9F04389B029
S113272004465FEA02080F461D4608BF042034D061
S113273000F0F9F9039B2A463946204600F07AFA5C
S11327405FEA000929D1009FDFF8A86402E003983A
S1132750C7192D1AEDB158F8040B706039020398AB
S1132760090A042808BF41F0C06006D0082805D132
S113277058F8040BB06041F0E0603060204600F08F
S11327800DFA81462069010018BF8047B9F1000F96
S1132790DDD0204600F01CFA484609B0BDE8F083BD
S11327A038B5040018BF002A01D1042032BDDFF877
S11327B04404DFF84834C9B243EA014101601168B6
S11327C04160516881609FE72DE9F04F89B08146EF
S11327D05FEA020A0E461F4608BF04205CD001AA25
S11327E000F03DFA069B3A463146484600F022FA8C
S11327F05FEA000850D10298019E009004E0A0080E
S11328000AEB800AA6193F1B002F41D000997042A1
S11328104942084040420024B04204BF00990818CD
S1132820F119884209D2851B002DE8D0B5F5806FD7
S11328308CBF4FF4806BAB4601E03D46F6E7A00841
S11328400AEB80015A464FF0A050FEF7B9F9A019DF
S11328500002000ADFF89C1340F03060086006981C
S1132860BBFBF0F0000440F47F4040F0FF00486000
S1132870484600F093F98046D9F81000010018BFCB
S11328808047B8F1000F04BFA5EB0B055C44CBD027
S1132890484600F09DF9404604E12DE9F04389B033
S11328A05FEA0008914614BFB9F1000F04200E46F8
S11328B01D464FD000F037F90698401E064208BF67
S11328C0054222D1A919109C0020491E012C05D1D2
S11328D0082E04BFE91D0F2912D112E084B9B1F505
S11328E0806F0ED3B6F5802F03D3DFF81423914203
S11328F007D3B6F5000F03D3DFF80823914200D3C2
S1132900042038BBDFF8EC720DE0652022E0796822
S113291049F8041B0699082904BFB96849F8041B3F
S113292006998E196D1AADB13002000A40F040705C
S113293038602006069940F0FF1040F47F400429D7
S113294008BFB86002D0082908BF786000F0ADF86D
S11329500028DCD021E738B51446002818BF002C25
S113296001D1042032BDDFF88C52DFF89C22C9B2B9
S113297042EA0141296000F011F918B9696821603F
S1132980A968616032BD002818BF002901D1042064
S11329907047DFF87802007800F00302022A08BFCB
S11329A0002005D000F0C00080280CBF01200220C8
S11329B008700020704710B50A46002818BF002A86
S11329C001D1042010BDDFF844321C78002104F04A
S11329D00304022C1ED06FF03A41C3F8021054785D
S11329E01178240444EA0161947841EA0421D478FA
S11329F02143C3F8061054791179240444EA01618F
S1132A009479D27941EA04211143C3F80A1000F001
S1132A10C5F80146084610BD08B904207047DFF820
S1132A20F02182E02DE9F04F89B0924680460C46B1
S1132A3000F078F8059B52462146404600F0FAF82B
S1132A4080BB6A462146404600F009F9009C029E7C
S1132A506042714208404542A54208BF7519DFF83B
S1132A60947103E0AAEB0B0A5C447519BAF1000FE8
S1132A7017D0281BD346824588BF83460598BBFBE5
S1132A80F0F02102090A000441F0807140EA0920B3
S1132A90396040F0FF00786000F007F80028E1D0CA
S1132AA000E0002009B0BDE8F08F404676E02DE953
S1132AB0F04389B080465FEA03090D46164608BF15
S1132AC004202AD000F02FF8079B00F027F820BB41
S1132AD0009D109CDFF81C7105E007998A08761A9E
S1132AE009EB82094D19C6B12802000A40F00070B2
S1132AF03860200640F0FF1040F47F407860D9F839
S1132B000000B860FFF7D1FF0028E6D0119901B1A9
S1132B100D60129909B100220A603EE63246294648
S1132B20404687E099466A4699E042EA0141314AC3
S1132B30116033E010B51C0001D1042010BD08233E
S1132B4000F078F800B9207010BD0000002818BF0C
S1132B50002A01D10420704709291DD8DFE801F0BB
S1132B6005090B0E10121416181AC0681060002004
S1132B7070474068FAE740684008F7E78068F5E77F
S1132B800068F3E70020F1E74069EFE78069EDE7CB
S1132B90006AEBE7406AE9E76A20704710B51D4C0C
S1132BA07021217000F03AF888B91149096820466B
S1132BB088472078810601D5672010BDC10601D55C
S1132BC0682010BDC00701D5692010BD002010BDCC
S1132BD038B50400200000F021F80500002D03D1D1
S1132BE00D4803494968884731BD00004C800440C2
S1132BF0DC0EFF1F040002406B66656BFFFF0043A1
S1132C000004040000048000FFFF004102000240B1
S1132C10FFFF00400000024004F0014008B9042016
S1132C207047C06920B10068022801D100207047B4
S1132C306D20704708B9042070475B1E194208BF15
S1132C401A4201D0652070470368994221BF406849
S1132C50C0185118884234BF66200020704770B5F0
S1132C6005000E46144601D1042070BD20212046E3
S1132C70FEF796FF2868301A2060E8686060A9684B
S1132C806868B0FBF1F0A0600820E06010202061CB
S1132C9060610820A0610420E061002070BD000094
S1132CA08021017002780A42FCD070470168F0224A
S1132CB012040A430260BFF36F8FBFF34F8F704754
S1132CC00800100018002000300040006000800060
S1132CD0C00000018001000200030004000600009F
S1132CE080B51B491B4808601B491C48421A1C48F4
S1132CF088421CBF002AFDF763FF1A481A49091AC3
S1132D0018BF00F089FB19481949091A18BF00F0C7
S1132D1083FB18491848421A04D0BDE808401748F4
S1132D20FDF74EBF01BD16484FF0FF310160416011
S1132D308160C160016141618161C16111480160CB
S1132D4041608160C160016141618161C16170471D
S1132D5008ED00E0000000001C790000707C000019
S1132D600000FF1F2009FF1F7C15FF1F0004FF1F29
S1132D702009FF1F4C7D00004C7D00007C15FF1FC7
S1132D8080E100E080E200E02DE9F041484C494D4B
S1132D90010020786FD12968616047498968096911
S1132DA001F16802117C167F090906F0010601F0A1
S1132DB0010383F001073E42404908D02A68120FFC
S1132DC04FF0A070521CB0FBF2F0086059E0527F43
S1132DD0D24302F00F02521C0BB906E0521E384BCC
S1132DE0384EB3FBF2F3B342F8D3354B364EB3FB54
S1132DF0F2F3B34228BF521CF7D294461646174644
S1132E00DFF8C88001E00CF1010CDFF8B4E0BEFB90
S1132E10FCFEC645F7D2DFF8A8E0DFF8B480BEFBBD
S1132E20F6FEC64528BF761CF5D200E07F1CDFF80D
S1132E3090E0DFF8A080BEFBF7FEC645F6D2012A7B
S1132E4005D1BCF1090F3CBF092E092F19D2761EFA
S1132E503606521E06F0706646EA02727E1E36047C
S1132E6006F4702632432A600B60002100F00BF850
S1132E700020207005E0012903D100F004F8606807
S1132E802860BDE8F081884211D0134849B901781F
S1132E9001F09F0141F0A0010170C178C906FCD581
S1132EA07047012903D1017801F01F0101707047B7
S1132EB07000FF1F448004401000FF1F3401FF1FF7
S1132EC0006CDC02002D3101010E270701879303FA
S1132ED081F0FA0201366E010340064080B500F02D
S1132EE09FFA3249002008603148016841F4785162
S1132EF0016001BD2F48416B21F4785141632E4993
S1132F000A68520052080A60016821F4E021016055
S1132F1070472848016B21F480210163002141643A
S1132F20016841F4E0210160016B41F480210163F7
S1132F30032122480171017841F080010170017878
S1132F4041F020010170012070471D481D490068AF
S1132F500968C0F30360401CB1FBF0F0704701281E
S1132F6003D9801E032803D903E01648006870477C
S1132F70EBE7002070471448016841F48071016058
S1132F8012494A6822F040024A60026842F0130281
S1132F90026000204FF4FA720B68C3F38013181810
S1132FA0521EF9D1FA288041C00F704700D000406A
S1132FB038800440048004400070044040210740ED
S1132FC0448004403401FF1F18B0044090F00F40C7
S1132FD07047000062F30F2262F31F4200B500BF86
S1132FE0130096469446103928BFA0E80C50FAD82E
S1132FF05FEA417C28BF0CC048BF40F8042BC907D6
S113300028BF20F8022B48BF00F8012B00BD00F0B8
S113301023BA134680B50A4601461846FDF7D0FD8B
S1133020002002BD70B510F0030F0C46154612D0F7
S1133030B0F1005F0FD22118491EB1F1005F0AD32D
S1133040C0F1005632462946FDF7BAFDA21B71199C
S11330504FF0005001E022462946FDF7B1FD002063
S113306070BD10B514460A462146BDE81040012340
S1133070FDF7FEB962F30F2262F31F42401810F00D
S1133080030308D0C91A1FD3DB0748BF00F8012D7A
S113309028BF20F8022D130030B414461546103909
S11330A028BF20E93C00FAD8490728BF20E90C00D2
S11330B048BF40F8042D890028BF20F8022D48BFDE
S11330C000F8012D30BC7047C91818BF00F8012D55
S11330D0CB0728BF00F8012D7047000070B50D0024
S11330E082B00446164601D1002076BD6A4600F03F
S11330F071F830B9009BDB685B683246294620468C
S1133100984776BD70B50D0082B00446164601D1CD
S1133110002076BD00F07FF800B14CE000F047F8E5
S113312068B9009BDB689B6832462946204698476D
S11331304E49002806BF009AD26800220A6076BD74
S113314038B504460D466A4600F044F8A0B9009824
S1133150C068406908B9662032BD2946204600F09F
S11331605AF810B142F2D87032BD009AD26852694E
S113317029462046904732BD002DFCD1002032BDA7
S113318070B50D0082B00446164601D1002076BD0C
S113319000F041F800B10EE000F009F830B9009BEE
S11331A0DB68DB68324629462046984776BD6A4686
S11331B0294620460EE042F2D87076BD10B52B4C5D
S11331C02168002029B109690A0002D0884700213A
S11331D0216010BD70B542F2D873D2B1244C64683A
S11331E0146011B915E01034146014688CB12568AA
S11331F0002D04BF6668002E01D1E6684EB1A842D6
S113320024BF65688542EED30818401E854228BF56
S11332100023184670BD70B50918491E0022144BCE
S11332209C685D682469160104EBC204583475591E
S113323066682468AC4208BFAE4205D0864228BF07
S1133240A14201D3012070BD521C022AE8D3002000
S113325070BD10B50648446804E00068010018BF5A
S113326080471034E0680028F7D110BDEC0EFF1F32
S11332701000FF1F012200E0491E21B110F8013B9C
S1133280FF2BF9D0002210467047000070B50D46A0
S1133290424C30B10146102204F11000FDF790FCBD
S11332A006E004F1100000210022002300264EC095
S11332B02DB1102229462046FDF782FC05E00020AE
S11332C00021002200230FC4103C04F11000BDE8CB
S11332D07040FDF729BC2DE9FF4100F058F81EE0CD
S11332E000F050F800983168484000906A46019810
S11332F071684840019010340298B16848400290C7
S11333007F1C0398F1684840039006F11001684659
S1133310FDF71DFC684600F043F8103E10354745A4
S1133320DED3BDE8FF812DE9F04188B000F02FF82D
S113333023E01022214604A8FDF742FC00F022F805
S11333406A4606F110016846FDF70EFC00983168E4
S113335048400090103401987168484001907F1CE7
S11333600298B16848400290F1680398484003907D
S113337004A800F015F8103E10354745D9D308B01D
S1133380BDE8F081102221466846FDF719BC0446C9
S113339015464FEA11180027004E7047B00AFF1F68
S11333A0B0E80E10A6E80E10102269462846FDF774
S11333B007BC00000300002013F0030F09D0521EC5
S11333C022BF13F8010B11F801CBB0EB0C00F3D0C2
S11333D07047121F22BF53F8040B51F804CB604509
S11333E0F7D0121D0AD200BA9CFA8CFCB0EB0C0088
S11333F038BF6FF0000088BF01207047521E22BF03
S113340013F8010B11F801CBB0EB0C00F6D0521CF1
S113341008BF1046704700000022FFF72FBE0000CF
S11334200B48817801F07F0104290FD1017801F064
S11334309F010170FF21827802F07F02012A03D1EB
S1133440044A1278520701D4491EF4D1704700008F
S113345001E0074002D007401D480068000B00F05F
S11334600F00C01E082830D8DFE800F005080B0E56
S11334701114172F1A004FF4804013E04FF4C0408A
S113348010E04FF400400DE04FF440400AE04FF4E8
S1133490803007E04FF4C03004E04FF4003001E026
S11334A04FF480200321421E10420A4A18BF022111
S11334B052684B1CB0FBF3F0C0F1005342F8103FCC
S11334C06FF0604301FB003050600020704700BF84
S11334D0007004401000FF1F02280ED80FF22402CF
S11334E080560122012900F01F0102FA01F10CBFEC
S11334F0024A034A400942F82010704700E100E004
S113350080E100E01A1B4100BFF34F8F0548064AD3
S1133510016801F4E06111430160BFF34F8F00BF04
S1133520FDE700000CED00E00400FA05ECE7EBE732
S1133530EAE7E9E702280ED80FF2240280560122B6
S1133540012900F01F0102FA01F10CBF024A034AEB
S1133550400942F82010704700E100E080E100E0FB
S113356018194A0004280ED80FF2240280560122AA
S1133570012900F01F0102FA01F10CBF024A034ABB
S1133580400942F82010704700E100E080E100E0CB
S11335901F21232542440000002101807047F0B51B
S11335A085B004460D4616466846FDF74BFF0020DD
S11335B08DF80B002088019041F22100009000203A
S11335C08DF80A00ADF808008EB1FDF784FF0E4FA8
S11335D069463846FDF705FF324629463846FDF769
S11335E036FF3846FDF74BFF0190FDF77AFF01984F
S11335F0208005B0F0BD008808800448016821F4EB
S11336008021016070470000002003403C8004409A
S113361040684A49405C70474849CA6842B18A6870
S113362013780370501C8860C868401EC8607047D7
S11336300021017070475A2807D1404A01238B5456
S11336400FF2090151619169084770473B49896943
S113365008477FB5394DA96104460FF2FC00616843
S113366050F82160684600F0F2F801208DF8080057
S11336708DF8090002213248286132486861A26845
S1133680606890476946304600F097F82E49304606
S113369000F00FF960680121FFF71EFF6168491906
S11336A00120087104B0002070BD70B50546234C9C
S11336B068680119097989B10FF29C0151F82060F9
S11336C00021FFF709FF304600F0CDF86868AA68CA
S11336D000219047696809190020087170BD1748D6
S11336E08160C260C1680029FCD10020704770B5B8
S11336F004460FF2640082B050F82450E86A0001D6
S11337000BD54FF0006007E03169684688479DF8A3
S1133710000068634FF00070E862E86A074E8001B9
S1133720F2D4E86A800308D5A86B4FF40031E9624B
S113373021467269C0B29047F3E773BD9C00FF1F36
S113374019360000373600000000020A0020CEE7D8
S11337500120CCE70220CAE700C0024000D00240AA
S113376000C00A40010C01F1804101F58E210123C2
S11337700A6803FA00F010430860704700290168E2
S113378014BF21F4804141F480410160704700215D
S11337900FF2140252F82130834202D0491C03294B
S11337A0F8D308467047000000C0024000D0024031
S11337B000C00A4001212046E0E738B504460D4622
S11337C0FFF7E5FF00F03EF8FFF7F4FF00F084F8A0
S11337D00122206840004008206020680840297BBE
S11337E040EA8170A97B40EA8160697B40EA01601C
S11337F0E97B00F01CF80121204600F04FF82878FE
S113380004EB8000C1686A6821F0FE41521E41EA5F
S1133810C2612A7A920602F0806211436A7A5206E1
S113382002F000721143C16000F007F831BD0902D3
S113383001F440710843206070472068400840004C
S1133840206070470FF2A00151F820008AE70021A0
S113385001700821416000210172417201734173BA
S11338608173C173704710B504460021206800F0CD
S113387035F8FFF7A0FF00F02CF80FF26C0151F8B7
S11338802000010C01F1804101F58E2101230A6819
S113389003FA00F022EA0000086010BD036809047E
S11338A001F47C11012A0CBF194323EA01010160D0
S11338B070478A0103D5026B22F0807202638A0387
S11338C003D5026B22F480320263026B114301635D
S11338D070472046FFF75BBF2068024940F00100B3
S11338E020607047FFCCFFBA0C003C100D003C1068
S11338F00C003010010C01F1804101F58E210123EF
S11339000A6803FA00F0104308607047010C01F1E3
S1133910804101F58E2101230A6803FA00F022EAAE
S11339200000086070470029817814BF41F08001CD
S113393001F07F018170704700210FF2F00252F80C
S11339402130834202D0491C0329F8D3084670472A
S11339504A0603D5827842F040028270890603D574
S1133960817941F0200181717047C17882795206D2
S113397048BF41F480418079C00648BF41F480517A
S11339800846704738B504460D46FFF7D5FF00F0EA
S113399030F8A87A10B1022804D00DE0E88840007D
S11339A0207009E0E8884000207028894000E07118
S11339B0607940F008006071A078A97800F0FD00FB
S11339C040EA4100297840EAC110A0706079297961
S11339D000F06F0040EA0110697840EAC110E9780C
S11339E000F001F831BD00F0DF0040EA41106071E1
S11339F070470FF2440151F820007BE710B50446EC
S1133A000021FFF790FF2046FFF796FF0FF22801F1
S1133A1051F82000BDE8104078E700218172417020
S1133A208170C1700171012101707047006006400E
S1133A300070064000600E40060034100700341089
S1133A400600281000210FF2641252F8213083423C
S1133A5002D0491C0629F8D308467047F8B50D462C
S1133A60044628680101B2FBF1F6B6B206B9012694
S1133A705301B3FBF1F1A1EB46175100720112FAA5
S1133A8087F2B1FBF2F1091A6422B0FBF2F000EB09
S1133A904000884202D240F2F530F2BD2046FFF7E2
S1133AA0D1FF00F04CF81043086007F01F01E078E4
S1133AB000F0F300E070207800F0E00040EA2620F7
S1133AC020706670A07A00F0E0000843A072A0782D
S1133AD0297900F0EC000843A07020786979490145
S1133AE000F0DF0001F0200108432070A879E074A1
S1133AF0E8796075207C40F088002074607C40F098
S1133B00C0006074E078297A09B140F00800697A4D
S1133B1009B140F00400E0700020F2BD80B5017DE1
S1133B200029FCD101794906FCD50021C170FFF7B9
S1133B3089FF00F004F822EA0000086001BD0FF2DA
S1133B40840151F82000010C01F1804101F58E211E
S1133B5001230A6803FA00F070474FF4E131016071
S1133B6000210171417181710121C1710021017232
S1133B704172704702780A430270C27842EA112205
S1133B80C270827942EA11428271427C42EA116136
S1133B904174704705E003791B06FCD511F8013B1D
S1133BA0C37113465A1E002BF5D1704700A006407E
S1133BB000B0064000C0064000D0064000A00E4001
S1133BC000B00E400A0034100B0034100C00341006
S1133BD00D0034100A0028100B00281070B5424E56
S1133BE001243068491E1546082900F10C024CD8FE
S1133BF0DFE801F0051423424228424B4000696883
S1133C0011F1010F18BF00290ED0D168012912DB70
S1133C1090F8461001290ED118300AE0696811F1B4
S1133C20010F18BF002901D1002070BD116114706B
S1133C301430FDF741FC002427E024212030FDF757
S1133C40AFFF22E0A978002904BFE978002904D154
S1133C502978012908BF547017D06A682946203092
S1133C60FCF7AEFF30686968C16104731430FDF776
S1133C7023FC0AE0052408E000211430FDF710FCC1
S1133C80306800211830FDF70BFC204670BD38B5B4
S1133C900C460020012C0DD1134D286880F84610E5
S1133CA000F1200280682423022100F0C8F9296869
S1133CB081F8474032BD002051B90B48006880F8B4
S1133CC0482000F1200280682423022100F0B7B9C3
S1133CD070470549086000207047034908600020C8
S1133CE00968886070470000E80EFF1F10B513468E
S1133CF001200BB9032010BD00225A745A6832B156
S1133D001468220003D00A4601211846A04710BDBA
S1133D1010B5134601200BB9032010BD00229A747C
S1133D205A6832B11468220003D00A4602211846A8
S1133D30A04710BD2DE9FF4104460025616889684C
S1133D40227B4B79012093424ED3096800294BD042
S1133D5001EBC2010839002200E0521C0B789A42A0
S1133D6042DA4B680C2606FB02331E78032EF4D18C
S1133D7094F80EC0002100E0491C1A7A914205DA39
S1133D805A680E01B75C6745F6D1B518D9786173E6
S1133D9055B3A5604FF00008974E984F07E0039481
S1133DA002AA2068694600F059FA08F10108297945
S1133DB0884519DA00208DF80400A86810F8280056
S1133DC08DF80200C009A96801EB8801012849881F
S1133DD0ADF80010A96801EB880149788DF803104B
S1133DE00CBF02970296DAE704B0BDE8F08138B55B
S1133DF004460120A16861B1002506E0886810F836
S1133E002510206800F047FA6D1CA1680A799542D4
S1133E10F4DB32BD70B504461546012084B0002D94
S1133E2014BF002C03200BD0491E052908D8DFE855
S1133E3001F05A0308182E44002121736174A174FF
S1133E40B9E0616800291EBF217B2A788A42F7D035
S1133E5011B12046FFF7CBFF287820730020A07310
S1133E6011E061680029EBD02988627B0D460904C2
S1133E70B2EB116F0AD1A17BEDB28D4206D0204680
S1133E80FFF7B5FFA5732046FFF754FF93E0616881
S1133E9000291CBFA1680029F8D00026A268117966
S1133EA08E42F3DA9268297812F82620914204BFF0
S1133EB0206800F008FA761CF0E7616800291CBF4E
S1133EC0A168002977D00026A26811798E4272DA9F
S1133ED09268297812F82620914204BF206800F0E5
S1133EE0FCF9761CF0E729680A7802F01F02012A1F
S1133EF002BF0A79637B9A425DD14A78012A20463F
S1133F000AD0022A13D0032A1AD0092A22D00A2A54
S1133F1040D00B2A45D04DE04988090A8DF8081095
S1133F206A46296849888DF80910032120E06368EE
S1133F301B6804F10F020421984704F10F0107E004
S1133F4063681B6804F110020421984704F110010E
S1133F50696030E04988090A8DF8081029684988A1
S1133F608DF80910297B59B1A96801916A46092184
S1133F7063681B689847009969600199A9601AE011
S1133F80696800916A46A9680191062163681B6803
S1133F90984710E04988090AE17329688A1C0721B7
S1133FA004E04988217404F11002082163681B6845
S1133FB0984700E0052004B070BD70B50C46154666
S1133FC0002114230E4A03FB0126326822B1491C46
S1133FD00129F7DB022070BD314600F01CFA50B90C
S1133FE0306808B9032070BD002030737460FF206E
S1133FF0B0732E60002070BD113D0000ED3C000048
S1134000A406FF1F10B5040001D1032010BDFFF763
S1134010EEFE0021216061602173A17310BD10B513
S1134020040001D1032010BD607C08B1022010BD42
S1134030206800F001F908B90121617410BD10B5C0
S1134040040001D1032010BDA07C08B1022010BDE2
S1134050206800F0F6F808B90121A17410BD000031
S113406010B5044600F0DCFA0020206084F88D00CE
S113407000F0E0FA002010BD38B508B9032032BDC5
S1134080446844B100680D0602D5A468A04732BD57
S1134090E468A04732BD062032BD08B9032070474A
S11340A0436813B100685B691847062070473EB542
S11340B004460A7AD5090120102A02F00F0319D107
S11340C000220B212046FFF7E8FF04F18C000221B7
S11340D08170002200210170002004EBC001401C0B
S11340E01028CA600A61F8D3A368012120469847C2
S11340F000203EBD082B11D245EA430204EBC20363
S1134100DA685AB10868009048680190487A8DF8D6
S1134110080069461A69DB68204698473EBD0029B5
S113412018BF002801D1032070478268002A18BFF5
S1134130FFF7BDBF012070472DE9F0410746140089
S1134140884608BF032053D000F06AFA294D286836
S113415005F18C0630B171788F4203D100F06AFA10
S113416001273FE018B100F065FA02273AE07770C2
S113417000F060FA0020C5F80880777030700022E3
S113418005EBC001401C1028CA600A61F8D3012F56
S113419019D80FF2F8106860174800281CBF174898
S11341A000280BD0164800281CBF1648002805D04C
S11341B0154800281CBF1548002809D12846FFF7D8
S11341C04FFF072014E02846FFF74AFF06200FE0C0
S11341D02A462946384600F05AFC070004D02846EF
S11341E000F019F8384603E00220B0702560002082
S11341F0BDE8F0811406FF1F8F4A0000FD4A00004D
S1134200374B0000A54B00004B4C00008D4C0000C8
S11342100022002141E710B5040001D1032010BDA4
S1134220616821B1206849688847002060602046A1
S1134230FFF716FF002010BD01F00F0141F08001CF
S11342401AE701F00F0117E708B903207047426825
S113425012B10068126910470620704710B508B9FA
S1134260032010BD002918BF002A12D08B7803F058
S11342700F04082C0DD2640044EAD31300EBC303EB
S11342801468DC6052681A610A46BDE810400221D5
S113429003E7042010BD73B5044601F00F05CE09F1
S11342A00CB9032076BD01AA0321FFF7F6FE082D01
S11342B007D246EA450104EBC1010022CA600A6143
S11342C076BD042076BD02B501F00F01082902D2A3
S11342D06A4604210BE0042002BD02B501F00F017F
S11342E0082902D26A46052101E0042002BDFFF735
S11342F0D4FE02BD0000000010B501230AB9042059
S113430010BD891E062900F18C0417D8DFE801F0DE
S113431004060E10080A12000C210CE00D210AE01C
S1134320A07800E020780023107007E0062102E066
S1134330072100E00921FFF7B0FE0346184610BD2F
S113434010B50123032900F18C0406D0062906D0F8
S1134350072908D0092913D016E00E2111E09AB1DB
S11343601078002307E0A178032906D062B1107801
S1134370207000230320A07006E02246082100E0FC
S11343800A21FFF78AFE0346184610BD8F4A000033
S1134390FD4A0000374B0000A54B00004B4C0000C9
S11343A08D4C000010B5044600F03AF900F027F8EF
S11343B051B1817C8C4207D100210160416081743C
S11343C000F038F9002010BD00F034F9042010BDCD
S11343D038B500F017F800F012F819B1817C8C425E
S11343E000D113E007E038B500F00CF800F007F84E
S11343F08C4200D10AE000F01DF9042032BD61486E
S11344000168704704460D4600F00AB9286000F0C0
S113441011F9002032BD38B5FFF7F4FFFFF7EFFFC5
S113442021B1807C844201D12960F0E7E3E7F8B54B
S11344300C46154601261DB16946FFF7D4FF08B1A5
S11344400420F2BD002705E0491CC9B2032907D3A3
S11344507F1CFFB200984068017A8F421CDA002169
S113446002680C2313FB07230FF28412D3F808E02D
S11344709EF804E002EB011C9CF80C207245E3D189
S11344805868DCF808302A4621469847052804D0A5
S11344900028DDD10026DBE73046F2BD70B582B0DE
S11344A00D46044616466946FFF79DFF88B9012D5F
S11344B008D10099204600F06CFF009A02212046A2
S11344C0FFF7B5FF009B5B685B68324629462046D0
S11344D0984776BD2DE9F843914601240F46B9F17A
S11344E0000F18BF002F804601D0786808B9042057
S11344F045E000F095F8234E306828B1B17C88453A
S113450002D100F097F816E018B100F093F80224F5
S113451011E086F8128000F08DF8776032461A496F
S11345204046FFF709FE040007D03068FFF773FE2A
S11345304046FFF737FF204621E000270FF2B00482
S113454015E00025706800680C2111FB07012B01A0
S1134550886800791A19127B904203D11B590A1DED
S1134560404698476D1C032DECD37F1CFFB2706846
S1134570007A8742E5DB3068C9F800000020BDE816
S1134580F28300000006FF1F9D44000070B582B056
S113459004466946FFF71CFF050027D1002517E0F4
S11345A000260098406800680C2111FB05000FF2FA
S11345B040018268127901EB06110B7B9A4202D109
S11345C0406849688847761C032EEAD36D1CEDB217
S11345D000984068007A8542E2DB00980068FFF7A3
S11345E01AFE050004BF2046FFF7DCFE284676BD10
S11345F0BB3F000005400000153E00000100000024
S1134600516B0000456C0000616C00000300000069
S11346100000000000000000000000000000000096
S11346200A480178002900D172B60178491C01704A
S1134630704700000548017800291FBF491E01701A
S1134640C9B2002900D162B6704700001C09FF1FDF
S11346502DE9F04104461D460E461746FFF7E0FFDC
S113466047EA460804EB081006F00F02C16A41F459
S11346708043C36207F001016668760A760246EA5F
S113468042165B0A46EA011603F0080333435D60F1
S11346906368C06A5B0A5B0243EA421242EA0111A0
S11346A0420A02F008021143069A92054009920D4B
S11346B000F0400040EA024040F088000860FFF744
S11346C0B9FF00F00CF9BDE8F08180B5C16A4A0A6F
S11346D002F0080212180C32026221F40061002276
S11346E0826241F4005108224262C16200920022B7
S11346F0036A0021FFF7ACFF01BD70B5011DFF2265
S11347004B6883F888204B6893F8944044F0020483
S113471083F8944000234C6884F898300E68760A35
S113472003F00F04760246EA4416002500F038F838
S113473046F0080600F034F846F0100635600E68BE
S1134740760A760246EA441444F01804256000EB25
S113475043150024EC6200255C0044F0010400EBE6
S11347600414E5624C6804EB83045B1C082B84F896
S1134770C050D3D300F5907005704B6893F8944003
S113478004F0FD0483F894404B6883F88C2089225C
S11347904B6883F884204570486800F008F870BDC1
S11347A035600E68760A760246EA4416704790F839
S11347B0941001F0DF0180F89410704770B50C88F4
S11347C08B78C97803F00F02DB09012943EA42051B
S11347D005D1B4F5806F0ED340F2FF340BE0412CC9
S11347E028BF4024816801EB820191F8C06046F043
S11347F0010681F8C06000EB0511002BCD6A25F499
S11348008045CD6264F30905CD62CC6A24F400646A
S1134810CC6224F48064CC6214BF0421082184682F
S113482004EB820494F8C050294384F8C01053EA7E
S1134830020108BFFFF749FF002070BD70B50446B0
S113484001F00F05C80940EA4506204600F0FDF9CD
S1134850A06800EB8500002180F8C01004EB06106E
S1134860C16A890A8902C162002070BD70B504461C
S113487001F00F00C90941EA400204EB0212D36AB5
S113488023F48063D36223F40063D3620023666855
S1134890450145EA0115760A45EA462503F0010675
S11348A045EAC6052E68760705D5D66AB605B60963
S11348B046F008062E605B1C022BE8D3A26802EBCC
S11348C08002084392F8C03003F0FD0382F8C03040
S11348D004BF2046FFF7F9FE00F001F870BDA068A0
S11348E090F8941001F0DF0180F8941000207047D4
S11348F02DE9F047044684B0A06808228030017C8A
S11349000270C1F303186068400A4002C1F3C00A90
S113491040EA4810C1F3800140EA0A1040EAC100AD
S11349200068C0F30949C0F383000D284AEA48002F
S113493004EB00150CBF01270027E86AC0F38030A0
S113494000284FD004F5907007B1C170BAF1000F80
S113495035D0A96A4944A9626A6A561AE96A81F497
S11349600061E96281F48051E96203D08905B9EB01
S1134970915F1CD2A96A0191296A0091E96A21F424
S11349808041E9628905B9EB915F08BFB8F1000F76
S11349901BD1C078696A04EBC000408A814214D2FA
S11349A02068002300220021FFF746FC1AE02A6A4F
S11349B0334648F08001204600F0BDF812E059EA81
S11349C0080111D100200190009048EACA108DF826
S11349D008008DF8097069462068FFF7A0FBA068FD
S11349E0FFF7E5FEBDE8FF87E96AC1F34033BBB9D1
S11349F063685B0A5B02490A43EA481201F0080152
S1134A00114349682A6AAB6A9A18914206D0002376
S1134A1002E05E5C9E545B1C4B45FAD3002101709E
S1134A20A86A4844A862696A0E1AB8F1000F0DD149
S1134A3067B18021204600F008F9E06A40F4006084
S1134A40E062E06B40F40060E06303E0E86A80F455
S1134A500060E862E86A80F48050E862696A0029CC
S1134A6018BF002E03D08005B9EB905F08D2A86A66
S1134A700190286A0090E86A20F48040E862A4E784
S1134A802A6A33464146204600F08CF8AAE770B5FE
S1134A9015460FF2CC3282B0136800930C4630BB3B
S1134AA0144E86F8220106F592710098F161B06007
S1134AB0FF2180F8801000220121304600F0E6F842
S1134AC00D48B1687060000A81F89C00B168706894
S1134AD0000C81F8B000B1687068000E81F8B40071
S1134AE03046FFF70AFE2E603460002076BD0620B3
S1134AF076BD0000B806FF1F0004FF1F08B903209D
S1134B0070478268FF2182F88010816891F88420C0
S1134B10002281F884200021826882F8981082683B
S1134B2082F89410806890F8001141F0C00180F878
S1134B300011002070472DE9F041804601F00F007C
S1134B40400040F0010008EB001782B0F86A1D46EF
S1134B500126C0F3803030B9B8623A627D62F86AE7
S1134B6040F40050F86201F00F04F86A8005800DEB
S1134B70A84238BF054698F8210148B90095386A1B
S1134B80B96A0B18012221464046FFF761FD06462B
S1134B90B86A284302BF002C4046FFF796FD304612
S1134BA0BDE8F6812DE9F041044601F00F00400014
S1134BB004EB001782B0F86A1E460125C0F380306A
S1134BC010B9B8623A627E62F86A40F40050830514
S1134BD09B0DF862B34238BF1E46BB6AD4F81CC0B2
S1134BE09B18BCF1000F04F5907211D092F800C02C
S1134BF0BCF1000F0CD1412E0AD216F0030F08BFEE
S1134C0013F0030C04D020F40050F862E36915702B
S1134C1001F00F08507830B9009600224146204632
S1134C20FFF716FD0546002E08BFB8F1000F09D1A5
S1134C30F86A80F48050F86220F48040F8622046DC
S1134C40FFF743FD2846BDE8F681E0B501F00F0308
S1134C50CA0942EA430200EB0212D36AC3F3803367
S1134C608BB14FF0FF330193136A8DF80810009352
S1134C7000218DF80910D16A21F48041D16269467E
S1134C800068FFF74CFA00200EBD0000F8B504469A
S1134C900B46114601200CB90320F2BD0C2BFCD8A5
S1134CA0DFE803F0072030363D676D70819D9D87F6
S1134CB09A00A168002081F80001A068017F4907DB
S1134CC003D5017F41F080010177A06890F80811B5
S1134CD041F0100180F80811A06890F8941041F098
S1134CE0010143E0A068017F490703D5017F01F07A
S1134CF07F010177A06890F8081101F0EF0180F8B6
S1134D00081167E000296AD02046BDE8F44055E563
S1134D10002964D02046BDE8F44009788EE50029D6
S1134D205DD00A781146204602F00F05D609FFF738
S1134D308CFF46EA450704EB0710C16A41F4806121
S1134D40C1624A0A6068400A400240EA451040EAEB
S1134D50061002F0080289051043890941F08C010C
S1134D600160A06890F8941001F0DF0180F89410BD
S1134D7030E0A1B32046BDE8F440097876E571B38C
S1134D80088027E059B30A7802F00F03082B26D2D3
S1134D90D00940EA430004EB0010C06A800A00F026
S1134DA00100488016E0D1B10878A16881F8980024
S1134DB010E0002545F08001C9B22046FFF73EFD12
S1134DC0E9B22046FFF73AFD6D1C082DF2D32046C8
S1134DD0FFF793FC0020F2BD09B100200870F2BD7A
S1134DE000B970473EB50468A06890F88050280761
S1134DF044BF2046FFF77CFDE80712D5A1680120D7
S1134E0084F8210181F88000694600200090102078
S1134E108DF80800002001908DF809002068FFF744
S1134E207EF9280615D5A168802081F88000E06B02
S1134E30C0F38020002802BFE06AC0F3802000286D
S1134E4007D080212046FFF711FD00212046FFF7FF
S1134E500DFDA06890F85C1109B180F85C1137BDB4
S1134E60002007402DE9FC4104460F469046206887
S1134E701E4601AA0621FFF73FFA9DF80400052506
S1134E80012818BF00282ED138781F21084208D1E4
S1134E90206804F110020421FFF72EFA0546207C55
S1134EA018E000F01F01012902D10025258214E039
S1134EB000F01F00022812D1B8888DF800006A465D
S1134EC00020ADF8020005212068FFF715FA054619
S1134ED09DF8020000F0030020820220306004F1FB
S1134EE01000C8F800002846BDE8F68170B582B00D
S1134EF0054600208DF800000C4628680DF10102DB
S1134F000621FFF7F9F99DF801000526012818BFCD
S1134F10002801D0052076BD6078032804BF012055
S1134F208DF8000020781F21084208D160880128EC
S1134F302BD128686A461021FFF7B0FA24E000F06C
S1134F401F00022804BF608800281ED1A0880F21FA
S1134F5008420ED100F00F019DF8002041EAD01163
S1134F602868002AC9B202D0FFF7ADF901E0FFF7C3
S1134F70B4F99DF800102868002919BF221D0521E5
S1134F80221D0621FFF753FA0646304676BD38B592
S1134F9000F0B6F89DF8000003280BD0012818BFD4
S1134FA0022801D0052032BD68888DF800006A46C9
S1134FB007210AE0206800220721FFF7C1F938B968
S1134FC001208DF800006A4606212068FFF7B8F931
S1134FD032BD2DE9FF470646904630680C469A4696
S1134FE003AA06216788FFF787F99DF80C003D0A9C
S1134FF001284FF0050903D0010018BF02283AD157
S1135000E0880190012D02D16A46092129E0022D90
S113501004D18DF808706A460A2122E0032D07D1D5
S11350208DF80A706A46A088ADF808000B2118E0D4
S1135030212D05D1A0888DF808006A460C2110E0C6
S1135040222D05D1A0888DF808006A460D2108E0BC
S1135050232D0AD18DF808706A46A0888DF80900BE
S11350600E213068FFF71AFA81460098C8F800004C
S11350700198CAF80000484604B0BDE8F08770B54E
S1135080044682B0154620681E466A460621FFF78C
S113509033F99DF80000012818BF002801D005202D
S11350A076BD0120306004F1100204F11000286084
S11350B011212068FFF7F2F976BD38B500F020F829
S11350C09DF80000012818BF002801D0052032BD3A
S11350D0002000F00EF8688810B9012000F009F8EB
S11350E02068AA1C0321FFF7A2F92068AA1C072143
S11350F03AE08DF800006A4620680621FFF720B9DF
S113510004460D4620686A460621FFF7F5B8F8B54F
S113511000F043F89DF8000008B10520F2BD01201D
S1135120386004F1100204F1100030601221287973
S113513020822068FFF7B2F9F2BD38B5FFF7E0FF2F
S11351409DF8000008B1052032BDA888A97841EA7D
S11351500020208204F1100220680421FFF767F97F
S1135160206804F110020821FFF798F932BDF8B560
S113517000F013F89DF8000008B10520F2BDA888DE
S1135180208204F1100220680821FFF7B5F804F129
S11351901001316002213960F2BD04460D46164605
S11351A020681F466A460621FFF7A6B838B50446AC
S11351B00120052A0D460FD129786022114205D01D
S11351C0090603D4E98809B103B90020C1012046C6
S11351D0BDE83440FFF777B80598E9880268914242
S11351E038BF016003680498026800212046FFF775
S11351F023F858B92978090608D5204601B0BDE836
S11352003040002300220021FFF71BB832BD2DE9F6
S1135210F0418AB0044600200D460390049005270F
S11352206868904610F1010F18BFB8F1000F10D054
S113523002AA06212046FFF75FF8287A0FF2B01C75
S1135240002808F1080649D06868082801D12868B0
S113525008B9052076E04188718060258188B18095
S1135260C188F18042787270037833702B420AD17E
S11352705CF8225028002DD004AB03AA31464046E6
S1135280A847074626E0B9B1180615D4980602D5F2
S113529000F072F803E058061CD500F060F807002F
S11352A0079804900698039014D1F388039A002178
S11352B02046FEF7C6FF45E0980602D500F05CF8EC
S11352C003E0580606D500F04AF80746079804900C
S11352D00698039004A8019000232AE09DF8080092
S11352E0032808D174785CF8244004AB03AA31463F
S11352F04046A04724E0686800281CBFF0880028C6
S11353001FD0307801061CD4810606D500F01DF8A4
S113531001212046FFF78BF807E0400606D500F090
S113532014F80F212046FFF7B9F8074604A80190A6
S1135330012303A800903A4631462046FFF736FF82
S1135340074638460AB0BDE8F081286806900596FD
S113535000208DF8200005AA686807907047002097
S11353600690059601208DF8200005AAF088079084
S11353700F212046FFF792B80020069005960120E1
S11353808DF8200005AAF088079001212046FFF738
S11353904EB830B585B004461448029003910120FC
S11353A08DF8040002AA00208DF8030069468020CD
S11353B08DF802004020ADF800002046FEF74EFFB5
S11353C0050010D100208DF8020002AA694620468B
S11353D0FEF744FF050005D080212046FEF75BFF61
S11353E0284600E0002005B030BD00000F52000048
S11353F0654E0000ED4E000000000000ED4E000080
S1135400000000008F4F0000D34F00000000000098
S11354107F500000BB5000000F5100003B510000C2
S11354206F5100000029817814BF41F0800101F020
S11354307F018170704700209AE0012098E0406865
S11354406549405C70476449CA6842B18A68137808
S11354500370501C8860C868401EC86070470021F3
S1135460017070475C49896908475A2806D15A4A2D
S113547001238B5459495161916908477047FEB51E
S1135480554D0446A9616068A26802219047666888
S11354900FF2581050F826706846FEF7BEFA102036
S11354A0ADF8060069464E488068006990F87900B6
S11354B0FF2818BFADF806003846FEF763FA01214D
S11354C03846FFF7AFFF40213846FEF741FAFDF7B3
S11354D03CFD4FF47A71B0FBF1F04249B1FBF0F0BE
S11354E0002100E011464A1C00FB02F3322BF9D3E1
S11354F021B9B0F5FA7F04D8012102E0202928BFA0
S11355001F21B87900F0F0000843B871012130463A
S1135510FEF710F834486861012061684919087180
S11355200020FEBD70B505462B4C68680119097949
S1135530A9B10FF2B80151F820600021FDF7FAFF7C
S113554000213046FFF76EFF3046FEF757FA6868D1
S1135550AA6800219047696809190020087170BD84
S11355601D488160C260C1680029FCD100207047D9
S113557038B505460FF2740050F825402046FEF772
S1135580F4F900F01201E17000F05001102911D07B
S11355904106114A14D54007A0780CD540F01000FC
S11355A0A07000208DF800006846116988479DF8B6
S11355B00000207131BD00F0EF00A070207931BDF2
S11355C0A178C90603D5C007EBD5A078F3E7207905
S11355D052692946904731BDB800FF1F6554000049
S11355E01000FF1F40420F006B5400000060064093
S11355F00070064000600E4010B50B46DFF8B4445E
S1135600114601205B1E2268062B2ED8DFE803F02A
S1135610040A1519222D2C0039B30868400A00F039
S1135620CAF804E009B30868400A00F08AF8E0B157
S11356302268012182F8591410BDB1B158328A6030
S113564010BD91B102F158008860BDE810400868AF
S1135650400AB0E04FF40040086001224FF40070AB
S113566048600A748860C860002010BD002070473C
S113567070B5DFF840442060583000F070F92568B8
S113568005F1580000F016FB06464FF4846105F15D
S11356905400FCF785FA20680021C0F86064416575
S11356A0002070BDDFF80C1408600020096808654C
S11356B0704738B5DFF8FC43206890F85C0430B9D3
S11356C0FCF7D5FD2068012180F85C144165206851
S11356D090F85D04A0B32168022081F85C0400F016
S11356E0CBF80500F7D0206800F25C40C1680029BF
S11356F004BF0178022903D1032000F0E6F801E099
S11357000121417042F27D70854219D0206800F277
S11357105D400021017042F274718D4202D1022178
S1135720C17431BD42F212718D4203D10221C174A0
S1135730032002E00321C1740020BDE83240C4E02C
S113574031BD70B50446B4F5847F82B00D4630D3C4
S1135750D84E306800F25B410A7862B9887808B1A3
S11357600F2076BDA868694600F074F808B3009865
S113577000F097F803E0D0F86404844219D130684B
S11357806A6800F264414B68934238BF1A468E68D7
S113579096199B1A641C8E604B600C6013B900212F
S11357A080F85B1400F51670A968FBF709FAFFF797
S11357B080FF002076BD38B50C4605466168A068B8
S11357C0FDF72AFE0FF2984000E00C30416831B139
S11357D00268AA42F9D18268A068FBF7F1F90FF2D6
S11357E0043045B140F201116D1A0DD06D1F19D06E
S11357F06D1E1BD027E0A168552081F8FE01AA2068
S1135800A16881F8FF011EE0A16801F5BE7400F0F3
S11358101CF80A682260097C50F8210000F04AFA5A
S1135820206210E0A06800F09AF80CE000F00DF897
S1135830097C50F82150284600F03CFA0246A06842
S11358402946FBF7BDF9002032BD9A49096801F5E4
S11358508C6170474269984B9A4202BF426B974BE6
S11358609A4204BF027E012A04D1C0690001086083
S113587001207047002070478E480068D0F86C24DF
S1135880B2F5007F04D2110004D142F27D7070475A
S11358904FF40071521AC0F86C2400F51670FCF72E
S11358A00BBD8449096801F25A42012313705370F5
S11358B001F58D61002393700123D37000231371CC
S11358C008604B600120087270477A49096801F248
S11358D05A42012313709070002301F58D605370B8
S11358E0D37013710121436003600172704730B5B6
S11358F03022027078224270002282720FF2D0139A
S11359009400C4F11C0421FA04F505F00F041518E1
S1135910E45CAC70521C082AF2D330BD10B50022EE
S113592061B10A23B1FBF3F30A2404FB13113031F0
S11359301154521C19460029F3D102E030210170A0
S11359400122002111541118491E05E00A78037838
S113595001F8013900F8012B8842F7D310BD70B566
S113596004465748C0B080680569286814904FF60B
S1135970FF70B5F87A608642524808BF41F2883613
S1135980016826A8FFF7B3FF55F8101F0DF1A30017
S1135990FFF7ADFF286869680818411E0DF1AE00D5
S11359A0FFF7A5FF69690DF1B900FFF7A0FF68696A
S11359B0A9690818411E31A8FFF799FFA96C0DF1D8
S11359C0CF00FFF794FFE96C0DF1DA00FFF78FFFCA
S11359D0296D0DF1E500FFF78AFF696D3CA8FFF71B
S11359E086FF696815A8FFF799FFA9680DF15F00A4
S11359F0FFF794FF29690DF16A00FFF78FFFA9698A
S1135A000DF17500FFF78AFF314620A8FFF786FFE6
S1135A102D4801680DF18B00FFF780FFAA6D2B4B19
S1135A2022A023A19A420CBF0A4602462B6A03B164
S1135A3008460F900DF18B033CA80E9013930DF1C3
S1135A40E5000D9020AB0DF1DA000C9012930DF1EE
S1135A50CF000B90119231A80A9010910DF1B9006A
S1135A6009900DF1750008900DF16A0007900DF191
S1135A705F0006900DF1AE0005900DF1A3000490B7
S1135A8015A8039026A802909DF850009DF8523066
S1135A909DF853200FF25C0101909DF85100009095
S1135AA0204600F023F940B070BD00006E6F000086
S1135AB079657300F80EFF1F53544D507367746C6F
S1135AC01000FF1F248004403401FF1F6B636667CE
S1135AD03031323334353637383961626364656660
S1135AE000000000BC060000C4060000D40600004C
S1135AF0E00600004B696E6574697320426F6F7431
S1135B006C6F6164657220256325642E25642E25DF
S1135B10640D0A0D0A53797374656D2064657669A2
S1135B2063652049443A2025730D0A466C61736805
S1135B302073697A653A2025732062797465730D40
S1135B400A466C6173682072616E67653A2025733A
S1135B502D25730D0A466C61736820736563746F39
S1135B60722073697A653A202573206279746573AB
S1135B700D0A466C61736820626C6F636B733A2024
S1135B8025730D0A52414D2073697A653A202573B5
S1135B902062797465730D0A52414D2072616E67FB
S1135BA0653A2025732D25730D0A52657365727647
S1135BB0656420726567696F6E20303A2025732D05
S1135BC025730D0A52657365727665642072656784
S1135BD0696F6E20313A2025732D25730D0A5665A1
S1135BE072696679207772697465733A2025730D3A
S1135BF00A436865636B2072657365727665642019
S1135C00726567696F6E733A2025730D0A426F6F70
S1135C107420636F6E6669672070726573656E7455
S1135C203A2025730D0A5065726970686572616C5B
S1135C3020646574656374696F6E2074696D656F43
S1135C4075743A202573206D730D0A4350552063F3
S1135C506C6F636B3A20257320487A0D0A000000AC
S1135C6000000000EC060000360000000100000007
S1135C70240700000E0000000101000034070000AA
S1135C80A001000003010000D4080000600000002F
S1135C900401000084090000A000000005010000C8
S1135CA0340900004D000000000000000000000066
S1135CB00000000000F10103810704D010F8011B6B
S1135CC089B18107FAD10268B2F10131914311F02F
S1135CD0803F04BF50F8042FF6E710F8011B11B100
S1135CE010F8011BFBE7C01A704700000CB41CB588
S1135CF0044604A801900A46009401AB694607488B
S1135D007844183000F018F8009A00211170002827
S1135D105CBF0098001B16BC5DF80CFB1BAFFFFFBB
S1135D2070B504461E000846154604D015F8011B3C
S1135D30A047761EFAD170BD2DE9F04784B08246A3
S1135D40894614461F46E84607E001232246494691
S1135D505046FFF7E5FF8146641C207810B904B073
S1135D60BDE8F0872528F0D16078A41C25280146D9
S1135D7018D058285CD063280ED0642818BF69282E
S1135D8014D06F2854D0702858D073285DD075284B
S1135D9018BF78284CD0E0E73868386050F8041B06
S1135DA03860C9B24846D0478146D6E7386838607B
S1135DB050F8045B3860002D03D52D214846D047A8
S1135DC0814664206F2808BF082205D040F02001D6
S1135DD0782914BF0A2210220B216428AC4603D16F
S1135DE0002D48BFCCF1000CBCFBF2F502FB15CC36
S1135DF00CF130065FFA86FC4B1EBCF13A0FA4BFCF
S1135E00A0F15106B44403F808C019465FEA050C32
S1135E1001D00129E8DA68460D184846D1F10B098A
S1135E20C2D015F8011BD047B9F10109F9D1BBE77C
S1135E303968396051F8045B3960C3E73868386001
S1135E4050F8045B38607820BCE73868386050F854
S1135E50045B38602846FFF72DFF06004846A3D0B0
S1135E6015F8011BD047761EFAD19DE710B5984866
S1135E708068006900F1680434224AF2C031204687
S1135E80FAF7AEFE20689349884204D0FF223421F9
S1135E902046FDF79FF8FDF79BF8002010BD38B5AC
S1135EA08B4DA86804694B20E07004F110020220B5
S1135EB0A07004210020607020705020E071012047
S1135EC0A07102206071002020715420E072012032
S1135ED0A072002060722072012020634EF6FF70D1
S1135EE0606305F120002B69DB6A98472B69DB6A44
S1135EF004F11402012100F063F82B69DB6A04F158
S1135F001802002100F05CF82B69DB6A04F11C0222
S1135F10022100F055F82B69DB6A04F12002032109
S1135F2000F04EF82B69DB6A04F14402052100F00D
S1135F3047F82B69DB6A04F14802062100F040F8B7
S1135F402B69DB6A04F14C02072100F039F8A069DF
