S01A000066726565646F6D5F626F6F746C6F616465722E737265639E
S1130000F885FF1F11040000EB0400006D290000B7
S11300106F2900007129000073290000000000000E
S1130020000000000000000000000000EB040000DD
S1130030EB04000000000000EB0400008308000053
S1130040773A0000773A0000773A0000773A0000E8
S1130050773A0000773A0000773A0000773A0000D8
S1130060773A0000773A0000773A0000773A0000C8
S1130070773A0000773A0000773A0000773A0000B8
S1130080773A0000773A0000773A0000773A0000A8
S1130090773A0000773A0000773A0000773A000098
S11300A0E32F0000E72F0000892B00008D2B0000B8
S11300B0773A0000773A0000773A00001D350000D7
S11300C0773A000029350000773A000045350000F2
S11300D0773A0000773A0000773A0000773A000058
S11300E0773A0000773A0000773A0000773A000048
S11300F0773A0000773A0000773A0000773A000038
S1130100773A0000773A0000773A0000773A000027
S1130110773A0000773A0000773A0000773A000017
S1130120773A0000773A0000773A0000773A000007
S1130130A3090000773A0000773A0000773A0000FC
S1130140773A0000773A0000773A0000773A0000E7
S1130150773A0000773A0000773A0000773A0000D7
S1130160773A0000773A0000773A0000773A0000C7
S1130170773A0000773A0000773A0000773A0000B7
S1130400FFFFFFFFFFFFFFFFFFFFFFFFFEFFFFFFF9
S113041072B60E480E49886000220023002400258D
S113042000260027B846B946BA46BB46BC4609482A
S1130430854609488047094880470948804762B68D
S113044000200021074A9047FEE70000000000005A
S113045000ED00E0F885FF1FA1380000AD21000089
S1130460E7210000C51A00000000000000000000A1
S1130470002A01D101207047F0B41F46034603242B
S11304802340002B09D00424E31A0170013008240E
S1130490E141521E26D05B1EF7D1042A1ADB13D089
S11304A0002F11D00C460D460E46102A02DB72C0F6
S11304B0103AFAE70C2A02DB32C00C3AFAE7082AAF
S11304C002DB12C0083AFAE7042A03DB01600430B5
S11304D0121FF9E7002A05D0017001300824E14118
S11304E0521EF7D1F0BC00207047FEE7750B0000E8
S11304F000000000870B0000000000001D0C00003D
S11305006B0D00000B0C00008F0C00003F0E000070
S113051000000000DD0E000000000000C10B000020
S1130520000000009B0B00008F0C0000530E000025
S113053000000000BD0E0000000000002B0B0000B6
S113054000000000F50B00000000000000000000A7
S113055000000000F10E000000000000170F000072
S113056000000000530F00006B0D000000000000AD
S1130570000000000000000000000000000102462E
S1130580011B00008F1B000000000000B11B0000D5
S1130590371C0000ED1D00001D1E00007F1E000022
S11305A08B1E0000131F0000192000000000000033
S11305B0BB1C0000A91D0000FD1C0000551B000011
S11305C0971F000000000000000000000000000071
S11305D00000000000000000513A00005B3A0000F7
S11305E0653A000000000000000000004D2A0000F1
S11305F08F2A0000E72A000000000000000000002D
S11306001B2B0000F51000002511000065110000EF
S11306104B1200000000000085120000EB2F0000C8
S11306202B300000D130000000000000000000006A
S11306300D310000FF26000089250000B1250000CF
S11306402D26000069260000ED250000832400000B
S11306508724000099240000D72400000000000033
S1130660000000000100000000000000F30800008A
S1130670D8060000E8060000F006000002000000B2
S113068000000000330900001C0600002C060000D6
S1130690F006000004000000000000005F090000F4
S11306A0EC050000FC050000F0060000000000005E
S11306B00000000000000000000000000000000036
S11306C000000000A1310000DF3100000133000010
S11306D0B53300001482FF1F29340000AD3400003C
S11306E0C7340000000000000000000001350000D5
S11306F08D35000093350000FB350000993600006D
S113070091350000A53600006D35000038B504466B
S11307103D4D0020C5E90000C5E90200C5E904001B
S113072028626862394800F0A0F8C5E9060120464D
S1130730BDE834400FF2550100F044B900F053B95C
S113074070B5314D0C46296A072904BF696A88428D
S11307501AD100F093F8C0EB0016D5E90001D5E9F1
S113076002231018B6FBF0F00A2148434FF49661B7
S1130770B0FBF1F0401D0A21B0FBF1F04FF496619B
S113078048432060002070BD012070BD2DE9F8436E
S1130790064600F05AF81C4F0446386AD7E9045953
S11307A08846421CD7E90601651B68EB09094945DF
S11307B002D82CBFA8420122012A3A6206D0042A98
S11307C008D0052A0ED0072A0FD018E0C7E9004840
S11307D07E6214E0D7E90001201A68EB0101C7E941
S11307E000010CE0C7E9024809E0D7E90201201A38
S11307F068EB0101C7E90201304600F0F4F8C7E9EB
S11308000448BDE8F18300000881FF1F803801001F
S11308101E48002101606FF07F421D494A6000229A
S11308208A6007220A601B491B4A0968C900B1FB98
S1130830F2F101B901214160704715480168C90806
S1130840C900016000218160704710490A6813489B
S113085000680B68C0430002000A9A42F6D10021E6
S113086010EB026051EB1221704708494968A1FB63
S11308700001C00840EA4170C90870470548006893
S1130880704702480168491C016070470882FF1FD5
S113089010E000E00081FF1F40420F0018E000E07C
S11308A00901002806D55B4A00F00F00801800F803
S11308B0041C7047584A8154704750F82130120480
S11308C023F4702302F470221A430FE050F821003D
S11308D0C0F30060704706E0120202F4E06242F0E6
S11308E0200203E000BF120202F4E06240F821207B
S11308F0704700B1704710B5484C19B102290DD0AA
S113090003D310BD2064606410BD4FF48070206474
S11309104348016821F48031016010BD0322102195
S11309202046FFF7D8FF2046BDE8104003221121DE
S1130930D1E700B1704710B5384C11B1022903D08A
S113094010BDA060606010BD022201212046FFF7A7
S1130950C3FF2046BDE8104002220221BCE700B1DB
S1130960704710B52F4C11B1022905D010BD206479
S11309706064A064E06410BD022210212046FFF7E9
S1130980B1FF022211212046FFF7ACFF02221221FF
S11309902046FFF7A7FF2046BDE81040022213219E
S11309A0A0E780B510211D48FFF790FF48B11E480D
S11309B00168080005D0002088471C494FF0FF302B
S11309C0086001BD10B50C4660B901213C20FFF759
S11309D067FF17494FF0805008600A2200F015F8AD
S11309E01148046010BD00B1704780B511494FF043
S11309F08050086000213C20FFF752FF002200F0E5
S1130A0004F809490020086001BD1021034854E797
S1130A100000000018ED00E000E400E000A0044045
S1130A2054F00F4000D004401082FF1FA0A00440E7
S1130A3004E100E084E100E0DFF83016C968C96829
S1130A400020086070472DE9F041DFF8205682B09D
S1130A50E86900248DF801404669002E62D0E968F7
S1130A60C9680A68012A4CD001F10802746800239D
S1130A70091DA04704001FBF42F21270844242F2D3
S1130A80137084424ED1E868C168D1F80880B8F187
S1130A90000F47D04E68377837B1132F04DA8068D7
S1130AA000EBC700083800E00020086200281CBFE3
S1130AB0006800281CD02A699269694605F1200063
S1130AC09047040016D19DF8000040B14FF4E75060
S1130AD0791EC840C00758BF42F211740AD5EA68AB
S1130AE0D268126A1268414630469047002406E0F4
S1130AF042F210743946204600F040FA94B90120BD
S1130B000DE0086A48B14168080003D00DF1010006
S1130B10884704460CB1002001E09DF80100E96813
S1130B20C96808602046BDE8F68180B501780020D8
S1130B3000F024FADFF83405C0694169096988477F
S1130B40022000F09BFABFF34F8FDFF82405DFF893
S1130B502425016801F4E06111430160BFF34F8F64
S1130B6000BFFDE7DFF80405C068C06814210C303D
S1130B7000F0B6BA10B5044600F0ACFBFFE72178EC
S1130B80BDE81040FAE110B5DFF8E02412685269BC
S1130B900446A16860689047F1E710B500F04AF890
S1130BA0DFF8C804C068C068616801610821017782
S1130BB00020217800F0E2F9BDE8104000F09FBD6C
S1130BC030B583B0DFF8A444A568002101910091F9
S1130BD06B4681684068AD6801AAC9B2C0B2A84733
S1130BE0E268D2680021116100998A08019900F035
S1130BF0D9F937BD10B5DFF874249268D268044679
S1130C006068A168C0B29047B9E710B500F012F867
S1130C1000F012F8042101770020B0E710B500F0CD
S1130C2009F800F009F8032101770020A168BDE864
S1130C301040CEE1044695E7DFF83004C068C06890
S1130C40A168016161684161704738B500F088F8B6
S1130C50002141610161007F042804D128680069F2
S1130C60804704B90446E868C068017F204600F064
S1130C7085F942F21270844208D1E868C068007FA6
S1130C80082804BFBDE8314000F078BD31BD2DE92E
S1130C90FC4100F065F8016921B900202070FFF7DC
S1130CA0D4FF5AE0012121700669476900200090B1
S1130CB00123E869D0F814C0DCF804C06A4601A92D
S1130CC0E0475FEA000805D0E8694169C9688847D8
S1130CD0404603E0009830B942F21270FFF7B5FFC6
S1130CE0002020703AE0B04288BF30460090E868A7
S1130CF0C068017F082913D10199C16000998161FD
S1130D000198009900F005FD804642F27D7080450F
S1130D101CBF42F2747080450BD14FF0000808E00C
S1130D202B68019A00999B6838469847804600983A
S1130D30C7190098361A06D0B8F1000F09D0E8692F
S1130D404169C96888474046FFF77FFF002020704B
S1130D5003E0E868C068066147610020BDE8F681E9
S1130D60C24D0446E868C06870472DE9F047BF4D9E
S1130D708AB00446E868C068016921B9002020707F
S1130D80FFF763FF57E00121217006694769C168D5
S1130D90027F212E2CBF4FF02008B046A9B1424655
S1130DA001A800F043FDE869D0F814C0DCF808C0DD
S1130DB00123424601A9E047A6EB080606B1B0B3F9
S1130DC0FFF743FF0020207035E0032A08EB0709F2
S1130DD007D12B685B6801AA41463846984782468A
S1130DE014E0102A18BF4F46DDD190F81DA000F082
S1130DF063FD39462F69CDF800A04346FF6B01AA75
S1130E0005F12000B847824600F05CFDBAF1000FFE
S1130E104F46C8D0E8694569AD680123002201A99D
S1130E20A8475046FFF711FF0020207004E0E8684F
S1130E30C0680661476100200AB0BDE8F08710B5BC
S1130E408A4B1B68DB680446E268A16860689847BF
S1130E5095E62DE9F0410546874C6E68D5F8088083
S1130E60E8688249206000274968103130B10A6877
S1130E70904223BF4968491C81420427304600F050
S1130E8046FD00B904272978384600F077F89FB961
S1130E906660002000F0F2F82068C4F8088018B1F9
S1130EA080F3088880F30988616840468847BDE874
S1130EB0F041002000F0E2B8BDE8F08138B5044606
S1130EC0606800F024FD08B9042005E0656801208D
S1130ED000F0D4F8A068A847217819E0634A10B557
S1130EE0044602F120001269D269211D904746E6AA
S1130EF038B55E4D044600F0DFFC00F024F86D6B5D
S1130F0004F10C02A847054600F0DCFC21782846D1
S1130F10BDE8344032E030B583B004466846002171
S1130F20002206C0514D00F0C7FC00F00CF8AD6B78
S1130F306A46A847054600F0C5FCA26869462846EB
S1130F4000F04BF837BD05F120002D69A3686168F6
S1130F50704710B5FFF76EFE4448C168C968A268BF
S1130F600A6162684A6110220A77C068C068E16851
S1130F7041770020A168BDE810405BE010B584B063
S1130F80A02201908DF80020002200F06AF88DF86C
S1130F900220029102228DF8032000234469A468F0
S1130FA00C225BE010B588B0A72300F03AF80020CB
S1130FB0531C8DF8033006E06C4651F8203004EBE6
S1130FC08004401CA3609042F6D300F021F8002373
S1130FD01AE010B584B0A3222FE010B588B0AF2377
S1130FE000F01FF802238DF8033040B99008801CEC
S1130FF08DF80300029203A800F028FC01E0002011
S11310000290002300F004F86946A04708B010BD20
S11310101648C0699DF803104469A46889000A1D34
S113102070478DF80030019000238DF801308DF861
S11310300230704710B584B0B0228DF800200190C2
S1131040012200F00EF8029100228DF80220002304
S113105002228DF803200C224469A4686946A04743
S11310601FBD0248C0698DF8012070471080FF1F22
S11310700CED00E00400FA055481FF1F70B504462E
S1131080022C04D0002001F009F8012C0ED0002617
S1131090114D06E04019C16889680A0018BF8847E5
S11310A0761C1820704341590029F3D174B900F01B
S11310B003FCFFF7C2FB01F096F808490020086022
S11310C0012001F0BDF801F07DF962B6BFF36F8F26
S11310D0BFF34F8F70BD00BF6406000008ED00E051
S11310E0002201F0B5B90000C449EFF31080486054
S11310F072B6704738B5C24D2B696C68DB6A2246FC
S1131100042105F1200098472B69DB6A6A46012116
S113111005F120009847206800990818401E606077
S1131120002032BDF8B5B64F0446786B0D464042F8
S1131130164600EA0401621AAA18524210404242BA
S113114007F120003F697F6C6B46B84748B99DF8AA
S1131150000008B16C20F2BD32462946204601F059
S113116092F9F2BD2DE9F04F89B0924680460C46C3
S113117003AA00F01CF906005BD1A708BF00E41B1A
S11311804FF0FF300690079005D0224607EB0A0186
S113119006A800F04BFBFFF7A7FF07EB0809984DE3
S11311A04FB12E6976693B465246414605F120000F
S11311B0B047060009D144B12E697669042306AA12
S11311C0494605F12000B0470646DFF830B2DBF8A7
S11311D0040080F3108866BB9DF80C0058B3FFF739
S11311E083FF87B104A80290414605A801905346A5
S11311F000F025F83A462E69D6F8288005F120003B
S1131200C047060010D17CB104A8029006AB05A823
S11312100190082200F013F849462C69D4F828807C
S113122005F12000C0470646DBF8040080F310886F
S11312300EB1304600E0002009B0BDE8F08FA86888
S11312400069006DC0B20090704770B5044688B064
S11312500D4600204DF82020401C0828FAD375B113
S11312602026202D98BF2E466A4631462046FFF799
S113127079FF002804BF3419AD1BF0D000E0002032
S113128008B070BDF8B504460D46FFF72DFF5C4E5F
S11312905C4B37693F692A46214606F12000B8476E
S11312A0564F796881F3108898B9B1680969096B58
S11312B079B1FFF719FFB0680069036D21463469FD
S11312C0646ADBB22A4606F12000A047796881F3FC
S11312D01088F2BDF8B54A4CA1680969666832689D
S11312E001F1580589692B6800204F4293421ED1B1
S11312F06968914225D1FFF7F7FE22694149926856
S11313003E4D04F120009047696881F3108868B964
S1131310A1680969096B39B1FFF7E6FE00F03EF8F0
S1131320696881F3108808B901212970F2BD9A42D5
S113133007D217EA030104D01046FFF7A3FF0028E1
S1131340F4D16968494239404A4271688A42EDD20F
S1131350481C811A1046BDE8F44093E770B5154661
S113136082B000222A700A46254C2669766C014612
S11313706B4604F12000B04778B99DF8001029703D
S11313809DF8001049B11D4D297831B900F006F8D7
S113139008B16C2076BD0121297076BDA068006972
S11313A02269016D126AC9B204F12000104770B5B8
S11313B00546134882B080680069006B0E461446E7
S11313C000B101202070FFF78FFE7042800880007A
S11313D041426A462846FFF7C1FF0849496810B1EF
S11313E081F3108876BD81F310889DF8000008B160
S11313F000202070002076BD00000000F081FF1F57
S11314001080FF1F6B66656B416882688A4209D24F
S1131410891A416082660FF26121016001218160B5
S11314200020704742F2787070470FF2050113E014
S1131430416ADFF8D4334A898282CA68921E4260C4
S11314404A689A4202D1097A022902DB42F2757093
S113145070470FF20D0100BF0160002070470000CB
S113146010B5044682B0606A41686268A16101688F
S1131470C91E9142A16002D342F2767016BD008962
S113148010B142F2777016BD8DF800006946DFF89E
S11314907C2302F120001269926990479DF80000B4
S11314A010B142F2817016BD2046FFF7ADFF16BDA4
S11314B038B5DFF858532B689B680446626A216E7E
S11314C0E06D9847A8B9A1682069491E884203D3F2
S11314D028680069804760B900F03AF800F033F8F2
S11314E00098616E884200D038E00FF28D102060C1
S11314F0002032BD38B50446C44D00F029F82B68ED
S1131500626AE06D9B6810219847D8B9E06D10308D
S1131510E065206E10382066112828BFBC480FD221
S113152008B1BC480CE028680069804750B900F055
S11315300AF80098616E884200D00FE00FF239106B
S11315402060002032BD694604F11C0000F0FEBF9B
S1131550616A102204F11C0000F0CCBF42F27A70E0
S113156032BD10B5044604F11C0000F0BDFF206E2E
S113157011282CBFA648A748C8E0A44B1B68426E9C
S1131580016EC06DDB681847F8B50446B4F85A001C
S1131590C0F30321C0074CBF08250425E66D0429C8
S11315A001D00420F2BD00F087F904F16002974FE6
S11315B03C69646B2B46314607F12000A047044682
S11315C000F080F9002C14BF20460020F2BD70B555
S11315D0044642F27F76E56D284600F098F980B122
S11315E0606E04F11801A8470646012E03D1204677
S11315F0BDE8704008E7022E03D100F080F8002017
S113160070BD304670BD10B500F15C01031D1C684F
S11316104A685A60944202D242F2767010BD0A7A45
S1131620D20708D50A685C69A24204D1496811B19D
S11316309960002010BD90F85A10C9075CBFBDE83E
S11316401040FFF7E1BE42F27C7010BDB0F85A10B2
S11316508A0707D4CA0707D5C1F30320002808BFA7
S1131660FFF738BE04207047684A126852695C303C
S1131670416800681047000070B5044604F158053D
S1131680616A2846102200F0E1F85A260120415DE3
S11316907618401C1028FAD32878F1B2884202D078
S11316A042F2797070BD69780A2942F2127023D827
S11316B0DFE801F01A060A0E24121A16241C1E0072
S11316C02046BDE870409EE72046BDE8704048E7EC
S11316D02046BDE8704050E72046BDE8704076E7FC
S11316E02046BDE87040B1E7002070BD042070BD05
S11316F02046BDE8704047E742F27B7070BD10B5EC
S1131700454C70212046FFF7EBFC44482060002044
S113171010BDF8B504460D4600200026404FAE42E9
S113172017D03869C0F11000A91B09E079B13B69F1
S1131730325DDA55761C3A69521C3A61401E491EE4
S11317400028F3D1386100F005F810B9E7E742F258
S11317507D70F2BD3049324A4A620020CA682AB11B
S11317600B69934209D0581C086101E08A6E12B9D2
S1131770084609680847521E8A667047F8B5234C24
S113178020680069804700283DD1234F97F859000D
S1131790042824D107F15C052E68304600F0B7F820
S11317A0D0B10020FFF76AFC97F85A00800711D5E2
S11317B0686868616168103160B10A68904222BF4C
S11317C04968491C814201D20420F2BD80F3088893
S11317D080F30988A868B04742F27E70F2BD0828F9
S11317E00FD10220FFF74AFCBFF34F8F0D480E4A7A
S11317F0016801F4E06111430160BFF34F8F00BF42
S1131800FDE742F27B70F2BD53544D501080FF1F30
S1131810F5140000B1140000D082FF1F2B14000047
S11318204483FF1F0CED00E00400FA0562B38B074C
S113183008D0521E11F8013B00F8013B00F024804F
S11318408B07F6D1830740F0208000BF103A07D3FE
S113185030B4B1E83810103AA0E83810F9D230BCEE
S1131860530724BFB1E80810A0E8081044BF51F89A
S1131870043B40F8043BD20724BF31F8022B20F884
S1131880022B44BF0B7803707047083A07D3B1E8C2
S11318900810083A40F8043B40F804CBF7D2530749
S11318A0E4E700000021016062B6704772B60A499D
S11318B00020086062B6704772B607480168491C88
S11318C00160704704480168022900D2EAE7016810
S11318D0491E0160704700000082FF1F38B50446AE
S11318E00D460020FFF7CAFB7E487F4A056044602E
S11318F04FF420411160016881F3088881F309885D
S113190040688047BDE832400020FFF7B7BB10B500
S113191082B000281EBF10F1010F7449884201D122
S1131920002016BD6A46022100F0AAFE002418B960
S11319300098007A00B10124204616BD2DE9F04F2D
S11319406B4E6C4F85B0B0680069683000903D46BE
S11319500AE00099097C014205D06869EA68816956
S1131960526828469047183528680028F1D1002489
S1131970A246CDE9024A4FF47A70FEF776FF054697
S11319808B460821002000F0CBFE30B94FF42040F4
S1131990D0F80480D0F8009001E0A046A14600F001
S11319A02BFDA8BB4046FFF7B2FF88B3B0680069BF
S11319B090F88600C00703D449464046FFF78EFFDF
S11319C00098408A4FF6FF71884208BF41F2883080
S11319D0A5FB00230BFB0033CDE90223FEF735FF03
S11319E004468A46DDE90201002908BF00280FD019
S11319F0FEF72BFFDDE90223001B61EB0A0199428C
S1131A0006D301D8904203D349464046FFF766FF08
S1131A103D4600E0183528680028E3D00099097C89
S1131A200142F7D0E9680968284688470028F1D0C0
S1131A30002DD7D00AE00099097C014218BFBD42AD
S1131A4003D0F96889683846884718373868002809
S1131A50F1D1284605B0BDE8F08F10B5FFF726FF99
S1131A6000F0AAFC224C2169496804F1200088474F
S1131A7021692148E06304F12000096C8847A068CB
S1131A8000688047002000F0DBFBFEF7C1FE206801
S1131A9000688047A06840688047FFF74FFFE06117
S1131AA0016919B109680A0018BF8847E0694169EA
S1131AB019B109680A0018BF8847E0680068BDE8E2
S1131AC01040004738B5FFF7C8FF094CE569E068E6
S1131AD040688047E868C1680800F8D0284688470D
S1131AE0F5E700006081FF1F08ED00E0110400002D
S1131AF01080FF1F640600006480FF1F7047000011
S1131B0008B904207047DFF8B0150968090E01F020
S1131B100F010F290FBF4FF400210FF2706232F84A
S1131B20111089020022026041604FF48072022188
S1131B3081604FF40061C160DFF8801591F90030D5
S1131B409A404261C9788161002101610162416268
S1131B500020704770B508B9042070BDC4690FF245
S1131B600C6165680C222846FFF760FEDFF85065BB
S1131B700FF20461681C30601422A5682846FFF740
S1131B8055FE681C706002202060002070BD38B5CE
S1131B90040001D1042032BDDFF828256FF03B405A
S1131BA01060DFF82405814201D06B2032BD38E09B
S1131BB02DE9F04389B0164680460D4600F0E3F95E
S1131BC0049B00F0DCF904001BD1009D019F7019F7
S1131BD0461EB6FBF7F007FB106121B1401C7843A9
S1131BE0461E00E07D19AE4217D32802000ADFF832
S1131BF0D41440F010600860DFF8CC04814502D0B2
S1131C006B24204656E000F082F90446D8F8100010
S1131C10010018BF8047002CE4D0404600F03EFA93
S1131C20EFE7204600F020FA00F002F8284632BD23
S1131C300546204632E22DE9F04389B004465FEAC6
S1131C4002080F461D4608BF042033D000F09CF95B
S1131C50039B2A463946204600F054FA5FEA0009FD
S1131C6028D1009FDFF85C6402E00398C7192D1A9D
S1131C70EDB158F8040B706039020398090A04287E
S1131C8008BF41F0C06006D0082805D158F8040BFD
S1131C90B06041F0E0603060204600F0E5F9814634
S1131CA02069010018BF8047B9F1000FDDD0FFF7AC
S1131CB0C0FF484609B0BDE8F08370B5040018BF02
S1131CC0002A01D1042070BDDFF8F803DFF8FC63BB
S1131CD0CDB246EA0545056010291568456002D075
S1131CE01139032903D2082B04BF516881602046AF
S1131CF000F0BAF9FFF79CFF284670BD2DE9F043C8
S1131D0089B05FEA0008914614BFB9F1000F0420BE
S1131D100E461D4647D000F037F90698401E06428D
S1131D2008BF05421AD1A919109C0020491E012C94
S1131D3005D1002E04BF691E07290AD10AE044B95F
S1131D40FF2907D9B6F5000F03D3DFF884239142A6
S1131D5000D3042038BBDFF86C730DE0652022E06B
S1131D60796849F8041B0699082904BFB96849F839
S1131D70041B06998E196D1AADB13002000A40F0A9
S1131D80407038602006069940F0FF1040F47F4010
S1131D90042908BFB86002D0082908BF786000F0A1
S1131DA0B6F80028DCD085E7F8B51546002818BF3A
S1131DB0002D0C461E4601D10420F2BDDFF8047349
S1131DC0DFF81023E1B242EA0141396000F04CF936
S1131DD058B979682960102C03D0A4F111010329A2
S1131DE003D2082E04BFB9686960F2BD002818BF89
S1131DF0002901D104207047DFF8DC02007800F0EC
S1131E000302022A08BF002005D000F0C000802889
S1131E100CBF0120022008700020704710B50A464C
S1131E20002818BF002A01D1042010BDDFF8A83211
S1131E301C78002104F00304022C1ED06FF03A41F8
S1131E40C3F8021054781178240444EA01619478A8
S1131E5041EA0421D4782143C3F806105479117956
S1131E60240444EA01619479D27941EA04211143BA
S1131E70C3F80A1000F0F8F80146084610BD08B986
S1131E8004207047DFF8542280E02DE9F04F89B038
S1131E90924680460C4600F076F8059B5246214651
S1131EA0404600F02FF978BB6A462146404600F0D0
S1131EB03EF9009C029E6042714208404542A542A0
S1131EC008BF75197F4F03E0AAEB0B0A5C44751930
S1131ED0BAF1000F17D0281BD346824588BF83462A
S1131EE00598BBFBF0F02102090A000441F080715F
S1131EF040EA0920396040F0FF00786000F007F8FC
S1131F000028E1D000E0002009B0BDE8F08F404691
S1131F10AAE02DE9F04389B080465FEA03090D4643
S1131F20164608BF042029D000F02EF8079B00F0C5
S1131F3026F818BB009D109C624F05E007998A089B
S1131F40761A09EB82094D19C6B12802000A40F03D
S1131F5000703860200640F0FF1040F47F40786045
S1131F60D9F80000B860FFF7D2FF0028E6D0119935
S1131F7001B10D60129909B100220A609AE6324655
S1131F8029464046BEE099466A46D0E042EA01410D
S1131F904C4A116068E02DE9F04180461E000D4670
S1131FA0174608BF042034D0042300F0ABF880BBEC
S1131FB0D8F814307A195F42C2F1000C07EA0C0C0D
S1131FC0CCF1000C2F40ACEB07070021B7FBF3F773
S1131FD0DFF80CC10AE0DCF800E0203C6FEA0E0EEA
S1131FE02EFA04F4E40748BF491C5D1995420AD24D
S1131FF0B5FBF3F4202C38BFDCF804E0EED3D8F8BA
S113200018E07445E7D319B1B94234BF0221012164
S11320103170BDE8F0810000002818BF002A01D10A
S11320200420704709291DD8DFE801F005090B0ECB
S113203010121416181AC068106000207047406807
S1132040FAE740684008F7E78068F5E70068F3E7D7
S11320500120F1E74069EFE78069EDE7006AEBE70B
S1132060406AE9E76A20704710B51E4C7021217060
S113207000F03CF888B9124909682046884720785E
S1132080810601D5672010BDC10601D5682010BDA9
S1132090C00701D5692010BD002010BD38B504006B
S11320A0200000F023F80500002D03D10E48044958
S11320B04968884731BD00004C8004402800024034
S11320C0F881FF1F040002406B66656BFFFF00434D
S11320D000048000FFFF004102000240FFFF0040B7
S11320E0180002400000024004F0014008B9042036
S11320F07047C06920B10068022801D100207047F0
S11321006D20704708B9042070475B1E194208BF50
S11321101A4201D0652070470368994221BF406884
S1132120C0185118884234BF66200020704770B52B
S113213005000E46144601D1042070BD202120461E
S1132140FEF7CEFF2868301A2060E8686060A9684E
S11321506868B0FBF1F0A0600420E0600820206112
S113216060610420A061E061002070BD80210170E5
S113217002780A42FCD070470168F02212040A4334
S11321800260BFF36F8FBFF34F8F704708001000DA
S1132190180020003000400060008000C0000001F2
S11321A080010002000300040006000080B5184905
S11321B01848086018491948421A194888421CBF2F
S11321C0002AFFF733FB17481749091A18BF00F014
S11321D0BDFA16491648421A04D0BDE8084015480D
S11321E0FFF724BB01BD14484FF0FF31016041608B
S11321F08160C160016141618161C1610F48016019
S113220041608160C160016141618161C161704768
S113221008ED00E00000000004390000083A000066
S11322200080FF1F0881FF1FF483FF1FD83A0000BE
S1132230D83A0000F483FF1F80E100E080E200E070
S11322402DE9F041524C534D0100207863D12968A7
S1132250616051498968096901F168024F49137F36
S1132260DB0708D52868000F4FF0A072401CB2FBB2
S1132270F0F0086056E0527F494ED24302F00F025C
S1132280521C484BB3FBF2F3B342F9D294461646C0
S11322901746DFF8148101E00CF1010CDFF804E1CA
S11322A0BEFBFCFEC645F7D2DFF8F8E0DFF8FC80A1
S11322B0BEFBF6FEC64528BF761CF5D200E07F1CA7
S11322C0DFF8E0E0DFF8E880BEFBF7FEC645F6D2B3
S11322D0012A05D1BCF1090F3CBF092E092F21D2D7
S11322E0ACF1010C4FEA0C6C761E521E0CF0706CB3
S11322F036054CEA027206F4700632437E1E36043A
S113230006F4702632432A600B60012100F00CF8B9
S11323100120207006E0012904D1002100F004F816
S113232060682860BDE8F081884230D001292148E6
S11323301BD1417801F0CF0141F0200141700178B7
S113234001F0C30141F030010170C17801F09F0137
S113235041F02001C170017B01F0FC0141F0020158
S113236001738179C906FCD4704781B9017841F0C1
S1132370040101708179C906FCD504210170802112
S11323804170C17801F06001C17000210173704790
S1132390E881FF1F448004401080FF1F0081FF1F5D
S11323A0010E2707006CDC020187930381C3C90176
S11323B041787D01004006401D48016841F4785190
S11323C0016070471A48016821F478510160704730
S11323D01848194A016800681268000F401CC1F3CC
S11323E003615043491CB0FBF1F07047002806BF5D
S11323F011480068002070471048016841F480715A
S113240001600F494A6822F010024A60026842F0F3
S11324101302026000204FF4FA720B68C3F3001336
S11324201818521EF9D1FA288041C00F70470000D5
S113243038800440448004400081FF1F10D00440D1
S113244010F10F407047000062F30F2262F31F4245
S113245000B500BF130096469446103928BFA0E883
S11324600C50FAD85FEA417C28BF0CC048BF40F842
S1132470042BC90728BF20F8022B48BF00F8012B02
S113248000BD00F067B9134680B50A4601461846F8
S1132490FFF7CCF9002002BD70B510F0030F0C4615
S11324A0154612D0B0F1005F0FD22118491EB1F1C8
S11324B0005F0AD3C0F1005632462946FFF7B6F949
S11324C0A21B71194FF0005001E022462946FFF784
S11324D0ADF9002070BD10B514460A462146BDE88A
S11324E010400123FDF7C4BF4FF0FF31016000210C
S11324F041607047F0B585B004460D4616466846FF
S113250000F0ACF901208DF80B00206801901B4805
S1132510009000208DF80A00ADF808007EB1FFF7A6
S1132520CBF9174F6946384600F067F93246294619
S1132530384600F098F938680190FFF7C3F901981C
S1132540206060683018606005B0F0BD38B504469E
S11325500D46207910F0030007D0694600220A6076
S1132560C0F104022046FFF7C5FF20682860054833
S1132570016821F48021016031BD0000B71DC10450
S1132580002003403C80044070B50D0082B0044636
S1132590164601D1002076BD6A4600F071F830B9C4
S11325A0009BDB685B68324629462046984776BD27
S11325B070B50D0082B00446164601D1002076BDE8
S11325C000F07FF800B14CE000F047F868B9009BD8
S11325D0DB689B6832462946204698474E490028C6
S11325E006BF009AD26800220A6076BD38B5044658
S11325F00D466A4600F044F8A0B90098C0684069E6
S113260008B9662032BD2946204600F05AF810B1B8
S113261042F2D87032BD009AD268526929462046E7
S1132620904732BD002DFCD1002032BD70B50D00A5
S113263082B00446164601D1002076BD00F041F870
S113264000B10EE000F009F830B9009BDB68DB68EC
S1132650324629462046984776BD6A462946204692
S11326600EE042F2D87076BD10B52B4C21680020E4
S113267029B109690A0002D088470021216010BDF0
S113268070B542F2D873D2B1244C6468146011B9A5
S113269015E01034146014688CB12568002D04BF53
S11326A06668002E01D1E6684EB1A84224BF656871
S11326B08542EED30818401E854228BF00231846E1
S11326C070BD70B50918491E0022144B9C685D68E2
S11326D02469160104EBC2045834755966682468E9
S11326E0AC4208BFAE4205D0864228BFA14201D306
S11326F0012070BD521C022AE8D3002070BD10B521
S11327000648446804E00068010018BF804710349C
S1132710E0680028F7D110BD0482FF1F1080FF1F5E
S113272010B582B000228DF800200A46064C0146FE
S113273004F120002469646C6B46A0479DF80000F6
S113274000B1012016BD00001080FF1F002200F020
S1132750B3B800001A480068000B00F00F00C01E58
S113276008282BD8DFE800F005080B0E1114172AEF
S11327701A004FF4804013E04FF4C04010E04FF4CF
S113278000400DE04FF440400AE04FF4803007E091
S11327904FF4C03004E04FF4003001E04FF48020E7
S11327A0084949680322B0FBF2F0C0F1005241F835
S11327B0102F6FF0604202EB400048600020704729
S11327C0007004401080FF1F0B7A4A7A1B0703F045
S11327D0405343EA82728B7A42EA8362CB7A1B06C5
S11327E003F080731A4382600B68436042F0007305
S11327F083604968016082607047E0B5164A1368D7
S113280043F4802313600A7B002A0A6800924A6812
S113281001920DD14A7A02B102228DF808200A7A77
S1132820002A14BF022203228DF809208A7A0AE0C2
S113283000228DF808200A7A002A14BF02220322FB
S11328408DF8092000228DF80A20C97A8DF80B1022
S11328506946FFF7B9FF07BD3C8004400FF2480109
S11328601022FEF7F3BF03E011F8013B0370521E80
S11328703AB111F00303F7D103E051F8043B0360CC
S1132880121F042AF9D2002A03E011F8013B037055
S1132890521EFAD1704701688068C0F301700228A3
S11328A02CBF080C88B2704721100000FFFF000005
S11328B00000000000000000401810F0030308D0DE
S11328C0C91A1FD3DB0748BF00F8012D28BF20F821
S11328D0022D130030B414461546103928BF20E9E0
S11328E03C00FAD8490728BF20E90C0048BF40F84B
S11328F0042D890028BF20F8022D48BF00F8012DBF
S113290030BC7047C91818BF00F8012DCB0728BF89
S113291000F8012D7047000001280ED80FF22402A0
S113292080560122012900F01F0102FA01F10CBFB7
S1132930024A034A400942F82010704700E100E0CF
S113294080E100E01A1B0000BFF34F8F0548064AE0
S1132950016801F4E06111430160BFF34F8F00BFD0
S1132960FDE700000CED00E00400FA05ECE7EBE7FE
S1132970EAE7E9E701280ED80FF224028056012283
S1132980012900F01F0102FA01F10CBF024A034AB7
S1132990400942F82010704700E100E080E100E0C7
S11329A01819000002280ED80FF2240280560122C2
S11329B0012900F01F0102FA01F10CBF024A034A87
S11329C0400942F82010704700E100E080E100E097
S11329D01F212300002101807047F0B585B0044613
S11329E00D4616466846FFF739FF00208DF80B00A8
S11329F02088019041F22100009000208DF80A0007
S1132A00ADF808008EB1FEF757FF0E4F6946384601
S1132A10FFF7F3FE324629463846FFF724FF3846CF
S1132A20FFF739FF0190FEF74DFF0198208005B0B4
S1132A30F0BD008808800448016821F48021016009
S1132A4070470000002003403C80044040684A492D
S1132A50405C704748498A6842B14A6813780370F9
S1132A60501C48608868401E8860704700210170CF
S1132A7070475A2807D1404A01238B540FF20901A9
S1132A8011615169084770473B49496908477FB557
S1132A90394D696104460FF2F800616850F821600D
S1132AA0684600F0E7F801208DF808008DF8090069
S1132AB002213248E86032482861A2686068904781
S1132AC06946304600F08CF82E49304600F004F98F
S1132AD060680121FFF720FF6168491901208870AF
S1132AE004B0002070BD70B50546234C6868011918
S1132AF0897889B10FF2980151F820600021FFF71D
S1132B000BFF304600F0C2F86868AA6800219047BD
S1132B10696809190020887070BD17484160826097
S1132B2081680029FCD10020704770B504460FF27B
S1132B30600082B050F82450E86A00010BD54FF0D1
S1132B40006007E0F168684688479DF80000686304
S1132B504FF00070E862E86A074E8001F2D4E86A38
S1132B60800308D5A86B4FF40031E962214632692D
S1132B70C0B29047F3E773BD7080FF1F552A000071
S1132B80732A00000000020A0020CEE70120CCE7EF
S1132B9000C0024000D00240010C01F1804101F567
S1132BA08E2101230A6803FA00F01043086070477D
S1132BB00029016814BF21F4804141F4804101607F
S1132BC0704700210FF2441252F82130834202D0A0
S1132BD0491C0229F8D30846704701212046E7E73B
S1132BE038B504460D46FFF7ECFF00F03EF8FFF75A
S1132BF0F4FF00F083F801222068400040082060C0
S1132C0020680840297B40EA8170A97B40EA816002
S1132C10697B40EA0160E97B00F01CF80121204651
S1132C2000F04FF8287804EB8000C1686A6821F04E
S1132C30FE41521E41EAC2612A7A920602F0806283
S1132C4011436A7A520602F000721143C16000F027
S1132C5007F831BD090201F4407108432060704750
S1132C60206840084000206070470FF2A80151F826
S1132C70200091E7002101700821416000210172C8
S1132C804172017341738173C173704710B5044677
S1132C900021206800F034F8FFF7A0FF00F02CF8C2
S1132CA00FF2700151F82000010C01F1804101F58F
S1132CB08E2101230A6803FA00F022EA000008606A
S1132CC010BD0368090401F47C11012A0CBF1943E7
S1132CD023EA0101016070478A0103D5026B22F0E7
S1132CE0807202638A0303D5026B22F4803202638A
S1132CF0026B114301637047204662E72068024972
S1132D0040F0010020607047FFCCFFBA00C00240D1
S1132D1000D002400C003C100D003C10010C01F1ED
S1132D20804101F58E2101230A6803FA00F0104363
S1132D3008607047010C01F1804101F58E210123E7
S1132D400A6803FA00F022EA0000086070470029CC
S1132D50817814BF41F0800101F07F0181707047D8
S1132D6000210FF2F00252F82130834202D0491CB4
S1132D700229F8D3084670474A0603D5827842F000
S1132D8040028270890603D5817941F02001817166
S1132D907047C1788279520648BF41F480418079F6
S1132DA0C00648BF41F480510846704738B5044610
S1132DB00D46FFF7D5FF00F030F8A87A10B10228CD
S1132DC004D00DE0E8884000207009E0E888400065
S1132DD0207028894000E071607940F0080060713B
S1132DE0A078A97800F0FD0040EA4100297840EA83
S1132DF0C110A0706079297900F06F0040EA0110D9
S1132E00697840EAC110E97800F001F831BD00F0BA
S1132E10DF0040EA4110607170470FF2400151F841
S1132E2020007BE710B504460021FFF790FF204601
S1132E30FFF796FF0FF2240151F82000BDE810407F
S1132E4078E70021817241708170C17001710121A4
S1132E5001707047006006400070064006003410A0
S1132E600700341000210FF2501252F8213083422F
S1132E7002D0491C0329F8D308467047F8B50D461B
S1132E80044628680101B2FBF1F6B6B206B9012680
S1132E905301B3FBF1F1A1EB46175100720112FA91
S1132EA087F2B1FBF2F1091A6422B0FBF2F000EBF5
S1132EB04000884202D240F2F530F2BD2046FFF7CE
S1132EC0D1FF00F043F81043086007F01F01E078D9
S1132ED000F0F300E070207800F0E00040EA2620E3
S1132EE020706670A07A00F0E0000843A072A07819
S1132EF0297900F0EC000843A0706879E074A8799F
S1132F006075207C40F088002074607C40F0C00034
S1132F106074E078E97909B140F00800297A09B1D0
S1132F2040F00400E0700020F2BD80B5017D00296E
S1132F30FCD101794906FCD50021C170FFF792FF4D
S1132F4000F004F822EA0000086001BD0FF27401E9
S1132F5051F82000010C01F1804101F58E2101237B
S1132F600A6803FA00F070474FF4E1310160002170
S1132F7001714171012181710021C1710172704798
S1132F8002780A430270C27842EA1122C27082793E
S1132F9042EA11428271427C42EA116141747047F3
S1132FA005E003791B06FCD511F8013BC3711346F8
S1132FB05A1E002BF5D1704700A0064000B0064011
S1132FC000C006400A0034100B0034100C0034100A
S1132FD00029817814BF41F0800101F07F018170E4
S1132FE0704700209AE0012098E040686549405C01
S1132FF0704764498A6842B14A6813780370501C68
S113300048608868401E88607047002101707047DE
S11330105C49496908475A2806D15A4A01238B5406
S113302059491161516908477047FEB5554D044629
S113303069616068A2680221904766680FF25810BF
S113304050F826706846FFF7FCFE1020ADF8060025
S113305069464E488068006990F87900FF2818BFD7
S1133060ADF806003846FFF7A1FE01213846FFF708
S1133070AFFF40213846FFF77FFEFFF7A9F94FF471
S11330807A71B0FBF1F04249B1FBF0F0002100E0AD
S113309011464A1C00FB02F3322BF9D321B9B0F5D7
S11330A0FA7F04D8012102E0202928BF1F21B87922
S11330B000F0F0000843B87101213046FFF75AFCD4
S11330C03448286101206168491988700020FEBDD8
S11330D070B505462B4C686801198978A9B10FF2BF
S11330E0B80151F820600021FFF744FC002130466C
S11330F0FFF76EFF3046FFF795FE6868AA68002167
S11331009047696809190020887070BD1D484160A6
S1133110826081680029FCD10020704738B50546DB
S11331200FF2740050F825402046FFF732FE00F0FD
S11331301201E17000F05001102911D04106114A2A
S113314014D54007A0780CD540F01000A0700020E2
S11331508DF800006846D16888479DF8000020710A
S113316031BD00F0EF00A070207931BDA178C9060F
S113317003D5C007EBD5A078F3E720791269294677
S1133180904731BD8880FF1F113000001080FF1F61
S113319040420F00173000000060064000700640F7
S11331A010B598488068006900F1680434214AF237
S11331B0C030FFF7B5FA48B934224AF2C03120468C
S11331C0FEF744FB20689049884204D0FF22342152
S11331D02046FFF739F9FFF735F9002010BD38B55F
S11331E0884DA86804694B20E07004F110020220A5
S11331F0A07004210020607020705020E071012034
S1133200A07102206071002020715420E07201201E
S1133210A072002060722072012020634EF6FF70BD
S1133220606305F120002B69DB6A98472B69DB6A30
S113323004F11402012100F060F82B69DB6A04F147
S11332401802002100F059F82B69DB6A04F11C0212
S1133250022100F052F82B69DB6A04F120020321F9
S113326000F04BF82B69DB6A04F14402052100F0FD
S113327044F82B69DB6A04F14802062100F03DF8AA
S11332802B69DB6A04F14C02072100F036F8A069CF
S11332905E4A404252424FF0FF310240891A5C4A72
S11332A0E1651040A06500215A4820665A486066CE
S11332B06869E16007E094F87830134202D0E3686B
S11332C01A43E260491C182202FB01021268002A18
S11332D0F1D15248016821644168E1638068A063C8
S11332E0686850F8101F616241680068081A401C41
S11332F0A06201202065002032BD05F1200018479E
S1133300F8B514463F4A464F91680426401E0969A1
S113331017281D464BD8DFE800F00C121416181AB3
S1133320204A4A22242B4A1C1E2E313D4042444648
S11333304A4805B12E6004B121600020F2BD0C3171
S1133340F7E71031F5E71431F3E71831F1E72031ED
S1133350EFE72431EDE72831EBE73431E9E73031A9
S1133360E7E7D06941694969884738603946E0E749
S113337010265831DDE72B480068F6E702F12000FB
S113338012699269694690479DF800000028ECD0C4
S11333900120EAE70C263831CBE74431C9E748314C
S11333A0C7E74C31C5E75031C3E70831C1E742F6FE
S11333B03C00F2BD134A92681369401E062842F687
S11333C03E0218D909380AD0401E012884BFC01E05
S11333D0032810D9083808D0801E0CD00EE000292C
S11333E018BF012903D119637047032901D310467B
S11333F070471965704742F63D00704742F63C003D
S1133400704700001080FF1F6B636667D83A0000A6
S1133410000000000080FF1FF785FF1F5880044054
S1133420CC82FF1F2480044030B5044685B0606818
S11334306946FDF785F9002835D16068012804D074
S113344002280CBF424D434D00E0434D01A8FFF755
S11334508BFD0098019001208DF80B008DF80C0075
S11334606068FEF7C3FF024601A92846FFF706FD80
S1133470B0B960680121FFF795FA4FF4005128466E
S1133480FFF77EFD6068A268344C022190476168B2
S11334905A2088476168A62088470120207003E0ED
S11334A06068FDF733F9002005B030BD10B504465F
S11334B02A4841606068A268012190476068FDF76E
S11334C025F9002010BD10B504462448007870B1D9
S11334D060680021FFF766FA6068012804D00228BA
S11334E00CBF1B481B4800E01B48FFF71EFD60682B
S11334F0FDF724F96068A268BDE810400021104778
S113350080B54068012804D002280CBF1048114837
S113351000E01148FFF744FD002002BD1048017887
S1133520890600D50AE070470E4801788A0701D55C
S1133530C0787047890600D500E07047C078074915
S11335404968084708480178890600D5F6E77047B6
S113355000C0064000A0064000B006405883FF1F8C
S113356004A0064004B0064004C00640AF49D1F8A8
S11335708820531C5218C1F8883082F82000D1F8F2
S1133580880000F03F00C1F88800704700207047B1
S1133590B8E02DE9FC410C00154614BF002D0420B1
S11335A0984628D0A14F002007F19006286070703B
S11335B000F0A8F818B11EE0A22000F075F8202150
S11335C03846FDF78DFD42463946684600F0F8F866
S11335D010B1002129600EE03946684600F042F936
S11335E0BDF804108142E7D1012030702760BDF896
S11335F0020028600020BDE8F6812DE9F0410C00AE
S113360082B015461E4635D0212D33D200F07AF80B
S113361000283FD1DFF8148298F8910010B10020FF
S113362088F8910008F160075A203870A420787057
S11336300EB1A52078707D802DB12A46214608F16F
S11336406600FEF7F3F808F16601384600F00AF95F
S1133650B880A91D384600F064F8D8B9684600F06F
S1133660EFF8B8B99DF80100A12812D0A22806D01D
S1133670A32801D004200DE042F212700AE07888F9
S1133680811D384600F04DF820B99DF80100A228AC
S1133690E4D00020BDE8F681654801218170002155
S11336A0017070472020704780B55A218DF80010B2
S11336B08DF8010001205D4981F8910002216846DE
S11336C000F02FF802BD10B50446594882B00178C5
S11336D0427880781140014211D10FF2B81000886D
S11336E0ADF80000022223695B68694620469847CA
S11336F023690FF2A4115B6808222046984742F21E
S1133700137016BD4A48017819B100210170A12037
S113371004E0817819B100218170A320C4E700205E
S11337207047444AD3690A46014618461B695B68D8
S113373018472DE9F14F8B461646FDF786F80446E7
S11337404FF47A7088467043FDF78FF8DFF8DCA0F9
S11337500027064689460AF188050EE0686829684C
S113376088420CD05044009990F8200078547F1C73
S11337706868401C00F03F0068605F451DD0FDF79D
S113378064F8021B61EB080341450AD828BFA04234
S113379007D2E2436FEA080310185941421C41F171
S11337A00003B9F1000F08BF002ED7D04B45D5D385
S11337B001D8B242D2D3052000E00020BDE8F28F48
S11337C070B582B005460C46164600F039F858BB71
S11337D06878A62804D11748C069FFF774FF76BD3E
S11337E0A42106B1A521884201D0012076BD00F0B4
S11337F023F8BDF800106980B0B908462128A8BF95
S11338002020688000F018F8BDF80010A98058B98D
S1133810698849B12046FEF799FF69880A2000FBB0
S113382001F22046FFF785FF76BD00006083FF1F8D
S1133830F083FF1F1080FF1F14220221684678E7DF
S113384010B50446002201212046FFF772FF40B95B
S113385020785A28F6D1601CBDE810400A220121C4
S113386067E710BD30B583B004460D466846FFF7E0
S1133870B1F8042221466846FFF7AFF8628829466A
S11338806846FFF7AAF801A96846FFF7D2F8BDF821
S113389004003EBD5AA70000000201500000AAEA3D
S11338A005484CF22051C1814DF62811C1814FF4D5
S11338B0E9710180704700BF0020054000F00BF85B
S11338C0002801D000F00AF80020C046C046FEF7E8
S11338D0F9F8FEF713F901207047000010B5074905
S11338E079441831064C7C44163404E00A68081DF7
S11338F0511888470146A142F8D110BDCC010000FF
S1133900D8010000390A0000470A0000EC04000056
S11339103081FF1F34060000A080FF1FC406000092
S11339200080FF1F7C05000064060000000000000A
S11339300000000000000000000000000000000083
S11339400000000000000000000000000000000073
S11339500000000000000000000000000000000063
S11339600000000000000000000000006881FF1F4C
S1133970A881FF1F000000000000000000000000FC
S1133980552A0000732A0000000000000000000017
S11339900000000000000000F32F000017300000BA
S11339A00000000000000000FFFF0700010000000D
S11339B0040600000080FF1FFFFF0020010000003C
S11339C04C06000000000040FFFF0740000000001C
S11339D0D405000000F00F40FFFF0F40000000007E
S11339E0D4050000000000E0FFFF0FE0000000002D
S11339F0D4050000000000000000000000000000EA
S1133A00000000000000400130B504E012F8014B52
S1133A1000F8014B491ED1B1C507F7D40129F5D0EF
S1133A20850701D4042904D232F8024B20F8024B52
S1133A30891E8B08EFD000EB830403E052F8045B8B
S1133A4040F8045BA042F9D3A1EB8301E3E730BD66
S1133A5080B513460246184600E080B5FFF7D4FF50
S1133A60002002BD10B514460A462146BDE81040A8
S1133A700123FCF7FDBCFFF7FEBFC046C046C046AD
S1133A80C046FFF71BFF19E050F8041BCB0744BFE7
S1133A90A9F101035918121F0023042A41F8043B19
S1133AA0F9D25FEA827C0B4604D54FF0000CA1F8F2
S1133AB000C09B1CD10744BF0021197050F8042B8F
S1133AC0002AE1D170470000BFFFFFFFEC020000B5
S10B3AD00881FF1F0000000043
S9030411E7
