S01A0000666C6173686C6F616465725F6C6F616465722E73726563AF
S11300000020002011040000573F0000573F00006B
S1130010573F0000573F0000573F0000000000001A
S1130020000000000000000000000000573F000036
S1130030573F000000000000573F0000573F0000FA
S1130040554000005D400000654000006D40000028
S1130050754000007D400000854000008D40000098
S1130060954000009D400000A5400000AD40000008
S1130070B5400000BD400000C5400000CD40000078
S1130080D5400000C5410000C5410000C541000045
S1130090C5410000C5410000C5410000C541000044
S11300A0DD400000C5410000E5400000C5410000FE
S11300B0C5410000C5410000C5410000ED400000FD
S11300C0F5400000FD40000005410000C54100006E
S11300D0C5410000C5410000C5410000C541000004
S11300E0C5410000C5410000C5410000C5410000F4
S11300F0C5410000C5410000C5410000C5410000E4
S1130100C5410000C5410000C5410000C5410000D3
S1130110C5410000C5410000C5410000C5410000C3
S1130120C5410000C5410000C5410000C5410000B3
S1130130C5410000C5410000C5410000C5410000A3
S1130140C5410000C5410000C5410000C541000093
S1130150C5410000C5410000C5410000C541000083
S1130160C5410000C5410000C54100000D4100002B
S1130170154100001D410000254100002D410000F3
S113018035410000C5410000C5410000C5410000E3
S1130190C5410000C5410000C5410000C541000043
S11301A0C5410000C5410000C5410000C541000033
S11301B0C5410000C54100003D410000454100002B
S11301C04D410000554100005D41000065410000C3
S11301D0C5410000C5410000C5410000C541000003
S11301E0C5410000C5410000C5410000C5410000F3
S11301F0C5410000C5410000C5410000C5410000E3
S1130200C5410000C5410000C5410000C5410000D2
S1130400FFFFFFFFFFFFFFFFFFFFFFFFFEFFFFFFF9
S113041072B60E480E49886000220023002400258D
S113042000260027B846B946BA46BB46BC4609482A
S1130430854609488047094880470948804762B68D
S113044000200021074A9047FEE70000000000005A
S113045000ED00E0002000206D410000593F000045
S1130460933F0000B104000072B60D4900200860FB
S1130470BFF36F8FBFF34F8F704780B543F62822C9
S11304800FF23401074803F03BFDFFF7EDFF064888
S113049080F3088880F309880448BDE802400047D7
S11304A008ED00E000E0FF1F581F002011E4FF1FCB
S11304B080B5FFF7E2FFFEE7581F002011E4FF1F9D
S11304C0EBE4FF1F11FFFF1F13FFFF1F15FFFF1FAB
S11304D017FFFF1F000000000000000000000000E4
S11304E000000000EBE4FF1FEBE4FF1F000000002E
S11304F0EBE4FF1FB3E8FF1F59170020611700202A
S11305006917002071170020791700208117002037
S1130510891700209117002099170020A1170020A7
S1130520A9170020B1170020B9170020C117002017
S1130530C9170020D1170020D9170020C91900209D
S1130540C9190020C9190020C9190020C91900209F
S1130550C9190020C9190020AF0E0020C9190020B4
S1130560CD000020C9190020C9190020C919002094
S1130570C9190020AB130020E1170020B713002095
S1130580E9170020C9190020C9190020C919002041
S1130590C9190020C9190020C9190020C91900204F
S11305A0C9190020C9190020C9190020C91900203F
S11305B0C9190020C9190020C9190020C91900202F
S11305C0C9190020C9190020C9190020C91900201F
S11305D0C9190020C9190020C9190020C91900200F
S11305E0C9190020C9190020C9190020C9190020FF
S11305F001EAFF1FC9190020C9190020C9190020E8
S1130600C9190020C9190020C9190020C9190020DE
S1130610C9190020C9190020C9190020C9190020CE
S1130620C9190020F1070020F3070020F707002074
S1130630F1170020F9170020FB070020C91900203A
S1130640C9190020C9190020C9190020C91900209E
S1130650C9190020C9190020C9190020C91900208E
S1130660C9190020C9190020C9190020C91900207E
S113067001080020030800200908002001180020B8
S1130680091800200B080020C9190020C9190020EE
S1130690C9190020C9190020C9190020C91900204E
S11306A0C9190020C9190020C9190020C91900203E
S11306B0C9190020C9190020C9190020C91900202E
S11306C0C9190020C9190020C9190020C91900201E
S11306D0C9190020C9190020C9190020C91900200E
S11306E0C9190020C9190020C9190020C9190020FE
S11306F0C9190020C9190020C9190020C9190020EE
S1130700C9190020C9190020C9190020C9190020DD
S1130710C9190020C9190020C9190020C9190020CD
S1130720C9190020C9190020C9190020C9190020BD
S1130730C9190020C9190020C9190020C9190020AD
S1130740C9190020C9190020C9190020C91900209D
S1130750C9190020C9190020C9190020C91900208D
S1130760C9190020C9190020C9190020C91900207D
S1130770C9190020C9190020C9190020C91900206D
S1130780C9190020C9190020C9190020C91900205D
S1130790C9190020C9190020C9190020C91900204D
S11307A0C9190020C9190020C9190020C91900203D
S11307B0C9190020C9190020C9190020C91900202D
S11307C0C9190020C9190020C9190020C91900201D
S11307D0C9190020C9190020C9190020C91900200D
S11307E0C9190020C9190020C9190020C9190020FD
S11307F0C9190020C9190020C9190020C9190020ED
S1130800C9190020C9190020C9190020C9190020DC
S1130810C9190020C9190020C9190020C9190020CC
S1130820C9190020C9190020C9190020C9190020BC
S1130830C9190020C9190020C9190020C9190020AC
S1130840C9190020C9190020C9190020C91900209C
S1130850C9190020C9190020C9190020C91900208C
S1130860C9190020C9190020C9190020C91900207C
S1130870C9190020C9190020FFFFFFFFFFFFFFFF78
S1130880FFFFFFFFFFFFFFFFFFFFFFFFFFFFFFFF74
S1130890FFFFFFFFFFFFFFFFFFFFFFFFFFFFFFFF64
S11308A0FFFFFFFFFFFFFFFFFFFFFFFFFFFFFFFF54
S11308B0FFFFFFFFFFFFFFFFFFFFFFFFFFFFFFFF44
S11308C0FFFFFFFFFEFFFFFF72B60E480E49886070
S11308D0002200230024002500260027B846B9463C
S11308E0BA46BB46BC46094885460948804709487C
S11308F080470948804762B600200021074A904794
S1130900FEE7000000E0FF1F00ED00E0581F00209C
S11309101118002015FAFF1F4FFAFF1FA9F4FF1F3B
S11309200000000000000000002A01D101207047EF
S1130930F0B41F46034603242340002B09D00424AB
S1130940E31A017001300824E141521E26D05B1ED7
S1130950F7D1042A1ADB13D0002F11D00C460D4610
S11309600E46102A02DB72C0103AFAE70C2A02DBA8
S113097032C00C3AFAE7082A02DB12C0083AFAE756
S1130980042A03DB01600430121FF9E7002A05D0B2
S1130990017001300824E141521EF7D1F0BC00205F
S11309A07047FEE7D9EBFF1F00000000EBEBFF1FD1
S11309B0000000005BECFF1F59EDFF1F49ECFF1F17
S11309C0B5ECFF1F00000000000000000000000064
S11309D000000000FFEBFF1F00000000000000000B
S11309E0000000002DEEFF1F0000000000000000CA
S11309F0000000008FEBFF1F0000000033ECFF1F1E
S1130A0000000000000000000000000000000000E2
S1130A1000000000000000000000000000000000D2
S1130A2000000000000000000000000000000000C2
S1130A30000000000001024631F5FF1F85F5FF1F8D
S1130A4000000000A7F5FF1F2DF6FF1FB1F6FF1FE2
S1130A50E1F6FF1F43F7FF1F4FF7FF1FD7F7FF1FF5
S1130A60DDF8FF1F0000000000000000000000008F
S1130A7000000000000000005BF8FF1F0000000001
S1130A800000000000000000000000000000000062
S1130A90B5190020BF19002000000000000000006C
S1130AA00000000091FFFF1FD3FFFF1F2B00002059
S1130AB000000000000000005F000020D5EFFF1FD1
S1130AC005F0FF1F45F0FF1F0000000000000000BC
S1130AD005F1FF1F3F0300202F0500204F050020D4
S1130AE0000000000000000077050020110F002026
S1130AF0510F0020F70F002000000000000000004C
S1130B0033100020C5FDFF1F7DFCFF1FA5FCFF1F48
S1130B10000000002FFDFF1FE1FCFF1F37FBFF1F3C
S1130B203BFBFF1F4DFBFF1F000000000000000007
S1130B3000000000010000000000000025E9FF1F84
S1130B4008E7FF1F18E7FF1F20E7FF1F0200000050
S1130B500000000065E9FF1F34E6FF1F44E6FF1FA5
S1130B6020E7FF1F040000000000000091E9FF1FC0
S1130B70ECE5FF1FFCE5FF1F20E7FF1F0800000056
S1130B8000000000D5E9FF1F1CE6FF1F2CE6FF1F35
S1130B9020E7FF1F0000000000000000000000002C
S1130BA000000000000000000000000061100020B0
S1130BB09F100020B111002065120020FC1B0020B2
S1130BC0D11200204B130020651300200000000008
S1130BD00000000097130020091400200F140020C7
S1130BE077140020151500200D1400202115002075
S1130BF0E913002038B504463D4D0020C5E9000046
S1130C00C5E90200C5E9040028626862394800F0B9
S1130C10A0F8C5E906012046BDE834400FF25501AD
S1130C2000F05BB900F06AB970B5314D0C46296A21
S1130C30072904BF696A88421AD100F093F8C0EB0F
S1130C400016D5E90001D5E902231018B6FBF0F02F
S1130C500A2148434FF49661B0FBF1F0401D0A218C
S1130C60B0FBF1F04FF4966148432060002070BD62
S1130C70012070BD2DE9F843064600F05AF81C4FD8
S1130C800446386AD7E904598846421CD7E9060164
S1130C90651B68EB0909494502D82CBFA84201220B
S1130CA0012A3A6206D0042A08D0052A0ED0072A5F
S1130CB00FD018E0C7E900487E6214E0D7E90001CC
S1130CC0201A68EB0101C7E900010CE0C7E90248FA
S1130CD009E0D7E90201201A68EB0101C7E9020122
S1130CE0304600F00BF9C7E90448BDE8F183000081
S1130CF0201B0020803801001E48002101606FF095
S1130D007F421D494A6000228A6007220A601B490B
S1130D101B4A0968C900B1FBF2F101B90121416024
S1130D20704715480168C908C90001600021816045
S1130D30704710490A68134800680B68C0430002F2
S1130D40000A9A42F6D1002110EB026051EB122105
S1130D50704708494968A1FB0001C00840EA417096
S1130D60C908704705480068704702480168491C73
S1130D7001607047F01B002010E000E01C1B002005
S1130D8040420F0018E000E00901002806D5664A39
S1130D9000F00F00801800F8041C7047634A815467
S1130DA0704750F82130120423F4702302F47022A7
S1130DB01A430FE050F82100C0F30060704706E0CA
S1130DC0120202F4E06242F0200203E000BF1202C9
S1130DD002F4E06240F821207047F8E700B1704760
S1130DE010B5534C19B102290DD003D310BDA06125
S1130DF0E06110BD4FF48070A0614E48016821F09D
S1130E004001016010BD032206212046FFF7D7FFF1
S1130E102046BDE8104003220721D0E700B1704707
S1130E2010B5454C11B1022903D010BD206060609B
S1130E3010BD022201212046FFF7C2FF2046BDE873
S1130E40104002220021BBE700B1704710B53B4CB3
S1130E5011B1022905D010BD20646064A064E0646F
S1130E6010BD022210212046FFF7B0FF02221121FB
S1130E702046FFF7ABFF022212212046FFF7A6FF10
S1130E802046BDE81040022213219FE700B17047BD
S1130E9010B52B4C11B1022903D010BD606320633F
S1130EA010BD02220D212046FFF797FF2046BDE822
S1130EB0104002220C2190E780B506211C48FFF760
S1130EC079FF48B11F480168080005D00020884711
S1130ED01D494FF0FF30086001BD10B50C4660B9E4
S1130EE001213E20FFF750FF18494FF08040086071
S1130EF00A2200F015F81348046010BD00B17047D1
S1130F0080B513494FF08040086000213E20FFF770
S1130F103BFF002200F004F80A490020086001BDEC
S1130F20062103483DE7000018ED00E000E400E07E
S1130F3000C00440D4F00F4000A0044000D004409E
S1130F4000900440F81B0020A0C0044004E100E02D
S1130F5084E100E0DFF8B814C968C96800200860BB
S1130F6070472DE9F041DFF8A85482B0E869002405
S1130F708DF801404669002E62D0E968C9680A68A4
S1130F80012A4CD001F1080274680023091DA0470E
S1130F9004001FBF42F21270844242F21370844272
S1130FA04ED1E868C168D1F80880B8F1000F47D085
S1130FB04E68377837B1132F04DA806800EBC70026
S1130FC0083800E00020086200281CBF00680028E0
S1130FD01CD02A699269694605F1200090470400F3
S1130FE016D19DF8000040B14FF4E750791EC84077
S1130FF0C00758BF42F211740AD5EA68D268126A6F
S11310001268414630469047002406E042F21074CC
S11310103946204600F09EF994B901200DE0086A93
S113102048B14168080003D00DF101008847044627
S11310300CB1002001E09DF80100E968C96808606E
S11310402046BDE8F68180B50178002000F082F9E1
S1131050DFF8BC03C069416909698847022000F0D0
S1131060DFF9BFF34F8FDFF8AC03DFF8AC2301687F
S113107001F4E06111430160BFF34F8F00BFFDE74E
S1131080DFF88C03C068C06814210C3000F0FAB992
S113109010B5044600F0ADFAFFE72178BDE8104032
S11310A058E110B5DFF86823126852690446A16854
S11310B060689047F1E730B583B0DFF85443A56822
S11310C00021019100916B4681684068AD6801AAD6
S11310D0C9B2C0B2A847E268D26800211161009980
S11310E08A08019900F04AF937BD10B5DFF82023CA
S11310F09268D26804466068A168C0B29047CCE7A1
S113110010B500F012F800F012F804210177002065
S1131110C3E710B500F009F800F009F803210177DE
S11311200020A168BDE810403FE10446A8E7DFF8CD
S1131130E002C068C068A1680161616841617047EC
S113114038B5DFF8CC520446E868C0680021416134
S11311500161007F042804D128680069804704B92C
S11311600446E868C068017F2046F0E02DE9FC41B0
S1131170DFF89C620446F068C068016921B9002068
S11311802070FFF7DDFF40E0012121700569476908
S1131190002000900123F069D0F814C0DCF804C0EA
S11311A06A4601A9E0475FEA000805D0F069416991
S11311B0C9688847404603E0009830B942F212708B
S11311C0FFF7BEFF0020207020E0A84288BF284619
S11311D03368019A009001469B68384698478046D8
S11311E00098C7192D1A06D0B8F1000F09D0F0697C
S11311F04169C96888474046FFF7A2FF0020207074
S113120003E0F068C068056147610020BDE8F6812D
S11312102DE9F0477E4D8AB00446E868C06801694C
S113122021B900202070FFF78BFF57E001212170C6
S113123006694769C168027F212E2CBF4FF0200840
S1131240B046A9B1424601A800F030FAE869D0F8E6
S113125014C0DCF808C00123424601A9E047A6EB0C
S1131260080606B1B0B3FFF76BFF0020207035E02D
S1131270032A08EB070907D12B685B6801AA4146DA
S113128038469847824614E0102A18BF4F46DDD1ED
S113129090F81DA000F0A5FA39462F69CDF800A0FA
S11312A04346FF6B01AA05F12000B847824600F0CF
S11312B09EFABAF1000F4F46C8D0E8694569AD6897
S11312C00123002201A9A8475046FFF739FF002057
S11312D0207004E0E868C0680661476100200AB035
S11312E0BDE8F0872DE9F04105464C4C6E68D5F811
S11312F00880E8684649206000274968103130B109
S11313000A68904223BF4968491C81420427304639
S113131000F092FA00B904272978384600F01AF848
S11313209FB96660002000F07BF82068C4F808804C
S113133018B180F3088880F30988616840468847BB
S1131340BDE8F041002000F06BB8BDE8F081BDE8D5
S11313503440FFE710B584B0A02201908DF800203E
S1131360002200F050F88DF80220029102228DF83C
S1131370032000234469A4680C2241E010B588B01E
S1131380A72300F023F80020531C8DF8033006E057
S11313906C4651F8203004EB8004401CA36090425A
S11313A0F6D300F00AF8002303E010B584B0A322BA
S11313B015E06946A04708B010BD1548C0699DF8FE
S11313C003104469A46889000A1D70478DF8003031
S11313D0019000238DF801308DF8023070478DF8AC
S11313E000200190012200F00EF8029100228DF8F5
S11313F00220002302228DF803200C224469A468F1
S11314006946A0471FBD0248C0698DF80120704796
S1131410381A00200CED00E00400FA05CC1B002073
S113142070B50446022C04D0002000F0EEFC012C20
S11314300ED00026114D06E04019C16889680A00E3
S113144018BF8847761C1820704341590029F3D1EE
S113145074B900F0C6F9FFF764FC00F054FD0849C4
S113146000200860012000F07BFD00F081FD62B6E1
S1131470BFF36F8FBFF34F8F70BD00BF7CE6FF1FBC
S113148008ED00E0002200F099BD000038B5844D5D
S11314902B696C68DB6A2246042105F12000984719
S11314A02B69DB6A6A46012105F120009847206810
S11314B000990818401E6060002032BDF8B5784FCE
S11314C00446786B0D464042164600EA0401621A4F
S11314D0AA1852421040424207F120003F697F6C33
S11314E06B46B84748B99DF8000008B16C20F2BDBE
S11314F032462946204600F07CFDF2BD2DE9F0433A
S113150089B0914604460F4603AA00F0B1F80028BA
S113151046D1BE08B600BF1B4FF0FF3006900790BF
S113152005D03A4606EB090106A800F0BFF806EB21
S113153004085B4D56B1D5F810C0DCF814C033462E
S11315404A46214605F12000E04750B957B1D5F885
S113155010C0DCF814C0042306AA414605F120009B
S1131560E047E8B99DF80C00C8B15EB104A8029048
S1131570214605A801904B4600F015F8324600F0CC
S113158018F858B95FB104A8029006AB05A80190F9
S1131590082200F008F8414600F00BF800B90020DA
S11315A009B0BDE8F083A8680069006DC0B200907E
S11315B070472C69A46A05F120002047F8B5044659
S11315C00D46374E374B37693F692A46214606F1A7
S11315D02000B84760B9B16809690A6B42B10B6D64
S11315E021463469646ADBB22A4606F12000A0472A
S11315F0F2BD10B52A4C2B492269926804F12000EF
S1131600904758B9A16809690A6B22B12269096D2A
S113161000F029F810B9244A0121117010BD70B5E9
S1131620154682B000222A700A461D4C2669766C43
S113163001466B4604F12000B04798B99DF80010AC
S113164029709DF8001069B1174D297851B9A06827
S113165000692269016D00F006F808B16C2076BDBE
S11316600121297076BD126AC9B204F12000104725
S113167010B514460A4A82B092681269126B02B11C
S1131680012249422270890889006A464942FFF7CB
S1131690C6FF20B99DF8001009B10021217016BDC4
S11316A0381A00206B66656B541D002062B38B07EB
S11316B008D0521E11F8013B00F8013B00F02480D1
S11316C08B07F6D1830740F0208000BF103A07D380
S11316D030B4B1E83810103AA0E83810F9D230BC70
S11316E0530724BFB1E80810A0E8081044BF51F81C
S11316F0043B40F8043BD20724BF31F8022B20F806
S1131700022B44BF0B7803707047083A07D3B1E843
S11317100810083A40F8043B40F804CBF7D25307CA
S1131720E4E7000070B5364E04460D46D6E90001E4
S1131730002908BF002805D14FF47A70FFF709FB90
S1131740C6E90001657000202070C4E90200206130
S113175070BD38B504460D46607838B172B660780D
S1131760401E60700020207062B632BD9DB12078AA
S113177098B1FFF7DEFAD4E90223801A204D99418B
S1131780D5E9002300F05EFC2169814211D272B6D2
S11317900020207062B6022032BD15F1010F08D07E
S11317A072B60120207062B6FFF7C3FAC4E90201E1
S11317B02561032032BD4178FF2901D10120704702
S11317C072B64178491C417062B60020704700210E
S11317D0016062B6704772B60A490020086062B6BA
S11317E0704772B607480168491C01607047054894
S11317F00168022900D2EAE70168491E01607047C6
S1131800A01B0020E81B002038B504460D4600202C
S1131810FFF706FE6E486F4A0560446000211160C0
S1131820016881F3088881F3098840688047BDE82E
S113183032400020FFF7F4BD10B582B000281EBF6F
S113184010F1010F6449884201D1002016BD6A4697
S1131850022100F0D4FC002418B90098007A00B1E9
S11318600124204616BD2DE9FC47DFF870815C4D4C
S1131870D8F80800006900F168072E4609E0397CB1
S1131880014205D07069F268816952683046904718
S1131890183630680028F2D10024A146CDE9004969
S11318A04FF47A70FFF755FA06468A4600F07EFB3D
S11318B0A0BBFFF7C1FF88B3D8F80800006990F80F
S11318C08600C00703D400210020FFF79DFF788A1B
S11318D04FF6FF71884208BF41F28830A6FB00230F
S11318E00AFB0033CDE90023FFF723FA04468946B7
S11318F0DDE90001002908BF00280FD0FFF719FA1D
S1131900DDE90023001B61EB0901994206D301D8EC
S1131910904203D300210020FFF776FF2E4600E01B
S1131920183630680028E3D0397C0142F8D0F168D9
S11319300968304688470028F2D0002ED8D009E044
S1131940397C014218BFAE4203D0E9688968284651
S11319508847183528680028F2D13046BDE8F68754
S113196038B5FFF738FF00F0FDFA1C4C21694968CF
S113197004F120008847A06800688047002000F038
S1131980EFFAFFF7B9F9206800688047A06840685B
S11319908047FFF768FFE061016919B109680A002F
S11319A018BF8847E069416919B109680A0018BF7E
S11319B08847E06800688047E569E06840688047D8
S11319C0E868C1680800F8D028468847F5E70000B1
S11319D0D81B002008ED00E011E4FF1F381A002096
S11319E07CE6FF1F7047000008B904207047DFF849
S11319F030140968090E01F00F010F290FBF4FF4CD
S1131A0080210FF2A84232F81110890200220260EC
S1131A1041604FF48072012181604FF48051C160B4
S1131A20DFF8001491F900309A404261C97881616D
S1131A3000210161016241620020704738B5040051
S1131A4001D1042032BDDFF8E0236FF03B40106089
S1131A50DFF8D803814201D06B2032BD38E02DE994
S1131A60F04389B0164680460D4600F04AF9049BBF
S1131A7000F043F904001BD1009D019F7019461E1C
S1131A80B6FBF7F007FB106121B1401C7843461EFA
S1131A9000E07D19AE4217D32802000ADFF888134C
S1131AA040F010600860DFF88403814502D06B24A5
S1131AB0204656E000F0E9F80446D8F8100001008A
S1131AC018BF8047002CE4D0404600F09EF9EFE7B1
S1131AD0204600F084F900F002F8284632BD05469D
S1131AE0204692E12DE9F04389B004465FEA0208FA
S1131AF00F461D4608BF042033D000F003F9039BB2
S1131B002A463946204600F09DF95FEA000928D1AB
S1131B10009FDFF8146302E00398C7192D1AEDB192
S1131B2058F8040B706039020398090A042808BFA6
S1131B3041F0C06006D0082805D158F8040BB06005
S1131B4041F0E0603060204600F049F981462069A8
S1131B50010018BF8047B9F1000FDDD0FFF7C0FFC7
S1131B60484609B0BDE8F083002818BF002901D118
S1131B7004207047DFF8B802007800F00302022A5C
S1131B8008BF002005D000F0C00080280CBF012051
S1131B90022008700020704710B50A46002818BFBC
S1131BA0002A01D1042010BDDFF884321C78002102
S1131BB004F00304022C1ED06FF03A41C3F8021063
S1131BC054781178240444EA0161947841EA0421A8
S1131BD0D4782143C3F8061054791179240444EAD3
S1131BE001619479D27941EA04211143C3F80A10BE
S1131BF000F0F5F80146084610BD08B90420704706
S1131C00DFF8302280E02DE9F04F89B0924680461B
S1131C100C4600F076F8059B52462146404600F0FB
S1131C2011F978BB6A462146404600F020F9009C31
S1131C30029E6042714208404542A54208BF7519A0
S1131C40794F03E0AAEB0B0A5C447519BAF1000F53
S1131C5017D0281BD346824588BF83460598BBFB13
S1131C60F0F02102090A000441F0807140EA0920E1
S1131C70396040F0FF00786000F007F80028E1D0F8
S1131C8000E0002009B0BDE8F08F4046A7E02DE950
S1131C90F04389B080465FEA03090D46164608BF43
S1131CA0042029D000F02EF8079B00F026F818BB7A
S1131CB0009D109C5C4F05E007998A08761A09EB91
S1131CC082094D19C6B12802000A40F0007038603C
S1131CD0200640F0FF1040F47F407860D9F80000FF
S1131CE0B860FFF7D2FF0028E6D0119901B10D606A
S1131CF0129909B100220A6033E732462946404668
S1131D00A0E099466A46B2E042EA0141464A1160BF
S1131D1065E02DE9F04180461E000D46174608BFD8
S1131D20042034D0042300F08DF880BBD8F814309C
S1131D307A195F42C2F1000C07EA0C0CCCF1000CDA
S1131D402F40ACEB07070021B7FBF3F7DFF8E8C03F
S1131D500AE0DCF800E0203C6FEA0E0E2EFA04F4F0
S1131D60E40748BF491C5D1995420AD2B5FBF3F458
S1131D70202C38BFDCF804E0EED3D8F818E0744522
S1131D80E7D319B1B94234BF022101213170BDE852
S1131D90F0810000002818BF002A01D104207047F8
S1131DA009291AD8DFE801F00509090B0D0F1113F1
S1131DB01517C0681060002070474068FAE7806813
S1131DC0F8E70068F6E70120F4E74069F2E7806984
S1131DD0F0E7006AEEE7406AECE76A2070471748CC
S1131DE0702101708021017001780906FCD500780A
S1131DF0810601D567207047C10601D56820704768
S1131E00C0074CBF6920002070470D49096851F490
S1131E1070010B4A1160BFF36F8FBFF34F8F704790
S1131E204C80044028000240040002406B66656B4D
S1131E3002000240FFFF0040180002400000024080
S1131E4004F0014008B9042070475B1E194208BF22
S1131E501A4201D0652070470368994221BF406847
S1131E60C0185118884234BF66200020704770B5EE
S1131E7005000E46144601D1042070BD20212046E1
S1131E80FFF700FB2868301A2060E8686060A968E2
S1131E906868B0FBF1F0A0600420E06010202061CD
S1131EA060610420A061E061002070BD08001000A2
S1131EB0180020003000400060008000C0000001D5
S1131EC080010002000300040006000080B51849E8
S1131ED01848086018491948421A194888421CBF12
S1131EE0002AFFF7E3FB17481749091A18BF00F047
S1131EF0D7F916491648421A04D0BDE808401548D7
S1131F00FFF7D4BB01BD14484FF0FF3101604160BD
S1131F108160C160016141618161C1610F480160FB
S1131F2041608160C160016141618161C16170474B
S1131F3008ED00E000E0FF1F741800206C19002079
S1131F40281A0020201B0020581D0020281A0020D9
S1131F50281A0020581D002080E100E080E200E003
S1131F60704700000E48016841F4785101607047E1
S1131F700B48016821F4785101607047FFE7094874
S1131F80094900680968C0F30360401CB1FBF0F024
S1131F907047002806BF044800680020704700000E
S1131FA038800440448004401C1B002000207047FB
S1131FB07047000062F30F2262F31F4200B500BFB6
S1131FC0130096469446103928BFA0E80C50FAD85E
S1131FD05FEA417C28BF0CC048BF40F8042BC90706
S1131FE028BF20F8022B48BF00F8012B00BD00F0E9
S1131FF05BB9134680B50A4601461846FFF756FBFF
S1132000002002BD70B510F0030F0C46154612D027
S1132010B0F1005F0FD22118491EB1F1005F0AD35D
S1132020C0F1005632462946FFF740FBA21B711946
S11320304FF0005001E022462946FFF737FB00200D
S113204070BD00001B4213D1094236D12AB1844627
S1132050B0FBF2F002FB10C27047FFF781BFFCD364
S11320600022002370470B0002000021002070476B
S1132070904271EB030CF6D370B5B1FA81F4B3FA64
S113208083F52C1BA340C4F1200532FA05F6334333
S1132090A2405FF00046E64002E05B085FEA3202DD
S11320A0841A71EB030524BF204629467641F4D3F4
S11320B002000B003000002170BD012ACFD970B599
S11320C0140C20D0B1FA81F4B2FA82F5C4F12004E0
S11320D06419B4F12006D6D3B2405FF00044F44052
S11320E0002502E052085FEA3303C61A71EB020EC0
S11320F024BF3046714664416D41F3D302000B00A6
S11321002000290070BD0C46B1FBF2F102FB114521
S11321102D0445EA1045B5FBF2F402FB145580B2D8
S113212040EA0545B5FBF2F002FB105240EA0440D8
S113213070BD000070B50D0082B00446164601D192
S1132140002076BD6A4600F05AF830B9009BDB687F
S11321505B68324629462046984776BD70B50D0027
S113216082B00446164601D1002076BD00F068F81E
S113217000B135E000F030F868B9009BDB689B687B
S113218032462946204698474349002806BF009A0C
S1132190D26800220A6076BD38B504460D466A4608
S11321A000F02DF8A0B90098C068406908B966200D
S11321B032BD2946204600F043F810B142F2D870EF
S11321C032BD009AD268526929462046904732BDF2
S11321D0002DFCD1002032BD6A46294620460EE07F
S11321E042F2D87076BD10B52B4C2168002029B17D
S11321F009690A0002D088470021216010BD70B52A
S113220042F2D873D2B1254C6468146011B915E058
S11322101034146014688CB12568002D04BF6668FE
S1132220002E01D1E6684EB1A84224BF65688542FC
S1132230EED30818401E854228BF0023184670BDFF
S113224070B50918491E0022144B9C685D68246906
S1132250160104EBC2045834755966682468AC420C
S113226008BFAE4205D0864228BFA14201D3012057
S113227070BD521C022AE8D3002070BD10B5074877
S1132280446804E00068010018BF80471034E06827
S11322900028F7D110BD0000EC1B0020381A0020E4
S11322A0002200F041B800001D480068000B00F057
S11322B00F00C01E082830D8DFE800F005080B0E18
S11322C01114172F1A004FF4804013E04FF4C0404C
S11322D010E04FF400400DE04FF440400AE04FF4AA
S11322E0803007E04FF4C03004E04FF4003001E0E8
S11322F04FF480200121421E10420A4A18BF0221D5
S113230052684B1CB0FBF3F0C0F1005342F8103F8D
S11323106FF0604301FB003050600020704700BF45
S113232000700440381A0020401810F0030308D04D
S1132330C91A1FD3DB0748BF00F8012D28BF20F8B6
S1132340022D130030B414461546103928BF20E975
S11323503C00FAD8490728BF20E90C0048BF40F8E0
S1132360042D890028BF20F8022D48BF00F8012D54
S113237030BC7047C91818BF00F8012DCB0728BF1F
S113238000F8012D7047000030B901290CBF034942
S113239003494FF080600860704700BF00E100E02F
S11323A080E100E0BFF34F8F0548064A016801F45D
S11323B0E06111430160BFF34F8F00BFFDE70000F0
S11323C00CED00E00400FA05ECE7EBE7EAE7E9E7E7
S11323D030B901290CBF034903494FF080700860EC
S11323E0704700BF00E100E080E100E010B582B07A
S11323F000228DF800200A46064C014604F1200014
S11324002469646C6B46A0479DF8000000B101206C
S113241016BD0000381A002001280ED80FF224023D
S113242080560122012900F01F0102FA01F10CBFBC
S1132430024A034A400942F82010704700E100E0D4
S113244080E100E01F21000040684A49405C704779
S113245048498A6842B14A6813780370501C48603E
S11324608868401E886070470021017070475A28B0
S113247007D1404A01238B540FF2090111615169BC
S1132480084770473B49496908477FB5394D696139
S113249004460FF2F400616850F82160684600F0C9
S11324A0E4F801208DF808008DF809000221324873
S11324B0E86032482861A2686068904769463046FF
S11324C000F084F82E49304600F001F960680121DB
S11324D0FFF75AFF616849190120487004B00020D1
S11324E070BD70B50546234C68680119497889B1F7
S11324F00FF2940151F820600021FFF745FF3046A8
S113250000F0BFF86868AA68002190476968091953
S11325100020487070BD17484160826081680029BE
S1132520FCD10020704770B504460FF25C0082B005
S113253050F82450E86A00010BD54FF0006007E022
S1132540F168684688479DF8000068634FF00070A2
S1132550E862E86A074E8001F2D4E86A800308D58D
S1132560A86B4FF40031E96221463269C0B290474A
S1132570F3E773BD8C1A002099FFFF1FB7FFFF1FFD
S11325800000020A0020CEE700C00240010C01F165
S1132590804101F58E2101230A6803FA00F01043FB
S11325A0086070470029016814BF21F4804141F498
S11325B08041016070470021DFF84421904218BF38
S11325C001210846704701212046EBE738B504464F
S11325D00D46FFF7F0FF00F043F8FFF7F4FF00F0BB
S11325E088F80122206840004008206020680840E4
S11325F0297B40EA8170A97B40EA8160697B40EADB
S11326000160E97B00F019F80121204600F054F83C
S1132610287804EB8000C1686A6800F014F82A7A0C
S1132620920602F0806211436A7A520602F0007246
S11326301143C16000F00FF831BD090201F440718B
S1132640084320607047521ED20621F0FE4102F07A
S1132650F0421143704720684008400020607047F2
S11326600FF2A40151F8200090E700210170082125
S11326704160002101724172017341738173C1731E
S1132680704710B504460021206800F034F8FFF7C5
S11326909BFF00F02CF80FF2700151F82000010CA0
S11326A001F1804101F58E2101230A6803FA00F04B
S11326B022EA0000086010BD0368090401F47C11DB
S11326C0012A0CBF194323EA0101016070478A0102
S11326D003D5026B22F0807202638A0303D5026B76
S11326E022F480320263026B114301637047204677
S11326F061E72068034940F0010020607047000052
S113270000C00240FFCCFFBA0C003C10012100F0D5
S11327101F029140DFF86425400942F820107047F9
S1132720016841F00071016001688901FCD47047BF
S1132730016821F080510160016821F0804101604D
S11327400168C901FCD47047016841F0804101600F
S1132750016841F0805101600168C901FCD57047EE
S113276038B50D46032D044602D1FFF7EDFF05E011
S1132770042D03D1206840F0004020602046FFF77C
S1132780E3FF25B9206820F4000020600BE0012D50
S113279003D1606840F0080004E0022D03D16068B2
S11327A040F48050606022E038B50D46032D0446A5
S11327B002D1FFF7BDFF05E0042D03D120684000DE
S11327C0400820602046FFF7BFFF25B9206840F489
S11327D0000020600BE0012D03D1606820F00800A8
S11327E004E0022D03D1606820F48050606020462C
S11327F0BDE832409CE74068DFF8841440188078D4
S113280070475A280BD1DFF87824891801238B707C
S11328100FF20D01DFF86C345965516808477047B1
S1132820DFF85C1449680847F0B504460FF2B0407D
S1132830DFF8506487B050F8245002A800F050FB31
S113284001208DF80C004FF6FF7C10208DF80D0050
S113285006F13807DFF830048068016901F1940259
S1132860138863451ABF5B055B0D40F22313BB82DB
S1132870528862451ABF5205520D40F22132FA8243
S113288091F8911001F00F020F2A02D10120B874BF
S113289024E00022BA740A071BD505223A740069A1
S11328A0B0F89200020A8DF80020420902F00702F3
S11328B08DF80220820800F003008DF8010002F078
S11328C00702080900F007008DF803208DF80400C2
S11328D006E001F007000528387401DB0420387491
S11328E0DFF8A803F86197F9100018B1022807D09F
S11328F003D308E0DFF8980307E04FF47A3004E0EC
S1132900DFF8900301E0DFF890030290002106F164
S11329100800FEF707FF002106F12000FEF702FF82
S1132920082030600920706002A9DFF8702328466F
S113293000F057FA29684900490829602968C90242
S1132940FCD4686840F48040686097F9100005285A
S113295006D1042038746946284600F0CEFA07E010
S11329600FF2603100EB80004118284600F0C5FAF0
S1132970B87C28B10120787401212846FFF7F0FEC5
S1132980002038700820786000208DF8180001239A
S1132990F88AC34901EA8040059005AA00208DF811
S11329A019000821284600F0E4FAA86A40F480706F
S11329B0A86200220020387209210820F860284605
S11329C000F0C3FA0FF220302056FFF79FFE0FF2FB
S11329D01C302056FFF79AFE0FF214302056FFF7F2
S11329E095FE07B0F0BD38B5A54D04466960606832
S11329F0A268022190476068FFF716FF6168012012
S1132A004855002032BD38B504469D4D6068415D8F
S1132A1061B10FF2CC2151F8200000F041FA606856
S1132A20A2680021904761680020485531BD2DE916
S1132A30F043DFF8508283B00446894615460026E9
S1132A4008F1440711E00820386008364FF47A7022
S1132A500190CDF8009008F1400260683B8909219B
S1132A60C0B200F00DF838688144AE4205D2A81B0C
S1132A700928E8D238602E46E8E70020BDE8FE8346
S1132A80F0B50C460FF2582185B051F8205010785B
S1132A90009960F3555100915068009960F3134117
S1132AA0009101987E4900F0604001EA83410843A7
S1132AB00190009820F4801000900A98D0B1002171
S1132AC00291039107E0C1F10707039EFF00BB4099
S1132AD033430393491CC9B2536899420AD20B5C2D
S1132AE00429F0DAC1F10307029EFF00BB4033431F
S1132AF00293EFE76A46E1B2284600F05CFAA0B917
S1132B00012000FA04F6A86A5E4F3043A8620B9CC9
S1132B10214607F10800FEF71CFE0328F8D0A96A35
S1132B20B143A96210B1052000E0012005B0F0BD59
S1132B300FF2AC1151F82000016A4FF60241016214
S1132B40704770B506460FF29810564D50F826405F
S1132B50A87860B3206A697801291FD144F208017A
S1132B60084209D010F40C4F06D101212046FFF78A
S1132B701BFE002068701AE02878401E40B200282E
S1132B8048BF0420287095F900100FF2381001EBAB
S1132B9081010918204600F0B0F908E010F44C4F08
S1132BA005D02046FFF7BCFD3046FFF73DFE206A06
S1132BB04FF60240206270BD2DE9F04180460FF2CD
S1132BC0201086B050F82850286BA96A084000905D
S1132BD0009800284AD02B4E30680099C140C8079D
S1132BE039D506F12000FEF7E6FD316801AAC9B225
S1132BF0284600F013FA70BB0027002406E09DF875
S1132C001070726D414638469047641C0198E4B2D6
S1132C10C0F3034084421EDA072CF2D8DFE804F044
S1132C2006090C0F12151805EBE7E8E79DF80F707D
S1132C30E7E79DF80E70E4E79DF80D70E1E79DF875
S1132C400C70DEE79DF81370DBE79DF81270D8E78F
S1132C509DF81170D5E770680099C140C80744BF5A
S1132C6006F10800FEF7A7FD00982863286A4FF6CE
S1132C700240286206B0BDE8F081000000E100E0F7
S1132C80E01B0020481B0020381A00204B030020C2
S1132C9048E8010020A1070040420F0000B4C4042A
S1132CA00000FC1F901B002004E0002040E70020EF
S1132CB047E700BF00207FE700E000BF01207BE77B
S1132CC0FCE7FBE707030707030303070703010305
S1132CD007070301030303050003050507000000BC
S1132CE000400240005002404D6000004C5F000074
S1132CF04B5E00000029016806D0490049080160C4
S1132D000168C902FCD4704741F0004101600168C8
S1132D10C902FCD5704700210FF2783252F82130F5
S1132D20834202D0491C0229F8D30846704701683F
S1132D3041F080410160016841F080510160016807
S1132D40C901FCD57047016821F080510160016818
S1132D5021F0804101600168C901FCD47047026818
S1132D6092000BD5406B000E00F00F004000C21D16
S1132D70D2B28A428041C043C00F704700207047DE
S1132D80016821F4802101600168C902FCD4016852
S1132D9041F00071016001688901FCD46FF0404288
S1132DA0016841F4201141F00F010160802141606C
S1132DB04FF433014163002100EB8103491C1029C6
S1132DC0C3F88028F8DB02614261826182640021D9
S1132DD0002200EB0113491C1029C3F88020F8DB02
S1132DE070477CB504460D461646FFF794FF00F085
S1132DF069F81043086000F062F8287900286068D8
S1132E000CBF20F4005040F400506060012100F039
S1132E1057F82046FFF7B4FF20686979491EC009B6
S1132E2001F07F0141EAC010A9790029616814BF4B
S1132E3041F4805121F480516160E979002914BF83
S1132E4040F4800020F48000297A002914BF40F463
S1132E50803020F48030697A002914BF40F4802047
S1132E6020F4802020600A212868484308BF0120FC
S1132E70B6FBF0F0401EFF2888BFFF208DF800004D
S1132E80694603208DF8020002208DF8030001201A
S1132E908DF804008DF80100204600F02EF873BD73
S1132EA010B50446FFF76CFF00F009F82046FFF761
S1132EB032FF00F007F822EA0000086010BD00218C
S1132EC0204617E70FF2D41151F82000010C01F14C
S1132ED0804101F58E2101230A6803FA00F070474E
S1132EE000210171DFF8A811016010214171002156
S1132EF08171C17101724172704738B500F022F8D6
S1132F0060684FF6F8710840606060686A782978F4
S1132F10920502F4400242EA0161AA78D20402F462
S1132F2060121143EA78120402F4E02211432A7970
S1132F3002F00702114308436060FFE72046BDE842
S1132F40324000E704460D46F1E670B504460D46EE
S1132F501646FFF704FF04EB05108030002E14BF63
S1132F604FF0006100210160002141608160C16077
S1132F7070BD2DE9F0410746884614461D46FFF70B
S1132F80EEFE07EB0810002640F8806F466086606E
S1132F90C66075B1216841602179012908BF4FF4E9
S1132FA000166179012908BF46F4801646F0806155
S1132FB00160BDE8F081F8B506460F461446FFF7F8
S1132FC0CEFE06EB0710002550F8801F01F070615B
S1132FD0B1F1406F20D0016821F0706141F00061CF
S1132FE001606168C900C90841602168C1F34052A9
S1132FF00AB14FF4C005C1F300520AB145F480157B
S113300001F4702141F040610D43A1688160E168E1
S1133010C16005600020F2BD0120F2BD70B5044618
S11330200E461546FFF79BFE04EB061050F8801F72
S11330300A0E02F00F02022A18BF062A25D143689D
S11330406E68DB0006F0604656EAD3036B604E0DF3
S11330502B6823F4001306F0010643EA46530E0DD1
S113306023F4F81306F0010643EA065301F4702131
S113307019432960022A8168A960C068E860A068D1
S11330800CBF002041F2B94070BDA068012070BDA2
S113309048E80100004002400050024004003C1097
S11330A005003C10010C01F1804101F58E21012342
S11330B00A6803FA00F0104308607047010C01F13C
S11330C0804101F58E2101230A6803FA00F022EA07
S11330D00000086070470029817814BF41F0800126
S11330E001F07F01817070470021DFF8E8209042F1
S11330F018BF0121084670474A0603D5827842F07A
S113310040028270890603D5817941F020018171E2
S11331107047C1788279520648BF41F48041807972
S1133120C00648BF41F480510846704738B504468C
S11331300D46FFF7D9FF00F030F8A87A10B1022845
S113314004D00DE0E8884000207009E0E8884000E1
S1133150207028894000E071607940F008006071B7
S1133160A078A97800F0FD0040EA4100297840EAFF
S1133170C110A0706079297900F06F0040EA011055
S1133180697840EAC110E97800F001F831BD00F037
S1133190DF0040EA4110607170470FF23C0151F8C2
S11331A020007FE710B504460021FFF794FF204676
S11331B0FFF79AFF0FF2200151F82000BDE81040FC
S11331C07CE70021817241708170C170017101211D
S11331D001707047006006400600341000210FF2B1
S11331E0641252F82130834202D0491C0229F8D3D8
S11331F008467047F8B50D46044628680101B2FB3D
S1133200F1F6B6B206B901265301B3FBF1F1A1EB15
S113321046175100720112FA87F2B1FBF2F1091A52
S11332206422B0FBF2F000EB4000884202D240F28C
S1133230F530F2BD2046FFF7D1FF00F04CF8104303
S1133240086007F01F01E07800F0F300E0702078D8
S113325000F0E00040EA262020706670A07A00F0BA
S1133260E0000843A072A078297900F0EC0008433C
S1133270A07020786979490100F0DF0001F0200195
S113328008432070A879E074E8796075207C40F0E8
S113329088002074607C40F0C0006074E078297A73
S11332A009B140F00800697A09B140F00400E07007
S11332B00020F2BD80B5017D0029FCD101794906C9
S11332C0FCD50021C170FFF789FF00F004F822EA61
S11332D00000086001BD0FF2740151F82000010CD8
S11332E001F1804101F58E2101230A6803FA00F0FF
S11332F070474FF4E1310160002101714171817126
S11333000121C171002101724172704702780A43A0
S11333100270C27842EA1122C270827942EA1142F2
S11333208271427C42EA11614174704705E003797D
S11333301B06FCD511F8013BC37113465A1E002B22
S1133340F5D1704700A0064000B006400A003410D2
S11333500B0034100029817814BF41F0800101F082
S11333607F018170704710B5644C82B02046FFF72E
S1133370D0FE00F01201E17000F05001102911D0CC
S113338041065F4A14D54007A0780CD540F01000E0
S1133390A07000208DF800006846D16888479DF829
S11333A00000207113BD00F0EF00A070207913BD60
S11333B0A178C90603D5C007EBD5A078F3E7207937
S11333C012690021904713BD40684D49405C704725
S11333D04B498A6842B14A6813780370501C4860AC
S11333E08868401E88607047002101707047444916
S11333F0496908475A2806D1414A01238B54414957
S11334001161516908477047FEB53D4D0446696135
S11334106068A2680221904766680FF2F80050F8CD
S113342026706846FFF7CDFE1020ADF80600694609
S113343035488068006990F87900FF2818BFADF816
S113344006003846FFF772FE01213846FFF782FF77
S113345040213846FFF750FEFEF790FD4FF47A7195
S1133460B0FBF1F02949B1FBF0F0002100E0114676
S11334704A1C00FB02F3322BF9D321B9B0F5FA7FD1
S113348004D8012102E0202928BF1F21B87900F0C7
S1133490F0000843B87101213046FEF799FF1C483B
S11334A0286101206168491948700020FEBD70B58B
S11334B00546134C686801194978A9B10FF2540103
S11334C051F820600021FEF783FF00213046FFF70A
S11334D041FF3046FFF766FE6868AA6800219047FE
S11334E0696809190020487070BD05484160826010
S11334F081680029FCD1002070470000006006406C
S1133500A41A0020370F0020381A002040420F0070
S11335103D0F00200060064010B5944880680069A3
S113352000F1680434214FF47070FEF75FFF48B96E
S113353034224FF470712046FEF7C8F820688C4995
S1133540884204D0FF2234212046FEF733FDFEF7E3
S11335502FFD002010BD38B5844DA86804694B20A8
S1133560E07004F110020220A070042100206070B9
S113357020705020E0710120A071022060710020B1
S113358020715420E0720120A07200206072207229
S11335900120206340F64F50606305F120002B6941
S11335A0DB6A98472B69DB6A04F11402012100F0FD
S11335B057F82B69DB6A04F11802002100F050F877
S11335C02B69DB6A04F11C02022100F049F82B6923
S11335D0DB6A04F12002032100F042F82B69DB6A64
S11335E004F14402052100F03BF82B69DB6A04F185
S11335F04802062100F034F82B69DB6A04F14C021E
S1133600072100F02DF868680168A165E1650022D2
S113361058492166584961666969E26007E094F88F
S113362078501D4202D0E5682B43E360521C1823F6
S113363003FB02131B68002BF1D150490A68226472
S11336404A68E2638968A16350F8101F61624168A7
S11336500068081A401CA06201202065002032BDC9
S113366005F1200018470000F8B514463F4A444FBE
S113367091680426401E096917281D464BD8DFE8C7
S113368000F00C121416181A204A4A22242B4A1C41
S11336901E2E313D404244464A4805B12E6004B1D5
S11336A021600020F2BD0C31F7E71031F5E7143149
S11336B0F3E71831F1E72031EFE72431EDE7283162
S11336C0EBE73431E9E73031E7E7D069416949692B
S11336D0884738603946E0E710265831DDE7294845
S11336E00068F6E702F12000126992696946904782
S11336F09DF800000028ECD00120EAE70C263831C0
S1133700CBE74431C9E74831C7E74C31C5E750310D
S1133710C3E70831C1E742F63C00F2BD134A9268A0
S11337201369401E062842F63E0218D909380AD009
S1133730401E012884BFC01E032810D9083808D0B1
S1133740801E0CD00EE0002918BF012903D1196393
S11337507047032901D3104670471965704742F634
S11337603D00704742F63C0070470000381A0020C4
S11337706B63666700E0FF1F571F002058800440FA
S1133780B41C00202480044030B5044685B0606831
S11337906946FDF749FA88BB6068012814BF3B4DB0
S11337A03B4D01A8FFF7A5FD0098019001208DF87D
S11337B00C008DF80D006068FEF7EBFB024601A9D2
S11337C02846FFF717FDB0B960680121FEF724FE13
S11337D04FF400512846FFF799FD6068A2682D4C0C
S11337E00221904761685A2088476168A62088476B
S11337F00120207003E06068FDF7FCF9002005B0AB
S113380030BD10B50446234841606068A2680121B8
S113381090476068FDF7EEF9002010BD10B504462E
S11338201C48007850B160680021FEF7F5FD60681F
S1133830012814BF15481648FFF73CFD6068FDF7E2
S1133840F1F96068A268BDE810400021104780B516
S11338504068012814BF0D480D48FFF767FD00209C
S113386002BD0D480178890600D50AE070470B486F
S113387001788A0701D5C0787047890600D500E031
S11338807047C078034949680847000000A0064013
S113389000B00640B81C002004A0064004B0064056
S11338A0AF49D1F88820531C5218C1F8883082F8E7
S11338B02000D1F8880000F03F00C1F8880070476C
S11338C000207047B8E02DE9FC410C00154614BFF8
S11338D0002D0420984628D0A14F002007F190061F
S11338E02860707000F0A8F818B11EE0A22000F063
S11338F075F820213846FDF7C5FD4246394668462D
S113390000F0F8F810B1002129600EE0394668464D
S113391000F042F9BDF804108142E7D10120307073
S11339202760BDF8020028600020BDE8F6812DE97B
S1133930F0410C0082B015461E4635D0212D33D2FD
S113394000F07AF800283FD1DFF8148298F891004B
S113395010B1002088F8910008F160075A203870EF
S1133960A42078700EB1A52078707D802DB12A46F0
S1133970214608F16600FDF799FE08F16601384614
S113398000F00AF9B880A91D384600F064F8D8B9E7
S1133990684600F0EFF8B8B99DF80100A12812D0EC
S11339A0A22806D0A32801D004200DE042F2127010
S11339B00AE07888811D384600F04DF820B99DF85A
S11339C00100A228E4D00020BDE8F6816548012169
S11339D081700021017070472020704780B55A2102
S11339E08DF800108DF8010001205D4981F89100E7
S11339F00221684600F02FF802BD10B5044659486C
S1133A0082B00178427880781140014211D10FF2DE
S1133A10B8100088ADF80000022223695B6869468B
S1133A202046984723690FF2A4115B6808222046B8
S1133A30984742F2137016BD4A48017819B1002123
S1133A400170A12004E0817819B100218170A320C4
S1133A50C4E700207047444AD3690A460146184621
S1133A601B695B6818472DE9F14F8B461646FDF735
S1133A7060F904464FF47A7088467043FDF769F99B
S1133A80DFF8DCA00027064689460AF188050EE027
S1133A906868296888420CD05044009990F8200046
S1133AA078547F1C6868401C00F03F0068605F45E4
S1133AB01DD0FDF73EF9021B61EB080341450AD80E
S1133AC028BFA04207D2E2436FEA08031018594105
S1133AD0421C41F10003B9F1000F08BF002ED7D0FA
S1133AE04B45D5D301D8B242D2D3052000E0002003
S1133AF0BDE8F28F70B582B005460C46164600F05C
S1133B0039F858BB6878A62804D11748C069FFF76C
S1133B1074FF76BDA42106B1A521884201D00120FD
S1133B2076BD00F023F8BDF800106980B0B90846EE
S1133B302128A8BF2020688000F018F8BDF80010E4
S1133B40A98058B9698849B12046FEF7A9FB69885C
S1133B500A2000FB01F22046FFF785FF76BD000036
S1133B60C01C0020501D0020381A002014220221FD
S1133B70684678E710B50446002201212046FFF785
S1133B8072FF40B920785A28F6D1601CBDE8104075
S1133B900A22012167E710BD30B583B004460D4603
S1133BA0684600F017F804222146684600F015F82C
S1133BB062882946684600F010F801A9684600F0BA
S1133BC023F8BDF804003EBD5AA7000000020150CE
S1133BD00000AAEA00210180704770B50388002420
S1133BE00EE0655C83EA052308255E001B0444BFE0
S1133BF086F4805686F021066D1E3346F5D1641C8A
S1133C009442EED3038070BD0088088070470000A2
S1133C1000480047C919002000480047C91900207E
S1133C2000480047C919002000480047C91900206E
S1133C3000480047C919002000480047C91900205E
S1133C4000480047C919002000480047C91900204E
S1133C5000480047C919002000480047C91900203E
S1133C6000480047C919002000480047C91900202E
S1133C7000480047C919002000480047C91900201E
S1133C8000480047C919002000480047C91900200E
S1133C9000480047C919002000480047C9190020FE
S1133CA000480047C919002000480047C9190020EE
S1133CB000480047C919002000480047C9190020DE
S1133CC000480047C919002005484CF22051C18121
S1133CD04DF62811C1814FF4E9710180704700BF8E
S1133CE00020054000F00BF8002801D000F00AF88D
S1133CF00020C046C046FDF733FEFDF773FE0120E9
S1133D007047000010B5074979441831064C7C44CB
S1133D10163404E00A68081D511888470146A14278
S1133D20F8D110BDAC010000B80100009DEAFF1FEE
S1133D30ABEAFF1FECE4FF1FA81B00204CE6FF1FAB
S1133D40BC1A0020F4E6FF1F281A00207CE5FF1FA0
S1133D507CE6FF1F000000000000000000000000DF
S1133D60000000000000000000000000000000004F
S1133D70000000000000000000000000000000003F
S1133D80000000000000000000000000000000002F
S1133D9000000000000000000000000099FFFF1F69
S1133DA0B7FFFF1F0000000000000000000000003B
S1133DB000000000190F00203D0F0020000000004B
S1133DC000000000FFFF03000100000004E6FF1FE5
S1133DD000C0FF1FFF3F00200100000064E6FF1F3A
S1133DE000000040FFFF074000000000D4E5FF1F73
S1133DF000F00F40FFFF0F4000000000D4E5FF1F5C
S1133E00000000E0FFFF0FE000000000D4E5FF1F0A
S1133E10000000000000000000000000000000009E
S1133E200000400130B504E012F8014B00F8014BEA
S1133E30491ED1B1C507F7D40129F5D0850701D4AE
S1133E40042904D232F8024B20F8024B891E8B0855
S1133E50EFD000EB830403E052F8045B40F8045B0A
S1133E60A042F9D3A1EB8301E3E730BD80B513464B
S1133E700246184600E080B5FFF7D4FF002002BDDB
S1133E80FFF7FEBFC046C046C046C046FFF72AFF44
S1133E9019E050F8041BCB0744BFA9F101035918DA
S1133EA0121F0023042A41F8043BF9D25FEA827C02
S1133EB00B4604D54FF0000CA1F800C09B1CD107A1
S1133EC044BF0021197050F8042B002AE1D1704737
S1133ED0C1FFFFFF38020000201B0020000000008B
S1133EE062B38B0708D0521E11F8013B00F8013B66
S1133EF000F024808B07F6D1830740F0208000BFB8
S1133F00103A07D330B4B1E83810103AA0E83810AA
S1133F10F9D230BC530724BFB1E80810A0E8081058
S1133F2044BF51F8043B40F8043BD20724BF31F8A6
S1133F30022B20F8022B44BF0B7803707047083A19
S1133F4007D3B1E80810083A40F8043B40F804CB22
S1133F50F7D25307E4E7FEE780B51849184808602C
S1133F6018491948421A194888421CBF002AFFF709
S1133F70B7FF17481749091A18BF00F037F8164950
S1133F801648421A04D0BDE808401548FFF7A8BFF8
S1133F9001BD14484FF0FF31016041608160C16090
S1133FA0016141618161C1610F48016041608160CB
S1133FB0C160016141618161C161704708ED00E048
S1133FC000000000000000000000000000000000ED
S1133FD00000000000000000D4410000D4410000B3
S1133FE0001E002080E100E080E200E0002200F0FA
S1133FF001B80000401810F0030308D0C91A1FD3F9
S1134000DB0748BF00F8012D28BF20F8022D13005C
S113401030B414461546103928BF20E93C00FAD8BC
S1134020490728BF20E90C0048BF40F8042D890047
S113403028BF20F8022D48BF00F8012D30BC70477E
S1134040C91818BF00F8012DCB0728BF00F8012DAF
S11340507047000000480047C54100000048004781
S1134060C541000000480047C54100000048004722
S1134070C541000000480047C54100000048004712
S1134080C541000000480047C54100000048004702
S1134090C541000000480047C541000000480047F2
S11340A0C541000000480047C541000000480047E2
S11340B0C541000000480047C541000000480047D2
S11340C0C541000000480047C541000000480047C2
S11340D0C541000000480047C541000000480047B2
S11340E0C541000000480047C541000000480047A2
S11340F0C541000000480047C54100000048004792
S1134100C541000000480047C54100000048004781
S1134110C541000000480047C54100000048004771
S1134120C541000000480047C54100000048004761
S1134130C541000000480047C54100000048004751
S1134140C541000000480047C54100000048004741
S1134150C541000000480047C54100000048004731
S1134160C541000000480047C541000005484CF225
S11341702051C1814DF62811C1814FF4E9710180AC
S1134180704700BF0020054000F00BF8002801D064
S1134190C046C0460020C046C046FCF789F900F07E
S11341A002F80120704700F001B8000007463846C5
S11341B000F002F8FBE70000202109032631182053
S11341C0ABBEF9E7FFF7FEBFC046C046C046C046D7
S10741D0FFF7DAFF18
S9030411E7
