S01A0000666C6173686C6F616465725F6C6F616465722E73726563AF
S113000000200120110400002F9A00002F9A000004
S113001000000000000000000000000000000000DC
S11300200000000000000000000000002F9A000003
S113003000000000000000002F9A00002F9A00002A
S113004051990000599900006199000069990000D4
S11300507199000079990000E1990000E19900008C
S1130060E1990000E199000081990000E199000004
S1130070899900009199000099990000A1990000C4
S1130080E1990000E1990000E1990000E199000084
S1130090E1990000E1990000E1990000E199000074
S11300A0E1990000E1990000E1990000E199000064
S11300B0E1990000E1990000E1990000E199000054
S11300C0E1990000E1990000E1990000E199000044
S11300D0A9990000B1990000E1990000B9990000C4
S11300E0E1990000E1990000E1990000E199000024
S11300F0E1990000E1990000E1990000E199000014
S1130100E1990000E1990000E1990000E199000003
S1130110E1990000E1990000E1990000E1990000F3
S1130120C1990000C9990000D1990000D999000033
S1130130E1990000E1990000E1990000E1990000D3
S1130140FFFFFFFFFFFFFFFFFFFFFFFFFFFFFFFFBB
S1130150FFFFFFFFFFFFFFFFFFFFFFFFFFFFFFFFAB
S1130160FFFFFFFFFFFFFFFFFFFFFFFFFFFFFFFF9B
S1130400FFFFFFFFFFFFFFFFFFFFFFFFFE3DFFFFBB
S113041072B60E480E49886000220023002400258D
S113042000260027B846B946BA46BB46BC4609482A
S1130430854609488047094880470948804762B68D
S113044000200021074A9047FEE70000000000005A
S113045000ED00E000200120E99900007D980000F3
S1130460C1980000B104000072B600200B49086076
S1130470BFF36F8FBFF34F8F7047000080B5084AFA
S11304800DA1084809F0E0F9FFF7EEFF064880F3F4
S1130490088880F309880548804701BD08ED00E01D
S11304A06893000000A0FF1F605A002011A4FF1FE2
S11304B080B5FFF7E3FFFEE7605A002011A4FF1F99
S11304C0EBA4FF1F5DE5FF1F00000000000000001B
S11304D00000000000000000000000000000000018
S11304E000000000EBA4FF1F00000000000000005B
S11304F0EBA4FF1FEBA4FF1FD9190020E119002072
S1130500E9190020F1190020F9190020011A00202E
S1130510311A0020311A0020311A0020311A00202B
S1130520E9E7FF1F311A00208D09002093090020FC
S1130530BF060020091A0020311A0020311A0020B9
S1130540B7AEFF1FDBAEFF1FFFAEFF1F311A002047
S1130550311A0020311A0020912E0020311A002077
S1130560311A0020311A0020DDE5FF1FE3E5FF1FEB
S1130570EFE5FF1FF5E5FF1F311A0020311A0020B7
S1130580311A0020311A0020F3E7FF1FAD090020C3
S1130590311A0020C9060020311A0020311A002027
S11305A0311A0020311A0020311A0020311A00209B
S11305B0311A0020311A0020311A0020311A00208B
S11305C0311A0020311A0020311A0020311A00207B
S11305D0311A0020311A0020111A0020191A0020A3
S11305E0211A0020291A0020311A0020311A002073
S11305F0311A0020311A0020FFFFFFFFFFFFFFFF29
S1130600FFFFFFFFFFFFFFFFFFFFFFFFFFFFFFFFF6
S1130610FFFFFFFFFFFFFFFFFFFFFFFFFFFFFFFFE6
S1130620FFFFFFFFFFFFFFFFFFFFFFFFFFFFFFFFD6
S1130630FFFFFFFFFFFFFFFFFFFFFFFFFFFFFFFFC6
S11308C0FFFFFFFFFE3DFFFF72B60E480E49886032
S11308D0002200230024002500260027B846B9463C
S11308E0BA46BB46BC46094885460948804709487C
S11308F080470948804762B600200021074A904794
S1130900FEE7000000A0FF1F00ED00E0605A002099
S1130910391A0020B5DAFF1FF9DAFF1FA3D3FF1F2E
S11309200000000000000000002A01D101207047EF
S1130930F0B41F46034603242340002B09D00424AB
S1130940E31A017001300824E141521E26D05B1ED7
S1130950F7D1042A1ADB13D0002F11D00C460D4610
S11309600E46102A02DB72C0103AFAE70C2A02DBA8
S113097032C00C3AFAE7082A02DB12C0083AFAE756
S1130980042A03DB01600430121FF9E7002A05D0B2
S1130990017001300824E141521EF7D1F0BC00205F
S11309A07047FEE7B1BFFF1F00000000D9BFFF1F63
S11309B000000000BBC0FF1F09C2FF1F9BC0FF1F38
S11309C031C1FF1FE1C2FF1F000000000000000052
S11309D0000000000FC0FF1F00000000EBBFFF1F5E
S11309E031C1FF1FF9C2FF1F0000000069C3FF1FD0
S11309F00000000073BFFF1F000000003DC0FF1F88
S1130A000000000000000000000000008FC3FF1F72
S1130A1000000000BBC3FF1F00000000F1C3FF1F64
S1130A2009C2FF1F51C0FF1F0000000000000000AA
S1130A30000000000001024641D4FF1FADD4FF1F97
S1130A4000000000C9D4FF1F65D5FF1F3DD7FF1F5D
S1130A506DD7FF1FC5D7FF1FD5D7FF1F69D8FF1F4D
S1130A60A9D9FF1F00000000EFD5FF1FF9D6FF1F13
S1130A7035D6FF1F0000000009D9FF1F0000000049
S1130A80000000000000000000000000C5E3FF1F9C
S1130A90D9E3FF1FF5E3FF1F00000000E53200204B
S1130AA0EF320020F93200200000000000000000B6
S1130AB095E6FF1FE1E6FF1F39E7FF1F0000000076
S1130AC0000000006DE7FF1F01000000BDB4FF1F20
S1130AD00000000000000000ADC5FF1FDDC5FF1FC2
S1130AE021C6FF1FF3C6FF1F000000002FC7FF1F12
S1130AF0D30600201D070020D107002000000000BD
S1130B00000000000D080020A50800202B0900208B
S1130B1045090020000000000000000079090020C1
S1130B20D1E2FF1F39E1FF1F65E1FF1FF5E1FF1F60
S1130B3031E2FF1FB1E1FF1F52656164790D0A00C4
S1130B405472616E7366657272696E670D0A000095
S1130B50537563636573730D0A0000004661696C25
S1130B607572650D0A000000EB3C904D5357494ED9
S1130B70342E310002010100022000FF7FF08000CA
S1130B800100010001000000FF7F00000000293186
S1130B903233344B696E65746973205553420000D7
S1130BA0F0FFFFFFFFFFFFFFFFFFFFFFFFFF00005E
S1130BB046534C204C6F61646572200800000000AD
S1130BC000000000000000602C4200000000000053
S1130BD0412E0066007300650076000F00DA6500A0
S1130BE06E0074007300640000000000FFFFFFFF4C
S1130BF046534556454E7E312020201200000060A9
S1130C002C422C42000000602C4202000000000034
S1130C1042650072005F0069006E000F00A8640066
S1130C20650078000000FFFFFFFF0000FFFFFFFFEB
S1130C30012E006D006500740061000F00A86400BF
S1130C406100740061005F006E00000065007600C2
S1130C504D45544144417E31202020220000006053
S1130C602C422C42000000602C42000000000000D6
S1130C70412E0054007200610073000F00256800CB
S1130C80650073000000FFFFFFFF0000FFFFFFFF90
S1130C905452415348457E312020202200000060F8
S1130CA02C422C42000000602C4200000000000096
S1130CB042200049006E0066006F000F007272004F
S1130CC06D006100740069006F0000006E00000098
S1130CD001530079007300740065000F00726D0009
S1130CE0200056006F006C00750000006D00650068
S1130CF053595354454D7E31202020160000006086
S1130D002C422C42000000602C4203000000000032
S1130D10494E464F202020205458542000000060A3
S1130D202C422C42000000602C420500010000000F
S1130D30535441545553202054585420000000600B
S1130D402C422C42000000602C42060001000000EE
S1130D502E2020202020202020202032000000608F
S1130D602C422C42000000602C42020000000000D3
S1130D702E2E202020202020202020100000006083
S1130D802C422C42000000602C42000000000000B5
S1130D904E4F5F4C4F472020202020200800006049
S1130DA02C422C42000000602C4200000000000095
S1130DB07B0033003700320030003300420046002D
S1130DC038002D0046004400380033002D00340064
S1130DD03300320031002D00410034004300340060
S1130DE02D0039004100390041004200460038001E
S1130DF0460042004300460044007D00000000001D
S1130E002E202020202020202020203200000060DE
S1130E102C422C42000000602C4203000000000021
S1130E202E2E2020202020202020201000000060D2
S1130E302C422C42000000602C4200000000000004
S1130E4042470075006900640000000F00FFFFFFC7
S1130E50FFFFFFFFFFFFFFFFFFFF00000000000098
S1130E600149006E006400650078000F00FF650012
S1130E70720056006F006C00750000006D00650084
S1130E80494E444558457E31202020200000006012
S1130E902C422C42000000602C4204004D00000053
S1130EA041DBFF1F49DBFF1F55DBFF1F65DBFF1F16
S1130EB0000000000000000001000000000000002D
S1130EC0A3ADFF1F50A6FF1F60A6FF1FD4AAFF1FDC
S1130ED00100000001000000A3ADFF1F50A6FF1F8A
S1130EE060A6FF1FD4AAFF1F01000000020000003B
S1130EF0A3ADFF1F50A6FF1F60A6FF1FD4AAFF1FAC
S1130F0002000000010000003BAEFF1F38A6FF1FD7
S1130F1048A6FF1FD4AAFF1F040000000100000020
S1130F206DAEFF1FF8A5FF1F08A6FF1FD4AAFF1F61
S1130F30100000000000000000000000F0AAFF1FE5
S1130F400000000000ABFF1F0000000000000000D4
S1130F50000000000000000000000000000000008D
S1130F60F11200202F1300203D140020131500203F
S1130F70C83D0020B5CAFF1FB3C8FF1FBFCAFF1F6B
S1130F80CFCAFF1FAFC9FF1FDFCAFF1F21160020F2
S1130F902D1600209D160020531700202516002032
S1130FA05F17002001160020812A0020A12B0020B9
S1130FB0AB2C0020ED2C0020212D00204D2D0020F5
S1130FC0DD2D0020792E0020892E00208D2E00207A
S1130FD00000000038B50500434C002323620020C4
S1130FE0002103C4083C2200083203C2220010324C
S1130FF003C263623D4800F0B0F8183403C43C49AE
S1131000280000F0EAF931BD80B500F01DFA01BDF9
S113101070B50C00344D296A07291CD1696A8842CD
S113102019D100F0CFF89626F60001010A1A03CD73
S1131030030003CD1918100000F056FA0A214843A2
S1131040310000F051FA401D0A2100F04DFA7043BE
S11310502060002070BD012070BDF1B582B000F0A9
S113106076F804000D00204E376A7F1C30001830DB
S113107003C8009001913000103003C82B00221ADD
S11310808B4100980199994203D801D3904200D230
S113109001273762012F06D0042F09D0052F0FD066
S11310A0072F11D01CE030C6083E0298706217E08A
S11310B00CCE083E2900A01A994103C6083E0FE051
S11310C03000083030C00BE0300008300CC8290074
S11310D0A01A99413200083203C2029800F0B4F910
S11310E0103630C6F7BD0000203D002080380100D6
S11310F0A3ABFF1F10B52D480168802212040A43D8
S1131100026000202A4908602A490022D2430A6169
S113111088610124CC618869042303438B61886955
S1131120204388610A60CC608C6000F0A7FAC0009C
S1131130214900F0D9F9002800D101201F49086095
S113114010BD1B48016802220A43026070471C4814
S113115001684068C043C943704700B50021174A7D
S11311601268002300F0CCFAC0084A071043C908EB
S113117000BDD0B50400FFF7EAFF06000F00200011
S113118000210E4A1268002300F0BAFAC0084A0788
S11311901043C90836184F41FFF7D9FFB942FBD3B2
S11311A001D8B042F8D3D0BD000000003C80044018
S11311B0007003400071034040420F00B43D002022
S11311C0E070034080B500F059FA02BD10B5820703
S11311D0D30EFF249C40E2438907090E9940030083
S11311E004D598481B071B0F083B00E0B0489B0838
S11311F09B00C01803681A401143016010BD8900A8
S113120040180168AB4B0B401104F02212030A4052
S11312101A430260704789004158C801C00F7047E3
S113122010B580235B009400035148690123934067
S11312309843486110BD09E01202E023DB0013402B
S113124020221A4389004250704700BF1202E02353
S1131250DB00134089004350704710B5002200287A
S113126003D002282BD015D310BD934C002903D0F2
S1131270022907D003D310BD2264626410BD10227A
S11312808E4928E0032210212000FFF7D4FF032217
S113129011212AE08A4C002903D0022907D003D364
S11312A010BDE260226110BD0322864913E00322CF
S11312B003212000FFF7BFFF0322042115E0824C25
S11312C0002903D002290AD003D310BDA260E26032
S11312D010BD02227D492000FFF7A2FF10BD0322AA
S11312E02000FFF7A8FF032203212000FFF7A3FF3C
S11312F010BD012800D0704710B5714C002902D0F0
S1131300022904D010BD0020A062E06210BD0222B8
S11313100B212000FFF790FF02220A212000FFF793
S11313208BFF10BD012800D0704710B5664C002912
S113133002D0022906D010BD002020616061A061A6
S1131340E06110BD072204212000FFF77EFF072281
S113135005212000FFF779FF072206212000FFF76F
S113136074FF072207212000FFF76FFF10BD80B52F
S113137010215148FFF74FFF002809D05448016855
S1131380080005D0002088470020C0435149086068
S113139001BD80B503214A48FFF73DFF002809D06D
S11313A04B484168080005D0012088470020C0430D
S11313B04949086001BD80B502214348FFF72BFF6E
S11313C0002809D042488168080005D002208847D7
S11313D00020C0434149086001BD70B50C003C4D7C
S11313E03F4E002803D002281DD00ED370BD01212A
S11313F01220FFF7EBFE8020C00230600A22102189
S11314002D48FFF7FCFE2C6070BD01211320FFF76F
S1131410DDFE8020000330600A2203212848FFF704
S1131420EEFE6C6070BD01211420FFF7CFFE80201A
S1131430400330600A2202212348FFF7E0FEAC603B
S113144070BD00001CED00E038B5214D0024254995
S1131450002803D002281DD00ED331BD8020C00245
S1131460086000211220FFF7B1FE0022102112486B
S1131470FFF7C5FE2C6031BD802000030860002109
S11314801320FFF7A3FE002203210D48FFF7B7FE48
S11314906C6031BD80204003086000211420FFF7F8
S11314A095FE002202210848FFF7A9FEAC6031BD79
S11314B000E400E0FFFFF0FF00A0044040F00F4014
S11314C000B0044080F00F4000C00440C0F00F4062
S11314D0BC3D0020A0A00440A0B00440A0C0044033
S11314E000E100E080E100E0094214D088420FD31B
S11314F00122030C01D100041204002300185B41F3
S11315008B4200D35B1A5241F8D319001000704784
S113151001000020704708B500F00CF908BD02680E
S1131520531C0360117070470020664982008918BB
S11315300A68654B13400B60401C0E28F5D3042049
S11315407047F1B501260023002434305D49A02200
S1131550D200009F002F01D101240CE08769042FE1
S113156043D20768002F00D100268768002F00D0DF
S11315700123002E28D04A608A600A614A61002C47
S113158036D1E024E4004568002D00D0CC618569A3
S1131590022D01D0032D01D10A60CA608569032D93
S11315A00ED10A628A624A628A61009DCE26760062
S11315B0AD192E68002E02D16D68002D00D0CA61CD
S11315C0456A002D00D0CC62002B11D0CA610A629A
S11315D08A62CA628369022B01D14A628A61C16844
S11315E0002902D1406A002802D0FFF79DFFF2BD16
S11315F00020F2BD80B535480168012291430160A5
S11316003348416BF82292010A4342630168314A2C
S11316100A430260304800F097F801BD10B52B482A
S1131620016801220A430260294C00F00DFE0028E3
S113163004D0606B29490140616301E0284860637C
S11316402068284901402160234800F0A1F810BD1A
S11316501F480168E022D2020A430260016B802223
S1131660D2020A4302632048017880220A430270AE
S1131670017902220A4302710120704780B51B4898
S1131680016802681A480068090F491C4843009021
S113169000981101090F491CFFF726FF02BD80B510
S11316A0144801680268C807C00F401C1249484327
S11316B01107490F491CFFF717FF0090009802BD5E
S11316C00020704700D00440FFF8FFFF00D0004026
S11316D0048004400000030400400240FFE1FFFFD7
S11316E0FFC1FFFFFFFFF8F340210740448004409F
S11316F0A834002064800440006CDC0270470000C1
S113170030B4434351435D18010C0C00130C5C438B
S11317102D1980B2434392B251430024C918644145
S113172024040B04090C09195043C018694130BC46
S1131730704700007047000001000020224A9142D7
S113174000D001207047000038B50400FFF7F4FF13
S1131750800000BF20A10958080C1C4A82180120EF
S1131760136801258D401D43156000211BA28B01C8
S1131770E3181D6805431D60535CDB06DB0E012581
S11317809D40134B1D60491C0429F0D331BD00005A
S113179010B5FFF7D1FF80000FA10A58100C0B49B8
S11317A043181C680120904084431C60002000BF43
S11317B00AA2135CDB06DB0E01249C40054B1C6073
S11317C0401C0428F5D310BD0040024000700440C2
S11317D000E100E080E100E004003C101C1D1E1F3D
S11317E0C02000017749A5E077490A68904202D2F7
S11317F0D020C00570474A68904201D208687047FB
S1131800CA68904201D248687047CA68904201D2BF
S1131810886870470020C0437047F8B500F087F827
S11318206A4F80200005386000F02EF800F07FF841
S1131830674C2568B04E306800281AD0F068002143
S1131840C943884205D02800FFF7CEFFF16840184D
S1131850206090200005386000F016F830690021FF
S1131860C943884205D02800FFF7BEFF31694018FC
S1131870206080204004386000F006F830680028BA
S113188000D025600020F2BDF8B5FA208000FFF7F3
S113189064FC04000D00FFF75AFC06000F00200052
S11318A02900FA2292000023FFF72AFF80197941C8
S11318B004000D00FFF74BFC8D4205D801D3844290
S11318C002D2FF209A30F2BD9F480068C007F1D4CD
S11318D00020F2BD38B59D49E82252008A181368E9
S11318E0022B23D3374C23688025ED011D4325604B
S11318F0012811D11068002814D02168090E491C50
S11319004843112800D3102021680902090A401E07
S113191000060843206005E0022803D1486CC0B2E9
S113192000F0B8FC20688A490140216031BDFF20E5
S1131930801C88490A6802430A600A680240FCD194
S1131940704738B5824C844D286820402860286848
S11319500321014329600A20FFF70BFC2868E143B7
S113196001432960286803218843286028680440CB
S11319702C6031BD794A7A4B00280AD0012812D054
S1131980022813D0032814D0042814D0102814D00B
S113199015E01878002801D0002001E0FF209630DF
S11319A0086000207047D020C005F9E75868800A15
S11319B0F6E71068F4E75068F2E75868F0E70420A7
S11319C07047000000A0054080A1054008A0054024
S11319D000A10540F0B589B0AC480090006800282B
S11319E000D00120039000240025FA208000FFF796
S11319F0B4FB06AA03C2039800280CD0FFF7A7FB88
S1131A0004000D0000980068002106AA0CCAFFF724
S1131A1077FE04AA03C201204C49896C88400290D5
S1131A2000200190AD4FAE4E039800280AD0FFF776
S1131A308EFB001BA94104AA0CCA8B423ED301D8D9
S1131A4082423BD3FFF7CCFEFFF771FF3468009866
S1131A508068002812D0009805690020C0438542A0
S1131A6004D02000FFF7C0FE40193060B02000050C
S1131A703860FFF709FF00283CD13460C02080049F
S1131A803860FFF701FF002834D1FFF760FB040042
S1131A900D0006A803C8FA2292000023FFF730FEC7
S1131AA004AA03C2FFF753FB0B00021BAB4104A8BB
S1131AB003C8994205D801D3904202D2FF2098303E
S1131AC018E0F068F82149010140EBD0AA48006809
S1131AD00190306E80214902014331661B48806CBD
S1131AE0C0030198029902D581439DD101E00140D0
S1131AF09AD1002009B0F0BD5840002030B583B021
S1131B000C009E49982212068018104A526B52000B
S1131B10904204D2D020C0050090486802E00868D2
S1131B2000908868019000256846A90040586C49D7
S1131B300860200002D0A047002803D16D1C022DAC
S1131B40F2D300203EBD00005CA10540843E00208D
S1131B50FFBFFFFF6CA1054000A0054048400020E6
S1131B6084400020F0B585B00C00A14902910968B9
S1131B7001918027FF0439430091811804910600E4
S1131B800025AE48C06D002806D00098B90A01436C
S1131B90009101E0019836180498864271D2012020
S1131BA0FFF798FE4E4D2E60A448C06D002802D168
S1131BB0FFF733FE04E0A2493000FFF79FFF2E60D9
S1131BC002980069002815D0FFF7B1FE0298406A18
S1131BD003900021C943884205D03000FFF704FE7A
S1131BE0039940182860A02000053C490860FFF7CD
S1131BF04BFE2E60FFF79BFEFFF7F2FD286E790087
S1131C0001432966EFF3108072B6102122686A65D9
S1131C10241D491EFAD10321A96501994039890877
S1131C20009A2E4B1A607A0809E023686B65636892
S1131C306B65A3686B65E3686B651034091F012944
S1131C4005DBEB6D1340F0D12B6E3B40F9D080F3F4
S1131C501088FFF719FE0220FFF73CFE286E38407B
S1131C6002D0CC256D000CE07448C06D002802D170
S1131C70FFF7B0FE03E0C1493000FFF73FFF050066
S1131C8088D0FFF75EFE280005B0F0BD504000206C
S1131C90F1B50020D024E4050025684F08E00026B3
S1131CA0002D05D0022D07D004D3032D06D006E065
S1131CB07E6B04E0BE6B02E0FE6B00E03E6C002E27
S1131CC006D0AF480460200000998847002803D15B
S1131CD0A4196D1C042DE2D3F2BD000008A0054038
S1131CE000A10540F8B504000120FFF7F3FDFFF75C
S1131CF094FDA44D2868002821D0A14E0027FF435D
S1131D00A869B84205D02000FFF76EFDA969401804
S1131D103060FFF70CFEC020C0049B490860FFF749
S1131D20B3FD34606868002801D0FFF776FDED69E3
S1131D30BD4204D02000FFF757FD40193060FFF783
S1131D40F6FD8020800490490860FFF79DFD022085
S1131D50FFF7C0FD0020F2BD80B5FFF73BFE02BDDA
S1131D6010B58A48FFF794FF8948FFF791FF0400F4
S1131D70FFF7E7FD200010BD00A2054080A105404B
S1131D80F8B504000120FFF7A5FD7D4D2C60FFF799
S1131D9044FD7C4E7C4F3068002817D0B069002188
S1131DA0C943884205D02000FFF71EFDB1694018E1
S1131DB02860FFF7BCFDC020C0043860FFF764FD55
S1131DC02C607068002801D0FFF727FDFFF7AFFDF6
S1131DD0E020C0043860FFF757FD0220FFF77AFDCA
S1131DE0FFF7F8FD0400FFF7ACFD2000F2BD000092
S1131DF04840002070B5114EF16D00291AD0982189
S1131E00090641184C08D020C0052018614D726B9A
S1131E105200914206D2FFF7B3FF00280CD1286884
S1131E20001907E0FFF7ACFF002805D16868001926
S1131E30716B401AFFF7A4FF70BD0000843E0020C0
S1131E4063B3FF1FF0B583B0CF49534ACA610A6830
S1131E50E0239A430A6002000C32926C002A03D0F9
S1131E600A68802313430B600126C84ABA235B0027
S1131E70D31801932023402405000C35ED6C002D6C
S1131E8034D00D6825430D60D4256D0045192F68A5
S1131E90002F02D00F681F430F60019F3F6B002F7C
S1131EA000D08E0C0096AE68B702C02636013E40C4
S1131EB0B446EE683604FC27BF0337406646374312
S1131EC0BC462E693706FC26B6053E4067463E43AF
S1131ED0009F3E43C068002808D06868002802D1EB
S1131EE030004E0D01E030008E0D06431032D06BF1
S1131EF0032802D130009E0206430198806A00281C
S1131F0002D030005E0206430198C06A002802D065
S1131F1030001E0206434E62CD48D56DAD012C4003
S1131F20956D6D012B402343146E2404E025ED02CE
S1131F3025401D43456080235B02D46C24041C406F
S1131F400C620F24019D2D682540966936043340A8
S1131F502B430360D069000223020340106A04404B
S1131F601C4310680004C0239B0203402343CB603E
S1131F70506BC0B200F08EF90020FEBD1DB5FF1FEE
S1131F8000A105405840002008A005402DB8FF1FBF
S1131F90A1B8FF1F84A1054000400080FEB50400E5
S1131FA0FFF772FCAB4800688021C9040143A948CB
S1131FB001602000FFF7C5FAA74D002861D17348DE
S1131FC0406BD021C9054118A44801606F4A926B47
S1131FD0891841606D4AD26B891881606B4A126C12
S1131FE08918C1609E4E9820000608187060D020A1
S1131FF0C005002100912300343304211A681B1DFD
S1132000002A02D0076800978018491EF6D100986C
S1132010FFF797FC706800280FD05C48C06D00285B
S11320200DD05A48406B5949C96B884205D157486D
S1132030806B5649096C884201D00420FEBD002003
S11320408849894A0A6002224A6000224F4B96005E
S11320509B195B6F854E8700F351401C521C402A2C
S1132060F4D3814808600120486047480068802113
S1132070C9010143444801602000FFF7E3FE002842
S113208005D0744909680D4072490D60FEBD3E4893
S11320900068774901403C480160764D2869A90DE4
S11320A001432961BC204000205800283ED0D020A4
S11320B0C005009020003430029004200190029862
S11320C000680299091D029100282BD0009929600B
S11320D0009908180090BC2040002018406800288F
S11320E020D00026B0002018BE21490047183868C7
S11320F0002817D0FFF791FBFFF719FCFFF770FBDF
S113210038696865002068656865686538681E49CF
S11321108860FFF7B9FBFFF75DFC002802D1761C4D
S1132120042EDFD30198401E0190C8D1E069002835
S113213027D0D026F60520003430009004270098DC
S113214000680099091D0091002818D02E603618E7
S1132150FFF763FBFFF7EBFBFFF742FB20001C30AC
S113216040686865002068656865686520001C3003
S1132170806805498860FFF787FBFFF72BFC7F1E0B
S1132180DDD10020FEBD000000A00540843E0020FB
S1132190F0B583B0002801D0810746D1304F00212B
S11321A039700090FFF7CDF92A4801688022D204E3
S11321B00A430260304801688022D2010A43026067
S11321C00124446201680902090A22060A430260E2
S11321D02A49C1610E2101614161816101680C22BA
S11321E00A4302600168224A0A40026000980028FB
S11321F01DD1D025ED050095286801900198FFF7C1
S1132200A0FB1F4E2868B0420AD016481649016048
S1132210022242601B4A02611B4A4261016044601F
S1132220FFF78FFB2868B04201D00420FEBD174D94
S113223062020099280000F057F82800FFF7AEFE6C
S1132240002800D13C70FEBD0548007870470000AE
S113225004A1054038800440FFFFFFFB80A1054036
S11322608440002000A30540F05AF05A10A3054012
S1132270FFBFFFFF00A1054000A00540000800804B
S11322806B71636613042008041C0000843E002064
S11322907047000009490A681202120A002802D095
S11322A0012804D007E01000C022920402E01000CC
S11322B08022520402430A607047000000A00540D7
S11322C0124207D08B0706D00B78491C0370401CC0
S11322D0521EF7D87047830706D00B78491C037049
S11322E0401C521EF9D1704770B4103A03D378C918
S11322F0103A78C0FBD2530701D318C918C001D5CE
S113230008C908C0D20704D30B880380891C801C29
S1132310002A01D50B78037070BC70470020AF49C8
S1132320C968C96808607047FEB5002600206A467F
S11323309670AA4CE7697D69002D75D0E168C9687B
S11323400A68012A5AD000230A000832091D3800FD
S11323506D68A847002805D0A149884202D0491CCD
S1132360884261D1E268D1688B68002B5CD002930B
S11323704868019000786B46187068460078002819
S113238008D068460078132804DA9268C000101850
S1132390083800E0002008620127002822D00068E5
S11323A000281FD000A9491C20002030226992690E
S11323B09047050017D168464078002809D0E720E7
S11323C0400169460978491EC840384001D1854D0D
S11323D009E002990198E268D268126A126890478B
S11323E0002007E0B34D68460178280000F076FA33
S11323F0280019D1E168C9680F60FEBD096A002987
S11324000DD04968080003D000A8801C884700E06C
S11324100020002803D0E168C9680E60FEBD69464B
S11324208978E268D2681160FEBD80B50178002029
S113243000F054FA6948C069416909698847022073
S113244000F0ACFABFF34F8F9B489C490860BFF380
S11324504F8F00BFFDE780B514216048C068C06895
S11324600C3000F0FDFA01BD10B5040060680028CE
S113247002D0012803D005E000F0D2FB03E000F015
S113248041FD00E00420FFE7217800F027FA10BDA9
S113249010B50400A1686068504A126852699047F8
S11324A0F2E710B50400FFF7D6FF4C48C068C068D7
S11324B061680161082101772178002000F00EFA9B
S11324C000F0CEFF10BD7CB5002401940094434D70
S11324D06B4601AA8168C9B24068C0B2AE68B668EA
S11324E0B047E968C9680C6100998A08019900F04D
S11324F0FDF973BD10B50400A1686068C0B2374A25
S11325009268D2689047BFE770B50400A568A748F1
S11325102E186068012809D1280001F09AF80028D3
S113252004D0300001F095F8002801D104250BE017
S11325302800FFF72DFE0500284E02D13068006800
S11325408047B068006945652178280000F0C6F925
S113255070BD10B50400FFF77EFF2048C068C06856
S1132560A16801616168416104210177217800203B
S11325708BE710B50400FFF76EFF1848C068C06809
S1132580A16801616168416103210177A1680020AC
S113259000F0C0F910BD38B50400104DE868C068FB
S11325A0002141610161007F042805D12868006988
S11325B08047002C00D10400E868C068017F200037
S11325C000F08CF9C348844206D1E868C068007FF3
S11325D0082801D100F0CAFF31BD00007833002083
S11325E01227000011270000F1B584B0BA4DE86845
S11325F0C06800240169002905D1049804700020F2
S1132600FFF7C9FF52E00121049A1170076940697C
S113261002900094E86901236A4601A94669766834
S1132620B047060004D0E8694169C968884732E0C8
S11326300098002801D1A7482EE0B84200D93800FC
S11326400090E868C068017F082910D10199C16031
S1132650009981610099019800F045FF0600C14886
S1132660864202D0093886420CD100260AE0019A3B
S1132670009902982B689B68984706000298009975
S11326804018029000983F1A05D0002E09D0E8693E
S11326904169C96888473000FFF77DFF04980470DA
S11326A004E0E868C068076102994161002005B050
S11326B0F0BD0000102700000400FA050CED00E056
S11326C0F1B58CB0844FF868C06800250169002911
S11326D005D10C9805700020FFF75DFF59E001213A
S11326E00C9A1170016902914469C168027F029BCE
S11326F0212B00D320230193002915D0019A04A88B
S1132700FFF7DEFD02980199401A0290F86901234F
S1132710019A04A94669B668B047060002980028E1
S11327202CD0002E30D029E0019961180391032A9E
S113273007D104AA019920003B685B68984706000A
S113274012E0102A01D00C46DCE7467F01F0C1F804
S11327500096019B04AA2100380020303C69E46BF8
S1132760A047060001F0BBF8039C002ECAD0F8690C
S11327700123002204A94469A468A0473000FFF79C
S11327800AFF0C98057004E0F868C06802990161BA
S1132790446100200DB0F0BD10B50400E268A168EA
S11327A060684D4B1B68DB6898476DE6FF010000CD
S11327B07CB5060070680090B0680190F068754CB4
S11327C020600025444949681031002807D00A6870
S11327D0904203D34968491C814200D204250098E1
S11327E000F037FF002800D104253178280000F0DC
S11327F075F8002D13D100986060002000F0CEF829
S11328000198A0602068002803D080F3088880F332
S11328100988A06861688847002000F0BFF873BD8C
S113282038B50400606800F014FF002801D10420CA
S113283005E06568012000F0B1F8A068A847217898
S113284000F04CF831BD38B5040001F042F8224DD7
S1132850A36822000C326168280020302D696D6B5A
S1132860A847050001F03BF82178280000F036F86D
S113287031BD30B583B0040068460021002206C093
S113288001F027F8144DA3686A46616828002030D7
S11328902D69AD6BA847050001F021F8A2686946CF
S11328A0280000F03CF837BD10B50400FFF7D3FD55
S11328B00948C168C968A2680A6162684A6110224D
S11328C00A77E168C068C0684177A168002000F019
S11328D04BF810BD122700007833002010B584B0E7
S11328E06A46A02313700023537045E030B589B0C5
S11328F06C46A723237000236370A370551CE570F6
S1132900019004E098000D58201885605B1C9342E8
S1132910F8D31BE010B584B06A46A32328E030B591
S113292089B06C46AF23237000236370A370022523
S1132930E5700190002808D19008801CE070029294
S113294020000C30FFF7D0FC00E002931248C0696D
S11329500023E1788A00121D69464469A468A047EF
S113296009B030BD7D27000010B584B06A46B0239D
S1132970137001235370002393700223D3700190CA
S113298002910548C06900230C2269464469A46881
S1132990A0471FBD6C3D00207833002070B50500B2
S11329A00024022D04D0002001F098FA012D0ED04D
S11329B0002605E0C16889680A0000D08847761CB3
S11329C00D4818217143401801680029F2D1002DE7
S11329D00DD100F07EFFFEF7B4FB01F0E9FA0748E1
S11329E004600120FFF754FCFEF718FE62B6BFF343
S11329F06F8FBFF34F8F70BD00AAFF1F08ED00E07B
S1132A001206130A1A43130C1A4300BF094205D0D5
S1132A1083070BD00270401C491EF9D17047000097
S1132A201206130A1A43130C1A4300BF130030B4DE
S1132A3014001500103902D310393CC0FCD24907E8
S1132A4000D30CC000D504C0890002D30280801CCE
S1132A50002900D5027030BC704700000022D5E781
S1132A600022E3E738B5A04C65682A000421200061
S1132A7020302369DB6A98476A4601212000203010
S1132A802369DB6A9847286800994018401E6860EB
S1132A90002032BDF8B504000D001600924F796B8A
S1132AA0484201002140621A5219534218404242DE
S1132AB06B46380020303F697F6CB84700280AD144
S1132AC068460078002801D06C20F2BD320029004D
S1132AD0200001F095FAF2BDF4B58AB006000C00AE
S1132AE003AA00F0E4F800285DD1A0088000049057
S1132AF0251A0020C04308900990002D06D02A0012
S1132B000A980499411808A8FFF7DAFB04983018CA
S1132B100790754C0498002809D0049B0A9A310048
S1132B202000203027697F69B847002809D1002D8B
S1132B3009D0042308AA07992000203027697F6957
S1132B40B84700282FD16846007B00282AD0049873
S1132B50002812D005A8029006A80190A068006978
S1132B60006DC0B200900A9B049A3100200020300E
S1132B702669B66AB047002812D1002D12D005A8E4
S1132B80029006A80190A0680069006DC0B2009090
S1132B9008AB08220799200020302469A46AA047C2
S1132BA0002800D100200BB0F0BD70B588B005003E
S1132BB00C00002069468300CA50401C0828FAD340
S1132BC0002C0DD02026202C00D826006A46310087
S1132BD02800FFF781FF002803D1AD19A41BEFE7FC
S1132BE0002008B070BDF8B506000D003E4C3F4B08
S1132BF02A0031002000203027693F69B8470028A7
S1132C000DD1A16809690A6B002A08D00B6DDBB2EB
S1132C102A003100200020302469646AA047F2BDF4
S1132C2010B5314C31492000203022699268904718
S1132C30002810D1A16809690A6B002A08D0096D1F
S1132C40C9B2200020302269126A9047002802D1BC
S1132C500121274A117010BD70B582B01500002201
S1132C602A70214C6B460A0001002000203026699E
S1132C70766CB047002819D16946097829706946ED
S1132C800978002912D01A4D297800290ED1A0689C
S1132C900069016DC9B2200020302269126A904790
S1132CA0002801D06C2076BD0121297076BD10B5B5
S1132CB082B014000C4A92681269126B002A00D088
S1132CC0012222706A464B4203218B435942FFF78B
S1132CD0C3FF002805D169460978002901D00021E5
S1132CE0217016BD00000000783300206B66656B10
S1132CF05E4A002038B505008E4844682034FFF74A
S1132D00A3FA002803D12072FF20963032BD694611
S1132D101020FEF72FFE002826D10098002804D1A9
S1132D2020686060C820400032BD8349884201D3D6
S1132D30481E0090206800994118491E61600121D5
S1132D402172002D0FD17D4DA8606068E86069464E
S1132D500320FEF70FFE0098286069460420FEF762
S1132D6009FE00986860002032BD70B504000D00B3
S1132D701600FFF769FA002802D1FF20963070BDD3
S1132D8032002900200001F03BF970BDF8B50D00B8
S1132D9014001E00FFF758FA0028694F02D1FF20E3
S1132DA09630F2BD002C36D0387800280DD1634817
S1132DB00068401E284002D0FF209230F2BD01205E
S1132DC038700020B8607D6002E0F868A8421DD128
S1132DD0B8685A49096802198A4203D20094291929
S1132DE0F96001E0091A0091009A31003818103096
S1132DF0FFF766FAB86800994018B86000996D1832
S1132E007618641A4D4909688842CBD100F02BF832
S1132E100028C7D0F2BD0020F2BD7CB50C0016001E
S1132E20FFF712FA002802D1FF20963076BDB508CC
S1132E30AD00B607B60F08E001AA0421200000F097
S1132E409AF80028F2D1241D2D1F002DF4D1002E54
S1132E5006D001AA3100200000F08DF80028E5D149
S1132E6000F001F876BDF8B500250026344C207832
S1132E7000281FD0A068314F3968884205D0FF224E
S1132E80091A20181030FFF7BBFD3A6821001031F1
S1132E906068FEF767FE06002570A5600AD13A68EF
S1132EA021001031606801F0C1F8002802D0FF2031
S1132EB09430F2BD3000F2BD70B50C001500FFF780
S1132EC0C3F9002802D1FF20963070BD1B48466824
S1132ED07042044069420840454201E0AD1BA41918
S1132EE0002D0DD02000FEF785FF002809D1310008
S1132EF0200000F027F80028F0D0FF20943070BDA7
S1132F00002070BD80B5FFF79FF9002802D1FF2093
S1132F10963002BDFEF724FF00280AD107498868CD
S1132F20C968091A491C00F00DF8002801D0FF20D7
S1132F30943002BD78330020010000088C4000204A
S1132F409C4000200322D2434B421340594202408A
S1132F500023DB4301E0121D091F002904D010687F
S1132F609842F8D0012070470020704780B50020B7
S1132F70FFF7C0FE02BD80B513000A000100002067
S1132F80FFF704FF02BD80B513000A000100002012
S1132F90FFF743FF02BD80B50A0001000020FFF7E0
S1132FA08BFF02BD10B504006068A168814211D294
S1132FB0401A6060A1669D482060E08A002805D020
S1132FC0210028312000383001F044F80120A060AD
S1132FD0002010BDB84810BD10B504000021A7485A
S1132FE001F038F81022616A20002830FFF768F9F0
S1132FF0220038321021606A01F052F8AF48206094
S1133000002010BD10B50400606A4289A282C26823
S1133010921E62604268AA4B9A4202D1017A022946
S113302001DBA84810BD22003832102101F038F825
S1133030A5482060002010BD10B582B00400606A6D
S11330404268A2610268D21EA26063689A4201D3F8
S11330509E4816BD0289002A0CD0E2824189C91E0D
S11330602166B049216038342200102101F018F89B
S1133070002016BD002069460870AB4A10002030BD
S113308012699269904768460078002801D0B648D2
S113309016BD2000FFF786FF16BD10B50400A0681A
S11330A0401EA060220038321021606A00F0F8FF50
S11330B0206E401E206601D1AC482060002010BD67
S11330C010B50400A068401EA060210028316B48A0
S11330D000F0C0FF220038321021606A01F017F8B6
S11330E02000FFF75FFF10BD70B504000026A5683F
S11330F06D1EA5601022616A383000F097FF002829
S113310002D1AD4820600BE0E08A401EE08200045A
S113311004D06D1EA5600120A06601E09E26B601C4
S1133120300070BD38B50400E08A002804D0626A1B
S11331301021100000F0EBFF7B4D626A216EE06D00
S11331402B689B68984700281DD12069A168491EF7
S1133150884204D3286800698047002813D11022CC
S1133160616A20001C3001F017F8694620001C3009
S113317001F028F80098616E884201D0B54832BD4C
S11331802A482060002032BD38B50400E08A0028B7
S113319004D0626A1021100000F0B9FF1022616AA5
S11331A020001C3000F0F8FF5F4D626A1021E06DD2
S11331B02B689B689847002820D1E06D1030E065AB
S11331C0206E10382066112801D3A34814E000288B
S11331D001D0A24810E028680069804700280DD17A
S11331E0694620001C3000F0EDFF0098616E8842B3
S11331F001D0984832BD0D482060002032BD10B582
S113320004001C3000F0C2FF206E112801D3924844
S113321000E092482060002010BD80B5426E016E2F
S1133220C06D414B1B68DB68984702BD05CFFF1F8B
S1133230F8B505005A20285A0105090FC00701D521
S1133240082600E00426EC6D042901D00420F2BD18
S113325000F03FFB344F330060352A002100380072
S113326020303C69646BA047040000F038FB002C5C
S113327001D02000F2BD0020F2BD00003445002042
S113328070B50400E56DB74E280000F0E2F900289F
S113329010D021001831606EA8470600012E03D11A
S11332A02000FFF77FFE70BD022E03D100F0D8F896
S11332B0002070BD300070BD782700004DCBFF1F8B
S11332C053544D507527000081CBFF1F7627000013
S11332D010B502005C325368011D4B600C689C42BF
S11332E001D2A14810BD137ADB0711D513684C69CC
S11332F0A3420DD15268002A0AD08A60498A002963
S113330004D001002831383000F0A4FE002010BDA4
S11333105A21415CC90701D5B54810BDFFF742FEEB
S113332010BD0000E3CBFF1F7833002002005A20B9
S1133330115A04208B0700D5704780B5CB070AD5F6
S11333400905090F02D1FFF76BFC02BD012909D160
S1133350FFF7D8FD02BD5C3251681068A54A1268B7
S11333605269904702BD00008127000031CCFF1F45
S113337038B5C46DA04965185A3000880005000F9F
S1133380012809D1200000F064F9002804D02800A5
S113339000F05FF9002801D1042032BD2000FEF7BF
S11333A0F7FE0400934D02D1286800688047A8689E
S11333B000694465200032BD09CCFF1FB0B505008B
S11333C02F0058375A24E88A002804D06A6A10214A
S11333D0100000F09CFE3800696A1022FEF784FF9A
S11333E00120395C6418401C1028FAD33878E1B203
S11333F0884201D08148B0BD594879780A2927D834
S113340001A2525C974400BF340C141C4A24342C8F
S11334104A3840002800FFF75BFFB0BD2800FFF7E3
S1133420EEFEB0BD2800FFF7F8FEB0BD2800FFF7A0
S113343027FFB0BD2800FFF779FFB0BD0020B0BD65
S11334402800FFF795FFB0BD2800FFF7F1FEB0BDDF
S11334506930B0BD7A270000D1CCFF1F6DCCFF1FAF
S113346070B5674C70212000FFF7FAFA65482060B8
S113347000F02FFA5F4C644D04232A003021200011
S113348020302669B66BB04704232A1D3121200061
S113349020302669B66BB04704232A000832322153
S11334A0200020302669B66BB04704232A000C3272
S11334B03321200020302469A46BA04700F00FFAC8
S11334C000200022D24381006958914202D1401C5D
S11334D00428F8D3042804D100200021002200236A
S11334E00FC5002070BDF2B50700002400200025A0
S11334F0464E00998D4219D010203169401A009926
S1133500491B0AE0002910D07A5D3369F2546D1C1E
S11335103269521C3261401E491E0028F2D13461C6
S113352000F005F8002801D1E3E73948F2BD80B581
S113353000203349354A4A62CA68002A05D00B691B
S113354093420BD05B1C0B6102E08A6E002A03D10C
S113355008000968884702BD521E8A6602BD000041
S1133560122700007F27000076270000F8B5214CC1
S1133570206800698047002839D1214D5920285CF2
S1133580042825D12E005C363768380000F061F835
S113359000281BD00020FFF701FA5A35287880074D
S11335A012D5706870616168103100280CD00A6807
S11335B0904203D34968491C814201D20420F2BDE0
S11335C080F3088880F30988B068B8471148F2BDD1
S11335D008280BD10220FFF7E1F9BFF34F8F0E4803
S11335E00E490860BFF34F8F00BFFDE70C48F2BDE2
S11335F07C27000078330020FF01000079270000B9
S1133600AC44002021CBFF1F34450020204500207E
S11336107D2700007E2700000400FA050CED00E081
S11336207B27000038B505000C000020FFF7B6F931
S11336309148046045600021904A1160016881F35B
S1133640088881F30988406880470020FFF7A6F9BD
S113365031BD10B582B0002806D00021C94388428C
S113366002D08749884201D1002016BD00246A4651
S1133670022101F046F8002804D10098007A0028BD
S113368000D00124200016BDF0B587B07D4CA068A1
S1133690076968377C4E350009E0397C014205D062
S11336A0686981692800EA68526890471835286873
S11336B00028F2D1002102AA03C26A4603C2FA20FA
S11336C08000FDF74AFD04AA03C2FDF7F9FF0028B4
S11336D034D1FFF7BEFF002830D0A06800698630DF
S11336E00078C00703D400210020FFF79BFF788AED
S11336F06649884200D166486C46002104AA0CCA77
S1133700FDF7FEFF03C4FDF722FD02AA03C26846CB
S113371003C8002901D1002810D0FDF718FD02AA22
S11337200CCA801A99416A460CCA994206D301D838
S1133730904203D300210020FFF774FF350000E01E
S1133740183528680028E2D0397C0142F8D02800D6
S1133750E968096888470028F2D0002DD7D009E02D
S1133760397C014205D0B54203D03000F168896844
S11337708847183630680028F2D1280007B0F0BD19
S113378030B583B000F09FF8FDF734FF3D4C2000C6
S11337902030216949688847A06800688047FDF7A0
S11337A0A9FC01F005F8002830D0A0680069983021
S11337B005686A460421200020302369DB6A9847A3
S11337C001AA0121200020302369DB6A98470020E8
S11337D0C043854215D00098A84212D201994018DE
S11337E02C494018A8420CD34942280000F0F1FFAC
S11337F0002806D12800FEF7CBFCFF219631884231
S113380002D10020FEF7C4FC00F0DCFF00F061F8F8
S1133810FDF797FC00F063F80020FEF739FDFDF793
S113382069FC206800688047A06840688047FFF70B
S11338302BFFE0610169002903D009680A0000D068
S11338408847E0694169002903D009680A0000D06B
S11338508847E0680068804737BD38B5FFF790FFB8
S1133860084CE569E06840688047E868C16808007A
S1133870F8D028008847F5E7783D002008ED00E0FF
S113388011A4FF1F7833002000AAFF1FFFFF0000D0
S11338908813000000FEFFFF7047000001607047BE
S11338A072B60168491C016062B601680029FCD146
S11338B00120704772B60168491E01E072B600210A
S11338C0016062B6704772B600200A49086062B6A9
S11338D0704772B607480168491C01607047054883
S11338E00168022900D2EAE70168491E01607047B5
S11338F000000000A03D002010B5002801D10420E4
S113390010BD794909680901090F0F2902D18022E4
S1133910920203E00BA24900515A8A02002101607D
S1133920426001228260D202C2609E4A930D1478E2
S1133930A3404361D2788261016101624162002047
S113394010BD0000080010001800200030004000E6
S113395060008000C0000001800100020003000438
S11339600006000038B5040001D1042032BD8E48A1
S11339708E4A10609E48814201D06B2032BD44E0E3
S1133980F8B58AB007000C00150001AA00F0CFFAC0
S1133990059B2A002100380000F0B2FA060023D16A
S11339A0019C0298009065196D1E28000099FDF78E
S11339B09BFD00290AD028000099FDF795FD451CC0
S11339C0009845436D1E01E000982418A54218D3C1
S11339D02002000A902109050143744801600A98F5
S11339E08349884203D06B2630000BB0F0BD380009
S11339F000F05DFA06003869010000D08047002E0F
S1133A00E2D0380000F06AFAEEE7200000F04FFA46
S1133A100500200000F062FA280032BDF1B588B03C
S1133A200D0014001F00002C01D1042039E06A4667
S1133A3000F07DFA039B3A002900089800F060FA30
S1133A4006002ED1009D02E003982D183F1A002F86
S1133A5023D0206855494860241D03992802000A90
S1133A60042905D1C021C90401435048016009E07B
S1133A70082907D121684D4A9160241DE021C90419
S1133A8001431160089800F012FA060008980069D2
S1133A90010000D08047002ED6D0089800F01EFA0E
S1133AA0300009B0F0BD70B5040001D0002A01D186
S1133AB0042070BD3D480D062D0A984E2E43066025
S1133AC015684560102902D01139032903D2082B47
S1133AD001D151688160200000F0E9F9050020005F
S1133AE000F0FCF9280070BD4C800440F1B588B0AA
S1133AF00D0014001F00002801D0002C01D1042067
S1133B004EE06A4600F013FA0698401E05421FD1A3
S1133B1038401DD1E919491E0EAA1278012A05D18F
S1133B20002D10D1791E07290DD10DE00EAA1278AF
S1133B30002A08D1FF2907D980221204954202D312
S1133B40994A914200D30420002829D1174E0DE050
S1133B50652025E071682160241D0699082902D199
S1133B60B1682160241D06996D187F1A002F17D0A3
S1133B708E4801002940C02292040A4332600EA9F3
S1133B800978090608430699042901D1B06002E0C6
S1133B90082900D17060089800F089F90028D9D06C
S1133BA009B0F0BD28000240FFFFFF4404000240BA
S1133BB0F8B50C0015001F00002801D0002D01D11C
S1133BC00420F2BD7A4E2106090A7A4A0A43326079
S1133BD000F06DF900280AD171682960102C02D018
S1133BE0113C032C03D2082F01D1B1686960F2BDE6
S1133BF06B66656B002801D0002901D10420704751
S1133C006D4800788207920F022A01D1002006E055
S1133C10C0220240802A01D1012000E00220087065
S1133C200020704710B5020001D0002901D1042002
S1133C3010BD0020604B1C78A407A40F022C1BD0DD
S1133C405E489B1C1860087800064C7824040443E2
S1133C50887800022043CC7804435C60087900062D
S1133C604C7924040443887900022043C979014330
S1133C709960100000F01BF910BD000080B5002809
S1133C8001D1042002BD0904744A85E0F9B589B064
S1133C900C00160001AA00F04AF9069B320021002C
S1133CA0099800F02DF9002836D101AA21000998BD
S1133CB000F03DF9019C03980090604200994A424B
S1133CC002405542A54205D16D1803E0F61BE419E4
S1133CD000982D18002E1ED0281B3700864200D9CC
S1133CE0070038000699FDF7FFFB2102090A80222C
S1133CF052040A432E490A600AA9097809020004F9
S1133D000843FF2101432A484160099800F0CFF895
S1133D100028DBD000E000200BB0F0BDFFFF004323
S1133D20F1B588B00C0016001D0001D1042031E06B
S1133D306A4600F0FCF8079B32002100089800F066
S1133D40DFF8002826D1009C194F05E00799761A60
S1133D508A089200AD186418002E1BD02002000AB5
S1133D6080218904014339600EA8007800060F49B8
S1133D70014379602868B860089800F098F8002832
S1133D80E4D00F99002900D00C601099002901D0CB
S1133D9000220A6009B0F0BD0A4305490A6000F038
S1133DA086F802BD0000000000048000FFFFFF0051
S1133DB004000240FFFF004102000240FFFFFF45F4
S1133DC0F9B585B00C001500002B01D1042043E0A7
S1133DD0042300F095F8029000283CD10026002727
S1133DE06019019005984069009001464842019984
S1133DF04A42024051422040081A0099FDF774FBE0
S1133E000390012509E03B4909682038CA43C240B0
S1133E102A4000D07F1C00982418019884420CD2B8
S1133E2020000099FDF760FB202802D2314949683F
S1133E30ECE7059989698842E5D3002F02D10698F9
S1133E40067008E00398874203D20220069908709E
S1133E5001E006980570029807B0F0BDFFFF00402E
S1133E60002801D0002A01D10420704709291CD858
S1133E7001A35B5C9F4400BF0A1212161A1E22267D
S1133E802A2EC0681060002070474068FAE78068F6
S1133E90F8E70068F6E70120F4E74069F2E7806993
S1133EA0F0E7006AEEE7406AECE76A2070471248E0
S1133EB0702101708021017002780A42FCD00078E0
S1133EC0810601D567207047C10601D56820704777
S1133ED0C00701D569207047002070470749096869
S1133EE08022D2000A4305490A60BFF36F8FBFF3F3
S1133EF04F8F704718000240000002400C3000F061
S1133F00002801D1042070475B1E194201D11340DF
S1133F1001D0652070470368994204D3406818189B
S1133F208918884201D2662070470020704770B516
S1133F3005000E001400002D01D1042070BD2021C5
S1133F402000FEF78DFD2868301A2060E868606064
S1133F506868A968FDF7C8FAA0600420E060082139
S1133F6021616161A061E061002070BD80B51448E9
S1133F701449086014491548421A1548884203D068
S1133F80002A01D0FEF79CF912481349091A01D0FE
S1133F90FEF764FD11481249091A01D0FEF75EFDCF
S1133FA010491148421A02D01048FEF789F901BDA0
S1133FB00020C0430E4908600E49086070470000A5
S1133FC000A0FF1F08ED00E03C2F00209C320020E1
S1133FD068330020203D0020604A00200038002083
S1133FE0203D00206833002068330020604A002010
S1133FF080E100E080E200E080B500F003FC02BD57
S113400080B513000A000100180003E080B5130016
S11340100A001900FEF754F9002002BD10B50C0087
S1134020110001232200FCF77FFC10BD10B402E054
S1134030401C491C521E002A09D00B7804789C426B
S1134040F6D002D20020C04302E0012000E00020AC
S113405010BC704770B50C004B4D002806D01022E0
S1134060010028001030FEF72BF906E0280010307C
S113407000210022002300264EC0002C05D010226F
S113408021002800FEF71CF905E000200021002291
S113409000230FC5103D1035280000F0EFFB70BD64
S11340A0F0B585B006001500080904900024364FC9
S11340B028E0102231006846FEF702F900983968BA
S11340C04140009101987968414001910298B96892
S11340D0414002910398F968414003916A463900CE
S11340E01031684600F0D4FB68460EC80EC701685C
S11340F039600C3F102269462800FEF7E1F81036BB
S11341001035641C04988442D3D305B0F0BDF0B5D7
S113411089B0040016000809049000251A4F2DE008
S11341201022210005A8FEF7CBF8102221006846D2
S1134130FEF7C6F86A4639001031684600F0B6FB4F
S11341400098396841400091019879684140019193
S11341500298B968414002910398F968414003917B
S113416005A80EC80EC7016839600C3F10226946C5
S11341703000FEF7A5F8103410366D1C0498854203
S1134180CED309B0F0BD0000803D00200021C9431A
S1134190016000214160704770B503684468A41849
S11341A0446000BF12A407E00E78491C1D021B0ED8
S11341B05E40B300E3586B4015006A1E002DF3D136
S11341C0036070BD30B502684368032423420BD0FA
S11341D004251C402B1B00BF05A41502120E9200DF
S11341E0A2586A405B1EF8D102600A6030BD00002C
S11341F000000000B71DC1046E3B8209D926430D9F
S1134200DC7604136B6BC517B24D861A0550471E36
S1134210B8ED08260FF0C922D6D68A2F61CB4B2BD6
S1134220649B0C35D386CD310AA08E3CBDBD4F387E
S113423070DB114CC7C6D0481EE09345A9FD52411E
S1134240ACAD155F1BB0D45BC2969756758B5652B6
S1134250C836196A7F2BD86EA60D9B6311105A6756
S113426014401D79A35DDC7D7A7B9F70CD665E74FE
S1134270E0B6239857ABE29C8E8DA191399060955E
S11342803CC0278B8BDDE68F52FBA582E5E6648676
S1134290585B2BBEEF46EABA3660A9B7817D68B396
S11342A0842D2FAD3330EEA9EA16ADA45D0B6CA0BE
S11342B0906D32D42770F3D0FE56B0DD494B71D9DE
S11342C04C1B36C7FB06F7C32220B4CE953D75CAF6
S11342D028803AF29F9DFBF646BBB8FBF1A679FF16
S11342E0F4F63EE143EBFFE59ACDBCE82DD07DEC3E
S11342F077708634C06D4730194B043DAE56C539CE
S1134300AB0682271C1B4323C53D002E7220C12A05
S1134310CF9D8E1278804F16A1A60C1B16BBCD1F05
S113432013EB8A01A4F64B057DD00808CACDC90C4D
S113433007AB9778B0B6567C69901571DE8DD4754D
S1134340DBDD936B6CC0526FB5E6116202FBD06685
S1134350BF469F5E085B5E5AD17D1D576660DC5385
S113436063309B4DD42D5A490D0B1944BA16D840CD
S113437097C6A5AC20DB64A8F9FD27A54EE0E6A10D
S11343804BB0A1BFFCAD60BB258B23B69296E2B2C5
S11343902F2BAD8A98366C8E41102F83F60DEE8745
S11343A0F35DA9994440689D9D662B902A7BEA940D
S11343B0E71DB4E0500075E4892636E93E3BF7ED8D
S11343C03B6BB0F38C7671F7555032FAE24DF3FE45
S11343D05FF0BCC6E8ED7DC231CB3ECF86D6FFCBC5
S11343E08386B8D5349B79D1EDBD3ADC5AA0FBD88D
S11343F0EEE00C6959FDCD6D80DB8E6037C64F64ED
S11344003296087A858BC97E5CAD8A73EBB04B77A4
S1134410560D044FE110C54B383686468F2B474264
S11344208A7B005C3D66C158E4408255535D43512C
S11344309E3B1D252926DC21F0009F2C471D5E286C
S1134440424D1936F550D8322C769B3F9B6B5A3B24
S113445026D6150391CBD40748ED970AFFF0560EE4
S1134460FAA011104DBDD014949B93192386521DAC
S11344700E562FF1B94BEEF5606DADF8D7706CFCAC
S1134480D2202BE2653DEAE6BC1BA9EB0B0668EFE4
S1134490B6BB27D701A6E6D3D880A5DE6F9D64DA24
S11344A06ACD23C4DDD0E2C004F6A1CDB3EB60C96C
S11344B07E8D3EBDC990FFB910B6BCB4A7AB7DB02C
S11344C0A2FB3AAE15E6FBAACCC0B8A77BDD79A364
S11344D0C660369B717DF79FA85BB4921F467596A4
S11344E01A163288AD0BF38C742DB081C3307185EC
S11344F099908A5D2E8D4B59F7AB085440B6C9503C
S113450045E68E4EF2FB4F4A2BDD0C479CC0CD4353
S1134510217D827B9660437F4F460072F85BC176B3
S1134520FD0B86684A16476C93300461242DC565DB
S1134530E94B9B115E565A1587701918306DD81CBB
S1134540353D9F0282205E065B061D0BEC1BDC0FD3
S113455051A69337E6BB52333F9D113E8880D03A33
S11345608DD097243ACD5620E3EB152D54F6D4295B
S11345707926A9C5CE3B68C1171D2BCCA000EAC87B
S1134580A550ADD6124D6CD2CB6B2FDF7C76EEDB13
S1134590C1CBA1E376D660E7AFF023EA18EDE2EEF3
S11345A01DBDA5F0AAA064F4738627F9C49BE6FD9B
S11345B009FDB889BEE0798D67C63A80D0DBFB84FB
S11345C0D58BBC9A62967D9EBBB03E930CADFF9793
S11345D0B110B0AF060D71ABDF2B32A66836F3A273
S11345E06D66B4BCDA7B75B8035D36B5B440F7B11B
S11345F070B582B004000E001500002E01D1002019
S113460076BD6A4600F07DF8002806D12A00310004
S11346102000009BDB685B68984776BD70B582B06C
S113462004000E001500002E01D1002076BD00F01C
S11346308DF8002801D05B4876BD6A463100200021
S113464000F05FF800280ED12A0031002000009B02
S1134650DB689B6898475449002802D1009AD268C5
S113466000E000220A6076BD38B504000D006A46F9
S113467000F047F8002815D10098C0684069002868
S113468001D1662032BD2900200000F05FF8002827
S113469001D0444832BD29002000009AD2685269F2
S11346A0904732BD002DFCD1002032BD70B582B0E0
S11346B004000E001500002E01D1002076BD00F08C
S11346C045F8002801D0374876BD6A4631002000FD
S11346D000F017F8002806D12A0031002000009BC2
S11346E0DB68DB68984776BD38B5002400202E4D82
S11346F02968002904D009690A0001D088472C6080
S113470032BD03002748002A00D1704770B5274CFA
S113471064681460002902D170BD103414601468F8
S1134720002C12D02568002D05D16668002E02D118
S1134730E668002E09D0AB42EFD365689D42ECD306
S11347405918491E8D4200D3002070BD70B5411820
S1134750491E0022154B9C682469D50064195834FD
S11347605D681601AD5966682468AC4201D1AE4259
S113477005D0864203D3A14201D3012070BD521C4F
S1134780022AE8D3002070BD10B50848446804E04C
S11347900068010000D080471034E0680028F7D199
S11347A010BD0000D8270000B03D00207833002061
S11347B00120704710480068C103C80F70470F48B4
S11347C0006870470D4908600D49896809694865A2
S11347D0704710B582B000226B461A70084C0A006C
S11347E00100200020302469646CA04768460078EA
S11347F0002800D0012016BD6C800440D033002076
S1134800783300201A4800680004000F401E0A286C
S11348102CD801A1095C8F440A5210141A1E2428B2
S11348202E5234008021890113E0802100E0C02150
S1134830C9010EE0802100E0C021090209E08021C5
S113484000E0C021490204E08021890201E08021C6
S1134850C902084840681030890880229205521A1B
S113486002604A005118044A8918416000207047C8
S11348700070044078330020FFFFFF1F10B50400D0
S1134880FFF798FF002802D0200000F033F810BD95
S113489070B504000D001600FFF78CFF002804D04B
S11348A032002900200000F02CF870BD70B504001F
S11348B00D001600FFF77EFF002804D03200290007
S11348C0200000F039F870BD70B50021FF221202FB
S11348D08B00C3181C6825061600264036022E439A
S11348E0250A15403543240E2C431C60491C042919
S11348F0EED370BD33480168802292020A430260FD
S11349007047F8B504000F0015002F4E0020C04377
S113491030643800FFF7D8FF2000FFF7D5FF2B489D
S11349203968016079684160B9688160F968C1607B
S11349301020B060264919E0F8B504000F001500F6
S1134940214E0020C04330643800FFF7BDFF200033
S1134950FFF7BAFF1D483968016079684160B9689A
S11349608160F968C1601020B0601A49316030611B
S11349700003B16C0143B164174922680A6062689C
S11349800A60A2680A60E2680A60B26C0240FCD065
S11349900A692A600A696A600A69AA600969E960A1
S11349A0B16C0843B0643800FFF78EFF2000FFF7B6
S11349B08BFFAC4202D02800FFF786FF0020306155
S11349C0F1BD00003880044000100540001205408D
S11349D00D0210000C021000E0170540012811D14F
S11349E009488022D205012906D108490A600168D4
S11349F010220A430260704705490A6001681022C8
S1134A0091430160704700BF9040024000E100E024
S1134A1080E100E0BFF34F8F034804490860BFF30F
S1134A204F8F00BFFDE700BF0400FA050CED00E066
S1134A30012811D1094880229205012906D108498B
S1134A400A60016880220A430260704705490A60CF
S1134A500168802291430160704700BF50400240CA
S1134A6000E100E080E100E0084A8000105889017C
S1134A704018016A002900D1704780B540680028B9
S1134A8003D0034909680858804701BDCC3300208E
S1134A9008ED00E080B5002101E080B5012100208F
S1134AA0FFF7E2FF01BD80B50221F8E780B50321DD
S1134AB0F5E7000030B5104A104B00280ED002284C
S1134AC001D00BD330BD0E4880246405012901D1E7
S1134AD01C6000E014600168016030BD012400BF67
S1134AE008A5285CC006C00E8440012901D11C60C1
S1134AF030BD146030BD000080E100E000E100E062
S1134B00104002400C0D250000210180704770B553
S1134B1003001D8800240EE0085D000268400500C3
S1134B2008206E002D0402D53500054E6E40350078
S1134B30401EF6D1641C9442EED31D8070BD00006B
S1134B402110000000880880704700004F49406829
S1134B50085C70474D498A68002A08D04A6813786F
S1134B600370521C4A608868401E886070470021A8
S1134B70017070475A2800D0704780B5434A01231A
S1134B805354434911615169884701BD80B53F4978
S1134B904969884701BD0000F0B585B004003B4D6C
S1134BA0696100BF43A0616889004758684600F006
S1134BB0F6F801266846067246723648E8603648BA
S1134BC0286102216068A26890476946380000F0B5
S1134BD099F83249380000F021F901216068FFF7A3
S1134BE0FDFE606828188670002005B0F0BD000046
S1134BF070B504006068254D29188978002910D003
S1134C002CA182008E580021FFF7E8FE300000F04E
S1134C10D1F800216068A268904700206168691893
S1134C20887070BD19484160826081680029FCD198
S1134C3000207047F0B583B0070000BF1DA0B90085
S1134C404058009004462C3420688021090508400F
S1134C5009D0216007E001A8E9688847684600791F
S1134C600099486326602068084D8026B6043040C9
S1134C70F1D12068310A084007D00098806B216088
S1134C803900C0B22A699047F3E7F7BDF833002032
S1134C90D5E6FF1F9DE6FF1FBDE6FF1F0000020AC9
S1134CA080B50020FFF7C6FF01BD80B50120FFF7E6
S1134CB0C1FF01BD00C0024000D00240010C4A4ABD
S1134CC089180A680123834013430B607047002945
S1134CD0016802D04E4A0A4002E08022D2010A430F
S1134CE002607047002100BF04A28B00D3588342A6
S1134CF002D0491C0229F8D30800704700C00240C2
S1134D0000D0024038B505000C00FFF7EBFF00BFF0
S1134D1036A180000858FFF7D1FF01212800FFF7D2
S1134D20D6FF286801210143296028684000400813
S1134D302860286837490140207B80070843A17B0D
S1134D4089060143607B00060843E17B0902C02217
S1134D5092000A4002432A6001220121280000F047
S1134D6049F8207880002818C1682B4A0A406168F5
S1134D70491ECB06F021C90519401143227A920637
S1134D808023DB041A400A43617A49065B08194010
S1134D901143C160286801218843286031BD002186
S1134DA00170082242600172417201734173817380
S1134DB0C173704738B50500012428682043286072
S1134DC000212800FFF783FF2800FFF78BFF00BFB7
S1134DD006A180000858010C034A89180A68844017
S1134DE0A2430A6031BD0000007004400C003C1076
S1134DF00D003C1010B503680C04FC21890321400C
S1134E00012A02D119430B0000E08B43036010BD5B
S1134E10FFBFFFFFFFCCFFBAFFFFFF808A0103D56E
S1134E20026B064B134003638A0303D5026B044BE6
S1134E3013400363026B114301637047FFFFFFFEDE
S1134E40FFFFFEFF010C164A89180A6801238340FC
S1134E5013430B607047010C114A89180A68012337
S1134E6083409A430A6070470029817803D08022E6
S1134E700A43827070474906490E817070470000EA
S1134E80002100BF04A28B00D358834202D0491CE6
S1134E900229F8D3080070470060064000700640FD
S1134EA0007004404022114202D083781A43827079
S1134EB02022114002D081790A4382717047010097
S1134EC0C8788A79520603D502008020C0011043B5
S1134ED08979C90603D50100802040010843704741
S1134EE038B505000C00FFF7CBFF264980000858B1
S1134EF0FFF7A8FFA07A002802D0022804D00DE012
S1134F00E0884000287009E0E0884000287020898B
S1134F104000E8716879082101436971A878FD218E
S1134F200140A078400008432178C9010143A970D9
S1134F3068796F2101402079000108436178C90133
S1134F400143DF200840E17849010143697131BD23
S1134F5010B500BF04000021FFF786FF2000FFF713
S1134F608FFF00BF08A180000858FFF774FF10BD31
S1134F700021817241708170C17001710121017041
S1134F8070470000D0EAFF1F0600341007003410F9
S1134F90002100BF04A28B00D358834202D0491CD5
S1134FA00329F8D30800704700400540005005402D
S1134FB000600540F6B585B00400086802900490CE
S1134FC00020039069468880042506980299694365
S1134FD0FCF78AFA86B2002E00D101260698290031
S1134FE07143FCF781FA0299471A00910698711CE3
S1134FF06943FCF779FA0099081AB84201D207000C
S1135000761C0498B84203D30497039568468680B7
S11350106D1C212DD9D308466421FCF765FA4100A3
S113502008180499884201D25E4867E02000FFF71F
S1135030AFFF00BF3FA180000858010C5A4A8918ED
S11350400A680123834013430B60A0685749014059
S1135050A16020680399091F042903D2010080205C
S113506080020843524901400398401E0006F8227A
S1135070520502400A4368468088C004C00C1043AD
S1135080206020684B4901402160A06810218843BA
S1135090A060A06803218843A060A06805990979ED
S11350A00143A160206844490140059840794003C8
S11350B0802292011040084320600598C0790004C2
S11350C0059989790143E161A06988210143A161BE
S11350D0A069C02109020143A161A0680599097A68
S11350E0002902D00100900108430599497A00295A
S11350F002D0010050010843A060002007B0F0BDB9
S113510080B5C169FF2212020A40FAD141684902FE
S1135110FCD500218160FFF73BFF800005A1085802
S1135120010C214A89180A68012383409A430A60C2
S113513001BD000014003810150038101600381096
S1135140E121490201600021017141718171C17144
S113515001724172704710B50A020368C024240228
S113516014401C4304608369C024A40014401C43FD
S113517084618268FF2399431143816010BD4168B3
S11351808069020CC32010400843704705E043685F
S11351901B02FCD50B78C360491C13005A1E002B5C
S11351A0F5D170472105000000700440FFFFF3FFB4
S11351B000E0FFE0FFFFFFDFFFDFFFFFF8B51500B2
S11351C0012601244348006802000C320023DB431B
S11351D0491E08294DD801A77F5CBF44082440809C
S11351E0804A80947C00696899420FD000290DD0D0
S11351F0D168012911DB4621415C01290DD1183008
S113520009E06968994201D0002901D10020F2BD6A
S1135210116116701430FEF74DFB002429E024219F
S11352202030FDF71DFC24E0A978002907D1E97896
S1135230002904D12978012901D1567019E06A683E
S113524029002030FDF73CF8224800686968C161F4
S113525006731430FEF72EFB0BE0052409E0002151
S11352601430FEF71BFB00211A4800681830FEF7C3
S113527015FB2000F2BD38B50C000020012C0DD127
S1135280144D28684622815424230200203202212E
S1135290806800F0C9F9296847310C7032BD0020DC
S11352A0002900D0704780B50A480068482142545C
S11352B02423020020320221806800F0B5F902BDE7
S11352C0044908600020704702490860002009680A
S11352D088607047A43D002010B513000120002B06
S11352E001D1032010BD00225A745A68002A06D046
S11352F01468220003D00A0001211800A04710BD41
S113530010B513000120002B01D1032010BD002291
S11353109A745A68002A06D01468220003D00A003E
S113532002211800A04710BDF0B585B00600002585
S1135330012071688968327B4B79934247D30968AD
S1135340002944D0D20089180839002200E0521CF8
S11353500B789A423BDA4B680C2454431B191C7893
S1135360032CF4D10021B77B00E0491C1A7A914246
S113537006DA5A680C0112191478BC42F5D11500EA
S1135380D9787173002D22D0B560002402AF08E0F3
S11353909248009001966A4602A9306800F06CFABF
S11353A0641C29798C4212DA00203871A000A968A3
S11353B0095CB970AA68121852883A80AA68101851
S11353C04078F870C8090128E2D18548E1E705B0C2
S11353D0F0BD38B504000120A16800290CD00025D7
S11353E006E08868A900415C206800F063FA6D1C3F
S11353F0A1680A799542F4DB32BD000070B584B02F
S1135400040015000120002D01D0002C01D103203F
S1135410C0E00026491E0529FAD802A2525C5200B7
S1135420974400BF570307172D4226736674A6746A
S1135430B0E061680029FBD0217B2A788A42F7D04A
S1135440002902D02000FFF7C4FF28782073A67338
S113545011E061680029EBD029880D00627B090402
S1135460090E8A420AD1A17BEDB28D4206D02000FA
S1135470FFF7AFFFA5732000FFF756FF8AE06168CE
S11354800029FBD0A1680029F8D0A26811798E42C6
S1135490F4DA29789268B300D25C914202D1206890
S11354A000F021FA761CF0E76168002972D0A16847
S11354B000296FD0A26811798E426BDA297892683C
S11354C0B300D25C914202D1206800F01AFA761C33
S11354D0F0E729680A78D206D20E012A5AD10A794D
S11354E0637B9A4256D120006A464B78012B0AD03E
S11354F0022B10D0032B16D0092B1DD00A2B38D029
S11355000B2B3DD045E04988090A11722968498866
S1135510517203211CE022000F32042163681B68CE
S113552098470F3406E022001032042163681B6898
S1135530984710346C602DE04988090A1172296873
S113554049885172297B00290AD0A968019109214F
S113555063681B689847009969600199A96019E01C
S113556069680091A9680191062163681B689847DE
S113557010E04988090AE1732A68921C072104E0B3
S11355804988217422001032082163681B689847F7
S113559000E0052004B070BDF8B50C00170000252C
S11355A00021104A14234B43D6183268002A04D031
S11355B0491C0129F5DB0220F2BD310000F053FA49
S11355C000280AD13068002801D10320F2BD74609C
S11355D03573FF20B0733E600020F2BD49EEFF1F1B
S11355E021EEFF1FA43A002010B5040001D10320CE
S11355F010BDFFF7EEFE0021216061602173A173ED
S113560010BD10B5002801D1032010BD0400607C3A
S1135610002801D0022010BD206800F011F90028F4
S113562001D10121617410BD10B5002801D10320FE
S113563010BD0400A07C002801D0022010BD206809
S113564000F006F9002801D10121A17410BD000069
S113565010B5040000F020FB002020608D34207081
S113566000F024FB002010BD38B5002801D1032030
S113567032BD4468002C08D000680D0602D5A46829
S1135680A04732BDE468A04732BD062032BD80B5D4
S1135690002801D1032002BD4368002B03D0006819
S11356A05B69984702BD062002BD3EB505000A7A33
S11356B013071B0FD4090120102A19D100220B2132
S11356C02800FFF7E4FF28008C30022181700024B9
S11356D004700020C1006918CC600C61401C1028C3
S11356E0F8D3002201212800AB68984700203EBD72
S11356F0082B11D25A001443E200AB18DA68002ACE
S11357000AD00868009048680190487A694608728F
S11357101A692800DB6898473EBD80B5002901D08E
S1135720002801D1032002BD8268002A01D1012092
S113573002BDFFF7BAFF02BDF7B50500002A01D18B
S11357400320FEBD00F0A8FA2A4E37008C373068DB
S1135750002806D079788D4203D100F0A7FA0125FC
S113576040E00224002803D000F0A0FA022539E02A
S11357707D7000F09BFA0198B0607D7000200021DC
S11357803970CA00B218D0601061491C1029F8D3CE
S1135790012D18D88AA07060174800280ED0174829
S11357A000280BD01648002808D01648002805D039
S11357B01548002802D01548002809D13000FFF709
S11357C047FF0720FEBD3000FFF742FF0620FEBD65
S11357D032003100280000F0B5FC050004D0300090
S11357E000F01CF82800FEBDBC7002980660002082
S11357F0FEBD0000143A00208DFCFF1F05FDFF1FB5
S11358003FFDFF1FB1FDFF1F6BFEFF1FBDFEFF1F0E
S113581080B500220021FFF73AFF02BD10B5040055
S113582001D1032010BD6168002904D020684968B3
S11358308847002060602000FFF70AFF002010BDA9
S113584010B50C07240F80212143FFF70DFF10BD75
S113585080B50907090FFFF707FF02BD80B50028CF
S113586001D1032002BD4268002A03D000681269F6
S1135870904702BD062002BD10B5002801D10320C7
S113588010BD002914D0002A12D08B781C07240FD5
S1135890DB09082C0CD264002343DB00C318146812
S11358A0DC6052681A610A000221FFF7F0FE10BDA5
S11358B0042010BD73B504000D072D0FCE09002C74
S11358C001D1032076BD01AA0321FFF7E0FE082DD4
S11358D007D269000E43F10061180022CA600A6110
S11358E076BD042076BD02B5694609780907090F1B
S11358F0082904D26A460421FFF7C9FE02BD042028
S113590002BD02B5694609780907090F082904D2BE
S11359106A460521FFF7BBFE02BD042002BD00005C
S113592058B503000120002A01D1042052BD1C00F7
S11359308C34891E06291AD801A6765CB74400BFA8
S1135940080C1E22101626000C210DE00D210BE080
S11359500020A17801E000202178117052BD0621B9
S113596002E0072100E009211800FFF790FE52BD74
S113597010B5030001201C008C34032906D006292D
S113598006D0072909D0092915D010BD0E2113E02E
S1135990002A14D00020117808E0A178032907D048
S11359A0002A0CD00020117821700321A17010BDB1
S11359B02200082100E00A211800FFF768FE10BD4C
S11359C08DFCFF1F05FDFF1F3FFDFF1FB1FDFF1FE6
S11359D06BFEFF1FBDFEFF1F70B5040000250026EF
S11359E000F05AF9864814217143401801680029CF
S11359F006D0817C8C4203D10560456085742EE01D
S1135A00761C012EEEDB13E070B505000C000026B9
S1135A1000F042F97A4814217143401801680029C2
S1135A2003D0817C8D4200D118E0761C012EF1DB7D
S1135A3000F03CF9042070BD70B505000C00002690
S1135A4000F02AF96E4814217143401801688D4210
S1135A5000D103E0761C012EF4DBE9E7206000F0BE
S1135A6025F9002070BD70B505000C00002600F07B
S1135A7013F963481421714340180168002904D0C4
S1135A80817C8D4201D10068E8E7761C012EF0DBB1
S1135A90CEE70000F7B50125002A04D06946FFF7D8
S1135AA0CBFF002801D00420FEBD002405E0521CD9
S1135AB0D2B2032A07D3641CE4B200984168087A7E
S1135AC0844219DA002208680C236343C01800BF1B
S1135AD065A316019B191E7B87683F79BE42E6D1F8
S1135AE0029A6946097940689B689847052804D05A
S1135AF00028E0D10025DEE72800FEBD70B582B0A5
S1135B0004000D0016006946FFF796FF002811D126
S1135B10012D08D10099200000F0DFFF009A022136
S1135B202000FFF7B7FF320029002000009B5B68CC
S1135B305B68984776BD0000F4B506000C000125AB
S1135B40002A04D0002C02D06068002801D104206F
S1135B50F2BD00F0A1F800202949142242438A181A
S1135B601368002B02D0927C964210D0401C01286E
S1135B70F3DB0020142242438F183A68002A09D02C
S1135B80401C0128F6DB00F091F8022513E000F038
S1135B908DF810E0BE7400F089F87C603A00194971
S1135BA03000FFF7C9FD050007D03868FFF736FE5F
S1135BB03000FFF711FF2800F2BD002517E0002494
S1135BC0786800680C216943411800BF26A02201AF
S1135BD08318886800791A7B904203D10A1D30002B
S1135BE01B689847641C032CEAD36D1CEDB27868DB
S1135BF0007A8542E3DB3868009908600020F2BD32
S1135C00003A002045F6FF1FF8B507006946FFF784
S1135C10FBFE040026D1002516E00026009840680B
S1135C2000680C21694340180FA132018918826869
S1135C3012790B7B9A4202D1406849688847761CE6
S1135C40032EEBD36D1CEDB200984068007A8542B8
S1135C50E3DB00980068FFF7E1FD040002D138009F
S1135C60FFF7BAFE2000F2BDE1F0FF1F31F1FF1F84
S1135C7045EFFF1F0100000025200020192100200E
S1135C803521002003000000000000000000000097
S1135C9000000000000000000A480178002900D13B
S1135CA072B60178491C01707047000005480178FC
S1135CB0002904D0491E0170C9B2002900D162B67E
S1135CC0704700001C3D0020F8B5040017000D00CB
S1135CD06E003E43FFF7E0FF30012018C26A8021C6
S1135CE0C9011143C162FA07D20E2B07DB0D082547
S1135CF06B4E676837401F431743490A29403943AD
S1135D00009F4F60C06A61680E4033431A43410AE2
S1135D100D40154306998905890940094022104020
S1135D200843882101432960FFF7C0FF09E180B5DA
S1135D30C16A08224B0A1340C3180C3303620023C0
S1135D4083624262574A0A40802189011143C16239
S1135D5008210091036A00220021FFF7B5FF01BD6D
S1135D60F8B5011DFF224B6888331A704B689433D1
S1135D701C78022525431D70002300244D689835A6
S1135D802C70474D2607F60D00960E682E40009F96
S1135D9037433B600F682F40009E3E43082737433C
S1135DA03B600F682F40009E3E43102737433B6003
S1135DB00F682F40009E3E43182737433B6066011F
S1135DC08619F3626600012737433E018619F362A0
S1135DD04E68A700F619C0363370641C082CD1D362
S1135DE090246400001903704C6894342578FD26CF
S1135DF02E4026704C688C34227089224C6884347E
S1135E0022704370486894300178DF220A4002709F
S1135E10F1BDF1B582B00C8888780207120FC3096E
S1135E2050001D00054390000090C448C978012922
S1135E3004D1411C8C420DD304000BE0412C00D34F
S1135E40402402998968009E8919C0310E7801277F
S1135E5037430F7002992D014919CE6AB84D354068
S1135E60CD62AD0AAD0220402843C8620D4C044007
S1135E70CC62CF482040C862002B01D0042000E04F
S1135E80082002998968009C0919C0310C782043C4
S1135E900870134302D10298FFF749FF0020FEBDAA
S1135EA000FEFFFFFFF7FFFF70B504000E07360F7B
S1135EB07000CD090543200000F033FAA068B1005A
S1135EC04018C0300021017028012018C16A890AD5
S1135ED08902C162002070BDF8B504000807000FF4
S1135EE0C90943000A001A431201A218D56AB04B2B
S1135EF02B40D362AF4D1D40D56200230E014501F6
S1135F0035436668760A76022E43DD072D0F354346
S1135F102E68760705D5D66AB605B609082737432D
S1135F202F605B1C022BE9D3A2688300D218C03215
S1135F301378FD251D401570014302D12000FFF7A1
S1135F40F6FEA06894300178DF220A400270002037
S1135F50F2BDF0B589B00500AA688032107C0F2329
S1135F6007090121C6080124344002948408012051
S1135F702040082414706A68540A64027A01224397
S1135F80029C24011443C20022431468A201920D0E
S1135F9000920022A40823400D2B01D1012600E029
S1135FA000267C00029B23431B061B0DEC18E36AAE
S1135FB09B0B0B405CD0002E03D090235B00EB18AE
S1135FC0D870029800283ED0A06A00994018A062B8
S1135FD0616A081A0190E16A802000014840E06289
S1135FE0802149014140E1620198002804D00098D1
S1135FF08905890D88421ED2A06A0690206A059000
S1136000E16A4F480840E06200998005800D8142B2
S11360101ED1002F1CD1606A902149006918C978EB
S1136020C9006918498A884212D2002300212868CD
S1136030FFF706FC1CE0019B226A802139432800FB
S113604000F0D9F814E00098384313D10692059271
S113605005A846720299C9013943017205A9286845
S1136060FFF75BFBA86894300178DF220A400270D6
S113607009B0F0BDE06A430B19401FD169684B0AAF
S11360805B0279011943400A082318400843406819
S11360900490206AA16A40180390049803998842E6
S11360A009D0002004E00499095C039B1954401CA6
S11360B000998842F7D3902040002A54A06A00999E
S11360C04018A062616A081A0190002F10D1002EB6
S11360D00ED08021280000F024F9E86A802109010B
S11360E00143E962E86B802109010143E96304E0AB
S11360F0E06A802109014140E162E16A80204001B7
S11361004840E062616A002907D00199002904D05F
S113611000998005800D814208D2A06A0690206A09
S11361200590E06A06490140E16291E7019B226A19
S11361303900280000F098F89AE70000FF030000F7
S1136140FFBFFFFF70B582B00D001600694600BFA7
S113615019A213680B60002827D1824C91214900B1
S113616060540098A060891C6118E161FF218030AF
S1136170017000220121200000F0FCF87A486060E0
S1136180000AA1689C3108706068000CA168B031F5
S113619008706068000EA168B43108702000FFF731
S11361A0DFFD34602560002076BD062076BD00004A
S11361B0FFFBFFFFFFF7FFFF00200740002801D18E
S11361C003207047FF218268803211708168843116
S11361D00A7800220A70836898331A7081689431AF
S11361E00A7080688021490040180178C0220A435F
S11361F0027000207047F1B582B01C0001200F2707
