S0180000746F7765725F626F6F746C6F616465722E7372656351
S1130000A000002011040000EB040000D52E000025
S1130010D72E0000D92E0000DB2E000000000000C7
S1130020000000000000000000000000EB040000DD
S1130030EB04000000000000EB0400002F0C0000A3
S113004027110000271100002711000027110000CC
S113005027110000271100002711000027110000BC
S113006027110000271100002711000027110000AC
S1130070271100002711000027110000271100009C
S1130080271100002711000027110000271100008C
S1130090271100002711000027110000271100007C
S11300A0934D0000974D0000F1300000F530000042
S11300B02711000027110000271100004D5B0000EC
S11300C027110000595B000027110000755B000038
S11300D0271100002711000027110000271100003C
S11300E0271100002711000027110000271100002C
S11300F0271100002711000027110000271100001C
S1130100271100002711000027110000271100000B
S1130110271100009371000027110000271100002F
S113012027110000271100002711000027110000EB
S11301302711000027110000271100005B0D0000AB
S113014027110000271100002711000027110000CB
S113015027110000271100002711000027110000BB
S113016027110000271100002711000027110000AB
S1130170271100002711000027110000271100009B
S1130400FFFFFFFFFFFFFFFFFFFFFFFFFEFFFFFFF9
S113041072B60E480E49886000220023002400258D
S113042000260027B846B946BA46BB46BC4609482A
S1130430854609488047094880470948804762B68D
S113044000200021074A9047FEE70000000000005A
S113045000ED00E0A0000020D15E0000F5270000C0
S11304603B280000152100000000000000000000EF
S1130470002A01D101207047F0B41F46034603242B
S11304802340002B09D00424E31A0170013008240E
S1130490E141521E26D05B1EF7D1042A1ADB13D089
S11304A0002F11D00C460D460E46102A02DB72C0F6
S11304B0103AFAE70C2A02DB32C00C3AFAE7082AAF
S11304C002DB12C0083AFAE7042A03DB01600430B5
S11304D0121FF9E7002A05D0017001300824E14118
S11304E0521EF7D1F0BC00207047FEE765120000F1
S11304F00000000077120000000000000D1300004F
S11305005B140000FB1200007F1300002F15000095
S113051000000000CD15000000000000B112000032
S1130520000000008B1200007F1300004315000040
S113053000000000AD150000000000001B120000C8
S113054000000000E51200000000000000000000B0
S113055000000000E1150000000000000716000084
S113056000000000431600005B14000000000000BF
S1130570000000000000000000000000000102462E
S113058051210000DF2100000000000001220000D2
S1130590872200003D2400006D240000CF240000C9
S11305A0DB24000063250000692600000000000031
S11305B00B230000F92300004D230000A5210000B7
S11305C0E72500000000000000000000000000001B
S11305D00000000000000000CD750000D775000089
S11305E0E17500000000000000000000B52F0000CD
S11305F0F72F00004F300000000000000000000052
S113060083300000ED1700001D1800005D18000085
S113061043190000000000007D1900009B4D0000FC
S1130620DB4D0000814E00000000000000000000CF
S1130630BD4E0000272D0000B12B0000D92B000077
S1130640552C0000912C0000152C000052656164AB
S1130650790D0A005472616E7366657272696E6711
S11306600D0A0000537563636573730D0A0000007F
S11306704661696C7572650D0A000000EB3C904D93
S11306805357494E342E310002010100022000FF6D
S11306907FF080000100010001000000FF7F0000E6
S11306A0000029313233344B696E65746973205507
S11306B053420000F0FFFFFFFFFFFFFFFFFFFFFFBC
S11306C0FFFF000046534C204C6F616465722008A4
S11306D00000000000000000000000602C42000048
S11306E000000000412E0066007300650076000FD4
S11306F000DA65006E0074007300640000000000FE
S1130700FFFFFFFF46534556454E7E312020201201
S1130710000000602C422C42000000602C420200C9
S11307200000000042650072005F0069006E000F67
S113073000A86400650078000000FFFFFFFF0000D0
S1130740FFFFFFFF012E006D006500740061000FC4
S113075000A864006100740061005F006E00000086
S1130760650076004D45544144417E3120202022CD
S1130770000000602C422C42000000602C4200006B
S113078000000000412E0054007200610073000F4D
S113079000256800650073000000FFFFFFFF0000F4
S11307A0FFFFFFFF5452415348457E312020202251
S11307B0000000602C422C42000000602C4200002B
S11307C00000000042200049006E0066006F000F28
S11307D0007272006D006100740069006F00000017
S11307E06E00000001530079007300740065000F6F
S11307F000726D00200056006F006C007500000050
S11308006D00650053595354454D7E312020201608
S1130810000000602C422C42000000602C420300C7
S113082000000000494E464F2020202054585420F8
S1130830000000602C422C42000000602C420500A5
S1130840010000005354415455532020545854205F
S1130850000000602C422C42000000602C42060084
S1130860010000002E2020202020202020202032E3
S1130870000000602C422C42000000602C42020068
S1130880000000002E2E20202020202020202010D8
S1130890000000602C422C42000000602C4200004A
S11308A0000000004E4F5F4C4F47202020202020A6
S11308B0080000602C422C42000000602C42000022
S11308C0000000007B0033003700320030003300AA
S11308D04200460038002D00460044003800330032
S11308E02D0034003300320031002D00410034006B
S11308F0430034002D00390041003900410042001A
S113090046003800460042004300460044007D0093
S1130910000000002E202020202020202020203233
S1130920000000602C422C42000000602C420300B6
S1130930000000002E2E2020202020202020201027
S1130940000000602C422C42000000602C42000099
S11309500000000042470075006900640000000FB9
S113096000FFFFFFFFFFFFFFFFFFFFFFFFFF000090
S1130970000000000149006E006400650078000F6B
S113098000FF6500720056006F006C0075000000E7
S11309906D006500494E444558457E312020202095
S11309A0000000602C422C42000000602C42040035
S11309B04D0000004B2B00004F2B0000612B00006A
S11309C09F2B000000000000000000000100000058
S11309D0010000009F0C0000580A0000680A000093
S11309E0700A00000200000001000000E30C000097
S11309F01C0600002C060000700A00000400000021
S1130A0001000000130D0000EC050000FC050000CF
S1130A10700A000010000000000000000000000048
S1130A208C0A0000000000009C0A00000000000086
S1130A3000000000000000000000000000000000B2
S1130A4000000000C5570000035800002D590000A5
S1130A50E559000038EAFF1F595A0000DD5A00002A
S1130A60F75A00000000000000000000315B0000A5
S1130A70BD5B0000C35B00002B5C0000C95C000090
S1130A80C15B0000D55C00009D5B0000E16D0000CF
S1130A90DF6E0000CF6F0000057000003B700000A7
S1130AA05F700000E77000007B7100008B71000034
S1130AB08F7100000000000038B504463D4D002051
S1130AC0C5E90000C5E90200C5E9040028626862BE
S1130AD0394800F0A0F8C5E906012046BDE83440D5
S1130AE00FF2550100F04AB900F05AB970B5314D12
S1130AF00C46296A072904BF696A88421AD100F0A2
S1130B0093F8C0EB0016D5E90001D5E902231018CB
S1130B10B6FBF0F00A2148434FF49661B0FBF1F0C4
S1130B20401D0A21B0FBF1F04FF496614843206068
S1130B30002070BD012070BD2DE9F843064600F089
S1130B405AF81C4F0446386AD7E904598846421CAF
S1130B50D7E90601651B68EB0909494502D82CBF92
S1130B60A8420122012A3A6206D0042A08D0052AA2
S1130B700ED0072A0FD018E0C7E900487E6214E0BF
S1130B80D7E90001201A68EB0101C7E900010CE074
S1130B90C7E9024809E0D7E90201201A68EB01011C
S1130BA0C7E90201304600F0FBF8C7E90448BDE894
S1130BB0F183000020E9FF1F803801001E48002156
S1130BC001606FF07F421D494A6000228A6007225B
S1130BD00A601B491B4A0968C900B1FBF2F101B95B
S1130BE001214160704715480168C908C9000160C6
S1130BF000218160704710490A68134800680B6837
S1130C00C0430002000A9A42F6D1002110EB0260B0
S1130C1051EB1221704708494968A1FB0001C00843
S1130C2040EA4170C90870470548006870470248A7
S1130C300168491C0160704724EAFF1F10E000E0CE
S1130C4024E1FF1F40420F0018E000E009010028E2
S1130C5006D55F4A00F00F00801800F8041C7047A6
S1130C605C4A8154704750F82130120423F47023F5
S1130C7002F470221A430FE050F82100C0F3006020
S1130C80704706E0120202F4E06242F0200203E040
S1130C9000BF120202F4E06240F8212070470128EC
S1130CA000D0704710B54C4C19B102290ED004D3B2
S1130CB010BD00206060206010BD4FF48070606043
S1130CC04648016821F00201016010BD03220121A0
S1130CD02046FFF7D6FF2046BDE81040032200213E
S1130CE0CFE7012800D0704710B53D4C11B102295F
S1130CF004D010BD0020A062E06210BD02220B21CE
S1130D002046FFF7BFFF2046BDE8104002220A211B
S1130D10B8E7012800D0704710B5324C11B1022950
S1130D2006D010BD002020616061A061E06110BDAB
S1130D30072204212046FFF7ABFF072205212046A6
S1130D40FFF7A6FF072206212046FFF7A1FF204652
S1130D50BDE81040072207219AE780B501211E480B
S1130D60FFF78AFF48B120484168080005D00120F8
S1130D7088471E494FF0FF30086001BD10B50128B7
S1130D800C460CD101213F20FFF760FF18494FF0BA
S1130D90004008600A2200F016F81348446010BDB1
S1130DA0012800D0704780B512494FF00040086018
S1130DB000213F20FFF74AFF002200F004F80A490F
S1130DC00020486001BD012103484CE700000000F9
S1130DD018ED00E000E400E000D0044014F10F40FE
S1130DE000B0044000C0044030EAFF1FA0D004401B
S1130DF004E100E084E100E0C16E11F1010F01BFE4
S1130E00016F11F1010F416F11F1010F02D042F690
S1130E10A20101E042F6A301C16270473EB5044657
S1130E200D46684600F050F804F10C004019001B10
S1130E306168A268051DA9423CBF5318984208D2B4
S1130E40421A684600F046F86068A1680818421B18
S1130E502946684600F03EF802A9684600F066F8A4
S1130E6002983EBD174838B581680D69E96A0124C6
S1130E7042F6A302914223D005F1680100248A6856
S1130E80DAB1496853428B4222BF406803689942F1
S1130E9021BF40685118491E88420ED34AF2C0311E
S1130EA005F16800FFF7BAFF696F884206BF0124A5
S1130EB042F6A00042F6A10001E042F6A400E86276
S1130EC0204632BD10E0FF1F4FF0FF3101600021CA
S1130ED041607047F0B585B004460D461646684635
S1130EE000F08CF801208DF80B00206801901B485D
S1130EF0009000208DF80A00ADF808007EB100F0E3
S1130F00C6F8174F6946384600F047F83246294676
S1130F10384600F078F83868019000F0BEF801987F
S1130F20206060683018606005B0F0BD38B50446D4
S1130F300D46207910F0030007D0694600220A60AC
S1130F40C0F104022046FFF7C5FF20682860054869
S1130F50016821F48021016031BD0000B71DC10486
S1130F60002003403C8004400B7A4A7A1B0703F0BC
S1130F70405343EA82728B7A42EA8362CB7A1B063D
S1130F8003F080731A4382600B68436042F000737D
S1130F9083604968016082607047E0B5164A13684F
S1130FA043F4802313600A7B002A0A6800924A688B
S1130FB001920DD14A7A02B102228DF808200A7AF0
S1130FC0002A14BF022203228DF809208A7A0AE03B
S1130FD000228DF808200A7A002A14BF0222032274
S1130FE08DF8092000228DF80A20C97A8DF80B109B
S1130FF06946FFF7B9FF07BD3C8004400FF2480182
S1131000102200F065B803E011F8013B0370521E92
S11310103AB111F00303F7D103E051F8043B036044
S1131020121F042AF9D2002A03E011F8013B0370CD
S1131030521EFAD1704701688068C0F3017002281B
S11310402CBF080C88B2704721100000FFFF00007D
S113105000000000000000000160704772B60168E3
S1131060491C016062B601680029FCD10120704767
S113107072B60168491E01E072B60021016062B6D1
S1131080704772B609490020086062B6704772B6AC
S113109006480168491C0160704704480168022938
S11310A000D2EAE70168491E0160704718EAFF1F91
S11310B062B38B0708D0521E11F8013B00F8013BC4
S11310C000F024808B07F6D1830740F0208000BF16
S11310D0103A07D330B4B1E83810103AA0E8381009
S11310E0F9D230BC530724BFB1E80810A0E80810B7
S11310F044BF51F8043B40F8043BD20724BF31F805
S1131100022B20F8022B44BF0B7803707047083A77
S113111007D3B1E80810083A40F8043B40F804CB80
S1131120F7D25307E4E7FEE7DFF83016C968C96869
S11311300020086070472DE9F041DFF8205682B0A6
S1131140E86900248DF801404669002E62D0E96800
S1131150C9680A68012A4CD001F1080274680023A6
S1131160091DA04704001FBF42F21270844242F2DC
S1131170137084424ED1E868C168D1F80880B8F190
S1131180000F47D04E68377837B1132F04DA8068E0
S113119000EBC700083800E00020086200281CBFEC
S11311A0006800281CD02A699269694605F120006C
S11311B09047040016D19DF8000040B14FF4E75069
S11311C0791EC840C00758BF42F211740AD5EA68B4
S11311D0D268126A1268414630469047002406E0FD
S11311E042F210743946204600F040FA94B90120C6
S11311F00DE0086A48B14168080003D00DF1010010
S1131200884704460CB1002001E09DF80100E9681C
S1131210C96808602046BDE8F68180B501780020E1
S113122000F024FADFF83405C06941690969884788
S1131230022000F09BFABFF34F8FDFF82405DFF89C
S11312402425016801F4E06111430160BFF34F8F6D
S113125000BFFDE7DFF80405C068C06814210C3046
S113126000F0B6BA10B5044600F0B0FBFFE72178F1
S1131270BDE81040FAE110B5DFF8E02412685269C5
S11312800446A16860689047F1E710B500F04AF899
S1131290DFF8C804C068C06861680161082101778B
S11312A00020217800F0E2F9BDE8104000F0A3BD71
S11312B030B583B0DFF8A444A56800210191009102
S11312C06B4681684068AD6801AAC9B2C0B2A8473C
S11312D0E268D2680021116100998A08019900F03E
S11312E0D9F937BD10B5DFF874249268D268044682
S11312F06068A168C0B29047B9E710B500F012F871
S113130000F012F8042101770020B0E710B500F0D6
S113131009F800F009F8032101770020A168BDE86D
S11313201040CEE1044695E7DFF83004C068C06899
S1131330A168016161684161704738B500F088F8BF
S1131340002141610161007F042804D128680069FB
S1131350804704B90446E868C068017F204600F06D
S113136085F942F21270844208D1E868C068007FAF
S1131370082804BFBDE8314000F07CBD31BD2DE933
S1131380FC4100F065F8016921B900202070FFF7E5
S1131390D4FF5AE0012121700669476900200090BA
S11313A00123E869D0F814C0DCF804C06A4601A936
S11313B0E0475FEA000805D0E8694169C9688847E1
S11313C0404603E0009830B942F21270FFF7B5FFCF
S11313D0002020703AE0B04288BF30460090E868B0
S11313E0C068017F082913D10199C1600099816106
S11313F00198009900F009FD804642F27D70804515
S11314001CBF42F2747080450BD14FF0000808E015
S11314102B68019A00999B68384698478046009843
S1131420C7190098361A06D0B8F1000F09D0E86938
S11314304169C96888474046FFF77FFF0020207054
S113144003E0E868C068066147610020BDE8F681F2
S1131450C24D0446E868C06870472DE9F047BF4DA7
S11314608AB00446E868C068016921B90020207088
S1131470FFF763FF57E00121217006694769C168DE
S1131480027F212E2CBF4FF02008B046A9B142465E
S113149001A8FFF70DFEE869D0F814C0DCF808C015
S11314A00123424601A9E047A6EB080606B1B0B302
S11314B0FFF743FF0020207035E0032A08EB0709FB
S11314C007D12B685B6801AA414638469847824693
S11314D014E0102A18BF4F46DDD190F81DA0FFF785
S11314E0D6FD39462F69CDF800A04346FF6B01AA0B
S11314F005F12000B8478246FFF7CFFDBAF1000F8F
S11315004F46C8D0E8694569AD680123002201A9A6
S1131510A8475046FFF711FF0020207004E0E86858
S1131520C0680661476100200AB0BDE8F08710B5C5
S11315308A4B1B68DB680446E268A16860689847C8
S113154095E62DE9F0410546874C6E68D5F808808C
S1131550E8688249206000274968103130B10A6880
S1131560904223BF4968491C81420427304600F059
S1131570F2FC00B904272978384600F077F89FB9BF
S11315806660002000F0F2F82068C4F8088018B102
S113159080F3088880F30988616840468847BDE87D
S11315A0F041002000F0E2B8BDE8F08138B504460F
S11315B0606800F0D0FC08B9042005E065680120EB
S11315C000F0D4F8A068A847217819E0634A10B560
S11315D0044602F120001269D269211D904746E6B3
S11315E038B55E4D0446FFF752FD00F024F86D6BEC
S11315F004F10C02A8470546FFF74FFD2178284661
S1131600BDE8344032E030B583B00446684600217A
S1131610002206C0514DFFF73AFD00F00CF8AD6B07
S11316206A46A8470546FFF738FDA268694628467A
S113163000F04BF837BD05F120002D69A3686168FF
S1131640704710B5FFF76EFE4448C168C968A268C8
S11316500A6162684A6110220A77C068C068E1685A
S113166041770020A168BDE810405BE010B584B06C
S1131670A02201908DF80020002200F06AF88DF875
S11316800220029102228DF8032000234469A468F9
S11316900C225BE010B588B0A72300F03AF80020D4
S11316A0531C8DF8033006E06C4651F8203004EBEF
S11316B08004401CA3609042F6D300F021F800237C
S11316C01AE010B584B0A3222FE010B588B0AF2380
S11316D000F01FF802238DF8033040B99008801CF5
S11316E08DF80300029203A8FFF7F2FC01E000204A
S11316F00290002300F004F86946A04708B010BD2A
S11317001648C0699DF803104469A46889000A1D3D
S113171070478DF80030019000238DF801308DF86A
S11317200230704710B584B0B0228DF800200190CB
S1131730012200F00EF8029100228DF8022000230D
S113174002228DF803200C224469A4686946A0474C
S11317501FBD0248C0698DF80120704710E0FF1FCB
S11317600CED00E00400FA056CE9FF1F70B50446B7
S1131770022C04D0002000F0B6FF012C0ED000266D
S1131780114D06E04019C16889680A0018BF8847EE
S1131790761C1820704341590029F3D174B9FFF71E
S11317A076FCFFF720FA01F048F8084900200860A9
S11317B0012001F073F801F038F962B6BFF36F8FBE
S11317C0BFF34F8F70BD00BFCC09000008ED00E0EF
S11317D0002201F0A1B90268531C03601170704724
S11317E0C449EFF31080486072B6704738B5C24DF3
S11317F02B696C68DB6A2246042105F120009847B6
S11318002B69DB6A6A46012105F1200098472068AC
S113181000990818401E6060002032BDF8B5B64F2C
S11318200446786B0D464042164600EA0401621AEB
S1131830AA1852421040424207F120003F697F6CCF
S11318406B46B84748B99DF8000008B16C20F2BD5A
S113185032462946204601F07AF9F2BD2DE9F04FCF
S113186089B0924680460C4603AA00F01CF9060093
S11318705BD1A708BF00E41B4FF0FF300690079030
S113188005D0224607EB0A0106A8FFF711FCFFF773
S1131890A7FF07EB0809984D4FB12E6976693B46BF
S11318A05246414605F12000B047060009D144B133
S11318B02E697669042306AA494605F12000B0473B
S11318C00646DFF830B2DBF8040080F3108866BB0C
S11318D09DF80C0058B3FFF783FF87B104A802906A
S11318E0414605A80190534600F025F83A462E6972
S11318F0D6F8288005F12000C047060010D17CB13D
S113190004A8029006AB05A80190082200F013F881
S113191049462C69D4F8288005F12000C0470646C2
S1131920DBF8040080F310880EB1304600E000209C
S113193009B0BDE8F08FA8680069006DC0B20090DE
S1131940704770B5044688B00D4600204DF820203D
S1131950401C0828FAD375B12026202D98BF2E46A6
S11319606A4631462046FFF779FF002804BF341940
S1131970AD1BF0D000E0002008B070BDF8B50446FF
S11319800D46FFF72DFF5C4E5C4B37693F692A46D5
S1131990214606F12000B847564F796881F3108834
S11319A098B9B1680969096B79B1FFF719FFB06893
S11319B00069036D21463469646ADBB22A4606F184
S11319C02000A047796881F31088F2BDF8B54A4C2D
S11319D0A16809696668326801F1580589692B684C
S11319E000204F4293421ED16968914225D1FFF7EE
S11319F0F7FE2269414992683E4D04F12000904768
S1131A00696881F3108868B9A1680969096B39B1FB
S1131A10FFF7E6FE00F03EF8696881F3108808B924
S1131A2001212970F2BD9A4207D217EA030104D0BA
S1131A301046FFF7A3FF0028F4D1696849423940F2
S1131A404A4271688A42EDD2481C811A1046BDE8A8
S1131A50F44093E770B5154682B000222A700A4616
S1131A60254C2669766C01466B4604F12000B0478C
S1131A7078B99DF8001029709DF8001049B11D4DEA
S1131A80297831B900F006F808B16C2076BD01213F
S1131A90297076BDA06800692269016D126AC9B215
S1131AA004F12000104770B50546134882B08068E1
S1131AB00069006B0E46144600B101202070FFF748
S1131AC08FFE70428008800041426A462846FFF734
S1131AD0C1FF0849496810B181F3108876BD81F3CC
S1131AE010889DF8000008B100202070002076BD09
S1131AF00000000008EAFF1F10E0FF1F6B66656B23
S1131B00416882688A4209D2891A416082660FF26A
S1131B1061210160012181600020704742F27870E8
S1131B2070470FF2050113E0416ADFF8D4334A89A4
S1131B308282CA68921E42604A689A4202D1097A35
S1131B40022902DB42F2757070470FF20D0100BFEB
S1131B50016000207047000010B5044682B0606A3E
S1131B6041686268A1610168C91E9142A16002D303
S1131B7042F2767016BD008910B142F2777016BD3C
S1131B808DF800006946DFF87C2302F12000126919
S1131B90926990479DF8000010B142F2817016BD21
S1131BA02046FFF7ADFF16BD38B5DFF858532B6854
S1131BB09B680446626A216EE06D9847A8B9A168E3
S1131BC02069491E884203D328680069804760B9A8
S1131BD000F03AF800F033F80098616E884200D0C3
S1131BE038E00FF28D102060002032BD38B5044675
S1131BF0C44D00F029F82B68626AE06D9B681021DF
S1131C009847D8B9E06D1030E065206E1038206632
S1131C10112828BFBC480FD208B1BC480CE0286882
S1131C200069804750B900F00AF80098616E884254
S1131C3000D00FE00FF239102060002032BD694659
S1131C4004F11C00FFF772B9616A102204F11C0050
S1131C50FFF740B942F27A7032BD10B5044604F180
S1131C601C00FFF731F9206E11282CBFA648A748A5
S1131C70C8E0A44B1B68426E016EC06DDB68184758
S1131C80F8B50446B4F85A00C0F30321C0074CBFAA
S1131C9008250425E66D042901D00420F2BDFFF7D0
S1131CA0F6F904F16002974F3C69646B2B463146A8
S1131CB007F12000A0470446FFF7EFF9002C14BFFA
S1131CC020460020F2BD70B5044642F27F76E56DF1
S1131CD0284600F040F980B1606E04F11801A8476D
S1131CE00646012E03D12046BDE8704008E7022EC7
S1131CF003D100F080F8002070BD304670BD10B5EF
S1131D0000F15C01031D1C684A685A60944202D2C7
S1131D1042F2767010BD0A7AD20708D50A685C6967
S1131D20A24204D1496811B19960002010BD90F815
S1131D305A10C9075CBFBDE81040FFF7E1BE42F28C
S1131D407C7010BDB0F85A108A0707D4CA0707D5AB
S1131D50C1F30320002808BFFFF738BE04207047F2
S1131D60684A126852695C30416800681047000094
S1131D7070B5044604F15805616A28461022FFF73D
S1131D80A7F95A260120415D7618401C1028FAD381
S1131D902878F1B2884202D042F2797070BD697835
S1131DA00A2942F2127023D8DFE801F01A060A0E5B
S1131DB024121A16241C1E002046BDE870409EE71B
S1131DC02046BDE8704048E72046BDE8704050E733
S1131DD02046BDE8704076E72046BDE87040B1E794
S1131DE0002070BD042070BD2046BDE8704047E768
S1131DF042F27B7070BD10B5454C70212046FFF750
S1131E00E7FC44482060002010BDF8B504460D46A8
S1131E1000200026404FAE4217D03869C0F11000B0
S1131E20A91B09E079B13B69325DDA55761C3A6940
S1131E30521C3A61401E491E0028F3D1386100F05B
S1131E4005F810B9E7E742F27D70F2BD3049324A35
S1131E504A620020CA682AB10B69934209D0581C0F
S1131E60086101E08A6E12B9084609680847521EE3
S1131E708A667047F8B5234C2068006980470028BB
S1131E803DD1234F97F85900042824D107F15C056C
S1131E902E68304600F05FF8D0B10020FFF766FCF2
S1131EA097F85A00800711D5686868616168103135
S1131EB060B10A68904222BF4968491C814201D23C
S1131EC00420F2BD80F3088880F30988A868B0472D
S1131ED042F27E70F2BD08280FD10220FFF746FCC3
S1131EE0BFF34F8F0D480E4A016801F4E0611143BE
S1131EF00160BFF34F8F00BFFDE742F27B70F2BD7C
S1131F0053544D5010E0FF1FED1B0000A91B0000AF
S1131F10F4EAFF1F231B000068EBFF1F0CED00E039
S1131F200400FA0538B504460D460020FFF71EFCF0
S1131F308048814A056044604FF420411160016883
S1131F4081F3088881F3098840688047BDE83240FE
S1131F500020FFF70BBC10B582B000281EBF10F1A3
S1131F60010F7649884201D1002016BD6A4602213C
S1131F7000F09AFE002418B90098007A00B10124F8
S1131F80204616BD2DE9F04F6D4E6E4F85B0B068FA
S1131F900069683000903D460AE00099097C0142DE
S1131FA005D06869EA6881695268284690471835FF
S1131FB028680028F1D10024A246CDE9024A4FF452
S1131FC07A70FEF728FE05468B460821002000F0B3
S1131FD0BBFE30B94FF42040D0F80480D0F8009014
S1131FE001E0A046A14600F060FD002838D140463B
S1131FF0FFF7B1FFA0B3FEF735FF88B3B0680069FF
S113200090F88600C00703D449464046FFF78AFF8C
S11320100098408A4FF6FF71884208BF41F2883029
S1132020A5FB00230BFB0033CDE90223FEF7E3FD00
S113203004468A46DDE90201002908BF00280FD0C2
S1132040FEF7D9FDDDE90223001B61EB0A01994289
S113205006D301D8904203D349464046FFF762FFB6
S11320603D4600E0183528680028E3D00099097C33
S11320700142F7D0E9680968284688470028F1D06A
S1132080002DD7D00AE00099097C014218BFBD4257
S113209003D0F968896838468847183738680028B3
S11320A0F1D1284605B0BDE8F08F10B5FEF7E9FF81
S11320B000F0ACFC224C2169496804F120008847F7
S11320C021692148E06304F12000096C8847A06875
S11320D000688047002000F0E1FBFEF76FFD2068F8
S11320E000688047A06840688047FFF74BFFE061C5
S11320F0016919B109680A0018BF8847E069416994
S113210019B109680A0018BF8847E0680068BDE88B
S11321101040004738B5FFF7C8FF094CE569E0688F
S113212040688047E868C1680800F8D028468847B6
S1132130F5E7000078E9FF1F08ED00E01104000056
S113214010E0FF1FCC09000064E0FF1F704700008F
S113215008B904207047DFF8A8150968090E01F0D2
S11321600F010F290FBF4FF400310FF2686232F8EC
S1132170111089020022026041604FF48072012133
S113218081604FF40061C160DFF8781591F9003087
S11321909A404261C9788161002101610162416212
S11321A00020704770B508B9042070BDC4690FF2EF
S11321B0046165680C222846FEF77AFFDFF848655B
S11321C00FF2FC51681C30601422A5682846FEF703
S11321D06FFF681C706002202060002070BD38B55D
S11321E0040001D1042032BDDFF820256FF03B400C
S11321F01060DFF81C05814201D06B2032BD38E04D
S11322002DE9F04389B0164680460D4600F0E3F907
S1132210049B00F0DCF904001BD1009D019F7019A0
S1132220461EB6FBF7F007FB106121B1401C784352
S1132230461E00E07D19AE4217D32802000ADFF8DB
S1132240CC1440F010600860DFF8C404814502D06B
S11322506B24204656E000F082F90446D8F81000BA
S1132260010018BF8047002CE4D0404600F03BFA40
S1132270EFE7204600F01DFA00F002F8284632BDD0
S1132280054620462FE22DE9F04389B004465FEA73
S113229002080F461D4608BF042033D000F09CF905
S11322A0039B2A463946204600F050FA5FEA0009AB
S11322B028D1009FDFF8546402E00398C7192D1A4F
S11322C0EDB158F8040B706039020398090A042828
S11322D008BF41F0C06006D0082805D158F8040BA7
S11322E0B06041F0E0603060204600F0E2F98146E1
S11322F02069010018BF8047B9F1000FDDD0FFF756
S1132300C0FF484609B0BDE8F08370B5040018BFAB
S1132310002A01D1042070BDDFF8F003DFF8F46374
S1132320CDB246EA0545056010291568456002D01E
S11323301139032903D2082B04BF51688160204658
S113234000F0B7F9FFF79CFF284670BD2DE9F04374
S113235089B05FEA0008914614BFB9F1000F042068
S11323600E461D4647D000F037F90698401E064237
S113237008BF05421AD1A919109C0020491E012C3E
S113238005D1002E04BF691E07290AD10AE044B909
S1132390FF2907D9B6F5000F03D3DFF87C23914258
S11323A000D3042038BBDFF864730DE0652022E01D
S11323B0796849F8041B0699082904BFB96849F8E3
S11323C0041B06998E196D1AADB13002000A40F053
S11323D0407038602006069940F0FF1040F47F40BA
S11323E0042908BFB86002D0082908BF786000F04B
S11323F0B6F80028DCD085E7F8B51546002818BFE4
S1132400002D0C461E4601D10420F2BDDFF8FC72FB
S1132410DFF80823E1B242EA0141396000F049F9EA
S113242058B979682960102C03D0A4F1110103294B
S113243003D2082E04BFB9686960F2BD002818BF32
S1132440002901D104207047DFF8D402007800F09D
S11324500302022A08BF002005D000F0C000802833
S11324600CBF0120022008700020704710B50A46F6
S1132470002818BF002A01D1042010BDDFF8A032C3
S11324801C78002104F00304022C1ED06FF03A41A2
S1132490C3F8021054781178240444EA0161947852
S11324A041EA0421D4782143C3F806105479117900
S11324B0240444EA01619479D27941EA0421114364
S11324C0C3F80A1000F0F5F80146084610BD08B933
S11324D004207047DFF84C2280E02DE9F04F89B0EA
S11324E0924680460C4600F076F8059B52462146FB
S11324F0404600F02BF978BB6A462146404600F07E
S11325003AF9009C029E6042714208404542A5424D
S113251008BF75197D4F03E0AAEB0B0A5C447519DB
S1132520BAF1000F17D0281BD346824588BF8346D3
S11325300598BBFBF0F02102090A000441F0807108
S113254040EA0920396040F0FF00786000F007F8A5
S11325500028E1D000E0002009B0BDE8F08F40463B
S1132560A7E02DE9F04389B080465FEA03090D46F0
S1132570164608BF042029D000F02EF8079B00F06F
S113258026F818BB009D109C604F05E007998A0847
S1132590761A09EB82094D19C6B12802000A40F0E7
S11325A000703860200640F0FF1040F47F407860EF
S11325B0D9F80000B860FFF7D2FF0028E6D01199DF
S11325C001B10D60129909B100220A609AE63246FF
S11325D029464046BAE099466A46CCE042EA0141BF
S11325E04A4A116065E02DE9F04180461E000D461F
S11325F0174608BF042034D0042300F0A7F880BB9A
S1132600D8F814307A195F42C2F1000C07EA0C0CB6
S1132610CCF1000C2F40ACEB07070021B7FBF3F71C
S1132620DFF804C10AE0DCF800E0203C6FEA0E0E9B
S11326302EFA04F4E40748BF491C5D1995420AD2F6
S1132640B5FBF3F4202C38BFDCF804E0EED3D8F863
S113265018E07445E7D319B1B94234BF022101210E
S11326603170BDE8F0810000002818BF002A01D1B4
S11326700420704709291AD8DFE801F00509090B7D
S11326800D0F11131517C0681060002070474068C3
S1132690FAE78068F8E70068F6E70120F4E74069A4
S11326A0F2E78069F0E7006AEEE7406AECE76A2047
S11326B0704710B51D4C7021217000F03BF888B9AB
S11326C011490968204688472078810601D567208A
S11326D010BDC10601D5682010BDC00701D5692011
S11326E010BD002010BD38B50400200000F022F811
S11326F00500002D03D10E4803494968884731BDC0
S11327004C8004402800024010EAFF1F04000240ED
S11327106B66656BFFFF004300048000FFFF004110
S113272002000240FFFF0040180002400000024087
S113273004F0014008B904207047C06920B1006862
S1132740022801D1002070476D20704708B9042089
S113275070475B1E194208BF1A4201D065207047BA
S11327600368994221BF4068C0185118884234BF99
S113277066200020704770B505000E46144601D14E
S1132780042070BD20212046FFF722F82868301A63
S11327902060E8686060A9686868B0FBF1F0A06038
S11327A00420E0600820206160610420A061E061F1
S11327B0002070BD8021017002780A42FCD070476D
S11327C00168F02212040A430260BFF36F8FBFF363
S11327D04F8F7047080010001800200030004000A0
S11327E060008000C00000018001000200030004BA
S11327F00006000080B51B491B4808601B491C48A3
S1132800421A1C4888421CBF002AFEF751FC1A4891
S11328101A49091A18BF00F0ADFA19481949091ADA
S113282018BF00F0A7FA18491848421A04D0BDE8A6
S113283008401748FEF73CBC01BD16484FF0FF3175
S1132840016041608160C160016141618161C16178
S11328501148016041608160C16001614161816131
S1132860C161704708ED00E0000000004072000004
S11328708475000000E0FF1F20E9FF1FA0F0FF1F88
S113288000E4FF1F20E9FF1F58760000587600007F
S1132890A0F0FF1F80E100E080E200E0F8B5514CB9
S11328A0514D0100207861D1296861604F498968E0
S11328B0096901F16802117C167F090906F0010615
S11328C001F0010383F001073E42494908D02A6818
S11328D0120F4FF0A070521CB0FBF2F00860F1BD73
S11328E0527FD24302F00F02521C0BB906E0521E73
S11328F0404B414EB3FBF2F3B342F8D33D4B3F4E52
S1132900B3FBF2F3B34228BF521CF7D21646174664
S113291000E0761CDFF8DCC0DFF8E4E0BCFBF6FC8A
S1132920F445F6D2DFF8CCC0DFF8D8E0BCFBF7FC06
S1132930F44528BF7F1CF5D2012A03D1092E38BFE4
S1132940092F1AD2761E3606521E06F0706646EA23
S113295002727E1E360406F4702632432A600B602F
S1132960012100F00BF801202070F1BD012904D1F0
S1132970002100F003F860682860F1BD884230D07F
S1132980012921481BD1417801F0CF0141F02001F8
S11329904170017801F0C30141F030010170C17848
S11329A001F09F0141F02001C170017B01F0FC01A5
S11329B041F0020101738179C906FCD4704781B9E1
S11329C0017841F0040101708179C906FCD5042124
S11329D0017080214170C17801F06001C170002153
S11329E00173704700EAFF1F4480044010E0FF1F9A
S11329F024E1FF1F006CDC02002D310101A24A0416
S1132A0081F0FA0241787D010040064080B500F073
S1132A10B5F93348334A416B41F478514163016855
S1132A201140314A1143016001BD2D482F4A416BC9
S1132A3021F47851416301681140016070472848CE
S1132A40016B41F480210163016B490301D400202F
S1132A50704727490A7842F080020A700A78120601
S1132A60FCD4016841F4E02101602248017841F07E
S1132A7080010170017941F0020101710120704768
S1132A801D481E4900680968C0F30360401CB1FB7F
S1132A90F0F0704710B1012802D004E018487047E4
S1132AA0164800687047002070471648016841F4D2
S1132AB08071016014494A6822F080024A60026809
S1132AC042F01302026000204FF4FA720B68C3F361
S1132AD0C0131818521EF9D1FA288041C00F70474C
S1132AE004800440FFFFFCF300000304FFFFF8F33D
S1132AF00C210740402107404480044024E1FF1F8B
S1132B00006CDC021CB0044090F00F4070470000E1
S1132B1062F30F2262F31F4200B500BF1300964612
S1132B209446103928BFA0E80C50FAD85FEA417CDB
S1132B3028BF0CC048BF40F8042BC90728BF20F8A1
S1132B40022B48BF00F8012B00BD00F02FB913463B
S1132B5080B50A4601461846FEF7AAFA002002BDCF
S1132B6070B510F0030F0C46154612D0B0F1005F9B
S1132B700FD22118491EB1F1005F0AD3C0F10056EB
S1132B8032462946FEF794FAA21B71194FF0005001
S1132B9001E022462946FEF78BFA002070BD10B5ED
S1132BA014460A462146BDE810400123FDF760BCE7
S1132BB070B50D0082B00446164601D1002076BDE2
S1132BC06A4600F071F830B9009BDB685B683246F6
S1132BD029462046984776BD70B50D0082B004465C
S1132BE0164601D1002076BD00F07FF800B14CE01C
S1132BF000F047F868B9009BDB689B6832462946B9
S1132C00204698474E49002806BF009AD268002201
S1132C100A6076BD38B504460D466A4600F044F8AD
S1132C20A0B90098C068406908B9662032BD294639
S1132C30204600F05AF810B142F2D87032BD009A22
S1132C40D268526929462046904732BD002DFCD1F6
S1132C50002032BD70B50D0082B00446164601D185
S1132C60002076BD00F041F800B10EE000F009F854
S1132C7030B9009BDB68DB6832462946204698471A
S1132C8076BD6A46294620460EE042F2D87076BDEB
S1132C9010B52B4C2168002029B109690A0002D023
S1132CA088470021216010BD70B542F2D873D2B1BB
S1132CB0244C6468146011B915E01034146014686D
S1132CC08CB12568002D04BF6668002E01D1E6682A
S1132CD04EB1A84224BF65688542EED30818401E51
S1132CE0854228BF0023184670BD70B50918491ED7
S1132CF00022144B9C685D682469160104EBC2042D
S1132D005834755966682468AC4208BFAE4205D091
S1132D10864228BFA14201D3012070BD521C022A61
S1132D20E8D3002070BD10B50648446804E000688C
S1132D30010018BF80471034E0680028F7D110BDA7
S1132D4020EAFF1F10E0FF1F10B582B000228DF8AB
S1132D5000200A46064C014604F120002469646CF4
S1132D606B46A0479DF8000000B1012016BD00008D
S1132D7010E0FF1F002200F053B8000009488178DA
S1132D8004290DD1017801F09F010170FF2182789F
S1132D90012A03D1044A1278520701D4491EF6D1FC
S1132DA07047000001E0074002D007401A4800685D
S1132DB0000B00F00F00C01E08282BD8DFE800F03D
S1132DC005080B0E1114172A1A004FF4804013E063
S1132DD04FF4C04010E04FF400400DE04FF4404089
S1132DE00AE04FF4803007E04FF4C03004E04FF4C1
S1132DF0003001E04FF48020084949680322B0FB09
S1132E00F2F0C0F1005241F8102F6FF0604202EB73
S1132E1040004860002070470070044010E0FF1F2D
S1132E20401810F0030308D0C91A1FD3DB0748BFAA
S1132E3000F8012D28BF20F8022D130030B41446E9
S1132E401546103928BF20E93C00FAD8490728BFA5
S1132E5020E90C0048BF40F8042D890028BF20F861
S1132E60022D48BF00F8012D30BC7047C91818BFA7
S1132E7000F8012DCB0728BF00F8012D7047000092
S1132E8001280ED80FF2240280560122012900F0F5
S1132E901F0102FA01F10CBF024A034A400942F839
S1132EA02010704700E100E080E100E01A1B000000
S1132EB0BFF34F8F0548064A016801F4E0611143EE
S1132EC00160BFF34F8F00BFFDE700000CED00E091
S1132ED00400FA05ECE7EBE7EAE7E9E701280ED896
S1132EE00FF2240280560122012900F01F0102FA88
S1132EF001F10CBF024A034A400942F8201070470E
S1132F0000E100E080E100E01819000002280ED87A
S1132F100FF2240280560122012900F01F0102FA57
S1132F2001F10CBF024A034A400942F820107047DD
S1132F3000E100E080E100E01F2123000021018086
S1132F407047F0B585B004460D4616466846FEF750
S1132F5055F800208DF80B002088019041F22100E3
S1132F60009000208DF80A00ADF808008EB1FEF73D
S1132F708EF80E4F69463846FEF70FF8324629465A
S1132F803846FEF740F83846FEF755F80190FEF74C
S1132F9084F80198208005B0F0BD008808800448BA
S1132FA0016821F480210160704700000020034083
S1132FB03C80044040684A49405C704748498A68FC
S1132FC042B14A6813780370501C48608868401EF8
S1132FD0886070470021017070475A2807D1404A21
S1132FE001238B540FF2090111615169084770479D
S1132FF03B49496908477FB5394D696104460FF279
S1133000F800616850F82160684600F0E7F8012094
S11330108DF808008DF8090002213248E860324832
S11330202861A268606890476946304600F08CF8D1
S11330302E49304600F004F960680121FFF720FFB3
S1133040616849190120887004B0002070BD70B512
S11330500546234C68680119897889B10FF29801F3
S113306051F820600021FFF70BFF304600F0C2F852
S11330706868AA6800219047696809190020887067
S113308070BD17484160826081680029FCD100202E
S1133090704770B504460FF2600082B050F82450B7
S11330A0E86A00010BD54FF0006007E0F16868465C
S11330B088479DF8000068634FF00070E862E86A92
S11330C0074E8001F2D4E86A800308D5A86B4FF458
S11330D00031E96221463269C0B29047F3E773BD1B
S11330E094E0FF1FBD2F0000DB2F00000000020A48
S11330F00020CEE70120CCE700C0024000D002400F
S1133100010C01F1804101F58E2101230A6803FAC3
S113311000F01043086070470029016814BF21F4CF
S1133120804141F480410160704700210FF2441254
S113313052F82130834202D0491C0229F8D30846B0
S1133140704701212046E7E738B504460D46FFF7EE
S1133150ECFF00F03EF8FFF7F4FF00F083F80122E3
S1133160206840004008206020680840297B40EA2D
S11331708170A97B40EA8160697B40EA0160E97B58
S113318000F01CF80121204600F04FF8287804EBE9
S11331908000C1686A6821F0FE41521E41EAC261A2
S11331A02A7A920602F0806211436A7A520602F089
S11331B000721143C16000F007F831BD090201F447
S11331C04071084320607047206840084000206038
S11331D070470FF2A80151F8200091E70021017017
S11331E008214160002101724172017341738173AE
S11331F0C173704710B504460021206800F034F80C
S1133200FFF7A0FF00F02CF80FF2700151F8200036
S1133210010C01F1804101F58E2101230A6803FAB2
S113322000F022EA0000086010BD0368090401F4FC
S11332307C11012A0CBF194323EA01010160704784
S11332408A0103D5026B22F0807202638A0303D5DC
S1133250026B22F480320263026B114301637047F4
S1133260204662E72068024940F001002060704770
S1133270FFCCFFBA00C0024000D002400C003C105A
S11332800D003C10010C01F1804101F58E21012358
S11332900A6803FA00F0104308607047010C01F15A
S11332A0804101F58E2101230A6803FA00F022EA25
S11332B00000086070470029817814BF41F0800144
S11332C001F07F018170704700210FF2F00252F883
S11332D02130834202D0491C0229F8D308467047A2
S11332E04A0603D5827842F040028270890603D5EB
S11332F0817941F0200181717047C1788279520649
S113330048BF41F480418079C00648BF41F48051F0
S11333100846704738B504460D46FFF7D5FF00F060
S113332030F8A87A10B1022804D00DE0E8884000F3
S1133330207009E0E8884000207028894000E0718E
S1133340607940F008006071A078A97800F0FD0071
S113335040EA4100297840EAC110A07060792979D7
S113336000F06F0040EA0110697840EAC110E97882
S113337000F001F831BD00F0DF0040EA4110607157
S113338070470FF2400151F820007BE710B5044666
S11333900021FFF790FF2046FFF796FF0FF224016C
S11333A051F82000BDE8104078E700218172417097
S11333B08170C17001710121017070470060064085
S11333C000700640060034100700341000210FF28C
S11333D0501252F82130834202D0491C0329F8D3F9
S11333E008467047F8B50D46044628680101B2FB4B
S11333F0F1F6B6B206B901265301B3FBF1F1A1EB24
S113340046175100720112FA87F2B1FBF2F1091A60
S11334106422B0FBF2F000EB4000884202D240F29A
S1133420F530F2BD2046FFF7D1FF00F043F810431A
S1133430086007F01F01E07800F0F300E0702078E6
S113344000F0E00040EA262020706670A07A00F0C8
S1133450E0000843A072A078297900F0EC0008434A
S1133460A0706879E074A8796075207C40F08800C9
S11334702074607C40F0C0006074E078E97909B1A0
S113348040F00800297A09B140F00400E0700020FF
S1133490F2BD80B5017D0029FCD101794906FCD536
S11334A00021C170FFF792FF00F004F822EA000047
S11334B0086001BD0FF2740151F82000010C01F104
S11334C0804101F58E2101230A6803FA00F0704758
S11334D04FF4E131016000210171417101218171D9
S11334E00021C1710172704702780A430270C278E8
S11334F042EA1122C270827942EA11428271427C0C
S113350042EA11614174704705E003791B06FCD55A
S113351011F8013BC37113465A1E002BF5D17047B5
S113352000A0064000B0064000C006400A00341067
S11335300B0034100C00341070B5424E0124306876
S1133540491E1546082900F10C024CD8DFE801F0A9
S1133550051423424228424B4000696811F1010FCF
S113356018BF00290ED0D168012912DB90F846104B
S113357001290ED118300AE0696811F1010F18BF52
S1133580002901D1002070BD116114701430FDF7C1
S11335906FFD002427E024212030FEF719F922E0F2
S11335A0A978002904BFE978002904D129780129E0
S11335B008BF547017D06A6829462030FDF778FD9B
S11335C030686968C16104731430FDF751FD0AE085
S11335D0052408E000211430FDF73EFD3068002189
S11335E01830FDF739FD204670BD38B50C46002073
S11335F0012C0DD1134D286880F8461000F12002EB
S113360080682423022100F0C8F9296881F8474022
S113361032BD002051B90B48006880F8482000F101
S1133620200280682423022100F0B7B970470549BD
S1133630086000207047034908600020096888601A
S1133640704700001CEAFF1F10B5134601200BB998
S1133650032010BD00225A745A6832B11468220043
S113366003D00A4601211846A04710BD10B51346E1
S113367001200BB9032010BD00229A745A6832B19C
S11336801468220003D00A4602211846A04710BD40
S11336902DE9FF410446002561688968227B4B7946
S11336A0012093424ED3096800294BD001EBC2019B
S11336B00839002200E0521C0B789A4242DA4B6827
S11336C00C2606FB02331E78032EF4D194F80EC0A8
S11336D0002100E0491C1A7A914205DA5A680E0169
S11336E0B75C6745F6D1B518D978617355B3A56051
S11336F04FF00008974E984F07E0039402AA206801
S1133700694600F059FA08F101082979884519DA5F
S113371000208DF80400A86810F828008DF8020035
S1133720C009A96801EB880101284988ADF8001097
S1133730A96801EB880149788DF803100CBF029742
S11337400296DAE704B0BDE8F08138B504460120FA
S1133750A16861B1002506E0886810F8251020688A
S113376000F047FA6D1CA1680A799542F4DB32BD7A
S113377070B504461546012084B0002D14BF002CFA
S113378003200BD0491E052908D8DFE801F05A03AD
S113379008182E44002121736174A174B9E0616892
S11337A000291EBF217B2A788A42F7D011B1204616
S11337B0FFF7CBFF287820730020A07311E0616825
S11337C00029EBD02988627B0D460904B2EB116F06
S11337D00AD1A17BEDB28D4206D02046FFF7B5FF9A
S11337E0A5732046FFF754FF93E0616800291CBFCE
S11337F0A1680029F8D00026A26811798E42F3DA74
S11338009268297812F82620914204BF206800F0BB
S113381008FA761CF0E7616800291CBFA16800293A
S113382077D00026A26811798E4272DA92682978DC
S113383012F82620914204BF206800F0FCF9761C9F
S1133840F0E729680A7802F01F02012A02BF0A7908
S1133850637B9A425DD14A78012A20460AD0022A23
S113386013D0032A1AD0092A22D00A2A40D00B2ABC
S113387045D04DE04988090A8DF808106A46296840
S113388049888DF80910032120E063681B6804F15E
S11338900F020421984704F10F0107E063681B68D5
S11338A004F110020421984704F11001696030E02A
S11338B04988090A8DF80810296849888DF8091083
S11338C0297B59B1A96801916A46092163681B687B
S11338D09847009969600199A9601AE069680091A4
S11338E06A46A9680191062163681B68984710E03D
S11338F04988090AE17329688A1C072104E0498878
S1133900217404F11002082163681B68984700E0E1
S1133910052004B070BD70B50C4615460021142373
S11339200E4A03FB0126326822B1491C0129F7DB48
S1133930022070BD314600F01CFA50B9306808B955
S1133940032070BD002030737460FF20B0732E60BC
S1133950002070BD6D36000049360000A4E6FF1F4C
S113396010B5040001D1032010BDFFF7EEFE0021C5
S1133970216061602173A17310BD10B5040001D1F1
S1133980032010BD607C08B1022010BD206800F047
S113399001F908B90121617410BD10B5040001D109
S11339A0032010BDA07C08B1022010BD206800F0E7
S11339B0F6F808B90121A17410BD000010B5044641
S11339C000F0DCFA0020206084F88D0000F0E0FABA
S11339D0002010BD38B508B9032032BD446844B195
S11339E000680D0602D5A468A04732BDE468A0476C
S11339F032BD062032BD08B903207047436813B1B5
S1133A0000685B691847062070473EB504460A7A89
S1133A10D5090120102A02F00F0319D100220B212D
S1133A202046FFF7E8FF04F18C0002218170002298
S1133A3000210170002004EBC001401C1028CA6062
S1133A400A61F8D3A36801212046984700203EBDAF
S1133A50082B11D245EA430204EBC203DA685AB1D7
S1133A600868009048680190487A8DF80800694613
S1133A701A69DB68204698473EBD002918BF002814
S1133A8001D1032070478268002A18BFFFF7BDBF29
S1133A90012070472DE9F04107461400884608BF0D
S1133AA0032053D000F06AFA294D286805F18C06EA
S1133AB030B171788F4203D100F06AFA01273FE0F8
S1133AC018B100F065FA02273AE0777000F060FA66
S1133AD00020C5F8088077703070002205EBC00123
S1133AE0401C1028CA600A61F8D3012F19D80FF2BC
S1133AF0F8106860174800281CBF174800280BD02E
S1133B00164800281CBF1648002805D01548002870
S1133B101CBF1548002809D12846FFF74FFF07208E
S1133B2014E02846FFF74AFF06200FE02A462946FC
S1133B30384600F05AFC070004D0284600F019F873
S1133B40384603E00220B07025600020BDE8F08113
S1133B5014E6FF1FEB4300005944000093440000A7
S1133B6001450000A7450000E945000000220021AE
S1133B7041E710B5040001D1032010BD616821B1F3
S1133B80206849688847002060602046FFF716FFD8
S1133B90002010BD01F00F0141F080011AE701F08F
S1133BA00F0117E708B903207047426812B1006893
S1133BB0126910470620704710B508B9032010BDDC
S1133BC0002918BF002A12D08B7803F00F04082CA8
S1133BD00DD2640044EAD31300EBC3031468DC6021
S1133BE052681A610A46BDE81040022103E7042026
S1133BF010BD73B5044601F00F05CE090CB90320BE
S1133C0076BD01AA0321FFF7F6FE082D07D246EA86
S1133C10450104EBC1010022CA600A6176BD04209B
S1133C2076BD02B501F00F01082902D26A460421CB
S1133C300BE0042002BD02B501F00F01082902D2F5
S1133C406A46052101E0042002BDFFF7D4FE02BD4F
S1133C500000000010B501230AB9042010BD891E1C
S1133C60062900F18C0417D8DFE801F004060E10D1
S1133C70080A12000C210CE00D210AE0A07800E0F3
S1133C8020780023107007E0062102E0072100E0FD
S1133C900921FFF7B0FE0346184610BD10B50123F5
S1133CA0032900F18C0406D0062906D0072908D080
S1133CB0092913D016E00E2111E09AB110780023DF
S1133CC007E0A178032906D062B1107820700023A0
S1133CD00320A07006E02246082100E00A21FFF735
S1133CE08AFE0346184610BDEB4300005944000009
S1133CF09344000001450000A7450000E945000089
S1133D0010B5044600F03AF900F027F851B1817C6F
S1133D108C4207D1002101604160817400F038F9C0
S1133D20002010BD00F034F9042010BD38B500F0B7
S1133D3017F800F012F819B1817C8C4200D113E01D
S1133D4007E038B500F00CF800F007F88C4200D119
S1133D500AE000F01DF9042032BD61480168704793
S1133D6004460D4600F00AB9286000F011F900205D
S1133D7032BD38B5FFF7F4FFFFF7EFFF21B1807CC8
S1133D80844201D12960F0E7E3E7F8B50C46154613
S1133D9001261DB16946FFF7D4FF08B10420F2BD26
S1133DA0002705E0491CC9B2032907D37F1CFFB2D1
S1133DB000984068017A8F421CDA002102680C23C3
S1133DC013FB07230FF28412D3F808E09EF804E0F3
S1133DD002EB011C9CF80C207245E3D15868DCF816
S1133DE008302A4621469847052804D00028DDD10A
S1133DF00026DBE73046F2BD70B582B00D460446BE
S1133E0016466946FFF79DFF88B9012D08D1009930
S1133E10204600F06CFF009A02212046FFF7B5FF10
S1133E20009B5B685B68324629462046984776BD0E
S1133E302DE9F843914601240F46B9F1000F18BF4C
S1133E40002F804601D0786808B9042045E000F0CE
S1133E5095F8234E306828B1B17C884502D100F032
S1133E6097F816E018B100F093F8022411E086F8F0
S1133E70128000F08DF8776032461A494046FFF709
S1133E8009FE040007D03068FFF773FE4046FFF7D1
S1133E9037FF204621E000270FF2B00415E000258B
S1133EA0706800680C2111FB07012B0188680079F8
S1133EB01A19127B904203D11B590A1D4046984798
S1133EC06D1C032DECD37F1CFFB27068007A87420F
S1133ED0E5DB3068C9F800000020BDE8F28300008B
S1133EE000E6FF1FF93D000070B582B00446694644
S1133EF0FFF71CFF050027D1002517E000260098D6
S1133F00406800680C2111FB05000FF24001826833
S1133F10127901EB06110B7B9A4202D14068496881
S1133F208847761C032EEAD36D1CEDB200984068D6
S1133F30007A8542E2DB00980068FFF71AFE05006C
S1133F4004BF2046FFF7DCFE284676BD1739000083
S1133F506139000071370000010000006D64000049
S1133F60616500007D6500000300000000000000A2
S1133F700000000000000000000000000A48017872
S1133F80002900D172B60178491C01707047000005
S1133F900548017800291FBF491E0170C9B20029D4
S1133FA000D162B6704700001CE9FF1F2DE9F04103
S1133FB004461D460E461746FFF7E0FF47EA46084B
S1133FC004EB081006F00F02C16A41F48043C36297
S1133FD007F001016668760A760246EA42165B0A31
S1133FE046EA011603F0080333435D606368C06A60
S1133FF05B0A5B0243EA421242EA0111420A02F0FE
S113400008021143069A92054009920D00F04000FF
S113401040EA024040F088000860FFF7B9FF00F072
S11340200CF9BDE8F08180B5C16A4A0A02F00802C1
S113403012180C32026221F400610022826241F4FF
S1134040005108224262C16200920022036A0021E8
S1134050FFF7ACFF01BD70B5011DFF224B6883F86B
S113406088204B6893F8944044F0020483F8944009
S113407000234C6884F898300E68760A03F00F0425
S1134080760246EA4416002500F038F846F00806A1
S113409000F034F846F0100635600E68760A7602B1
S11340A046EA441444F01804256000EB4315002448
S11340B0EC6200255C0044F0010400EB0414E562AA
S11340C04C6804EB83045B1C082B84F8C050D3D3E6
S11340D000F5907005704B6893F8944004F0FD046B
S11340E083F894404B6883F88C2089224B6883F8CA
S11340F084204570486800F008F870BD35600E688B
S1134100760A760246EA4416704790F8941001F055
S1134110DF0180F89410704770B50C888B78C978EB
S113412003F00F02DB09012943EA420505D1B4F586
S1134130806F0ED340F2FF340BE0412C28BF4024A3
S1134140816801EB820191F8C06046F0010681F8B4
S1134150C06000EB0511002BCD6A25F48045CD62CB
S113416064F30905CD62CC6A24F40064CC6224F4BF
S11341708064CC6214BF04210821846804EB8204A7
S113418094F8C050294384F8C01053EA020108BFD0
S1134190FFF749FF002070BD70B5044601F00F051C
S11341A0C80940EA4506204600F0FDF9A06800EB86
S11341B08500002180F8C01004EB0610C16A890A4A
S11341C08902C162002070BD70B5044601F00F0081
S11341D0C90941EA400204EB0212D36A23F4806362
S11341E0D36223F40063D36200236668450145EA81
S11341F00115760A45EA462503F0010645EAC60597
S11342002E68760705D5D66AB605B60946F00806BF
S11342102E605B1C022BE8D3A26802EB80020843E9
S113422092F8C03003F0FD0382F8C03004BF20468A
S1134230FFF7F9FE00F001F870BDA06890F8941043
S113424001F0DF0180F89410002070472DE9F04759
S1134250044684B0A06808228030017C0270C1F357
S113426003186068400A4002C1F3C00A40EA4810DB
S1134270C1F3800140EA0A1040EAC1000068C0F3BB
S11342800949C0F383000D284AEA480004EB0015ED
S11342900CBF01270027E86AC0F3803000284FD004
S11342A004F5907007B1C170BAF1000F35D0A96A56
S11342B04944A9626A6A561AE96A81F40061E962AA
S11342C081F48051E96203D08905B9EB915F1CD276
S11342D0A96A0191296A0091E96A21F48041E9629D
S11342E08905B9EB915F08BFB8F1000F1BD1C07805
S11342F0696A04EBC000408A814214D2206800231A
S113430000220021FFF746FC1AE02A6A334648F0EF
S11343108001204600F0BDF812E059EA080111D1ED
S113432000200190009048EACA108DF808008DF82A
S1134330097069462068FFF7A0FBA068FFF7E5FE57
S1134340BDE8FF87E96AC1F34033BBB963685B0A20
S11343505B02490A43EA481201F008011143496823
S11343602A6AAB6A9A18914206D0002302E05E5C86
S11343709E545B1C4B45FAD300210170A86A484443
S1134380A862696A0E1AB8F1000F0DD167B18021D5
S1134390204600F008F9E06A40F40060E062E06B57
S11343A040F40060E06303E0E86A80F40060E862DF
S11343B0E86A80F48050E862696A002918BF002E18
S11343C003D08005B9EB905F08D2A86A0190286AEF
S11343D00090E86A20F48040E862A4E72A6A334641
S11343E04146204600F08CF8AAE770B515460FF256
S11343F0CC3282B0136800930C4630BB144E86F85E
S1134400220106F592710098F161B060FF2180F8F5
S1134410801000220121304600F0E6F80D48B16812
S11344207060000A81F89C00B1687068000C81F823
S1134430B000B1687068000E81F8B4003046FFF730
S11344400AFE2E603460002076BD062076BD000092
S1134450B8E6FF1F00E4FF1F08B903207047826815
S1134460FF2182F88010816891F88420002281F86D
S113447084200021826882F89810826882F894105F
S1134480806890F8001141F0C00180F8001100200C
S113449070472DE9F041804601F00F00400040F0E4
S11344A0010008EB001782B0F86A1D460126C0F32C
S11344B0803030B9B8623A627D62F86A40F40050E4
S11344C0F86201F00F04F86A8005800DA84238BF35
S11344D0054698F8210148B90095386AB96A0B185D
S11344E0012221464046FFF761FD0646B86A28438B
S11344F002BF002C4046FFF796FD3046BDE8F6812A
S11345002DE9F041044601F00F00400004EB0017D0
S113451082B0F86A1E460125C0F3803010B9B86233
S11345203A627E62F86A40F4005083059B0DF8629B
S1134530B34238BF1E46BB6AD4F81CC09B18BCF1FA
S1134540000F04F5907211D092F800C0BCF1000F76
S11345500CD1412E0AD216F0030F08BF13F0030C3E
S113456004D020F40050F862E369157001F00F08DC
S1134570507830B90096002241462046FFF716FDD8
S11345800546002E08BFB8F1000F09D1F86A80F47F
S11345908050F86220F48040F8622046FFF743FD23
S11345A02846BDE8F681E0B501F00F03CA0942EAE6
S11345B0430200EB0212D36AC3F380338BB14FF092
S11345C0FF330193136A8DF80810009300218DF8CE
S11345D00910D16A21F48041D16269460068FFF76D
S11345E04CFA00200EBD0000F8B504460B461146F7
S11345F001200CB90320F2BD0C2BFCD8DFE803F03A
S1134600072030363D676D70819D9D879A00A168B3
S1134610002081F80001A068017F490703D5017FCC
S113462041F080010177A06890F8081141F0100171
S113463080F80811A06890F8941041F0010143E05B
S1134640A068017F490703D5017F01F07F0101774D
S1134650A06890F8081101F0EF0180F8081167E0F4
S113466000296AD02046BDE8F44055E5002964D00D
S11346702046BDE8F44009788EE500295DD00A782B
S11346801146204602F00F05D609FFF78CFF46EAD3
S1134690450704EB0710C16A41F48061C1624A0A0C
S11346A06068400A400240EA451040EA061002F001
S11346B0080289051043890941F08C010160A06852
S11346C090F8941001F0DF0180F8941030E0A1B369
S11346D02046BDE8F440097876E571B3088027E008
S11346E059B30A7802F00F03082B26D2D00940EA06
S11346F0430004EB0010C06A800A00F00100488007
S113470016E0D1B10878A16881F8980010E000257E
S113471045F08001C9B22046FFF73EFDE9B22046CC
S1134720FFF73AFD6D1C082DF2D32046FFF793FCEA
S11347300020F2BD09B100200870F2BD00B9704735
S11347403EB50468A06890F88050280744BF20460E
S1134750FFF77CFDE80712D5A168012084F8210148
S113476081F8800069460020009010208DF8080030
S1134770002001908DF809002068FFF77EF92806D3
S113478015D5A168802081F88000E06BC0F38020FB
S1134790002802BFE06AC0F38020002807D08021EF
S11347A02046FFF711FD00212046FFF70DFDA0680C
S11347B090F85C1109B180F85C1137BD0020074006
S11347C02DE9FC4104460F46904620681E4601AA86
S11347D00621FFF73FFA9DF804000525012818BFBC
S11347E000282ED138781F21084208D1206804F10E
S11347F010020421FFF72EFA0546207C18E000F091
S11348001F01012902D10025258214E000F01F00B8
S1134810022812D1B8888DF800006A460020ADF84D
S1134820020005212068FFF715FA05469DF80200ED
S113483000F0030020820220306004F11000C8F868
S113484000002846BDE8F68170B582B00546002018
S11348508DF800000C4628680DF101020621FFF7CF
S1134860F9F99DF801000526012818BF002801D098
S1134870052076BD6078032804BF01208DF8000070
S113488020781F21084208D1608801282BD128688C
S11348906A461021FFF7B0FA24E000F01F00022856
S11348A004BF608800281ED1A0880F2108420ED1C1
S11348B000F00F019DF8002041EAD0112868002A79
S11348C0C9B202D0FFF7ADF901E0FFF7B4F99DF8E2
S11348D000102868002919BF221D0521221D062168
S11348E0FFF753FA0646304676BD38B500F0B6F801
S11348F09DF8000003280BD0012818BF022801D01E
S1134900052032BD68888DF800006A4607210AE058
S1134910206800220721FFF7C1F938B901208DF87A
S113492000006A4606212068FFF7B8F932BD2DE978
S1134930FF470646904630680C469A4603AA06216D
S11349406788FFF787F99DF80C003D0A01284FF0AE
S1134950050903D0010018BF02283AD1E08801906C
S1134960012D02D16A46092129E0022D04D18DF8D6
S113497008706A460A2122E0032D07D18DF80A70D7
S11349806A46A088ADF808000B2118E0212D05D156
S1134990A0888DF808006A460C2110E0222D05D16C
S11349A0A0888DF808006A460D2108E0232D0AD15D
S11349B08DF808706A46A0888DF809000E213068C9
S11349C0FFF71AFA81460098C8F800000198CAF85F
S11349D00000484604B0BDE8F08770B5044682B0D4
S11349E0154620681E466A460621FFF733F99DF8EE
S11349F00000012818BF002801D0052076BD012041
S1134A00306004F1100204F11000286011212068C4
S1134A10FFF7F2F976BD38B500F020F89DF80000F4
S1134A20012818BF002801D0052032BD002000F065
S1134A300EF8688810B9012000F009F82068AA1C53
S1134A400321FFF7A2F92068AA1C07213AE08DF898
S1134A5000006A4620680621FFF720B904460D4687
S1134A6020686A460621FFF7F5B8F8B500F043F868
S1134A709DF8000008B10520F2BD0120386004F162
S1134A80100204F11000306012212879208220687D
S1134A90FFF7B2F9F2BD38B5FFF7E0FF9DF800006B
S1134AA008B1052032BDA888A97841EA00202082F7
S1134AB004F1100220680421FFF767F9206804F16B
S1134AC010020821FFF798F932BDF8B500F013F889
S1134AD09DF8000008B10520F2BDA888208204F1E9
S1134AE0100220680821FFF7B5F804F110013160C5
S1134AF002213960F2BD04460D46164620681F4661
S1134B006A460621FFF7A6B838B504460120052AEF
S1134B100D460FD129786022114205D0090603D42D
S1134B20E98809B103B90020C1012046BDE8344039
S1134B30FFF777B80598E9880268914238BF0160A9
S1134B4003680498026800212046FFF723F858B947
S1134B502978090608D5204601B0BDE83040002375
S1134B6000220021FFF71BB832BD2DE9F0418AB0C5
S1134B70044600200D46039004900527686890467B
S1134B8010F1010F18BFB8F1000F10D002AA0621CE
S1134B902046FFF75FF8287A0FF2B01C002808F1CE
S1134BA0080649D06868082801D1286808B9052092
S1134BB076E04188718060258188B180C188F18068
S1134BC042787270037833702B420AD15CF8225019
S1134BD028002DD004AB03AA31464046A847074617
S1134BE026E0B9B1180615D4980602D500F072F87B
S1134BF003E058061CD500F060F8070007980490FD
S1134C000698039014D1F388039A00212046FEF7F6
S1134C10C6FF45E0980602D500F05CF803E05806AC
S1134C2006D500F04AF807460798049006980390C2
S1134C3004A8019000232AE09DF80800032808D165
S1134C4074785CF8244004AB03AA31464046A0477C
S1134C5024E0686800281CBFF08800281FD0307842
S1134C6001061CD4810606D500F01DF8012120465A
S1134C70FFF78BF807E0400606D500F014F80F2183
S1134C802046FFF7B9F8074604A80190012303A8BA
S1134C9000903A4631462046FFF736FF074638462D
S1134CA00AB0BDE8F08128680690059600208DF8CA
S1134CB0200005AA686807907047002006900596B2
S1134CC001208DF8200005AAF08807900F212046C6
S1134CD0FFF792B800200690059601208DF8200079
S1134CE005AAF088079001212046FFF74EB830B599
S1134CF085B0044614480290039101208DF8040005
S1134D0002AA00208DF80300694680208DF8020075
S1134D104020ADF800002046FEF74EFF050010D1FC
S1134D2000208DF8020002AA69462046FEF744FFDF
S1134D30050005D080212046FEF75BFF284600E0F1
S1134D40002005B030BD00006B4B0000C1470000DF
S1134D50494800000000000049480000000000002D
S1134D60EB4800002F49000000000000DB49000070
S1134D70174A00006B4A0000974A0000CB4A000023
S1134D800029817814BF41F0800101F07F01817016
S1134D90704700209AE0012098E040686549405C33
S1134DA0704764498A6842B14A6813780370501C9A
S1134DB048608868401E8860704700210170704711
S1134DC05C49496908475A2806D15A4A01238B5439
S1134DD059491161516908477047FEB5554D04465C
S1134DE069616068A2680221904766680FF25810F2
S1134DF050F826706846FEF7D8FA1020ADF8060081
S1134E0069464E488068006990F87900FF2818BF09
S1134E10ADF806003846FEF77DFA01213846FFF763
S1134E20AFFF40213846FEF75BFAFDF729FE4FF449
S1134E307A71B0FBF1F04249B1FBF0F0002100E0DF
S1134E4011464A1C00FB02F3322BF9D321B9B0F509
S1134E50FA7F04D8012102E0202928BF1F21B87954
S1134E6000F0F0000843B87101213046FEF736F82F
S1134E703448286101206168491988700020FEBD0A
S1134E8070B505462B4C686801198978A9B10FF2F1
S1134E90B80151F820600021FEF720F800213046C7
S1134EA0FFF76EFF3046FEF771FA6868AA680021C2
S1134EB09047696809190020887070BD1D484160D9
S1134EC0826081680029FCD10020704738B505460E
S1134ED00FF2740050F825402046FEF70EFA00F059
S1134EE01201E17000F05001102911D04106114A5D
S1134EF014D54007A0780CD540F01000A070002015
S1134F008DF800006846D16888479DF8000020713C
S1134F1031BD00F0EF00A070207931BDA178C90641
S1134F2003D5C007EBD5A078F3E7207912692946A9
S1134F30904731BDACE0FF1FC14D000010E0FF1FE2
S1134F4040420F00C74D000000600640007006405C
S1134F5010B50B46DFF8B444114601205B1E2268ED
S1134F60062B2ED8DFE803F0040A1519222D2C0095
S1134F7039B30868400A00F0CAF804E009B30868C5
S1134F80400A00F08AF8E0B12268012182F859143D
S1134F9010BDB1B158328A6010BD91B102F1580010
S1134FA08860BDE810400868400AB0E04FF4004053
S1134FB0086001224FF4007048600A748860C86079
S1134FC0002010BD0020704770B5DFF84044206019
S1134FD0583000F070F9256805F1580000F016FB10
S1134FE006464FF4846105F15400FCF7F1FB206898
S1134FF00021C0F860644165002070BDDFF80C1426
S11350000860002009680865704738B5DFF8FC437C
S1135010206890F85C0430B9FCF7EDFE20680121AB
S113502080F85C144165206890F85D04A0B32168A1
S1135030022081F85C0400F0CBF80500F7D020686A
S113504000F25C40C168002904BF0178022903D141
S1135050032000F0E6F801E00121417042F27D7086
S1135060854219D0206800F25D400021017042F2AF
S113507074718D4202D10221C17431BD42F21271A8
S11350808D4203D10221C174032002E00321C174C3
S11350900020BDE83240C4E031BD70B50446B4F52B
S11350A0847F82B00D4630D3D84E306800F25B4125
S11350B00A7862B9887808B10F2076BDA868694675
S11350C000F074F808B3009800F097F803E0D0F803
S11350D06404844219D130686A6800F264414B6800
S11350E0934238BF1A468E6896199B1A641C8E60C8
S11350F04B600C6013B9002180F85B1400F5167046
S1135100A968FBF7D5FFFFF780FF002076BD38B50F
S11351100C4605466168A068FDF72CFE0FF2984026
S113512000E00C30416831B10268AA42F9D18268CA
S1135130A068FBF7BDFF0FF2043045B140F2011146
S11351406D1A0DD06D1F19D06D1E1BD027E0A168FC
S1135150552081F8FE01AA20A16881F8FF011EE014
S1135160A16801F5BE7400F01CF80A682260097C8D
S113517050F8210000F04AFA206210E0A06800F024
S11351809AF80CE000F00DF8097C50F821502846FC
S113519000F03CFA0246A0682946FBF789FF00208C
S11351A032BD9A49096801F58C6170474269984B90
S11351B09A4202BF426B974B9A4204BF027E012A75
S11351C004D1C069000108600120704700207047C5
S11351D08E480068D0F86C24B2F5007F04D2110028
S11351E004D142F27D7070474FF40071521AC0F836
S11351F06C2400F51670FCF708BE8449096801F2B6
S11352005A4201231370537001F58D61002393708A
S11352100123D3700023137108604B6001200872CE
S113522070477A49096801F25A4201231370907059
S1135230002301F58D605370D37013710121436015
S113524003600172704730B53022027078224270D8
S1135250002282720FF2D0139400C4F11C0421FACC
S113526004F505F00F041518E45CAC70521C082A10
S1135270F2D330BD10B5002261B10A23B1FBF3F3C0
S11352800A2404FB131130311154521C194600290D
S1135290F3D102E0302101700122002111541118D0
S11352A0491E05E00A78037801F8013900F8012B5A
S11352B08842F7D310BD70B504465748C0B0806823
S11352C00569286814904FF6FF70B5F87A60864235
S11352D0524808BF41F28836016826A8FFF7B3FF99
S11352E055F8101F0DF1A300FFF7ADFF286869689A
S11352F00818411E0DF1AE00FFF7A5FF69690DF115
S1135300B900FFF7A0FF6869A9690818411E31A810
S1135310FFF799FFA96C0DF1CF00FFF794FFE96C3B
S11353200DF1DA00FFF78FFF296D0DF1E500FFF7AE
S11353308AFF696D3CA8FFF786FF696815A8FFF727
S113534099FFA9680DF15F00FFF794FF29690DF13A
S11353506A00FFF78FFFA9690DF17500FFF78AFF57
S1135360314620A8FFF786FF2D4801680DF18B0018
S1135370FFF780FFAA6D2B4B22A023A19A420CBFFA
S11353800A4602462B6A03B108460F900DF18B03BF
S11353903CA80E9013930DF1E5000D9020AB0DF198
S11353A0DA000C9012930DF1CF000B90119231A8FA
S11353B00A9010910DF1B90009900DF17500089053
S11353C00DF16A0007900DF15F0006900DF1AE003B
S11353D005900DF1A300049015A8039026A802904F
S11353E09DF850009DF852309DF853200FF25C0157
S11353F001909DF851000090204600F023F940B040
S113540070BD00006E6F0000796573002CEAFF1F09
S113541053544D507367746C10E0FF1F2480044094
S113542024E1FF1F6B63666730313233343536371E
S11354303839616263646566000000004C06000050
S11354405406000064060000700600004B696E6597
S113545074697320426F6F746C6F61646572202588
S11354606325642E25642E25640D0A0D0A53797371
S113547074656D206465766963652049443A202526
S1135480730D0A466C6173682073697A653A202546
S1135490732062797465730D0A466C6173682072B7
S11354A0616E67653A2025732D25730D0A466C617C
S11354B0736820736563746F722073697A653A2028
S11354C025732062797465730D0A466C61736820D4
S11354D0626C6F636B733A2025730D0A52414D2041
S11354E073697A653A2025732062797465730D0AAD
S11354F052414D2072616E67653A2025732D2573E4
S11355000D0A526573657276656420726567696F0A
S11355106E20303A2025732D25730D0A526573656C
S11355207276656420726567696F6E20313A202552
S1135530732D25730D0A5665726966792077726931
S11355407465733A2025730D0A436865636B207292
S11355506573657276656420726567696F6E733A08
S11355602025730D0A426F6F7420636F6E6669673E
S11355702070726573656E743A2025730D0A506548
S1135580726970686572616C2064657465637469BE
S11355906F6E2074696D656F75743A202573206D84
S11355A0730D0A43505520636C6F636B3A20257367
S11355B020487A0D0A000000000000007C0600006C
S11355C03600000001000000B40600000E000000D8
S11355D001010000C4060000A00100000301000056
S11355E064080000600000000401000014090000C9
S11355F0A000000005010000C40800004D000000E8
S113560000000000000000000000000000F10103A1
S1135610810704D010F8011B89B18107FAD102680F
S1135620B2F10131914311F0803F04BF50F8042FCF
S1135630F6E710F8011B11B110F8011BFBE7C01AC3
S1135640704700000CB41CB5044604A801900A4637
S1135650009401AB694607487844183000F018F804
S1135660009A0021117000285CBF0098001B16BC32
S11356705DF80CFB63C1FFFF70B504461E000846CD
S1135680154604D015F8011BA047761EFAD170BD4B
S11356902DE9F04784B08246894614461F46E84601
S11356A007E00123224649465046FFF7E5FF8146BD
S11356B0641C207810B904B0BDE8F0872528F0D127
S11356C06078A41C2528014618D058285CD063288B
S11356D00ED0642818BF692814D06F2854D07028BD
S11356E058D073285DD0752818BF78284CD0E0E7CF
S11356F03868386050F8041B3860C9B24846D0474F
S11357008146D6E73868386050F8045B3860002D6D
S113571003D52D214846D047814664206F2808BF11
S1135720082205D040F02001782914BF0A22102253
S11357300B216428AC4603D1002D48BFCCF1000CEA
S1135740BCFBF2F502FB15CC0CF130065FFA86FCCB
S11357504B1EBCF13A0FA4BFA0F15106B44403F8A8
S113576008C019465FEA050C01D00129E8DA684649
S11357700D184846D1F10B09C2D015F8011BD047CA
S1135780B9F10109F9D1BBE73968396051F8045B13
S11357903960C3E73868386050F8045B38607820B3
S11357A0BCE73868386050F8045B38602846FFF777
S11357B02DFF06004846A3D015F8011BD047761EDE
S11357C0FAD19DE710B59B488068006900F1680430
S11357D034214AF2C030FDF7B7FA48B934224AF20C
S11357E0C0312046FBF774FC20689349884204D0FA
S11357F0FF2234212046FDF78BF9FDF787F90020BD
S113580010BD38B58B4DA86804694B20E07004F1D5
S113581010020220A070042100206070207050202B
S1135820E0710120A07102206071002020715420D9
S1135830E0720120A07200206072207201202063B7
S11358404EF6FF70606305F120002B69DB6A984710
S11358502B69DB6A04F11402012100F063F82B695F
S1135860DB6A04F11802002100F05CF82B69DB6AA2
S113587004F11C02022100F055F82B69DB6A04F1E3
S11358802002032100F04EF82B69DB6A04F1440284
S1135890052100F047F82B69DB6A04F14802062170
S11358A000F040F82B69DB6A04F14C02072100F098
S11358B039F8A069614A404252424FF0FF31024038
S11358C0891A5F4AE1651040A06500215D482066A1
S11358D05D4860666869E16007E094F878301342D7
S11358E002D0E3681A43E260491C182202FB010259
S11358F01268002AF1D15548016821644168E163C6
S11359008068A063686850F8101F6162416800688D
S1135910081A401CA0622046FBF76EFA012020659D
S1135920002032BD05F1200018470000F8B51446E8
S1135930404A474F91680426401E096917281D46AE
S11359404DD8DFE800F00C121416181A20224C244B
S1135950262D4C1C1E30333F424446484C4A05B168
S11359602E6004B121600020F2BD0C31F7E7103144
S1135970F5E71431F3E71831F1E72031EFE724318B
S1135980EDE72831EBE73431E9E72C31E7E7303153
S1135990E5E7D06941694969884738603946DEE7F7
S11359A010265831DBE72B480068F6E702F12000A7
S11359B012699269694690479DF800000028ECD06E
S11359C00120EAE70C263831C9E74431C7E74831FA
S11359D0C5E74C31C3E75031C1E70831BFE742F6B0
S11359E03C00F2BD134A92681369401E072842F630
S11359F03E0218D909380AD0401E012884BFC01EAF
S1135A00032810D9083808D0801E0CD00EE00029D5
S1135A1018BF012903D119637047032901D3104624
S1135A2070471965704742F63D00704742F63C00E6
S1135A307047000010E0FF1F6B6366675876000034
S1135A400000000000E0FF1F9F0000205880044079
S1135A50F0EAFF1F2480044030B5044685B0606836
S1135A606946FBF743F8002835D16068012804D063
S1135A7002280CBF424D434D00E0434D01A8FDF701
S1135A8027FD0098019001208DF80B008DF80C0083
S1135A906068FCF7FFFF024601A92846FDF7A2FC57
S1135AA0B0B960680121FDF731FA4FF4005128467E
S1135AB0FDF71AFD6068A268344C022190476168C2
S1135AC05A2088476168A62088470120207003E097
S1135AD06068FAF7F1FF002005B030BD10B5044648
S1135AE02A4841606068A268012190476068FAF71B
S1135AF0E3FF002010BD10B504462448007870B1BF
S1135B0060680021FDF702FA6068012804D00228C9
S1135B100CBF1B481B4800E01B48FDF7BAFC60683B
S1135B20FAF7E2FF6068A268BDE810400021104760
S1135B3080B54068012804D002280CBF10481148E1
S1135B4000E01148FDF7E0FC002002BD1048017898
S1135B50890600D50AE070470E4801788A0701D506
S1135B60C0787047890600D500E07047C0780749BF
S1135B704968084708480178890600D5F6E7704760
S1135B8000C0064000A0064000B006407CEBFF1FAA
S1135B9004A0064004B0064004C00640AF49D1F852
S1135BA08820531C5218C1F8883082F82000D1F89C
S1135BB0880000F03F00C1F888007047002070475B
S1135BC0B8E02DE9FC410C00154614BF002D04205B
S1135BD0984628D0A14F002007F1900628607070E5
S1135BE000F0A8F818B11EE0A22000F075F82021FA
S1135BF03846FBF7EDFD42463946684600F0F8F8B2
S1135C0010B1002129600EE03946684600F042F9DF
S1135C10BDF804108142E7D1012030702760BDF83F
S1135C20020028600020BDE8F6812DE9F0410C0057
S1135C3082B015461E4635D0212D33D200F07AF8B5
S1135C4000283FD1DFF8148298F8910010B10020A9
S1135C5088F8910008F160075A203870A420787001
S1135C600EB1A52078707D802DB12A46214608F119
S1135C706600FBF71DFA08F16601384600F00AF9E0
S1135C80B880A91D384600F064F8D8B9684600F019
S1135C90EFF8B8B99DF80100A12812D0A22806D0C7
S1135CA0A32801D004200DE042F212700AE07888A3
S1135CB0811D384600F04DF820B99DF80100A22856
S1135CC0E4D00020BDE8F6816548012181700021FF
S1135CD0017070472020704780B55A218DF800105C
S1135CE08DF8010001205D4981F891000221684688
S1135CF000F02FF802BD10B50446594882B001786F
S1135D00427880781140014211D10FF2B810008816
S1135D10ADF80000022223695B6869462046984773
S1135D2023690FF2A4115B6808222046984742F2C7
S1135D30137016BD4A48017819B100210170A120E1
S1135D4004E0817819B100218170A320C4E7002008
S1135D507047444AD3690A46014618461B695B6882
S1135D6018472DE9F14F8B461646FAF744FF0446CF
S1135D704FF47A7088467043FAF74DFFDFF8DCA0E1
S1135D800027064689460AF188050EE068682968F6
S1135D9088420CD05044009990F8200078547F1C1D
S1135DA06868401C00F03F0068605F451DD0FAF74A
S1135DB022FF021B61EB080341450AD828BFA04219
S1135DC007D2E2436FEA080310185941421C41F11B
S1135DD00003B9F1000F08BF002ED7D04B45D5D32F
S1135DE001D8B242D2D3052000E00020BDE8F28FF2
S1135DF070B582B005460C46164600F039F858BB1B
S1135E006878A62804D11748C069FFF774FF76BDE7
S1135E10A42106B1A521884201D0012076BD00F05D
S1135E2023F8BDF800106980B0B908462128A8BF3E
S1135E302020688000F018F8BDF80010A98058B937
S1135E40698849B12046FCF795FF69880A2000FB60
S1135E5001F22046FFF785FF76BD000084EBFF1FAB
S1135E6014ECFF1F10E0FF1F14220221684678E79C
S1135E7010B50446002201212046FFF772FF40B905
S1135E8020785A28F6D1601CBDE810400A2201216E
S1135E9067E710BD30B583B004460D466846FDF78C
S1135EA04DF8042221466846FDF74BF862882946DE
S1135EB06846FDF746F801A96846FDF76EF8BDF897
S1135EC004003EBD5AA70000000201500000AAEAE7
S1135ED005484CF22051C1814DF62811C1814FF47F
S1135EE0E9710180704700BF00200540052070471C
S1135EF0087A18B9184808604C2006E00520704755
S1135F00052070471548086012204860002070473B
S1135F10087A18B9124808604020F6E7052070474F
S1135F2010B5887A0F4A10B9136850680FE0926868
S1135F300B891489A34202D1042800DA01D1052077
S1135F4010BD1368526853F8203052F8200048609E
S1135F500B60002010BD000090E1FF1FDCE1FF1F7B
S1135F60F0E1FF1F34E3FF1F002101604160FB30BB
