S01A00006C65645F64656D6F5F717370695F303030302E7372656396
S11300000020012025150068BF130068BF13006895
S113001000000000000000000000000000000000DC
S1130020000000000000000000000000BF13006892
S11300300000000000000000BF130068B312006855
S11300408D1500688D1500688D1500688D15006884
S11300508D1500688D1500688D1500688D15006874
S11300608D1500688D1500688D1500688D15006864
S11300708D1500688D1500688D1500688D15006854
S11300808D1500688D1500688D1500688D15006844
S11300908D1500688D1500688D1500688D15006834
S11300A08D1500688D1500688D1500688D15006824
S11300B08D1500688D1500688D1500688D15006814
S11300C08D1500688D1500688D1500688D15006804
S11300D08D1500688D1500688D1500688D150068F4
S11300E08D1500688D1500688D1500688D150068E4
S11300F08D1500688D1500688D1500688D150068D4
S11301008D1500688D1500688D1500688D150068C3
S11301108D1500688D1500688D1500688D150068B3
S11301208D1500688D1500688D1500688D150068A3
S11301308D1500688D1500688D1500688D15006893
S11303C06B636667FFFFFFFFFFFFFFFFFFFFFFFF9A
S11303D017FFFFFFFFFFFFFFFFFFFFFF01FF01000C
S11303E00000000000000000000000000000000009
S11303F0FFFFFFFF000000000000000000000000FD
S1130400FFFFFFFFFFFFFFFFFFFFFFFFFEBDFFFF3B
S31568001000F8B572B68020C00143490A6802430A608F
S31568001010424B434ADA60434A1F24D5782540D57047
S31568001020157804262E4316709579ED06FCD51D684D
S3156800103046092E431E603C4B3C4D2E681E402E6072
S315680010406E6833406B6000231372242555700093D5
S315680010509626760103E000BF009D6D1C0095009DF5
S31568001060B542F8D38025324E35701373A2251570B4
S315680010700225022697793742FCD0D6783440D47058
S31568001080137108245471402456792643567196790B
S315680010902642FCD01478A406A40E14700093254C3E
S315680010A003E000BF009A521C0092009AA242F8D34D
S315680010B00A68120E05D10A681202120A84021443DB
S315680010C00C604A6A0724A24315434D621A4A0C68A3
S315680010D014400C600C68032525430D600093F024CA
S315680010E0A40003E000BF009B5B1C0093009BA34227
S315680010F0F8D30B68184308600868032398430860A8
S31568001100086802400A60BFF34F8FBFF36F8F62B6FD
S315680011100A480B490860F1BD00A0054038800440C4
S315680011200010051500400640FFF8FFFE4890044091
S315680011300050064060EA0000FFBFFFFF00A24A04B5
S3156800114000A0FF1F08B4024B9C4608BC6047C04617
S3156800115001FCFF1F20B500F045F8FFF7F3FF00F02C
S3156800116018F800F085F80125280000F02BF8FA2019
S31568001170400000F098F8280000F024F86D00032D70
S3156800118000D3012500F042F80028EDD000F0A2F85F
S31568001190EAE780B52B480168F82292010A430260A3
S315680011A02948810D01604160284801688022D20182
S315680011B00A4302600168802212020A43026000F054
S315680011C01BF801BD2249C20704D50A688023DB01E2
S315680011D013430B60800704D5086880221202024315
S315680011E00A6070471B4A002A00D1704780B51A49C1
S315680011F01A4800F09BF801BD802040001849086035
S3156800120018480168102291430160704770B5164806
S315680012104468641C01211023144D0678002E2D683D
S3156800122005D12B4008D1022C07D1017004E02B4070
S3156800123002D0022C01D141700024446001784078C4
S31568001240084070BD3880044038C00440D4F00F4070
S31568001250CCF00F40440100000010006800FCFF1F3E
S315680012601090044014F00F4004A0FF1F10F00F40C8
S3156800127000B514480068FA21890000F085F8401E18
S315680012808021490488420DD20F4948600F48026898
S315680012901202120AC0231B061343036000208860EB
S315680012A00720086000BD0A49086008680028FCD164
S315680012B0704707480168002902D00168491E016025
S315680012C07047000000A0FF1F10E000E020ED00E07E
S315680012D00CA0FF1F30B58BB072B61248046804A81C
S315680012E02169496888478020C00000216B460268EA
S315680012F08D005A51001D491C0429F8D30A4B8022D7
S315680013001201002104A825692D69A84710236A4699
S31568001310990104A825696D69A8470020216888474E
S315680013200BB030BD1C00001C6B66656B124207D0A3
S315680013308B0706D00B78491C0370401C521EF7D8E1
S315680013407047830706D00B78491C0370401C521EF1
S31568001350F9D1704770B4103A03D378C9103A78C097
S31568001360FBD2530701D318C918C001D508C908C0EC
S31568001370D20704D30B880380891C801C002A01D5F8
S315680013800B78037070BC7047094214D088420FD33B
S315680013900122030C01D100041204002300185B41EA
S315680013A08B4200D35B1A5241F8D31900100070477C
S315680013B001000020704708B500F002F808BDFEE796
S315680013C07047000080B50D480D4908600D490E4804
S315680013D0421A0E48884203D0002A01D0FFF7A6FFBA
S315680013E00B480C49091A01D000F03EF80A490B4827
S315680013F0421A02D00A48FFF799FF01BD00000000B3
S3156800140008ED00E0941500689815006800A0FF1FB5
S3156800141004A0FF1F10A0FF1F0000000000000000CE
S3156800142000000000094205D0830705D00270401C01
S31568001430491EF9D170470000130030B41400150036
S31568001440103902D310393CC0FCD2490700D30CC00E
S3156800145000D504C0890002D30280801C002900D50B
S31568001460027030BC704700000022DBE770B40121CF
S31568001470002313E00468001D0C4202D04D466D1E21
S3156800148064192360241D121F042AFAD225009607C0
S3156800149001D52380AD1C0A4000D02B700268001D60
S315680014A0002AE7D170BC704730B401210268001D7C
S315680014B0002A0FD00368C318446808300C4202D06B
S315680014C04D466D1E64191D6825601B1D241D121F5F
S315680014D0ECD0F8E730BC704710B507497944183145
S315680014E0064C7C44163404E0081D0A688918884747
S315680014F00100A142F8D110BD0800000028000000D4
S315680015006DFFFFFF0C00000004A0FF1F0000000035
S3156800151099FFFFFF040000007C00000000A0FF1F89
S315680015200000000072B6034880470348804762B6E9
S3156800153002480047C1130068C51300688115006832
S3156800154000F00BF8002801D0FFF7C6FF0020C04660
S31568001550C046FFF7FFFD00F002F80120704780B52E
S3156800156000F002F801BD00000746384600F002F8B0
S31568001570FBE700002021090326311820ABBEF9E7F6
S31568001580C046C046C046C046FFF7DAFF0048004777
S30D680015908D15006800A24A04EB
S7056800152558
