S01A000066726565646F6D5F626F6F746C6F616465722E737265639E
S11300009810002011040000B160000001300000CD
S113001000000000000000000000000034060000A2
S1130020000000000000000000000000B1600000BB
S11300300000000000000000B1600000C560000086
S1130040B5600000B5600000B5600000B560000058
S1130050B5600000B5600000B5600000B560000048
S1130060E74D0000F14D0000956000009F60000026
S113007001620000B5600000B5600000B5600000DA
S1130080B5600000B5600000B5600000B560000018
S1130090B5600000B5600000B5600000B560000008
S11300A04D760000B5600000B5600000B56000004A
S11300B0B5600000B5600000130E0000B5600000DC
S11300C0000000000000000000000000000000002C
S11300D0000000000000000000000000000000001C
S11300E0000000000000000000000000000000000C
S11300F000000000000000000000000000000000FC
S1130400FFFFFFFFFFFFFFFFFFFFFFFFFEFFFFFFF9
S113041072B60E480E49886000220023002400258D
S113042000260027B846B946BA46BB46BC4609482A
S1130430854609488047094880470948804762B68D
S113044000200021074A9047FEE70000000000005A
S113045000ED00E098100020B960000021270000A2
S11304606527000075200000000000000000000067
S1130470002A01D101207047F0B41F46034603242B
S11304802340002B09D00424E31A0170013008240E
S1130490E141521E26D05B1EF7D1042A1ADB13D089
S11304A0002F11D00C460D460E46102A02DB72C0F6
S11304B0103AFAE70C2A02DB32C00C3AFAE7082AAF
S11304C002DB12C0083AFAE7042A03DB01600430B5
S11304D0121FF9E7002A05D0017001300824E14118
S11304E0521EF7D1F0BC002070470268531C036011
S11304F0117070475D110000000000006F110000D2
S113050000000000071200004D130000E711000076
S1130510791200002914000000000000D714000024
S113052000000000A511000000000000811100007F
S1130530791200004114000000000000B114000012
S1130540000000001F11000000000000D311000093
S1130550000000000000000000000000EB14000098
S11305600000000017150000000000004D150000F9
S11305704D13000000000000000000000000000017
S11305800000000000010246B92000006D210000B7
S1130590000000008921000025220000FD23000046
S11305A031240000872400009D2400003125000030
S11305B0E125000000000000AF220000B523000088
S11305C0F922000015210000C925000000000000E8
S11305D00000000000000000000000000000000017
S11305E00000000000000000436F707972696768C2
S11305F0742028632920323031332D3230313620B3
S1130600467265657363616C652053656D69636FDC
S11306106E647563746F722C20496E632E20416C76
S11306206C2072696768747320726573657276658D
S1130630642E0000757A00000000024BE8050000FB
S113064010F0FF1F84050000DC050000000000001E
S1130650C57A0000CF7A0000D97A000000000000BB
S113066000000000091700003917000041170000BE
S113067033180000000000006F180000FB4D00005C
S1130680454E0000F94E000000000000000000008C
S1130690354F0000992F0000012E00002D2E000080
S11306A0BD2E0000F92E0000792E00005265616411
S11306B0790D0A005472616E7366657272696E67B1
S11306C00D0A0000537563636573730D0A0000001F
S11306D04661696C7572650D0A000000EB3C904D33
S11306E05357494E342E310002010100022000FF0D
S11306F07FF080000100010001000000FF7F000086
S1130700000029313233344B696E657469732055A6
S113071053420000F0FFFFFFFFFFFFFFFFFFFFFF5B
S1130720FFFF000046534C204C6F61646572200843
S11307300000000000000000000000602C420000E7
S113074000000000412E0066007300650076000F73
S113075000DA65006E00740073006400000000009D
S1130760FFFFFFFF46534556454E7E3120202012A1
S1130770000000602C422C42000000602C42020069
S11307800000000042650072005F0069006E000F07
S113079000A86400650078000000FFFFFFFF000070
S11307A0FFFFFFFF012E006D006500740061000F64
S11307B000A864006100740061005F006E00000026
S11307C0650076004D45544144417E31202020226D
S11307D0000000602C422C42000000602C4200000B
S11307E000000000412E0054007200610073000FED
S11307F000256800650073000000FFFFFFFF000094
S1130800FFFFFFFF5452415348457E3120202022F0
S1130810000000602C422C42000000602C420000CA
S11308200000000042200049006E0066006F000FC7
S1130830007272006D006100740069006F000000B6
S11308406E00000001530079007300740065000F0E
S113085000726D00200056006F006C0075000000EF
S11308606D00650053595354454D7E3120202016A8
S1130870000000602C422C42000000602C42030067
S113088000000000494E464F202020205458542098
S1130890000000602C422C42000000602C42050045
S11308A001000000535441545553202054585420FF
S11308B0000000602C422C42000000602C42060024
S11308C0010000002E202020202020202020203283
S11308D0000000602C422C42000000602C42020008
S11308E0000000002E2E2020202020202020201078
S11308F0000000602C422C42000000602C420000EA
S1130900000000004E4F5F4C4F4720202020202045
S1130910080000602C422C42000000602C420000C1
S1130920000000007B003300370032003000330049
S11309304200460038002D004600440038003300D1
S11309402D0034003300320031002D00410034000A
S1130950430034002D0039004100390041004200B9
S113096046003800460042004300460044007D0033
S1130970000000002E2020202020202020202032D3
S1130980000000602C422C42000000602C42030056
S1130990000000002E2E20202020202020202010C7
S11309A0000000602C422C42000000602C42000039
S11309B00000000042470075006900640000000F59
S11309C000FFFFFFFFFFFFFFFFFFFFFFFFFF000030
S11309D0000000000149006E006400650078000F0B
S11309E000FF6500720056006F006C007500000087
S11309F06D006500494E444558457E312020202035
S1130A00000000602C422C42000000602C420400D4
S1130A104D00000069290000712900007D290000B3
S1130A208D2900000000000000000000010000000B
S1130A3000000000590D0000EC0A0000FC0A000050
S1130A40B80A000002000000000000009B0D000036
S1130A507C0600008C060000B80A000004000000B8
S1130A6000000000CB0D0000D40A0000E40A0000DE
S1130A70B80A0000100000000000000000000000A0
S1130A80040B000000000000140B00000000000034
S1130A900000000000000000000000000000000052
S1130AA000000000ED5800001B590000355A0000FA
S1130AB0ED5A00002CFAFF1F895B0000955B0000D3
S1130AC0055C0000BB5C00008D5B0000C75C00009F
S1130AD0695B0000575F0000A15F0000FD5F00003C
S1130AE000000000000000003160000019610000F7
S1130AF091610000AD6100000000000000000000F2
S1130B00ED61000059720000797300006D740000FB
S1130B10AD740000E17400000D75000099750000CB
S1130B20357600004576000049760000000000009C
S1130B3038B50500434C002323620020002103C480
S1130B40083C2200083203C22200103203C263624E
S1130B503D4800F0B0F8183403C43C49280000F0C4
S1130B606AF931BD80B500F07AF901BD70B50C00A9
S1130B70344D296A07291CD1696A884219D100F0C9
S1130B80B3F89626F60001010A1A03CD030003CD3B
S1130B901918100000F090F90A214843310000F0C0
S1130BA08BF9401D0A2100F087F970432060002072
S1130BB070BD012070BDF1B582B000F076F804007C
S1130BC00D00204E376A7F1C3000183003C8009097
S1130BD001913000103003C82B00221A8B41009879
S1130BE00199994203D801D3904200D20127376278
S1130BF0012F06D0042F09D0052F0FD0072F11D0B5
S1130C001CE030C6083E0298706217E00CCE083E25
S1130C102900A01A994103C6083E0FE030000830AD
S1130C2030C00BE0300008300CC82900A01A9941EC
S1130C303200083203C2029800F011F9103630C6AF
S1130C40F7BD000020F9FF1F80380100B70B00003A
S1130C5010B51F480168802212040A430260002074
S1130C601C4908601C490022D2430A61886101249E
S1130C70CC618869042303438B61886920438861BC
S1130C800A60CC608C6000F04EF9C000134900F09B
S1130C9013F9002800D101201149086010BD0D4846
S1130CA0016802220A43026070470E4801684068E6
S1130CB0C043C943704700B50021094A12680023A4
S1130CC000F070F9C0084A071043C90800BD0000CD
S1130CD03C800440007003400071034040420F0018
S1130CE020FAFF1FE070034080B500F01CF902BD3C
S1130CF010B58207D30EFF249C40E2438907090EF6
S1130D009940030004D561481B071B0F083B00E012
S1130D105F489B089B00C01803681A401143016098
S1130D2010BD8900401801685A4B0B401104F02291
S1130D3012030A401A430260704789004158C801EF
S1130D40C00F704700E000BF1202E023DB00134035
S1130D50890043507047F7E7002800D0704710B56A
S1130D604D4C002903D002290CD003D310BD606080
S1130D70A06010BDA00D6060484801680222914344
S1130D80016010BD022201212000FFF7DBFF0222D7
S1130D9002212000FFF7D6FF10BD002800D07047C5
S1130DA010B53F4C002902D0022903D010BD2062A7
S1130DB0606210BD022209212000FFF7C4FF022255
S1130DC008212000FFF7BFFF10BD002800D07047A6
S1130DD010B5344C002902D0022905D010BD206082
S1130DE06060A060E06010BD022200212000FFF7D7
S1130DF0B2FF022201212000FFF7ADFF02220221EF
S1130E002000FFF7A8FF022203212000FFF7A3FF21
S1130E1010BD80B501212048FFF78FFF002809D0BD
S1130E2021480168080005D0002088470020C043FD
S1130E301E49086001BD10B50C0000280ED1012127
S1130E401E20FFF755FF8020C005194908600A22BB
S1130E5001211148FFF765FF1348046010BD002805
S1130E6000D0704780B58020C00512490860002179
S1130E701E20FFF73DFF002201210748FFF751FF25
S1130E8000200949086001BD000000001CED00E0DD
S1130E9000E400E0FFFFF0FF0090044014F00F4076
S1130EA000B0044000C0044028FAFF1FA090044092
S1130EB000E100E080E100E0094214D088420FD351
S1130EC00122030C01D100041204002300185B4129
S1130ED08B4200D35B1A5241F8D3190010007047BB
S1130EE001000020704708B500F076F808BD000046
S1130EF080B500F073F82348416BF82292010A434D
S1130F0042632149016001BD1E48416B1F4A0A40EA
S1130F1042631F490A68520052080A6001681D4A68
S1130F200A400260704700B51B4801681B4800680E
S1130F304903490F491CFFF7BFFF00BD1148016B6E
S1130F408022D2020A4302630168A022D2020A4329
S1130F5002600F484168802252040A4342600168DB
S1130F60802212060A4302600D48002101701021FC
S1130F700172017B40220A43027301207047002062
S1130F80704770470480044000000104FFC1FFFF64
S1130F9000700440FFFFFAF34480044054F1FF1F43
S1130FA00021074030B4434351435D18010C0C0049
S1130FB0130C5C432D1980B2434392B25143002475
S1130FC0C918644124040B04090C09195043C018BE
S1130FD0694130BC70470000704700000A487F2117
S1130FE082780A40042A0ED102789F2313400370AA
S1130FF0FF2283780B40012B03D1044B1B785B0742
S113100001D4521EF5D1704701E0074002D00740D9
S113101000209749C968C96808607047FEB5002672
S113102000206A469670924CE7697D69002D75D060
S1131030E168C9680A68012A5AD000230A00083204
S1131040091D38006D68A847002805D089498842E1
S113105002D0491C884261D1E268D1688B68002BB8
S11310605CD002934868019000786B46187068461B
S11310700078002808D068460078132804DA9268BB
S1131080C0001018083800E000200862012700287A
S113109022D0006800281FD000A9491C200020305D
S11310A0226992699047050017D168464078002864
S11310B009D0E720400169460978491EC8403840F4
S11310C001D1A04D09E002990198E268D268126A40
S11310D012689047002007E09B4D6846017828007D
S11310E000F04EFA280019D1E168C9680F60FEBD0E
S11310F0096A00290DD04968080003D000A8801CA3
S1131100884700E00020002803D0E168C9680E6029
S1131110FEBD69468978E268D2681160FEBD80B57B
S11311200178002000F02CFA5148C069416909692E
S11311308847022000F084FABFF34F8FB948BF49B3
S11311400860BFF34F8F00BFFDE780B51421484806
S1131150C068C0680C3000F0CFFA01BD10B50400BF
S113116000F0AFFBFFE7217800F00AFA10BD10B5DC
S11311700400A16860683E4A126852699047F2E729
S113118010B50400FFF7E1FF3948C068C068616822
S11311900161082101772178002000F0F1F900F0C5
S11311A079FD10BD7CB5002401940094304D6B464C
S11311B001AA8168C9B24068C0B2AE68B668B047D7
S11311C0E968C9680C6100998A08019900F0E0F99E
S11311D073BD10B50400A1686068C0B2244A926867
S11311E0D2689047BFE710B50400FFF7AEFF204870
S11311F0C068C068A1680161616841610421017728
S113120021780020B0E710B50400FFF79EFF1848CE
S1131210C068C068A1680161616841610321017708
S1131220A168002000F0C8F910BD38B50400104DC5
S1131230E868C068002141610161007F042805D18C
S1131240286800698047002C00D10400E868C06861
S1131250017F200000F094F9C748844206D1E86871
S1131260C068007F082801D100F060FD31BD000096
S113127010F0FF1F12270000F1B584B0BF4DE868DD
S1131280C06800240169002905D104980470002075
S1131290FFF7CBFF52E00121049A117007694069FE
S11312A002900094E86901236A4601A946697668B8
S11312B0B047060004D0E8694169C968884732E04C
S11312C00098002801D1AC482EE0B84200D938007B
S11312D00090E868C068017F082910D10199C160B5
S11312E0009981610099019800F0DEFC0600C6486F
S11312F0864202D0093886420CD100260AE0019ABF
S1131300009902982B689B689847060002980099F8
S11313104018029000983F1A05D0002E09D0E869C1
S11313204169C96888473000FFF77FFF049804705B
S113133004E0E868C068076102994161002005B0D3
S1131340F0BD00001127000010270000F1B58CB09B
S11313508A4FF868C06800250169002905D10C98F6
S113136005700020FFF761FF59E001210C9A11700C
S1131370016902914469C168027F029B212B00D359
S113138020230193002915D0019A04A800F02AFD16
S113139002980199401A0290F8690123019A04A95C
S11313A04669B668B0470600029800282CD0002E83
S11313B030D029E0019961180391032A07D104AAC6
S11313C0019920003B685B689847060012E0102AE8
S11313D001D00C46DCE7467F00F04DFD0096019BF2
S11313E004AA2100380020303C69E46BA0470600C1
S11313F000F047FD039C002ECAD0F86901230022A7
S113140004A94469A468A0473000FFF70EFF0C98B4
S1131410057004E0F868C068029901614461002025
S11314200DB0F0BD0400FA0510B50400E268A1682F
S11314306068524B1B68DB68984794E60CED00E04B
S11314407CB5060070680090B0680190F0687A4C32
S113145020600025494949681031002807D00A68EE
S1131460904203D34968491C814200D20425009864
S113147000F02CFD002800D104253178280000F06C
S11314807FF8002D13D100986060002000F0D8F898
S11314900198A0602068002803D080F3088880F3B6
S11314A00988A06861688847002000F0C9F873BD06
S11314B038B50400606800F009FD002801D104205B
S11314C005E06568012000F0BBF8A068A847217812
S11314D000F056F831BD10B50400284A211D100053
S11314E020301269D26990473DE638B5040000F017
S11314F0C2FC224DA36822000C326168280020300F
S11315002D696D6BA847050000F0BBFC217828000D
S113151000F036F831BD30B583B0040068460021D0
S1131520002206C000F0A7FC144DA3686A46616857
S1131530280020302D69AD6BA847050000F0A1FC00
S1131540A2686946280000F03CF837BD10B50400D5
S1131550FFF7FBFD0948C168C968A2680A616268AF
S11315604A6110220A77E168C068C0684177A168BF
S1131570002000F04BF810BD1227000010F0FF1FF0
S113158010B584B06A46A02313700023537045E05D
S113159030B589B06C46A723237000236370A37011
S11315A0551CE570019004E098000D5820188560E2
S11315B05B1C9342F8D31BE010B584B06A46A323A6
S11315C028E030B589B06C46AF23237000236370E4
S11315D0A3700225E5700190002808D19008801CB2
S11315E0E070029220000C3000F010FC00E0029346
S11315F01248C0690023E1788A00121D69464469D3
S1131600A468A04709B030BD7D27000010B584B0A0
S11316106A46B0231370012353700023937002238E
S1131620D370019002910548C06900230C226946D9
S11316304469A468A0471FBD6CF9FF1F10F0FF1F89
S113164070B505000024022D04D0002001F00FF82D
S1131650012D0ED0002605E0C16889680A0000D07B
S11316608847761C0D4818217143401801680029E9
S1131670F2D1002D0DD100F0FEFBFFF710FB01F0BD
S113168071F807480460012001F090F8FFF73CFC72
S113169062B6BFF36F8FBFF34F8F70BD2C0A00008B
S11316A008ED00E0094205D083070BD00270401C0E
S11316B0491EF9D1704700001206130A1A43130C8D
S11316C01A4300BF130030B414001500103902D3BC
S11316D010393CC0FCD2490700D30CC000D504C06B
S11316E0890002D30280801C002900D5027030BC1E
S11316F0704700000022D5E70022E3E7EFF31080F3
S11317009949086072B6704738B5984C65682A00E4
S11317100421200020302369DB6A98476A460121AE
S1131720200020302369DB6A984728680099401814
S1131730401E6860002032BD80B501F019F902BD79
S1131740F4B58AB007000D0003AA00F003F9040001
S11317506AD1A808800004902E1A0020C043089083
S11317600990002E06D032000A980499411808A85E
S113177000F038FBFFF7C2FF0498381807907B4D40
S11317800498002809D003460A9A3900280020301A
S11317902C696469A04704000AD1002E08D00423F0
S11317A008AA0799280020302C696469A04704001E
S11317B06D48006880F31088002C35D16846007BA2
S11317C0002833D0FFF79AFF0498002812D005A808
S11317D0029006A80190A8680069006DC0B200904C
S11317E00A9B049A3900280020302C69A46AA04777
S11317F0040013D1002E11D005A8029006A8019070
S1131800A8680069006DC0B2009008AB082207996F
S1131810280020302C69A46AA047040052480068BC
S113182080F31088002C01D0200000E000200BB0D1
S1131830F0BD70B588B005000C0000206946830037
S1131840CA50401C0828FAD3002C0DD02026202C86
S113185000D826006A4631002800FFF771FF0028EF
S113186003D1AD19A41BEFE7002008B070BDF8B593
S113187007000D00FFF742FF3C4C3D4B2A003900A6
S11318802000203026693669B047374E316881F32D
S11318901088002814D1A1680969096B00290FD0A8
S11318A0FFF72CFFA0680069036DDBB22A00390042
S11318B0200020302469646AA047316881F31088CD
S11318C0F2BDF8B50020294CA16809690D0058350E
S11318D08A696768296856423A68914224D16968DE
S11318E091422AD1FFF70AFF2149200020302269C2
S11318F0926890471C4D296881F31088002812D102
S1131900A1680969096B00290DD0FFF7F7FEA068EB
S11319100069016DC9B2200020302269126A904723
S1131920296881F31088F2BD8A4206D2314004D07E
S11319301000FFF79CFF0028F5D169684A42164061
S1131940724279688A42EED2491C891A1000FFF764
S11319508EFFF2BD054880680069006B002800D046
S1131960012010700020704708FAFF1F10F0FF1FBD
S11319706B66656B416882688A4208D2891A416045
S113198082667C490160012181600020704798488B
S113199070479849016000207047416A4A898282F1
S11319A0CA68921E42604A68844B9A4202D1097AFC
S11319B0022901DB9048704790490160002070477C
S11319C010B582B00400606A4168A1610168C91E53
S11319D0A1606268914201D3894816BD008900283C
S11319E001D0884816BD69460870874A1000203027
S11319F012699269904768460078002801D08348AC
S1131A0016BD2000FFF7B6FF16BD38B504007E4DA5
S1131A10626A216EE06D2B689B68984700281DD18F
S1131A202069A168491E884204D328680069804758
S1131A30002813D11022616A20001C3000F0B4FF8A
S1131A40694620001C3000F0C5FF0098616E884292
S1131A5001D0A74832BD47482060002032BD38B5C8
S1131A6004001022616A1C3000F09EFF664D626A19
S1131A701021E06D2B689B689847002820D1E06D09
S1131A801030E065206E10382066112801D3A54877
S1131A9014E0002801D0A44810E0286800698047B9
S1131AA000280DD1694620001C3000F093FF0098F7
S1131AB0616E884201D08E4832BD2E4820600020DD
S1131AC032BD10B504001C3000F068FF206E1128F0
S1131AD001D3944800E094482060002010BD80B5F4
S1131AE0426E016EC06DB24B1B68DB68984702BD45
S1131AF0F8B505005A20285A0105090FC00701D579
S1131B00082600E00426EC6D042901D00420F2BD6F
S1131B1000F0B1F9A64F330060352A0021003800E7
S1131B2020303C69646BA047040000F0AAF9002C43
S1131B3001D02000F2BD0020F2BD70B50400E56DB7
S1131B409D4E280000F0C2F9002810D02100183161
S1131B50606EA8470600012E03D12000FFF70AFF9C
S1131B6070BD022E03D100F095F8002070BD300046
S1131B7070BD0000111C000010B502005C325368F7
S1131B80011D4B600C689C4201D21D4810BD137AA4
S1131B90DB0709D513684C69A34205D15268002AB2
S1131BA002D08A60002010BD5A21415CC90701D5CA
S1131BB0824810BDFFF7DEFE10BD000053544D50A7
S1131BC002005A20115A04208B0700D5704780B5B3
S1131BD0CB0705D50905090F09D1FFF772FE02BD30
S1131BE05C3251681068724A12685269904702BDAB
S1131BF0782700009B19000075270000C119000018
S1131C00762700007727000010F0FF1F81270000CF
S1131C1070B50400250058355A262800616A102240
S1131C2000F0F4F80120295C7618401C1028FAD33F
S1131C302878F1B2884201D0614870BD5D48697866
S1131C400A2925D801A2525C974400BF340C141C05
S1131C504624342C46383C002000FFF78DFF70BD2D
S1131C602000FFF72EFF70BD2000FFF738FF70BD86
S1131C702000FFF762FF70BD2000FFF7A1FF70BDD9
S1131C80002070BD042070BD2000FFF731FF70BD3F
S1131C90693070BD10B54B4C70212000FFF72CFD4E
S1131CA049482060002010BDF2B507000024002040
S1131CB00025464E00998D4219D010203169401AF2
S1131CC00099491B0AE0002910D07A5D3369F25467
S1131CD06D1C3269521C3261401E491E0028F2D12B
S1131CE0346100F007F8002801D1E3E73848F2BD79
S1131CF07A27000080B500203249344A4A62CA6813
S1131D00002A05D00B6993420BD05B1C0B6102E0E7
S1131D108A6E002A03D108000968884702BD521E52
S1131D208A6602BD5F1A00000B1A0000F8B5204C49
S1131D30206800698047002839D1224D5920285C49
S1131D40042825D12E005C363768380000F0BEF830
S1131D5000281BD00020FFF773FC5A352878800731
S1131D6012D5706870616168103100280CD00A685F
S1131D70904203D34968491C814201D20420F2BD38
S1131D8080F3088880F30988B068B8471148F2BD29
S1131D9008280BD10220FFF753FCBFF34F8F0E48E6
S1131DA00E490860BFF34F8F00BFFDE70C48F2BD3A
S1131DB010F0FF1F122700007F2700007C2700007F
S1131DC079270000E8FAFF1F931900005CFBFF1F4E
S1131DD07D2700007E2700000400FA050CED00E0DA
S1131DE07B270000124207D08B0706D00B78491CD2
S1131DF00370401C521EF7D87047830706D00B7837
S1131E00491C0370401C521EF9D1704770B4103A3B
S1131E1003D378C9103A78C0FBD2530701D318C949
S1131E2018C001D508C908C0D20704D30B880380A1
S1131E30891C801C002A01D50B78037070BC704784
S1131E400160704772B60168491C016062B601689E
S1131E500029FCD10120704772B60168491E01E0D7
S1131E6072B60021016062B6704772B600200A495A
S1131E70086062B6704772B607480168491C016081
S1131E80704705480168022900D2EAE70168491E43
S1131E90016070470000000014FAFF1F38B5050008
S1131EA00C000020FFF7CCFB7A48046045608021D9
S1131EB00902794A1160016881F3088881F309886D
S1131EC0406880470020FFF7BBFB31BD10B582B0EE
S1131ED0002806D00021C943884202D06F498842B5
S1131EE001D1002016BD00246A46022101F011F838
S1131EF0002804D10098007A002800D00124200092
S1131F0016BDF0B589B0664CA06807696837654EA0
S1131F10350009E0397C014205D0686981692800EF
S1131F20EA6852689047183528680028F2D10021E1
S1131F3004AA03C202AA03C2FA208000FEF7BBFE71
S1131F4006AA03C280200002416800910068019043
S1131F50FFF715F8002835D10098FFF7B7FF0028E0
S1131F6030D0A068006986300078C00703D4019996
S1131F700098FFF793FF788A4B49884200D14B4879
S1131F8002AC002106AA0CCAFFF70CF803C4FEF742
S1131F908CFE04AA03C202A803C8002901D10028A8
S1131FA010D0FEF782FE04AA0CCA801A994102AA34
S1131FB00CCA994206D301D8904203D301990098E0
S1131FC0FFF76CFF350000E0183528680028E2D0E0
S1131FD0397C0142F8D02800E9680968884700285C
S1131FE0F2D0002DD7D009E0397C014205D0B542AA
S1131FF003D03000F16889688847183630680028B3
S1132000F2D1280009B0F0BD10B5FFF72EFFFEF79E
S11320106FFF234C200020302169496888472448F9
S1132020E063200020302169096C8847A0680068BB
S11320308047002000F0BAFBFEF70AFE2068006823
S11320408047A06840688047FFF75BFFE061016953
S1132050002903D009680A0000D08847E069416973
S1132060002903D009680A0000D08847E0680068A6
S1132070804710BD38B5FFF7C7FF094CE569E06834
S113208040688047E868C1680800F8D0280088479D
S1132090F5E7000078F9FF1F08ED00E011040000E7
S11320A010F0FF1F2C0A0000FFFF0000881300003F
S11320B064F0FF1F70470000002801D1042070471E
S11320C08C4909680901090F0F2901D1802102E017
S11320D008A24900515A890200220260416001218C
S11320E081608902C160426182610261026242626E
S11320F00020704708001000180020003000400045
S113210060008000C00000018001000200030004A0
S11321100006000070B5002801D1042070BDC46918
S113212065680C2209A12800FFF75CFEA04E6D1C17
S11321303560A568142200BF07A12800FFF752FEEE
S11321406D1C756002202060002070BD802101702C
S113215002780A42FCD0704701688022D2000A4308
S11321600260BFF36F8FBFF34F8F704738B5040021
S113217001D1042032BD9F489F4A1060AB48814280
S113218001D06B2032BD44E0F8B58AB007000C00E2
S1132190150001AA00F0A5FA059B2A0021003800C9
S11321A000F088FA060023D1019C0298009065197A
S11321B06D1E28000099FEF77FFE00290AD0280032
S11321C00099FEF779FE451C009845436D1E01E019
S11321D000982418A54218D32002000A902109056A
S11321E00143854801600A98AB49884203D06B26B5
S11321F030000BB0F0BD380000F01EFA060038695C
S1132200010000D08047002EE2D0380000F02FFA01
S1132210EEE7200000F010FA0500200000F027FA95
S1132220280032BDF1B588B00D0014001F00002C49
S113223001D1042039E06A4600F053FA039B3A00C6
S11322402900089800F036FA06002ED1009D02E01D
S113225003982D183F1A002F23D020686649486040
S1132260241D03992802000A042905D1C021C904A8
S113227001436148016009E0082907D121685E4AE9
S11322809160241DE021C90401431160089800F005
S1132290D3F9060008980069010000D08047002E99
S11322A0D6D0089800F0E3F9300009B0F0BD70B55D
S11322B0040001D0002A01D1042070BD4E480D064F
S11322C02D0A9A4E2E43066015684560102902D0E7
S11322D01139032903D2082B01D1516881602000F0
S11322E000F0AAF90500200000F0C1F9280070BD33
S11322F0000000004C800440F1B588B00D001400CB
S11323001F00002801D0002C01D104204EE06A46B1
S113231000F0E7F90698401E05421FD138401DD150
S1132320E919491E0EAA1278012A05D1002D10D1EF
S1132330791E07290DD10DE00EAA1278002A08D1C2
S1132340FF2907D980221204954202D39A4A914266
S113235000D30420002829D1274E0DE0652025E074
S113236071682160241D0699082902D1B168216091
S1132370241D06996D187F1A002F17D08F4801006D
S11323802940C02292040A4332600EA90978090642
S113239008430699042901D1B06002E0082900D15C
S11323A07060089800F048F90028D9D009B0F0BD51
S11323B00CFAFF1FF8B50C0015001F00002801D00F
S11323C0002D01D10420F2BD0B4E2106090A7C4ADE
S11323D00A43326000F030F900280AD1716829609C
S11323E0102C02D0113C032C03D2082F01D1B16868
S11323F06960F2BDFFFFFF4404000240002801D0E1
S1132400002901D1042070476E4800788207920F9A
S1132410022A01D1002006E0C0220240802A01D114
S1132420012000E002200870002070476B66656B95
S113243010B5020001D0002901D1042010BD0020F4
S1132440604B1C78A407A40F022C1BD078489B1C5B
S11324501860087800064C78240404438878000245
S11324602043CC7804435C60087900064C7924044A
S11324700443887900022043C9790143996010001C
S113248000F0DAF810BD80B5002801D1042002BDA7
S11324900904684A88E000006B66656BF9B589B089
S11324A00C00160001AA00F01CF9069B3200210062
S11324B0099800F0FFF8002836D101AA21000998F4
S11324C000F00FF9019C03980090604200994A4281
S11324D002405542A54205D16D1803E0F61BE419EC
S11324E000982D18002E1ED0281B3700864200D9D4
S11324F0070038000699FEF7DFFC2102090A802252
S113250052040A4360490A600AA9097809020004CE
S11325100843FF2101435C484160099800F08CF8AE
S11325200028DBD000E000200BB0F0BDFFFF00432B
S1132530F1B588B00C0016001D0001D1042031E073
S11325406A4600F0CEF8079B32002100089800F09C
S1132550B1F8002826D1009C4B4F05E00799761A64
S11325608A089200AD186418002E1BD02002000ABD
S113257080218904014339600EA8007800060F49C0
S1132580014379602868B860089800F055F800287D
S1132590E4D00F99002900D00C601099002901D0D3
S11325A000220A6009B0F0BD0A4337490A6000F00E
S11325B043F802BD0000000000048000FFFFFF009C
S11325C0FFFF00410200024010B51C0001D10420AD
S11325D010BD042300F06EF8002800D1207010BD57
S11325E0002801D0002A01D10420704709291CD8F1
S11325F001A35B5C9F4400BF0A1212161A1E222616
S11326002A2EC0681060002070474068FAE780688E
S1132610F8E70068F6E70020F4E74069F2E780692C
S1132620F0E7006AEEE7406AECE76A2070470000D2
S1132630FFFFFF45FFFF004010B5144C70212170CF
S113264000F02AF8002811D12000114909688847B0
S11326502078810601D5672010BDC10601D5682008
S113266010BDC00701D5692010BD002010BD38B5CC
S11326700400200000F010F80500002D03D10548E7
S113268003494968884731BD040002400000024004
S11326900CFAFF1F0C3000F0002801D10420704711
S11326A0C069002804D00068022801D100207047C6
S11326B06D207047002801D1042070475B1E194229
S11326C001D1134001D0652070470368994204D3B7
S11326D0406818188918884201D266207047002083
S11326E0704770B505000E001400002D01D10420C0
S11326F070BD20212000FEF7FFFF2868301A2060FB
S1132700E86860606868A968FEF7D6FBA0600420EA
S1132710E06020616061A061E061002070BD0000A4
S113272080B514481449086014491548421A1548DC
S1132730884203D0002A01D0FFF754FB1248134902
S1132740091A01D0FEF7D6FF11481249091A01D01F
S1132750FEF7D0FF10491148421A02D01048FFF783
S113276041FB01BD0020C0430E4908600E490860CA
S1132770704700000000000008ED00E00077000052
S1132780747A000000F0FF1F20F9FF1F980000205A
S113279000F4FF1F20F9FF1F487B0000487B000066
S11327A09800002080E100E080E200E0F8B5604D90
S11327B0604C002853D1206C68605F4880680169D0
S11327C06831087CC206D00F0A7FD307DB0F0122D1
S11327D0424013420DD0216CA0204004090F491C33
S11327E0FEF76AFB5549086020685549014021609D
S11327F0F1BD497FCA431607360F761C012700280E
S113280001D107E0761E4F483100FEF755FB4E49D3
S11328108842F7D34B483100FEF74EFB4B498842C0
S113282001D3761CF6E745490860009000E07F1C60
S113283000983900FEF740FB45498842F7D2761EDE
S113284030077F1E3904E022D2020A400243226488
S11328500421287800F00CF804202870F1BD012828
S113286005D10021287800F003F868682064F1BDE0
S1132870884200D17047F0B540200C220023354C2B
S11328809A252426042932D133490F68C1003943DB
S1132890314F396031490F68314939402F4F396020
S11328A07F682F4939402D4F796089212D4F397028
S11328B066702570E178C906C90EE17001212171A5
S11328C06371A179C906FCD4A17911400829FBD10F
S11328D06071A17911400829FBD1A1790142FCD092
S11328E01A202070A07910400C28FBD1F0BD0029DB
S11328F01CD1257060716670A07910400828FBD146
S11329006371A0798006FCD41E202070A079C006D3
S1132910FCD5A0791042FCD112480370A07980073D
S1132920FCD480206070042020702371F0BD00006E
S113293000FAFF1F0480044010F0FF1F54F1FF1F32
S1132940FFFFFEFF00D8B805002D3101016CDC0249
S113295001366E010040064038800440489004402F
S1132960FFF8FFFE0050064080B500F029FB02BDD1
S113297080B513000A000100180003E080B51300BD
S11329800A001900FFF72EFA002002BD10B50C0052
S1132990110001232200FDF76BFD10BD0021C94386
S11329A0016000214160704770B503684468A41851
S11329B0446000BF12A407E00E78491C1D021B0EE0
S11329C05E40B300E3586B4015006A1E002DF3D13E
S11329D0036070BD30B502684368032423420BD002
S11329E004251C402B1B00BF05A41502120E9200E7
S11329F0A2586A405B1EF8D102600A6030BD000034
S1132A0000000000B71DC1046E3B8209D926430DA6
S1132A10DC7604136B6BC517B24D861A0550471E3E
S1132A20B8ED08260FF0C922D6D68A2F61CB4B2BDE
S1132A30649B0C35D386CD310AA08E3CBDBD4F3886
S1132A4070DB114CC7C6D0481EE09345A9FD524126
S1132A50ACAD155F1BB0D45BC2969756758B5652BE
S1132A60C836196A7F2BD86EA60D9B6311105A675E
S1132A7014401D79A35DDC7D7A7B9F70CD665E7406
S1132A80E0B6239857ABE29C8E8DA1913990609566
S1132A903CC0278B8BDDE68F52FBA582E5E664867E
S1132AA0585B2BBEEF46EABA3660A9B7817D68B39E
S1132AB0842D2FAD3330EEA9EA16ADA45D0B6CA0C6
S1132AC0906D32D42770F3D0FE56B0DD494B71D9E6
S1132AD04C1B36C7FB06F7C32220B4CE953D75CAFE
S1132AE028803AF29F9DFBF646BBB8FBF1A679FF1E
S1132AF0F4F63EE143EBFFE59ACDBCE82DD07DEC46
S1132B0077708634C06D4730194B043DAE56C539D5
S1132B10AB0682271C1B4323C53D002E7220C12A0D
S1132B20CF9D8E1278804F16A1A60C1B16BBCD1F0D
S1132B3013EB8A01A4F64B057DD00808CACDC90C55
S1132B4007AB9778B0B6567C69901571DE8DD47555
S1132B50DBDD936B6CC0526FB5E6116202FBD0668D
S1132B60BF469F5E085B5E5AD17D1D576660DC538D
S1132B7063309B4DD42D5A490D0B1944BA16D840D5
S1132B8097C6A5AC20DB64A8F9FD27A54EE0E6A115
S1132B904BB0A1BFFCAD60BB258B23B69296E2B2CD
S1132BA02F2BAD8A98366C8E41102F83F60DEE874D
S1132BB0F35DA9994440689D9D662B902A7BEA9415
S1132BC0E71DB4E0500075E4892636E93E3BF7ED95
S1132BD03B6BB0F38C7671F7555032FAE24DF3FE4D
S1132BE05FF0BCC6E8ED7DC231CB3ECF86D6FFCBCD
S1132BF08386B8D5349B79D1EDBD3ADC5AA0FBD895
S1132C00EEE00C6959FDCD6D80DB8E6037C64F64F4
S1132C103296087A858BC97E5CAD8A73EBB04B77AC
S1132C20560D044FE110C54B383686468F2B47426C
S1132C308A7B005C3D66C158E4408255535D435134
S1132C409E3B1D252926DC21F0009F2C471D5E2874
S1132C50424D1936F550D8322C769B3F9B6B5A3B2C
S1132C6026D6150391CBD40748ED970AFFF0560EEC
S1132C70FAA011104DBDD014949B93192386521DB4
S1132C800E562FF1B94BEEF5606DADF8D7706CFCB4
S1132C90D2202BE2653DEAE6BC1BA9EB0B0668EFEC
S1132CA0B6BB27D701A6E6D3D880A5DE6F9D64DA2C
S1132CB06ACD23C4DDD0E2C004F6A1CDB3EB60C974
S1132CC07E8D3EBDC990FFB910B6BCB4A7AB7DB034
S1132CD0A2FB3AAE15E6FBAACCC0B8A77BDD79A36C
S1132CE0C660369B717DF79FA85BB4921F467596AC
S1132CF01A163288AD0BF38C742DB081C3307185F4
S1132D0099908A5D2E8D4B59F7AB085440B6C95043
S1132D1045E68E4EF2FB4F4A2BDD0C479CC0CD435B
S1132D20217D827B9660437F4F460072F85BC176BB
S1132D30FD0B86684A16476C93300461242DC565E3
S1132D40E94B9B115E565A1587701918306DD81CC3
S1132D50353D9F0282205E065B061D0BEC1BDC0FDB
S1132D6051A69337E6BB52333F9D113E8880D03A3B
S1132D708DD097243ACD5620E3EB152D54F6D42963
S1132D807926A9C5CE3B68C1171D2BCCA000EAC883
S1132D90A550ADD6124D6CD2CB6B2FDF7C76EEDB1B
S1132DA0C1CBA1E376D660E7AFF023EA18EDE2EEFB
S1132DB01DBDA5F0AAA064F4738627F9C49BE6FDA3
S1132DC009FDB889BEE0798D67C63A80D0DBFB8403
S1132DD0D58BBC9A62967D9EBBB03E930CADFF979B
S1132DE0B110B0AF060D71ABDF2B32A66836F3A27B
S1132DF06D66B4BCDA7B75B8035D36B5B440F7B123
S1132E0070B582B004000E001500002E01D1002020
S1132E1076BD6A4600F07DF8002806D12A0031000C
S1132E202000009BDB685B68984776BD70B582B074
S1132E3004000E001500002E01D1002076BD00F024
S1132E408DF8002801D05B4876BD6A463100200029
S1132E5000F05FF800280ED12A0031002000009B0A
S1132E60DB689B6898475449002802D1009AD268CD
S1132E7000E000220A6076BD38B504000D006A4601
S1132E8000F047F8002815D10098C0684069002870
S1132E9001D1662032BD2900200000F05FF800282F
S1132EA001D0444832BD29002000009AD2685269FA
S1132EB0904732BD002DFCD1002032BD70B582B0E8
S1132EC004000E001500002E01D1002076BD00F094
S1132ED045F8002801D0374876BD6A463100200005
S1132EE000F017F8002806D12A0031002000009BCA
S1132EF0DB68DB68984776BD38B5002400202E4D8A
S1132F002968002904D009690A0001D088472C6087
S1132F1032BD03002748002A00D1704770B5274C02
S1132F2064681460002902D170BD10341460146800
S1132F30002C12D02568002D05D16668002E02D120
S1132F40E668002E09D0AB42EFD365689D42ECD30E
S1132F505918491E8D4200D3002070BD70B5411828
S1132F60491E0022154B9C682469D5006419583405
S1132F705D681601AD5966682468AC4201D1AE4261
S1132F8005D0864203D3A14201D3012070BD521C57
S1132F90022AE8D3002070BD10B50848446804E054
S1132FA00068010000D080471034E0680028F7D1A1
S1132FB010BD0000D82700001CFAFF1F10F0FF1FEF
S1132FC00C4800680003010F082910D280229200E7
S1132FD08A400CD00848406810309108802292053D
S1132FE0521A02604A005118044A891841600020AC
S1132FF0704700BF2480044010F0FF1FFFFFFF1F35
S1133000BFF34F8F034804490860BFF34F8F00BFDD
S1133010FDE700BF0400FA050CED00E001280CD820
S1133020012200BF07A3185CC006C00E824001291C
S113303001D1024800E002480260704700E100E06C
S113304080E100E00809000000210180704770B5AC
S113305003001D8800240EE0085D0002684005009E
S113306008206E002D0402D53500054E6E40350053
S1133070401EF6D1641C9442EED31D8070BD000046
S1133080211000000088088070470000010C164AD7
S113309089180A680123834013430B607047010CAD
S11330A0114A89180A68012383409A430A607047C9
S11330B00029817803D080220A4382707047490630
S11330C0490E817070470000002100BF04A28B00EC
S11330D0D358834202D0491C0229F8D30800704710
S11330E00060064000700640007004404022114217
S11330F002D083781A4382702022114002D0817951
S11331000A43827170470100C8788979490603D55A
S113311001008020C0010843704738B505000C0049
S1133120FFF7D2FF264980000858FFF7AFFFA07AC7
S1133130002802D0022804D00DE0E0884000287066
S113314009E0E0884000287020894000E87168792F
S1133150082101436971A878FD210140A07840004D
S113316008432178C9010143A97068796F2101409E
S11331702079000108436178C9010143DF20084038
S1133180E17849010143697131BD000010B500BF08
S113319004000021FFF78CFF2000FFF795FF00BF1C
S11331A008A180000858FFF77AFF10BD0021817242
S11331B041708170C170017101210170704700007C
S11331C0C431000006003410070034100100002050
S11331D0684A914200D0012070470000F6B585B0DE
S11331E0040000206A4690800490059800680290CC
S11331F003900425069802996943FDF75DFE86B2A3
S1133200002E00D10126069829007143FDF754FED3
S11332100299471A00910698711C6943FDF74CFE08
S11332200099081AB84201D20700761C0398B842E4
S113323003D303970495684686806D1C212DD9D34A
S113324008466421FDF738FE4100081803998842B6
S113325001D24F4853E02000FFF7B8FF33A18000AC
S11332600858010C4B4A89180A6801238340134308
S11332700B60E078F3210140E1700498001F0428FA
S113328003D2E07A02210143E172E020A17A0140F5
S1133290049A521E0A43A272A17A08406946898898
S11332A0090A01432170684680886070A178EC2087
S11332B0084005990979002903D002001020084329
S11332C01043A0702078DF210140217020780599F7
S11332D0497949012022114001432170E078059980
S11332E08979002902D00100082008430599C97989
S11332F0002902D0010004200843E070002007B038
S1133300F0BD000080B501794906FCD5FFF75EFFEA
S1133310800000BF05A10858010C1E4A89180A68DC
S1133320012383409A430A6001BD00000A0034105F
S1133330E121490201600021017141718171C17172
S1133340704702780B0013430370C2780B0A1343CF
S1133350C3708279090C11438171704702788A43E2
S11333600270C2780B0A9A43C2708279090C8A43AC
S11333708271704700A0064005E003791B06FCD566
S11333800B78C371491C13005A1E002BF5D17047EA
S1133390B504000000700440010C2E4A89180A6824
S11333A00123834013430B6070470000002100BFDA
S11333B004A28B00D358834202D0491C0229F8D3BB
S11333C00800704700600740007007400121017049
S11333D000218170C17001714170704738B50500DA
S11333E00C00FFF7E3FF00BF1BA180000858FFF7A4
S11333F0D3FF2878BF2101402970A078C00008219C
S11334000840E17889000422114001432079C20771
S1133410D20F0A432A706078400068702078002830
S113342003D0287840210143297031BD80B501784B
S1133430BF220A400270FFF7B9FF00BF06A1800057
S11334400858010C034A89180A68012383409A43E7
S11334500A6001BD007004401600341017003410D7
S113346010B58022CB0702D50378134303708B0772
S113347003D5037820241C430470490702D54178FE
S11334800A43427010BD0000F8B51500012601245E
S11334904348006802000C320023DB43491E08291C
S11334A04DD801A77F5CBF4408244080804A8094A3
S11334B07C00696899420FD000290DD0D168012998
S11334C011DB4621415C01290DD1183009E06968FE
S11334D0994201D0002901D10020F2BD116116707A
S11334E01430FEF7B9FC002429E024212030FEF733
S11334F003F924E0A978002907D1E978002904D147
S11335002978012901D1567019E06A682900203010
S1133510FEF768FC224800686968C16106731430CC
S1133520FEF79AFC0BE0052409E000211430FEF7B5
S113353087FC00211A4800681830FEF781FC20003F
S1133540F2BD38B50C000020012C0DD1144D2868B3
S1133550462281542423020020320221806800F094
S1133560C9F9296847310C7032BD0020002900D008
S1133570704780B50A480068482142542423020059
S113358020320221806800F0B5F902BD04490860C8
S1133590002070470249086000200968886070476D
S11335A018FAFF1F10B513000120002B01D10320CE
S11335B010BD00225A745A68002A06D014682200EA
S11335C003D00A0001211800A04710BD10B5130054
S11335D00120002B01D1032010BD00229A745A68E7
S11335E0002A06D01468220003D00A000221180021
S11335F0A04710BDF0B585B0060000250120716814
S11336008968327B4B79934247D30968002944D0B7
S1133610D20089180839002200E0521C0B789A4223
S11336203BDA4B680C2454431B191C78032CF4D14B
S11336300021B77B00E0491C1A7A914206DA5A68E5
S11336400C0112191478BC42F5D11500D9787173A4
S1133650002D22D0B560002402AF08E0924800900B
S113366001966A4602A9306800F06CFA641C297954
S11336708C4212DA00203871A000A968095CB97084
S1133680AA68121852883A80AA6810184078F8700C
S1133690C8090128E2D18548E1E705B0F0BD38B595
S11336A004000120A16800290CD0002506E08868E8
S11336B0A900415C206800F063FA6D1CA1680A79D6
S11336C09542F4DB32BD000070B584B004001500EF
S11336D00120002D01D0002C01D10320C0E00026E0
S11336E0491E0529FAD802A2525C5200974400BF31
S11336F0570307172D4226736674A674B0E06168F9
S11337000029FBD0217B2A788A42F7D0002902D0F5
S11337102000FFF7C4FF28782073A67311E06168C6
S11337200029EBD029880D00627B0904090E8A4226
S11337300AD1A17BEDB28D4206D02000FFF7AFFF86
S1133740A5732000FFF756FF8AE061680029FBD0CB
S1133750A1680029F8D0A26811798E42F4DA297898
S11337609268B300D25C914202D1206800F021FA41
S1133770761CF0E76168002972D0A16800296FD037
S1133780A26811798E426BDA29789268B300D25C10
S1133790914202D1206800F01AFA761CF0E72968F9
S11337A00A78D206D20E012A5AD10A79637B9A4248
S11337B056D120006A464B78012B0AD0022B10D038
S11337C0032B16D0092B1DD00A2B38D00B2B3DD040
S11337D045E04988090A1172296849885172032110
S11337E01CE022000F32042163681B6898470F34E1
S11337F006E022001032042163681B6898471034E5
S11338006C602DE04988090A11722968498851724F
S1133810297B00290AD0A9680191092163681B68E2
S11338209847009969600199A96019E06968009155
S1133830A9680191062163681B68984710E04988CC
S1133840090AE1732A68921C072104E0498821745B
S113385022001032082163681B68984700E00520A5
S113386004B070BDF8B50C00170000250021104A03
S113387014234B43D6183268002A04D0491C01296A
S1133880F5DB0220F2BD310000F044FA00280AD131
S11338903068002801D10320F2BD74603573FF2025
S11338A0B0733E600020F2BDCD350000A5350000A8
S11338B0A4F6FF1F10B5040001D1032010BDFFF7CB
S11338C0EEFE0021216061602173A17310BD10B56B
S11338D0002801D1032010BD0400607C002801D021
S11338E0022010BD206800F011F9002801D1012147
S11338F0617410BD10B5002801D1032010BD04006F
S1133900A07C002801D0022010BD206800F006F938
S1133910002801D10121A17410BD000010B50400DC
S113392000F0FAFA002020608D34207000F0FEFAD6
S1133930002010BD38B5002801D1032032BD4468F1
S1133940002C08D000680D0602D5A468A04732BD3B
S1133950E468A04732BD062032BD80B5002801D1FD
S1133960032002BD4368002B03D000685B699847BD
S113397002BD062002BD3EB505000A7A13071B0FDF
S1133980D4090120102A19D100220B212800FFF7A5
S1133990E4FF28008C300221817000240470002090
S11339A0C1006918CC600C61401C1028F8D30022B7
S11339B001212800AB68984700203EBD082B11D296
S11339C05A001443E200AB18DA68002A0AD00868E7
S11339D0009048680190487A694608721A6928007C
S11339E0DB6898473EBD80B5002901D0002801D18D
S11339F0032002BD8268002A01D1012002BDFFF725
S1133A00BAFF02BDF7B50500002A01D10320FEBDAF
S1133A1000F082FA2A4E37008C373068002806D02E
S1133A2079788D4203D100F081FA012540E0022427
S1133A30002803D000F07AFA022539E07D7000F006
S1133A4075FA0198B0607D70002000213970CA00B9
S1133A50B218D0601061491C1029F8D3012D18D870
S1133A608AA07060174800280ED0174800280BD091
S1133A701648002808D01648002805D01548002804
S1133A8002D01548002809D13000FFF747FF07206E
S1133A90FEBD3000FFF742FF0620FEBD32003100BC
S1133AA0280000F08FFC050004D0300000F01CF862
S1133AB02800FEBDBC70029806600020FEBD000018
S1133AC014F6FF1FC54300003D4400007744000086
S1133AD0E9440000A3450000F545000080B500223C
S1133AE00021FFF73AFF02BD10B5040001D1032005
S1133AF010BD6168002904D0206849688847002007
S1133B0060602000FFF70AFF002010BD10B50C070D
S1133B10240F80212143FFF70DFF10BD80B5090755
S1133B20090FFFF707FF02BD80B5002801D103206C
S1133B3002BD4268002A03D000681269904702BDA2
S1133B40062002BD10B5002801D1032010BD0029B4
S1133B5014D0002A12D08B781C07240FDB09082C00
S1133B600CD264002343DB00C3181468DC60526881
S1133B701A610A000221FFF7F0FE10BD042010BDF7
S1133B8073B504000D072D0FCE09002C01D10320BD
S1133B9076BD01AA0321FFF7E0FE082D07D26900D4
S1133BA00E43F10061180022CA600A6176BD042048
S1133BB076BD02B5694609780907090F082904D2B8
S1133BC06A460421FFF7C9FE02BD042002BD02B506
S1133BD0694609780907090F082904D26A460521AC
S1133BE0FFF7BBFE02BD042002BD000058B5030070
S1133BF00120002A01D1042052BD1C008C34891EEE
S1133C0006291AD801A6765CB74400BF080C1E2208
S1133C10101626000C210DE00D210BE00020A178E8
S1133C2001E000202178117052BD062102E0072135
S1133C3000E009211800FFF790FE52BD10B5030003
S1133C4001201C008C34032906D0062906D007293C
S1133C5009D0092915D010BD0E2113E0002A14D073
S1133C600020117808E0A178032907D0002A0CD09D
S1133C700020117821700321A17010BD22000821B9
S1133C8000E00A211800FFF768FE10BDC5430000DC
S1133C903D44000077440000E9440000A3450000CF
S1133CA0F545000010B5040000F036F974480168C9
S1133CB000290AD0817C8C4207D100210160416037
S1133CC0817400F033F9002010BD00F02FF90420B6
S1133CD010BD38B505000C0000F01EF968480168F5
S1133CE0002903D0817C8D4200D10EE009E038B573
S1133CF005000C0000F010F9614801688D4200D104
S1133D0003E000F013F9042032BD206000F00EF946
S1133D10002032BD38B505000C0000F0FDF858480D
S1133D200168002904D0807C854201D12160EDE73F
S1133D30E7E70000F7B50125002A04D06946FFF73C
S1133D40D6FF002801D00420FEBD002405E0521C4B
S1133D50D2B2032A07D3641CE4B200984168087AFB
S1133D60844219DA002208680C236343C01800BF98
S1133D705DA316019B191E7B87683F79BE42E6D17D
S1133D80029A6946097940689B689847052804D0D7
S1133D900028E0D10025DEE72800FEBD70B582B022
S1133DA004000D0016006946FFF7A1FF002811D199
S1133DB0012D08D10099200000F0C7FF009A0221CC
S1133DC02000FFF7B7FF320029002000009B5B684A
S1133DD05B68984776BD0000F4B507000C00012528
S1133DE0002A04D0002C02D06068002801D10420ED
S1133DF0F2BD00F091F8224E3068002805D0B17C65
S1133E008F4202D100F092F816E0002803D000F0AF
S1133E108DF8022510E0B77400F088F87460320061
S1133E2018493800FFF7EEFD050007D03068FFF7AA
S1133E305BFE3800FFF736FF2800F2BD002516E0D0
S1133E400024706800680C216943411826A02201EF
S1133E508318886800791A7B904203D10A1D3800C0
S1133E601B689847641C032CEBD36D1CEDB270687F
S1133E70007A8542E4DB3068009908600020F2BDD6
S1133E8000F6FF1F9D3D0000F8B507006946FFF7E7
S1133E9020FF040026D1002516E000260098406883
S1133EA000680C21694340180FA132018918826807
S1133EB012790B7B9A4202D1406849688847761C84
S1133EC0032EEBD36D1CEDB200984068007A854256
S1133ED0E3DB00980068FFF707FE040002D1380016
S1133EE0FFF7E0FE2000F2BD65380000B5380000A1
S1133EF0C936000001000000FD670000F168000001
S1133F000D69000003000000000000000000000034
S1133F1000000000000000000A480178002900D1D8
S1133F2072B60178491C0170704700000548017899
S1133F30002904D0491E0170C9B2002900D162B61B
S1133F40704700001CF9FF1FF8B5040017000D00AE
S1133F506E003E43FFF7E0FF30012018C26A802163
S1133F60C9011143C162FA07D20E2B07DB0D0825E4
S1133F706B4E676837401F431743490A294039434A
S1133F80009F4F60C06A61680E4033431A43410A80
S1133F900D401543069989058909400940221040BE
S1133FA00843882101432960FFF7C0FF09E180B578
S1133FB0C16A08224B0A1340C3180C33036200235E
S1133FC083624262574A0A40802189011143C162D7
S1133FD008210091036A00220021FFF7B5FF01BD0B
S1133FE0F8B5011DFF224B6888331A704B6894336F
S1133FF01C78022525431D70002300244D68983544
S11340002C70474D2607F60D00960E682E40009F33
S113401037433B600F682F40009E3E4308273743D9
S11340203B600F682F40009E3E43102737433B60A0
S11340300F682F40009E3E43182737433B606601BC
S11340408619F3626600012737433E018619F3623D
S11340504E68A700F619C0363370641C082CD1D3FF
S113406090246400001903704C6894342578FD266C
S11340702E4026704C688C34227089224C6884341B
S113408022704370486894300178DF220A4002703D
S1134090F1BDF1B582B00C8888780207120FC3090C
S11340A050001D00054390000090C448C9780129C0
S11340B004D1411C8C420DD304000BE0412C00D3ED
S11340C0402402998968009E8919C0310E7801271D
S11340D037430F7002992D014919CE6AB84D354006
S11340E0CD62AD0AAD0220402843C8620D4C0440A5
S11340F0CC62CF482040C862002B01D0042000E0ED
S1134100082002998968009C0919C0310C78204361
S11341100870134302D10298FFF749FF0020FEBD47
S113412000FEFFFFFFF7FFFF70B504000E07360F18
S11341307000CD090543200000F033FAA068B100F7
S11341404018C0300021017028012018C16A890A72
S11341508902C162002070BDF8B504000807000F91
S1134160C90943000A001A431201A218D56AB04BC8
S11341702B40D362AF4D1D40D56200230E01450193
S113418035436668760A76022E43DD072D0F3543E4
S11341902E68760705D5D66AB605B60908273743CB
S11341A02F605B1C022BE9D3A2688300D218C032B3
S11341B01378FD251D401570014302D12000FFF73F
S11341C0F6FEA06894300178DF220A4002700020D5
S11341D0F2BDF0B589B00500AA688032107C0F23C7
S11341E007090121C60801243440029484080120EF
S11341F02040082414706A68540A64027A01224335
S1134200029C24011443C20022431468A201920DAB
S113421000920022A40823400D2B01D1012600E0C6
S113422000267C00029B23431B061B0DEC18E36A4B
S11342309B0B0B405CD0002E03D090235B00EB184B
S1134240D870029800283ED0A06A00994018A06255
S1134250616A081A0190E16A802000014840E06226
S1134260802149014140E1620198002804D000986E
S11342708905890D88421ED2A06A0690206A05909D
S1134280E16A4F480840E06200998005800D814250
S11342901ED1002F1CD1606A902149006918C97889
S11342A0C9006918498A884212D20023002128686B
S11342B0FFF72CFC1CE0019B226A80213943280073
S11342C000F0D9F814E00098384313D1069205920F
S11342D005A846720299C9013943017205A92868E3
S11342E0FFF781FBA86894300178DF220A4002704E
S11342F009B0F0BDE06A430B19401FD169684B0A4D
S11343005B0279011943400A0823184008434068B6
S11343100490206AA16A4018039004980399884283
S113432009D0002004E00499095C039B1954401C43
S113433000998842F7D3902040002A54A06A00993B
S11343404018A062616A081A0190002F10D1002E53
S11343500ED08021280000F024F9E86A80210901A8
S11343600143E962E86B802109010143E96304E048
S1134370E06A802109014140E162E16A8020400154
S11343804840E062616A002907D00199002904D0FD
S113439000998005800D814208D2A06A0690206AA7
S11343A00590E06A06490140E16291E7019B226AB7
S11343B03900280000F098F89AE70000FF03000095
S11343C0FFBFFFFF70B582B00D001600694600BF45
S11343D019A213680B60002827D1824C912149004F
S11343E060540098A060891C6118E161FF2180304D
S11343F0017000220121200000F0FCF87A4860607E
S1134400000AA1689C3108706068000CA168B03192
S113441008706068000EA168B43108702000FFF7CE
S1134420DFFD34602560002076BD062076BD0000E7
S1134430FFFBFFFFFFF7FFFF00200740002801D12B
S113444003207047FF2182688032117081688431B3
S11344500A7800220A70836898331A70816894314C
S11344600A7080688021490040180178C0220A43FC
S1134470027000207047F1B582B01C0001200F27A4
S11344800F230B405B0003430126029D1B01ED1823
S1134490EB6A9B0B184006D1A8622A626C62E86A38
S11344A072030243EA62E86A8005800DA04200D2EA
S11344B004000F400298FF212231405C002809D1FA
S11344C00094286AA96A4318012239000298FFF768
S11344D03BFD0600A86A044304D1002F02D10298D0
S11344E0FFF765FD3000FEBDF7B582B01C000F2755
S11344F008463840410001200126029A0901551856
S1134500E96A890B014003D1A962049929626C62AA
S1134510E96A42030A43EA62E96A8905890DA1420C
S113452000D20C000499AA6A891801910299902278
S113453052008918029AD269002A12D00A78002AF5
S11345400FD1412C0DD20322144202D1019B1342FC
S113455007D0EA6A254B1340EB62029AD2690192B2
S113456008706846007B07404878002807D100940B
S1134570019B002239000298FFF7E6FC0600002C9C
S11345800CD1002F0AD1E96A802040014840E8623A
S113459017490140E9620298FFF709FD300005B0B0
S11345A0F0BD10B584B00A07D30ECA091A4312012C
S11345B08218D36A5C04E40F10D00023DB43019318
S11345C0136A00936B46197200215972D16A084B21
S11345D00B40D36269460068FFF705FA002004B077
S11345E010BD0000B8F6FF1F00F4FF1FFFDFFFFF40
S11345F0FFBFFFFFF8B5040001230120002C01D107
S11346000320F2BD042580260C29FAD801A77F5C7B
S11346107F00BF44061F2E353C666D7182A0A089C1
S11346209C000020A1681A028854A068017F2942D6
S113463002D0017F0E430677A06884214900401808
S1134640017810220A430270A068943001780B4369
S113465003707AE0A068017F294203D0017F4906F4
S1134660490E0177A0688421490040180178EF229F
S113467034E0002A6FD011002000FFF70AFDF2BDDC
S1134680002A68D011782000FFF74EFDF2BD002A01
S113469061D011780E07360FCD0970002F00074343
S11346A02000FFF77EFF38012118CA6A8020C0006D
S11346B01043C8626168490A490272010A43290128
S11346C01143420A08231A400A43800580098C21B9
S11346D001431160A06894300178DF220A4002701F
S11346E033E0002A37D011782000FFF735FDF2BD02
S11346F0002A30D0138028E0002A2CD011780B0730
S11347001B0F082B27D25800C909014308012018A0
S1134710C06A4005C10F518017E0002A1BD01078F1
S1134720A1689831087010E0002529003143C9B20E
S11347302000FFF7F9FCE9B22000FFF7F5FC6D1C3F
S1134740082DF2D32000FFF74BFC0020F2BD002A15
S113475001D000201070F2BD002800D1704770B560
S113476084B00468A06880300678300702D5200041
S1134770FFF72FFD0125F0070FD5FF2122316554E6
S1134780A16880310D7000200090694610220A72E1
S1134790019048722068FFF726F98020064212D063
S11347A0A16880310870E06B800A284003D1E06A78
S11347B0800A054007D080212000FFF7CDFC0021AE
S11347C02000FFF7C9FC7FBDFEB582B006000524BA
S11347D001AA06213068FFF709FA68460079012822
S11347E005D068460079002801D0052030E0029801
S11347F0007802251F210327084208D13200103215
S113480004213068FFF7F2F90400308A18E000222E
S11348101F230340012B02D10024328212E0014005
S1134820022911D10298808869460870684642803E
S11348306A4605213068FFF7D9F9040068464088C4
S113484007403782049805601036039806602000FC
S113485005B0F0BD70B582B006000C00052500203F
S11348606946087000AA521C06213068FFF7BEF999
S113487068464078012805D068464078002801D071
S1134880052076BD6078032802D1012069460870AE
S113489020781F21084208D1608801282BD16A465C
S11348A010213068FFF77AFA24E00140022922D16E
S11348B0608800281FD1A0880F2210420ED1024028
S11348C0C109114330686A461278002A03D0C9B27C
S11348D0FFF76FF902E0C9B2FFF779F9306869466A
S11348E00978002902D0221D052101E0221D06219C
S11348F0FFF720FA0500280076BD38B505000C0046
S11349006A4606212868FFF771F96846007803288B
S11349100BD0012803D0022801D0052032BD6088C5
S1134920694608706A4607210BE0002207212868BF
S1134930FFF784F9002807D10120694608706A4608
S113494006212868FFF77AF932BDFCB585B0070067
S11349500D0005246E88300A009001AA06213868EB
S1134960FFF744F968460079012805D0002803D0F0
S1134970022801D0052037E0E88803900098012838
S113498002D102AA092124E002A80099022903D134
S1134990067202AA0A211CE0032905D18672A9889D
S11349A0018102AA0B2114E0212904D1A9880172F2
S11349B002AA0C210DE0222904D1A988017202AABD
S11349C00D2106E0232908D10672A988417202AAA2
S11349D00E213868FFF7E2F904000298059908608F
S11349E0039806990860200007B0F0BD70B582B046
S11349F0040015001E006A4606212068FFF7F6F839
S1134A0068460078012805D068460078002801D05F
S1134A10052076BD0120306020001030286022007F
S1134A20103211212068FFF7B9F976BD38B50500B9
S1134A300C006A4606212868FFF7D8F86846007813
S1134A40012805D068460078002801D0052032BD31
S1134A500020694608706A4606212868FFF7EEF8C8
S1134A606088002807D10120694608706A4606213B
S1134A702868FFF7E3F8A21C03212868FFF75AF916
S1134A80A21C07212868FFF789F932BDF8B5040094
S1134A900D0016001F006A4606212068FFF7A6F8DD
S1134AA068460078002801D00520F2BD0120386056
S1134AB02000103030602879208222001032122128
S1134AC02068FFF76BF9F2BD38B504000D006A46A3
S1134AD006212068FFF78AF868460078002801D08C
S1134AE0052032BDA8880002A97801432182220052
S1134AF0103204212068FFF71DF92200103208212A
S1134B002068FFF74BF932BDF8B504000D0016001C
S1134B101F006A4606212068FFF768F86846007897
S1134B20002801D00520F2BDA8882082220010327E
S1134B3008212068FFF75AF81034346002213960E4
S1134B40F2BD7CB506000D0001208024052A10D199
S1134B5029786022114207D0214205D1E988002931
S1134B6002D0002B00D10020C1013000FFF721F852
S1134B7076BDE98807980268914200D20160036813
S1134B800698026800213000FEF7C0FF002808D113
S1134B902978214205D00023002200213000FEF7AD
S1134BA0BDFF76BDF5B589B00F00002503950495CA
S1134BB0052478680021C943884213D00A98002844
S1134BC010D00646083602AA06210998FFF70EF807
S1134BD04020397A002975D07968082902D13968CA
S1134BE0002901D10520AEE04A8872808A88B2800B
S1134BF0CA88F2804A787270097831706023194249
S1134C000CD100BF65A091004558280054D004ABD6
S1134C1003AA31000A98A84704004DE00122F38852
S1134C20002B29D00B0627D48B060BD5069505A897
S1134C3002730596F088079005AA01210998FFF7E9
S1134C4079F80CE0014237D0069505A80273059661
S1134C50F088079005AA0F210998FFF79FF8040030
S1134C60079804900698039026D1F388039A0021AC
S1134C700998FEF753FF66E08B060BD5069505A849
S1134C8002730596F088079005AA01210998FFF799
S1134C9051F80CE001420FD0069505A80273059661
S1134CA0F088079005AA0F210998FFF777F8040008
S1134CB0079804900698039004A8019003A8009014
S1134CC0002339E06946097A032909D104AB03AA10
S1134CD031000A9831A47578AD006459A04730E0DA
S1134CE0796800292ED0F18800292BD031780A0662
S1134CF028D48A060CD53868069005A8057305964D
S1134D007868079005AA01210998FFF713F80DE0C8
S1134D1001420CD03868069005A80573059678689A
S1134D20079005AA0F210998FFF738F8040004A892
S1134D30019003A800900123220031000998FFF795
S1134D4000FF040020000BB0F0BDF0B585B00700F3
S1134D5011480090019102AC012020710026E670F8
S1134D608020A070402020806A4602A93800FEF707
S1134D70E9FE05000ED1A6706A4602A93800FEF7C6
S1134D80E1FE050005D080213800FEF7F9FE280079
S1134D9000E0002005B0F0BDA54B0000C9470000AD
S1134DA055480000000000005548000000000000C5
S1134DB0FB4800004B49000000000000ED490000E2
S1134DC02D4A00008D4A0000C94A0000094B00002A
S1134DD00029817803D080220A43827070474906F3
S1134DE0490E8170704780B5002000F0ABF801BD1A
S1134DF080B5012000F0A6F801BD6D494068085C4B
S1134E0070476B498A68002A08D04A68137803708F
S1134E10521C4A608868401E8860704700210170F7
S1134E20704780B562494969884701BD5A2800D056
S1134E30704780B55E4A012353545E49116151693C
S1134E40884701BDF0B585B00400594E7161022157
S1134E506068A26890476068009000BF59A00099FC
S1134E608900455801A8FEF7A1F901A81021C180C5
S1134E7051498968096979310978FF2900D0C180CD
S1134E8001A92800FEF749F901212800FFF7A0FF36
S1134E9040212800FEF72AF9FCF745F82F00FA21F3
S1134EA08900FCF709F801004448FCF705F80021E3
S1134EB000E011004A1C13004343322BF9D30125AF
S1134EC0002905D1FF22F632904204D2012102E0EA
S1134ED0202900D31F21B879E02202401143B9717F
S1134EE001210098FEF79AF835483061606830185F
S1134EF08570002005B0F0BD70B5040060682C4DCD
S1134F0029188978002914D02EA182008E580021F6
S1134F10FEF784F800213000FFF75AFF3000FEF757
S1134F2035F900216068A26890470020616869181B
S1134F30887070BD1E484160826081680029FCD180
S1134F400020704770B582B0040000BF1DA0A1000E
S1134F5045582800FEF7D7F812220240EA70502183
S1134F600140102912D01021114AEF23460612D510
S1134F704007A8780BD50143A97000206946087042
S1134F806846D168884768460078287173BD034035
S1134F90AB70287973BDAE780E4203D0C007ECD550
S1134FA0A878F4E7287921001269904773BD0000BE
S1134FB094F0FF1F234E000010F0FF1F40420F002B
S1134FC02D4E00000060064000700640F8B50B004E
S1134FD0110001250120C04C26685B1E062B30D829
S1134FE001A7FF5CBF4400BF08162E384A5A580078
S1134FF0002926D00868400A00F0C8F805E0002916
S11350001FD00868400A00F081F8002819D02168F0
S1135010BD4A8D54F2BD002913D058368E60F2BDBE
S113502000290ED058368E600868400A00F0AEF8A9
S1135030F2BDC0030860800948600D748860C860D0
S11350400020F2BD0020704770B5A34C206058309A
S113505000F0CEF925682800583000F04BFB06001C
S11350608421C90054352800FCF746FB20688C21B4
S1135070C900465000214165002070BD9649086072
S11350800020096808657047F8B50124924F386814
S1135090B149405C002805D1FCF7FCFD3868AE4AF4
S11350A0845444653868AD49405C00282DD00225FD
S11350B03968A94A8D5400F011F90600F7D0386810
S11350C0A5494018C168002906D10178022903D1F5
S11350D0032000F02EF900E04470A148864214D069
S11350E038689E494018002101709E498E4201D1C2
S11350F0C574F1BD62398E4202D1C574032002E049
S11351000321C174002000F014F9F1BD70B582B020
S113511005000C0084204000854235D36E4E306873
S1135120914941180A78002A0ED18878002801D0C4
S11351300F2076BD6946A06800F0B0F8002823D09F
S1135140009800F0E3F803E08849405885421BD1F9
S11351503068864941184B686268934200D21A004D
S11351608E68B6188E609B1A4B606D1C0D60002B08
S113517002D100217C4BC154A16896239B00C01826
S1135180FCF730FEFFF780FF002076BDF8B507007E
S11351900C006168A068FCF7ADFA00BF26A000E02F
S11351A00C304168002906D00268BA42F8D18268FE
S11351B0A068FCF717FE484D28688C21C9004018E8
S11351C032A6002F08D0FF21891C7F1A0ED07F1F22
S11351D020D07F1E22D02CE05520A168FF2252004F
S11351E08854AA20A168521C885422E0A4687B3108
S11351F06118006800F086FA28688E21C900405CB6
S11352008000305800F076FACE214900611800F091
S113521079FA0EE0A06800F0EBF80AE0007C800068
S11352203558280000F066FA02002900A068FCF74F
S1135230D9FD0020F2BD000000000000DC060000E3
S11352403600000001000000140700000E000000FA
S11352500101000024070000A00100000301000078
S1135260C40800006000000004010000740900008C
S1135270A000000005010000240900004D0000000A
S1135280000000000000000000000000AC06000068
S1135290B4060000C4060000D006000030B50500C6
S11352A00C00143000F038FAA649884211D12800C5
S11352B0343000F031FAA44988420AD1287E01280A
S11352C007D11C35280000F027FA000120600120D6
S11352D030BD002030BD000024FAFF1F80B52448F3
S11352E000689A4942181368802189008B4203D2CE
S11352F0190001D11A4802BD5B1A1360962292006C
S11353008018FCF7D1FC02BD5904000010B51849FF
S11353100B688F495C180121217061700022A27012
S1135320E17022718D24E4001B195A60186019720F
S113533010BD10B50E490968854A8C1801222270E7
S113534000236370A070E37023718D20C0000818DF
S113535043600360027210BD5C0400005D04000041
S11353607D270000742700005B0400006404000033
S113537024FAFF1F30B530220270782242700022D6
S1135380827200BF7BA31C249500641B0D00E540C2
S11353902C07240F1C5D8518AC70521C082AF2D30C
S11353A030BD70B504000D000026002D0ED028007D
S11353B00A21FBF781FD3031A15528000A21FBF7B2
S11353C07BFD0500761C002DF1D102E03020207019
S11353D00126A01900210170401E05E00178227801
S11353E002702170401E641C8442F7D370BD00001B
S11353F0F1B5C0B0574880680669306814907A20C7
S1135400375A5548874200D1544F5548016826A859
S1135410FFF7B0FF103626AC316820000B30FFF7E1
S1135420A9FF306871684118491E20001630FFF743
S1135430A1FF716920002130FFF79CFF7069B169F9
S11354404118491E20002C30FFF794FFB16C200056
S11354503730FFF78FFFF16C20004230FFF78AFFEF
S1135460316D20004D30FFF785FF716D20005830FD
S1135470FFF780FF716815A8FFF793FF15ADB168BA
S113548028000B30FFF78DFF316928001630FFF735
S113549088FFB16928002130FFF783FF3900280015
S11354A02C30FFF77EFF2F48016828003730FFF7C4
S11354B078FF2DA12DA2B06D2D4B984201D1130080
S11354C000E00B00306A002800D0110028003730BB
S11354D0139028002C301290119310920F912000F9
S11354E058300E9020004D300D90200042300C902A
S11354F0200037300B9020002C300A9020002130FF
S113550009902800213008902800163007900B35A8
S113551006952000163005900B34049415A80390CA
S113552026A8029014A80078019014A8407800904E
S113553014A88378C27800BF13A1409800F0F8F84B
S113554041B0F0BD53544D507367746C6C0400004B
S11355505A04000010F0FF1FFFFF00008813000032
S11355602480044054F1FF1F6E6F000079657300BE
S11355706B636667303132333435363738396162BC
S113558063646566000000004B696E65746973208E
S1135590426F6F746C6F6164657220256325642E9D
S11355A025642E25640D0A0D0A53797374656D20E4
S11355B06465766963652049443A2025730D0A467B
S11355C06C6173682073697A653A20257320627967
S11355D07465730D0A466C6173682072616E676549
S11355E03A2025732D25730D0A466C617368207368
S11355F06563746F722073697A653A20257320623B
S1135600797465730D0A466C61736820626C6F630C
S11356106B733A2025730D0A52414D2073697A65E4
S11356203A2025732062797465730D0A52414D2026
S113563072616E67653A2025732D25730D0A5265D4
S113564073657276656420726567696F6E20303A9F
S11356502025732D25730D0A526573657276656472
S113566020726567696F6E20313A2025732D25738A
S11356700D0A566572696679207772697465733AA2
S11356802025730D0A436865636B20726573657228
S113569076656420726567696F6E733A2025730DB1
S11356A00A426F6F7420636F6E666967207072655B
S11356B073656E743A2025730D0A506572697068BB
S11356C06572616C20646574656374696F6E2074BF
S11356D0696D656F75743A202573206D730D0A43E7
S11356E0505520636C6F636B3A20257320487A0D04
S11356F00A000000010000E0491C0A78002AFBD1DE
S1135700081A704784460870000A4870000A8870B6
S1135710000AC87060467047C37882784178007880
S11357201B021A4309021204084310437047000085
S11357300CB41CB5040004A80190009401AB0A0049
S11357406946084878441C3000F01BF80021009A90
S11357501170002801D40098001B02B0019910BCFC
S113576003B0084787ADFFFF70B5060008001400BA
S1135770002B05D01D002178B047641C6D1EFAD1A2
S113578070BDFDB586B00C0009E00123079A210025
S11357900698FFF7E9FF04000798401C0790079854
S11357A00078002801D109B0F0BD2528EDD1079873
S11357B04678801C0790252E00D195E0582E69D09C
S11357C0632E0ED0642E1AD0692E18D06F2E61D09D
S11357D0702E68D0732E70D0752E5BD0782E59D071
S11357E0DDE708980068089908600168001D089AB8
S11357F01060C9B22000069A90470400CFE70898C9
S11358000068089908600568001D08990860002D63
S113581004D52D212000069A9047040064266F2E9B
S113582001D1082106E020213143782901D00A2141
S113583000E0102101910B2100912F00642E03D16F
S1135840002D01D578420700009D6D1E009538009B
S11358500199FBF731FB3031C9B23A2902DB300040
S11358605138091802A84519297038000199FBF725
S113587023FB070002D000980128E5DA20000B2161
S1135880009A8C1AB9D02978069A90476D1C641E28
S1135890F9D1B2E708980068089908600568001D06
S11358A008990860BBE708980068089908600568CB
S11358B0001D089908607826B1E7089800680899DF
S11358C008600568001D089908602800FFF712FFAA
S11358D001002000002990D00C002978069A9047F6
S11358E06D1C641EF9D188E7252183E710B5914822
S11358F080680469683434228F492000FCF786FAF2
S113590020688E49884204D0FF2234212000FBF70E
S1135910D3FEFBF736FB002010BDF8B5854DA86813
S113592004694B20E0700220A07000266670267087
S11359305021E1710127A771607126715420E07232
S1135940A7726672267227637D4860632200103254
S11359500421280020302B69DB6A98472200143286
S11359600121280020302B69DB6A98472200183275
S11359700021280020302B69DB6A984722001C3262
S11359800221280020302B69DB6A9847220020324C
S11359900321280020302B69DB6A98472200443217
S11359A00521280020302B69DB6A98472200483201
S11359B00621280020302B69DB6A984722004C32EC
S11359C00721280020302B69DB6A9847A1694842E7
S11359D00021C9435B4A53420340C91A5A4A104042
S11359E0A065E16559482066594860666869E660C3
S11359F007E07822A35C0B4202D0E2681143E16025
S1135A00761C1821714341580029F2D1514801688C
S1135A1021644168E1638068A063686810300168AC
S1135A20616241680068081A401CA0622765002072
S1135A30F2BD0000F8B517001E003E4A91680969DE
S1135A400424454D401E17284ED801A31B5C9F44D7
S1135A5016262A2E3236429696464A58963A3E5E84
S1135A60647C82868A8E9692002E00D03460002F49
S1135A7000D039600020F2BD0C31F5E71031F3E7B6
S1135A801431F1E71831EFE72031EDE72431EBE78A
S1135A902831E9E73431E7E73031E5E7D069416996
S1135AA04969884728602900DEE710245831DBE77C
S1135AB02A480068F6E769461000203012699269A6
S1135AC09047684600780028ECD00120EAE70C24CF
S1135AD03831C9E74431C7E74831C5E74C31C3E73A
S1135AE05031C1E70831BFE71D48F2BD020011483B
S1135AF0806803691B48521E062A17D9093A0AD03E
S1135B00521E012A12D9D21E032A0FD9083A08D0EC
S1135B10921E0BD00CE0002901D0012909D1196390
S1135B2002E0032905D2196500207047401E704722
S1135B30801E704710F0FF1FC08300006B63666710
S1135B40FFEF0000487B00000000000000F0FF1F92
S1135B509710002058800440E4FAFF1F248004407A
S1135B603C2800003E28000010B50100A34A1000A4
S1135B70883003685C1C0460D218203211700168FC
S1135B808906890E016010BD0020704780B500F0C1
S1135B90C6F802BDFAB583B01700002901D0002F62
S1135BA001D104202CE000263E60944C200090306B
S1135BB00090467000F0B3F8002821D101AD02E056
S1135BC0A22000F082F820212000FBF795FD684612
S1135BD0027C210001A800F013F9002801D03E60E6
S1135BE00EE0210001A800F089F9A9888142E7D1DB
S1135BF001200099087003980460688838600020C8
S1135C0005B0F0BDF2B582B015001F00002944D0E4
S1135C10212D42D200F083F800284DD1774C20008A
S1135C20913000260178002900D0067020006030F1
S1135C3000905A2000990870A42000994870002F01
S1135C4002D0A52000994870200062300570290A0E
S1135C504170002D05D02A00029920006630FCF71F
S1135C60C1F821006631009800F048F964342070CE
S1135C70000A6070A91D009800F064F800281BD188
S1135C8001AC01A800F028F9002815D16078A128FA
S1135C9011D0A22805D0A32801D00420FEBD884835
S1135CA0FEBD00984188891D00F04CF8002803D1FE
S1135CB06078A228E5D00020FEBD824801218170D1
S1135CC00021017070472020704780B569465A2230
S1135CD00A70487001207C4908700221684600F06F
S1135CE031F802BD10B582B00400764801784278DC
S1135CF00A408078024210D1684600BF8DA10A880C
S1135D00028002226946200023695B6898470822C2
S1135D1089A1200023695B6898476C4816BD80B54B
S1135D20684800210278002A02D00170A12004E012
S1135D308278002A04D08170A320FFF7C6FF02BD39
S1135D40002002BD80B503006148C0690A00190043
S1135D5003695B68984702BDF3B585B0150000245C
S1135D60FAF7A3FF6A4603C2FA20800045432800DD
S1135D70FAF7A1FF02AA03C2564D0FE0686829682A
S1135D8088420ED01D49081820300078059908551E
S1135D90641C6868401C8006800E68600698844213
S1135DA029D0FAF782FF02000B00684603C81F00DF
S1135DB0161A8F41684603C88B420DD801D382421C
S1135DC00AD2684603C8C043C94312184B41002095
S1135DD0521C434116001F0002A803C8002901D128
S1135DE00028CBD002A803C88F42C7D301D886426B
S1135DF0C4D3052000E0002007B0F0BD70FBFF1FF6
S1135E0070B582B004000D00160000F065F800289B
S1135E1055D16078A62804D12D48C069FFF762FFE8
S1135E2076BDA421002E00D0A521884201D00120F6
S1135E3076BD142202216846FFF78EFF6946098861
S1135E40A170090AE170002839D1A078E178090627
S1135E50090C0843212801DB202004E0A078E17824
S1135E600906090C0843A070000AE07014220221FC
S1135E706846FFF771FF694609882171090A617153
S1135E8000281CD1A178E2781206120C114316D016
S1135E90A178E0780006000C01432800FBF72AFCF7
S1135EA0A078E1780906090C0843A178E278120683
S1135EB0120C11430A2242432800FFF74DFF76BD1E
S1135EC01227000000FCFF1F01FCFF1F1327000026
S1135ED010F0FF1FF8FBFF1F10B504000022012182
S1135EE02000FFF739FF002807D120785A28F5D180
S1135EF00A220121601CFFF72FFF10BD30B583B0CB
S1135F0004000D006846FDF79FF80422210068464E
S1135F10FDF79DF8A278E0780006000C0243290002
S1135F206846FDF794F801A96846FDF7ABF86846A2
S1135F3080883EBD5AA70000000201500000AAEA72
S1135F40002807D18020C000012901D14B4900E07D
S1135F504B49086070474B494068085C70474949A1
S1135F608A68002A08D04A6813780370521C4A6071
S1135F708868401E886070470021017070475A2865
S1135F8000D0704780B53F4A012353543E49116104
S1135F905169884701BD80B53A494969884701BDBF
S1135FA0F0B583B00400374E716100BF3EA0616854
S1135FB0890047586846FDF709FA012568460570C7
S1135FC0002101718570C5703048F060304830613F
S1135FD002216068A268904769463800FDF7FEF91F
S1135FE003213800FDF73CFA01216068FFF7A8FFA0
